:4000000000800020110000000D5F00000D5F000008B5044B1A6803F53F5302331A6005F07DFF00BFFA46004010B5054C237833B9044B13B10448AFF300800123237010BD1E
:40004000888CFF1F00000000F8C60000084B10B51BB108490848AFF300800848036803B910BD074B002BFBD0BDE81040184700BF000000008C8CFF1FF8C60000C880FF1FF0
:400080000000000070B50C4D0C4E002135F8313005EBC1009AB243889CB28388C0889BB280B2234403441344C3F38F0326F8113001310429EAD170BD4091FF1F3691FF1F0A
:4000C00003289DBF024B33F8100000B2002070473691FF1F38B54FF4804241F6FF730121022008F05FF80E4C0E4D207009F0ACFB062302460821287009F0C0FB0A4A45F6FB
:40010000A03192B2287809F0CBFB2978207809F06FFB20780121BDE8384009F003BB00BF8A91FF1F3E91FF1F8091FF1F08B509F001FE05F0A3FC09F033FE08F0B7FD08F0F6
:4001400037FE08F009FDFFF7C5FFBDE8084008F021BD00002DE9FF41294B05461B780F46002B4AD14FF458724A43264EB418B25C824242D00228A4F81832A4F81A32A4F83A
:400180001C32A4F85832A4F85A32A4F85C32A4F81031A4F81231A4F81431C4F82031C4F80832DFF86C8005D1084600F081F9C4F8280206E0042813D1084600F079F9C4F840
:4001C00068020246C31700210120CDE90201CDE900011946104601F0CDFB0B4B186001E0062801D0002300E0012388F800304FF458735F43054BF5551D7004B0BDE8F0812D
:40020000528FFF1FD091FF1FBCFEFF1F9091FF1F2D8DFF1F2F4B002118460A46425401F55871B1F5D86F1A815A819A81DA811A825A825A619A61C3F8F820C3F80021C3F842
:400240000421A3F81822A3F81A22A3F81C22A3F81E22A3F82022A3F82222C3F82422C3F82822C3F83C22C3F84422C3F84822A3F85822A3F85A22A3F85C22A3F85E22A3F8DD
:400280006022A3F86222C3F86422C3F86C22C3F86822C3F84823C3F85023C3F85423A3F81021A3F81221A3F81421A3F81621A3F81821A3F81A21C3F81C21C3F82021C3F8B3
:4002C0000022C3F80822C3F80C2203F55873A5D1704700BFD091FF1F2DE9F0412E4C4FF4587303FB02472D4ED7F83C52C7F82412C7F82802B1607060401AD7F84412C7F8F5
:40030000405200EB010E451B06214D43D7F8481203FB024305EB41052149C7F844E28E45C4BF0131C7F84412ED101E49C7F83C02C7F848524FF45878D3F8447208FB0248F1
:400340008F42BCBF01F1FF31C3F84412D8F844120A2791FBF7F7B8F81AE2B8F818420EFB07F7FA2397FBF3F7B8F81C32F06060435D43642490FBF4F095FBF4F3F06138440B
:40038000C418204611463762736200F071FB3461D8F83C02BDE8F081D091FF1F9091FF1F3F420F00C1BDF0FFF0B5214C4FF4587303FB0245D5F80862411A1E4F0E4403FBB2
:4003C0000243BE42C8BF1C4EC5F80012C5F80862D3F80862194D85B0AE42BCBF05F1FF35C3F808524FF4587303FB0244B4F81031594309120191D4F80832B4F812114B436C
:400400005B1302930E49019D029BD1F8B8112B44252505FB01330A2190FBF1F0184403900398114600F024FBD4F8000205B0F0BDD091FF1F9F860100A08601006179FEFF4E
:40044000A8FFFF1F0C4A4FF4587303FB0020D0F86412D0F86832B0F858225B1A02FB03F1D0F86C32B0F85A225B4253439B1103EB6123C0F820317047D091FF1F07490B7820
:400480005B0303F4C0428B7D1B0303F4805313438A8AC2F30B0213434B8370479091FF1F024B00229A829A75704700BF9091FF1F0C4B30B51A680C490C4D5A604FF458732C
:4004C00003FB00504A6A8B6A1468C0F864421B68C0F86C321368C0F824321368C1F8E433106830BD9098FF1FD84D0020D091FF1F07B5002300936A46CDF803303B2107236F
:40050000682001F08FFC03B05DF804FB07B5002300936A46CDF8033043210623682001F081FC03B05DF804FB38B50E4C013920700123934204DC11F8010FE0540133F8E7C2
:4005400001320525D4B2002322460649682007F03FFC20B10A2009F037FA013DF3D1002038BD00BFA498FF1F07B5802302A901F8013D01226B20FFF7D7FF03B05DF804FBED
:4005800007B5FFF7F1FF192009F01EFA054B042218680DEB020101901A20FFF7C5FF03B05DF804FB08C7000008B508F015FA07F02FFE034A01231370024A137008BD00BFD4
:4005C000C58CFF1FC78CFF1F08B505F019FE05F037FE002005F088FD002008F09FF9002008F0CAFABDE80840012005F031BE000007B500238DF8073009F0A6FB8DF807004F
:400600009DF807301B0604D49DF807305BB2032B02DD00238DF807301D4B1A789DF807101A4449B251701A780132D2B21A7019780A22B1FBF2F000FB12121649D2B21A70C6
:400640009DF807200888144B52B280B223F832009DF80720488852B203EBC20280B250809DF80720888852B203EBC20280B290809DF80700CA8840B203EBC00392B2DA8015
:4006800005F0FCF9054B01221A7003B05DF804FBA48CFF1F8091FF1F4091FF1FBA8CFF1F014B0122DA727047A48CFF1F10B5054C30220549606902F0F0FD237901332371FA
:4006C00010BD00BF0822002070FDFF1F08B5002005F0BEFDBDE8084005F084BD08B507F0FFF9024B01221A7008BD00BFB98CFF1F70470000F7B500268DF8076008F05EF899
:400700002A4C8DF807002378294D7BB9267808F067F8F6B225F816002378264A0133DBB22370254B1B889BB213803CE0277808F057F8FFB225F817002378204CDBB235F8A8
:4007400013001F4BC0F30D0018801E4B012221461A6002F00DFBD4F8C0011B4B1B4C596B40F3CF0000F058FEE37A13B101F020FFE672237B132B05D9104802F017FB134BDA
:4007800000221A7344F61F62237B01332373E389934208D843F2B062934201D901F0E6FFE3890133E38103B0F0BD00BFC28FFF1F5E90FF1F4A640040C08FFF1FA8FFFF1FBC
:4007C0005C90FF1F5890FF1FD84D0020A48CFF1F43F6FF7002F0FEB880B501F0C2F903F0C9FC01F093FD00F04BFA03F04BFC04F0E9FE04F0E9FE00F02FF90F4D0F4C104E9A
:400800002B78012B14D100272F7023780D4ADBB2337052F823309847FF23337023780133DBB2092B237088BF277001F015FCE7E701F004FCE4E700BFC58CFF1FC68CFF1FB0
:40084000F480FF1FCC80FF1F40F2E631054A0020138801339BB28B428ABF108013800120704700BFB48CFF1F054A0020538801339BB2622B8ABF508053800120704700BF9F
:40088000B48CFF1F00000000B0F9062038B54FF47A735A434FF4005192FBF1F2C0F8A423B0F9082000255A4392FBF1F2C0F8A823B0F90A200446534393FBF1F3B0F900205A
:4008C000C0F8AC3364235A43A42192FBF1F2C0F89823B0F90220C0F8B0535A4392FBF1F2C0F89C23B0F90420534393FBF1F3C0F8A033036AC0F8B43390F82C000BF0D8FA9E
:400900004FF083410BF02CFB31490BF0DDFB31490BF01EFA4FF068510BF022FB0AF0E6FE25A3D3E900230AF035FF25A3D3E900230BF05AF80BF0DEF9C4F8B80394F82D00FF
:400940000BF0B6FA24490BF00BFB21490BF0BCFB22490BF0FDF94FF068510BF001FB0AF0C5FE15A3D3E900230AF014FF16A3D3E900230BF039F80BF0BDF945F2140340F2A1
:40098000145194F82E20C4F8BC0301FB0233DB12323BC4F8C033C4F8C453C4F8C853C4F8CC53C4F8D053C4F8D453C4F8D853C4F8DC53C4F8E05338BD000000000088B340CB
:4009C0006ADE718A8EE4B23F85EB51B81E85DB3F00004040000097430000D0410000DC43194B10B51A88194CE2805A8822819A886281DA8822801A895B896280A38000F0F5
:400A0000CDFEA0810020FFF75BFBE0810120FFF757FB0F4B2082D3F81C31204623620D4B1A8884F82C205A8884F82D209A7984F82E20DA791B7A84F8302084F83130BDE815
:400A40001040FFF721BF00BF0899FF1FD84D0020D091FF1F2099FF1F08B5012007F004FB012008F0B1FFBDE80840002007F0FCBA13B50023044602A800F8013D00F01EFAC3
:400A80009DF8073073B14CF25033A342A8BF23460A4A9342B8BF134640F24122534393FBF0F000E01846064B1B78002B18BF0020044B00B2586302B010BD00BFB03CFFFF16
:400AC000358FFF1FD84D0020134BD96849F28603A1F58442693A9A4216D84CF250339842A8BF18460D4A0B119042B8BF10464C22504390FBF3F3B3F5806F07DAA2F24C4225
:400B00009342B8BF134603E0002301E04FF48063034A5363704700BF2099FF1FB03CFFFFD84D002070B54FF4804341F6FF720121022009F093F8064608F086FE05462B4C5F
:400B400000230246022108F099FE46F65222A1B2284608F0A5FE2946304608F049FE0121304608F0DFFD4FF4804341F6FF720121022009F08FF8064608F066FE0546002334
:400B80000246022108F07AFEA11C46F64C2289B2284608F085FE2946304608F029FE0121304608F0BFFD4FF4804341F6FF720121022009F08BF8064608F046FE054600231B
:400BC0000246022108F05AFE211D46F6460289B2284608F065FE2946304608F009FE3046BDE87040012108F09DBD00BFC88CFF1F08B501F0C7FC08F0E9FB40F2EF1008F0AA
:400C0000F3FB08F033FA40F2EF1008F03DFA08F00DF940F2EF1008F017F940F2EF120C4B1A805A809A80FFF77DFF09F06DF8012008F0CCF8002009F0C1F8012008F0C4FE98
:400C400001F036FA00F06CFABDE8084001F08DBAC88CFF1F024B188059809A80704700BFC88CFF1F08B507F065FE07F0A7FE4FF47A6007F0B7FEBDE8084007F0B1BA0000DB
:400C800008B5052008F0A0FE01F094FEFFF7B0FFFFF7C0FAFFF7E6FF01F0B8FE00F0DEFC00F046FDFFF742FA01F00EF862B601F029F8FFF765FC192008F086FEFFF760FCB4
:400CC000192008F081FEFFF75BFC192008F07CFE01F020F800F0A8FD01210022084600F029FF00F0A5FFBDE80840014801F0D9BEA8FFFF1F154B10B51988847A144A8C42FD
:400D000001D31C8006E014680134322C146003DD01391980002111601988B0224A4302F51C520732DA60C27A5A80427B9A80827B9A71027ADA71427A1A72064B1B78012BA9
:400D400002BF024B62F07F021A7210BD2099FF1FD08CFF1FCE8CFF1F0E4B0246DB79C3F30113012B02D10370002311E0022B0A480BD103790133DBB2192B037109D90020D9
:400D8000012310700B70FFF79FBE0023037113700B7070472099FF1FD08CFF1F70B5164D0E462B785C0725D5144B06221870002483F86E20FF221A7483F850402B78D907CF
:400DC00006D50134A64203D3012008F013FEF5E70B4B46221A702A78D207FCD5064A60211278197002F0020202F0FF0002B970BD032070BD022070BD646500400664004086
:400E00002C5E002070B515460446154800235A1CDBB2AB4203D2C65CCE541346F7E70021112007F067FC0646B8B920464FF4FA71FFF7B4FF044640B10A4B0220FF221870FD
:400E400003F85E2C03F81E6C70BD0123EAB20449112007F0EFFB204670BD012070BD00BF3099FF1F7464004013B5082200246946104600940194FFF7C5FF23460648C218EE
:400E80001DF803100133082B1172F8D10248FFF731FF02B010BD00BFD58CFF1F054B1B78022B054B04BF01225A7708B100225A77587F7047458FFF1FD08CFF1F194B10B544
:400EC0009C89194BDA8BA242184A01D8146007E0196A01310A29196204DD11680139116000211962DC8349F288041168A1F58443683B9BB2A34201D8012300E00023B1F50F
:400F00007A5F0370DCBF4FF47A5313604FF6FE731168994203DD4FF6FF71044B1960108810BD00BF2099FF1FD08CFF1FF880FF1F38B514461D460AA3D3E900230AF02AFC7F
:400F400022462B460AF050FD09F00EF806A3D3E900230AF01FFC08F0B7FF0AF0CBFE38BDA7E8482EFF2119400000000000F07E4038B514461D460AA3D3E900230AF00AFCED
:400F800022462B460AF030FD08F056FF0022064B0AF000FC08F098FF0AF0ACFE38BD00BFA7E8482EFF21194000009040F7B500230093594B0C461A880621B2FBF1F3574EEF
:400FC00001FB132332889BB28242374612DDB6F8FA5002F58042521B7D33009293FBF1F201FB1233009E00F58040401B06FB0301019148E07588A84206DAAD1A009500994D
:40100000801A01FB030020E0B6F8FA50A8420DDB02F58042521B7D33009293FBF1F201FB1231009E401B06FB01000EE0B6F8F860B0420CDB7C3393FBF1F2AD1B01FB123146
:401040000095009D801B05FB010001901BE0822290FBF2F2BE4637F81250A84201DA561E57E0561C3EF81610884252DA1344491B0622009193FBF2F102FB1132009E401B1C
:4010800006FB02030193009B062058430AF01CFB06460F46019D28460AF016FB32463B46FFF746FF20800098019B03EB40000AF00BFB32463B46FFF73BFF60800098019BFE
:4010C00003EB80000AF000FB32463B46FFF730FFA08001980AF0F8FA32463B46FFF748FFE0800098019B03EB40000AF0EDFA32463B46FFF73DFF20810098019B03EB800083
:401100000AF0E2FA32463B46FFF732FF608103B0F0BD32469FE700BFFC80FF1F50DAFF1F70B52C4C0021204600F0FBFFB4F8FC20294B2A4C2A4E1A80032528462749FFF70B
:4011400035FF681C2749FFF731FFB4F90C20B4F9001045F3CC031144022291FBF2F1B4F9020026F81310B4F90E100835014491FBF2F11D4820F81310B4F90400B4F91010D2
:40118000014491FBF2F1194820F81310B4F90600B4F91210014491FBF2F1154820F81310B4F90800B4F91410014491FBF2F1114820F81310B4F90A00B4F91610014491FBE8
:4011C000F2F20D4921F8132044F203039D42B4D170BD00BF50DAFF1FFC80FF1FF48CFF1F48A9FF1F008DFF1F4CC9FF1F4899FF1F54EBFF1F54DBFF1F48B9FF1FF8B5804C2F
:401200007F4AA3690133B3F5C87FA3BF0023A361E369A361A4BF0133E361E369832B7BDC01211162062193FBF1F201FB1233052B2CD8DFE803F003090F161D2440F2D113CD
:4012400063624FF4FF7311E040F2D1134FF4FF72636212E04FF4FF736362A36240F2D11313E04FF4FF73636240F2D113A3620CE040F2D1124FF4FF736362A26205E040F2CF
:40128000D1136362A3624FF4FF73E362A08CA28D218DFFF7DFFCA069594DC82840F3AE80584BD3F8C83003F500422B6B13446A6B2B63511C40F28F129042696340F09E8090
:4012C000E8697E2290FBF2F502FB1505022291FBF2F2134493FBF1F24B4B1340002BBEBF03F1FF336FEA83436FEA9343474AB8BF013322F81530464A9BB25168994207DD23
:401300000621536090FBF1F301FB130095601080002323636363F8BD136A012B6ED140F2DE323B4D11461046FFF794FCAF68DFF8E4E03A46DFF8D4C00026D01B7D2A034629
:40134000344906DC3CF8123001262EF810300132F3E706B1AA60AA68DFF8B0E0161A76000027121A7D2B02EB030009DC06EB4300704430F8FC0C012721F813000133F1E7D6
:4013800007B1A8602B88A1F8FC300123A1F8FE30002384F838301F4B03F1FA0033F8022F33F8026C921B413A822A03D9012384F8383001E08342F1D10B88C32B08DC154BD1
:4013C000B3F8FA30A3F57C533C3B9BB2C32B02D9012384F8383000210E4800F071FEFFF79FFE0120FFF75AFD43F6FF7200236A604FF0FF32E361A361AA602362F8BD00BFF3
:40140000F48CFF1FA8FFFF1FFF3F00804CD9FF1FFC80FF1F50DAFF1F2DE9F047DFF870A18046DAF8200089465546002840F09880FFF734FD4B4C4C4E4C4F28B94C4B1B78A1
:4014400013B99AF838301BB140F2EF1323602BE09AF839305BB3474B03221B8840F2D3311B0193FBF2F303F5977303EB4313DB1103FB03F292FBF1F2AA214B43A2EB23232F
:40148000BE33962B03DD9623CAF83C3006E000229342ACBFCAF83C30CAF83C20EB6B03F2EF13236040F2EF1333603B602DE0324BDAF8401033F91820304B4FF4806033F913
:4014C00018304B4309FB023393FBF0F303F2EF1323602B4B33F918202A4B33F918304B4309FB023393FBF0F3274A03F2EF1332F9182033605143254B33F9183009FB031109
:4015000091FBF0F101F2EF11396040F2DD312268144B8A4201DD196003E0002ADCBF01221A6040F2DD3132680F4B8A4201DD196003E0002ADCBF01221A6040F2DD313A68A3
:401540000A4B8A4201DD196003E0002ADCBF01221A603A8831882088BDE8F047FFF77ABBBDE8F08748C9FF1F4CDAFF1F50DBFF1F358FFF1F2099FF1F48A9FF1F54EBFF1F87
:401580004CC9FF1F54DBFF1F48B9FF1F4899FF1FF48CFF1F38B5154C154D1422D5F8FC1104F1440002F094FD0A2104F1440002F0B7FD2A78234602B146220E490E48C3F8DB
:4015C0001C21D1F8B8210280D3F818214280D1F8B801D3F81C1141434A430849C96892FBF1F2952192FBF1F21A6438BDF48CFF1FD091FF1FA8FFFF1FF290FF1F2099FF1F55
:4016000010B50446002004F06FFD07F075F9012008F0F0F9012007F0AFFA012008F0EAF9012007F07BF9012008F0E4F92046094B04F1300250F8041B904243F8041BF9D137
:40164000054B0121187808F06DF8BDE81040012004F04ABD0DFDFF1F6EFDFF1F38B50121042006F09BFC07F00FF907F01FF907F035F9012141F6FF734FF48042084604F044
:40168000E1FC254C254D207008F0DEF8062302463021287008F0F2F8214A46F24E4192B2287808F0FDF82978207808F0A1F80121207808F037F804F0E3FC01214FF4804327
:4016C00041F6FF72084604F0F3FC164C164D207008F0BAF83523FE223021287008F0CEF8124946F2404289B2287808F0D9F82978207808F07DF80121207808F013F804F0E3
:40170000FBFC002007F038FA04F024FD04F06AFDBDE8384004F07CBDABFCFF1F6DFDFF1F70FDFF1F6EFDFF1FD1FDFF1F0DFDFF1F70470000C3785BB9064901238B76064B6F
:401740000A201B78033393FBF0F200FB1233CB76704700BF08220020C68CFF1F13B50C46102301A98DF804308DF8050000230222282006F001FF642008F03CF9002302229E
:4017800001A928208DF804308DF8054006F0F4FE642008F02FF902B010BD0000014B1888704700BF188EFF1F09498A88CB8808899BB292B21A4480B28318488980B2184420
:4017C000044BC0F38F005883034B1880704700BFACFEFF1FE0FDFF1F188EFF1F38B54FF4804241F6FF730121022004F0F7FB054608F02AF80446062302460C2108F03EF85A
:40180000084A44F6106192B2204608F049F82146284607F0EDFF2846BDE83840012107F081BF00BFACFEFF1F08B506F04FFC06F03FF907F0C5FEFFF7D1FF04F0EDFB064BCC
:401840007D203221002218705970DA825A83BDE80840FFF783BF00BFE0FDFF1F2DE9F84FDDE90CAB42F21079824273EB0104DDF82880334CB9BF4FF0FF364FF0FF370126AB
:401880000027121A63EB0103C4E90401A8FB09010B9DC4E90067C4E902ABC4E9062309FB051152465B46C4F8208065620AF0A8FC0A220023C4E90A010AF0A2FC064694E8BD
:4018C00009000F46A0FB090109FB0311454308FB0155A0FB0801324629443B46C4E90C670AF08EFC82468B460020054602460346014680468146C4E90EAB20646064B04235
:4019000071EB070E0CDA18EB0A0849EB0B0912EB080243EB0903013041F100010125EEE70DB1C4E91023D4E91001064A00230AF067FCC4E9100100200021BDE8F88F00BF2D
:40194000388EFF1F8096980030B50D4604460849C1E91C23121A63EB050392185B41C1E91823DDE90323C1E91A45C1E9162330BD388EFF1F2DE9F04FDFF888818BB000242F
:40198000DDE916AB0025BAF10B0FC8E91245DDE91467C8F85040C8F878407BF10004CDE90801CDE90423444613DA022E77F100044FF0010404DAC8E92023C8F8784005E013
:4019C000CDE90067FFF7C0FFC8F850403046394694E0002E77F1000302DA764267EB4707DDE90423CDE902ABDDE9080100960197FFF734FFD4E90689B8F1000F79F10003A8
:401A00003D4603DAD8F1000869EB4909D4E91023002A73F10001CDE9068902DA524263EB4303901843EB0301804579EB010125DA0AFB09F3AAFB080108FB0B33194409F0BD
:401A40007BFE08F0D9FA0AF03BFCDDE904230090019106460D46DDE90801CDE902ABFFF7FDFEA269002AB8BF52421046D117226CCDE90601002AB8BF5242D31742F2107E76
:401A8000DDE9060192185B41801A61EB03010B460246A0FB0E01C4E932230EFB031132462B460AF0ADFB4FF47A73A0FB038903FB019942F210720023404649460AF0A0FBCA
:401AC000002871F100030F4F02DBC7E9340103E000220023C7E93423D4E90C67D4E9340180197941C4E92E018019794100220023C4E92C67C4E93001C4E922230BB0BDE8B1
:401B0000F08F00BF388EFF1F084A137A0133DBB2F92B01D81372704700231372044B187880F00100187004F0FDBA00BF188FFF1F0881FF1F38B50D46144600F0010080F059
:401B4000010004F0FBFA05F0010080F0010006F04FFF04F0010080F00100BDE8384006F053BF002208B511460120FFF7E3FFFA2007F02AFF002210460121FFF7DBFFFA2058
:401B800007F022FF002108460122FFF7D3FFFA2007F01AFF002210461146FFF7CBFFBDE80840FA2007F010BF70B51F4CE568632D05F1010594BF01260026C72D88BF0025C4
:401BC000E5602674194D13B14FF4FA636B606B6813B1164E013B7360012A02D0637C012B03D101236374217C11E001290FD001280FD06C682CB900F059FB214602462046DF
:401C00000DE000F053FB00220146104607E0002000E0014642424842D2B20021C0B2BDE8704000F0FFBA00BF188FFF1F0881FF1F38B50121002004F023FC40F6C41504F0F9
:401C40005DFC044638B9013D0120ADB207F0BCFE002DF4D104E004F0E7FD024B01241C70204638BD2A8FFF1F10B5054C237833B904F044FC18B104F0D7FD0123237010BD9D
:401C80002A8FFF1F08B504F025FE58B1064804F035FE38B1BDE80840421C92B20249034801F0A7BD08BD00BFC0FEFF1FF82D002038B504460D4604F017FE20B12046A9B2CE
:401CC00004F0EAFD012038BD08B506F057FABDE80840002006F060BA38B5094D2C78013404F003042C702CB1012C08D1FEF70EFC6C7004E0FEF7FCFB02236B7038BD38BDA7
:401D00002B8FFF1F024B4FF400421A6005F036BF00E100E0024B04221A6006F0D1BA00BF00E100E070B5144B0E461B785C0721D5124B134C18700423237000252378D90784
:401D400006D50135AE4203D3012007F053FEF5E70C4B46221A702278D207FCD5084A60211278197002F0020202F0FF0002B970BD032070BD022070BDD9490040D8490040A3
:401D8000D7490040185E002010B5224B04465B78012B10D1017842781F4B42EA0122DA808178C27842EA01221A810179427942EA01225A8110BD022B10D101784278164BA0
:401DC00042EA01221A808178C27842EA01225A800179427942EA01229A8010BD032B0DD10E4800F031FE6378207803F03F030B4903EB8010BDE8104000F07EBE042B08D10F
:401E0000074A431E083413F8011FA34202F8011FF9D110BD2B8FFF1F0899FF1FB802002087FEFF1FF8B50C46054614481E460023591CDBB2B34203D2C75CD7540B46F7E769
:401E40000E48FFF7A1FF0021284606F06FF8074690B920464FF4FA71FFF764FF044618B1074B02201F70F8BD0123F2B20349284606F004F82046F8BD0120F8BD56FFFF1FE4
:401E8000D7490040FFF728BF08B5FEF7A9FDBDE80840FEF7E9BF000008B5064BD3F8FC0100F066F9FEF7E0FC18B100F07DF9024B187008BDD091FF1F458FFF1F08B505F021
:401EC00007FEBDE80840FFF76FBC000070B5184CFFF71AFE00F0F0F92388154DB3F57A7F98BF013305F1020105F1030098BF2380FEF732FF2379A278E1786079FFF754FEE4
:401F00002279002302B12B710A4E094D3046A37101F0A8FC28B1B6F8523B13B1AB790133AB71A37913B1024B01221A7170BD00BF2E8FFF1FF82D002008B50020FEF7B8FA10
:401F4000034B9B791BB9BDE8084000F079BA08BD2E8FFF1F70B5194C194D0026B4F8BA3423B1204601F02AFBA4F8BA6404F65434AC42F3D1134B1A78F2B9134C2378022BCB
:401F800006D1D4F82412D4F82802FEF7A5F904E0042B02D11046FEF755FA217811B90846FEF766FD094BDB7933B1002121700846BDE87040FEF75CBD70BD00BF3C290020D6
:401FC000384B0020528FFF1FD091FF1F2E8FFF1F034AD2F810340133C2F81034704700BFF858002010B5074C3221074802F098F8FFF7D0FA23781BB1FEF744F80023237028
:4020000010BD00BFBA8CFF1FF892FF1F10B5094C2378DB0705D5FFF7F1F8074B1B6803B92370FEF711FC18B1BDE81040FFF71CBE10BD00BF528FFF1F148DFF1F034B187ADA
:4020400080F00100187206F0EBB800BF2E8FFF1F012001F033BC000010B5124C03F0F6F8201D00F095F900F0D1F9637A83F0010363720BB1FFF7ECFF0B4B1A780B4B52B9A9
:4020800019780339012906D8D3F8FC11D3F82001FEF78AF902E00022C3F80822BDE8104000F0C8B82E8FFF1F528FFF1FD091FF1F08B506F0F2FEBDE80840052007F09ABC66
:4020C000F0B50C4685B006461022002168460AF002FB24B1012C22D13C25142701E02746132506F0F0FE3C46AC4218D2E21B06EB0212002332F8130004A901EB43010133A8
:402100004FEA102E082B01F810EC01F80F0CF1D1E1B26846013406F0DBFEA4B2E4E705B0F0BD2DE9F843804629B101291BD14FF4F079A02502E00D464FF098092C464C45D2
:4021400011D26600B6B2304606F0A9FE0746701C80B206F0A4FE631B40EA0720013428F81300A4B2EBE7BDE8F88306F073BE00000A4910B50B680C24013393FBF4F204FBF0
:4021800012330B604BB9064A1378072B03F1010111709CBF034A22F8130010BD1081FF1F3C8FFF1F6EFFFF1F00221346184830F9131001330029B8BF4942082B0A44F6D154
:4021C0009212144BFF2A1448A8BFFF2230F812005A680021024441F2D770824285BFA2F5BE52173A59605A605A681970642151430A48B1FBF0F11972094B9A4205D901386A
:40220000824294BF0120022070470020704700BF6EFFFF1F3C8FFF1F0CC7000028F90600AF950500024B187059709A70704700BF468FFF1F38B51C4CE57865B9284603F0FE
:402240007DFF284606F0D4FB284606F0DDFB012323716371A3712379134D43B1EA782B789A4204D3012003F069FF00232B7163790D4D43B1EA786B789A4204D3012006F0B7
:40228000B7FB00236B71A379074D43B1EA78AB789A4204D3012006F0B7FB0023AB71E3780233E37038BD00BF468FFF1F014BD879704700BF468FFF1F0A494FF47A700B8925
:4022C00001339BB2B3FBF0F200FB12339BB2B3F5F97F0B8188BFC31A4B814B895B08CB71704700BF468FFF1F014B1878704700BF528FFF1F012807D0C30704D402288CBF60
:402300000020012070470020704700002DE9F043184D194FDFF87090DFF8708085B0002440F65430E6B23A5D314600FB049001F01DF9A5F59C711148E25D02914FF4E8715D
:4023400001FB04019623634301910D490D481944009131463426039506FB04004344013400F0A3FE032C05F51C75D9D105B0BDE8F08300BF6C180020D490FF1FC41100200C
:402380004620002008220020A4220020841E002070B5194D06466C795CB100236B71174800F032FF831E5C425C41154B187807F0E1F995F839305BB10F4B002283F839206E
:4023C000104800F021FF022814BF2046601CC4B295F86D305BB1084B002283F86D200A4800F012FF022814BF2046601CC4B20CB10123337070BD00BF0822002034170020A0
:40240000ABFCFF1FA4190020141C002010B5094CA37E012B0DD1084BE27E1B789A4208D1064890F83E1100F23F10FFF7E9F80023A37610BD08220020C68CFF1F34170020FF
:402440002DE9F0432F4BC1B01B78002B56D02E4C2E4E2368328801339A4223604EDCDFF8C8902B4FD9F800805FFA88F35D2B1FD140F65435DFF8AC80264B98F8002005FB23
:4024800002353B880027A37102F0F8FE224698F80030E07102F8043F85F83D742B46394699F8000001F01CF920B3A5F8527B21E0194B1A491D461A7848880132D2B2904241
:4024C0001A7038BF0B884FF480724FF00001684638BF2B700AF0FFF83B88114A8DF800302B7810498DF804300C2303FB08F36846D3589847236832889B1A236041B0BDE8A7
:40250000F08300BFB890FF1F548FFF1FC08AFF1FBA90FF1FA4220020BC90FF1F1C580020AC0B0020C28AFF1FBC8AFF1F38B54FF4804241F6FF730121022006F0C3FD0E4CBA
:402540000E4D207007F080F9062319460246287007F094F90A4A45F6A23192B2287807F09FF92978207807F043F920780121BDE8384007F0D7B800BFA4FFFF1F7EFFFF1F5B
:4025800080FFFF1F08B506F003FE06F039FE06F0DFFE07F0A1F8012007F016FAFFF7C6FF06F07AFDBDE80840012007F00DBA00006449654BB1F90020B1F90200B1F904108D
:4025C0002DE9F04F1A8058809980604B604C1E685D689F685F4BD4F8B0B11B78002BD4F8BC31D4F8B0A1D4F8BC81D4F8B091D4F8BCE16FF03B0404FB0BF44FF47A7B94FB05
:40260000FBF414BF4FF4805C4FF0000C63441C44514B04F580442340002BBEBF03F1FF336FEA83436FEA93434C4CB8BF0133DB1034F913406FF063039AFBF3FAE044D04462
:40264000454B08F5804808EA0303002BBEBF03F1FF336FEA83436FEA9343DFF80881B8BF0133DB1038F913806FF06D0303FB09F94FF47A7399FBF3F9E644CE44364B0EF5F8
:40268000804E0EEA0303002BBEBF03F1FF336FEA83436FEA9343DFF8D0E0B8BF0133DB103EF913E0294B4FF0000CC3F80CC0C3F810C004F1F00CBCF5F07F09D940F2EF1CEA
:4026C000C01B0CFB00F090FBF4F40120DC60186108F1F000B0F5F07F0BD940F2EF10891B414391FBF8F8D9684144D9601969013119610EF1F001B1F5F07F0BD940F2EF11C1
:40270000521B4A4392FBFEF2DD682A44DA601A6901321A6119690D4C002908DDE0686FF01702504390FBF1F0C117C4E90601BDE8F04F0B4899693222C0F81C1100F5947065
:4027400001F0C6BC80FFFF1F92FFFF1F608FFF1FA8FFFF1F2D8DFF1FFF3F008048A9FF1FD091FF1F4CC9FF1F4899FF1F124B70B5124C596AB4F904001A6A0844B4F9006041
:40278000D96AB4F90240551C9A6A0C440221164495FBF1F25862DC6210441444324494FBF5F490FBF5F092FBF5F21D629E629C6018605A6070BD00BF608FFF1F92FFFF1F67
:4027C0002DE9F043D1E90067DDE90789C1E90267002AD0E900670C46C0E90267C0E9008903DD322AA8BF322200E00122013A184B4FEAC20E03EB0E014D6818EB060808FBBF
:4028000005F553F8320049EB070900FB0955A0FB080103F5C87329449E44E56853F83230DEF804605D43A768A3FB072307FB0655821A2B4461EB0303120C42EA034218143E
:402840002260920A606042EA8050BDE8F08300BF1881FF1F2DE9F043D1E90067DDE90789C1E90267002AD0E900670C46C0E90267C0E9008903DD322AA8BF322200E0012243
:40288000013A184B4FEAC20E03EB0E014D6818EB060808FB05F553F8320049EB070900FB0955A0FB080103F5C87329449E44E56853F83230DEF804605D43A768A3FB0723C6
:4028C00007FB0655821A2B4461EB0303D20B42EA4342D81322605209606042EAC060BDE8F08300BF3884FF1F2DE9F043D1E90067DDE90789C1E90267002AD0E900670C469C
:40290000C0E90267C0E9008903DD322AA8BF322200E00122013A184B4FEAC20E03EB0E014D6818EB060808FB05F553F8320049EB070900FB0955A0FB080103F5C873294494
:402940009E44E56853F83230DEF804605D43A768A3FB072307FB0655821A2B4461EB0303520B42EAC34258132260D208606042EA4070BDE8F08300BF5887FF1F2DE9F04104
:402980000021804601F0BFFB002407462546084EC4F10401404601F0B6FB56F824300134C01B042C03FB0055F2D12846BDE8F0818C8AFF1F08B505F059FF054B4FF44042A2
:4029C00008201A8005F0F4FEBDE8084006F046BAC08FFF1F10B5044640F4804009F060FC10B144F4404003E0C4F30E0444F48040044B00241880044B9C7005F0E5FE2046C5
:402A000010BD00BFA8020020C08FFF1F06F0E8BA10B5044606F0F2FAD4F8F022094BC4F8F002186002F59C4320339842D4F8F4321344C4BF03F57D43E8331B1AC4F8F43239
:402A400010BD00BFB48AFF1F10B50446FFF7E0FFD4F8F432C4F8F8320023C4F8F43210BDD0B5A0F1080100F1500400260027E1E90267A1424FF000024FF00003F7D1C0E925
:402A80001623C0E91823C0E91A23C0E91C2300238367C367C0F88030C0F88430C0F88830D0BD38B50446002501F0FEFA04F1D80001F0FAFA04F5E870C4F8B051C4F8B4515D
:402AC000C4F8B851C4F8BC51C4F8C051C4F8C451C4F8C851FFF7C4FF04F51870FFF7C0FF42F21073C4F8F052C4F8FC32C4F8F452C4F8F85238BD00002DE9F74FD1F8BC2148
:402B0000974B821A9A420C46D1F8C83101DA013304E041F288318A4202DD013BC4F8C8312646D4F8C82104F50877C4F8BC0100EB8230F6E98623C7E900232746F7E98423AE
:402B4000C6E9002326468046F6E982234FEAE0790020C7E9002302460346824D0727C5E90489A861E8612F6276E90201013F12184B41012FC6E90201F6D12746F7E97401D9
:402B800012184B4118EB020849EB0309C5E90689754A0A23013B72E90201C2E90201F9D14FEAD80A4AEA497A4FEAE90BC5E90AAB2B62D5E91E23BAEB020AD4F828224FF0A3
:402BC0000A086BEB030BA2FB082304F50A7041681AEB0A0A08FB0133C5E9202342F21072D4F8FC324BEB0B0B93425E4E20D104F52E71CDE900AB0522FFF7E2FDD6E92023D5
:402C0000C4F8E002CDE9002304F53271424604F50E70FFF7D5FDD6E90423C4F8E402CDE9002304F5187114223846FFF7C9FD45E0FA2B20D104F52E71CDE900AB1422FFF707
:402C400053FED6E92023C4F8E002CDE9002304F53271424604F50E70FFF746FED6E90423C4F8E402CDE9002304F5187114223846FFF73AFE22E0B3F57A7F21D1142204F52C
:402C80002E71CDE900ABFFF7E5FDD6E92023C4F8E002CDE9002304F53271424604F50E70FFF7D8FDD6E90423C4F8E402CDE9002304F5187114223846FFF7CCFDC4F8D80271
:402CC000D4F8D0314FF4B471C4F848324B439B13C4F84C32D4F828324FF4B772C4F85032C4F854325343642093FBF0F3C4F85832D4F8D8325943D4F8E03289135A4392FBFA
:402D0000F0F2C4F8E822AA6A5B425242C4F8B421C4F8B831C4F8DC122046FFF779FED4F8F43203F13502D4F8E03253434FF47A7293FBF2F2D4F8BC31134403F580420B4BA1
:402D40001340002BBFBF03F1FF336FEA83436FEA93430133C4F8C03103B0BDE8F08F00BF78ECFFFFC08FFF1F3890FF1FFF3F0080D1F8B021422353434FF47A7293FBF2F3C2
:402D8000C1F8BC011844084B00F580400340002BBFBF03F1FF336FEA83436FEA93430133C1F8C031704700BFFF3F00802DE9F8430446D0F8BC51DFF878E01C4ADEE92201D8
:402DC000EF17281A67EB01014FF0FF33904271EB03032E46D4F8C83101DA013308E041F288384FF00009804579EB010202DA013BC4F8C831D4F8C811022205EB813120465D
:402E0000CEE9226701F064F92046FFF7B7FD4FF47A7390FBF3F0D4F8C830C4F8B001C4F8B431C4F8B801BDE8F88300BF78ECFFFFC08FFF1F7047137803700B7883704B7873
:402E4000C3707047138810B5040ACC5413881944487013880233138010BD10B50B88C45C18444278023302EB04200B8080B210BD138810B5040ECC541388040C0B445C7044
:402E80001388040A0B449C7013881944C87013880433138010BD30B50C880319055DDA78587802EB056202EB0042987804340C8002EB002030BD0000F8B50C46074616469A
:402EC000AA213022204609F006FC00223D46104602234FF0E90CE91B8E4209D802332F2B28D930220021204609F0F5FB0020F8BD2F2BF3D815F8011B01F1130E5FFA8EFEDE
:402F0000BEF1010F01D9E9290FD104F803C015F8011C04EB030E0133E1549EF800E0013072440A4402F0FF0202E00A44E154D2B20133D0E70E4D8319A979E8700131D8B215
:402F40002F2B6E70A870A97106D930220021204609F0C1FB002009E0ED212A716070217003301C44EE23A270E370C0B26871F8BD7C90FF1F2DE9F74F06460F46924600F06F
:402F8000DAFA8146A0F1040B4FF0FF34A3454EDD621C92B2ED21304600F0CCF9431C044645D08345F2DB1FFA80F808F1010189B2304600F0AEF9E31C034499450546E5DDFE
:402FC0009BB219463046009300F0A3F9EE28009BDCD1013B9BB208F102011A4689B23046019300F0FEF9019B00901946304600F090F9009A8242C9D12B1D39462C449BB22B
:4030000042463046013500F01FFA0434791C00232F440022B9420BD011F8010FE92800D11AB10AF803000133F3E70122F2E70024A0B203B0BDE8F08F037830B58B704378C0
:403040000BB9012300E002230B710369CA1D03F1300453F8045BA34242F8045BF9D1C3689D3103F1300253F8040B934241F8040BF9D130BD10B54478C16202630378C1F8F0
:403080003401C2F8340134B90120087103208B70C870022105E00220087103208B70C870012111719070D37010BD2DE9F84304460025962708A890E84103E36021706270D3
:4030C00029463A46A57025716571206109F003FB3A462946E06809F0FEFA304600F0CCF86661257665764A4641462046BDE8F843FFF7C0BF70B5144606460D461A460021E8
:40310000204609F0E8FA2670657070BD027843789A4205D2C07800F0010080F00100704706D9C37813F0010F14BF0320022070470320704770B5054600790E46A8B10138D8
:403140002871EA6829696869FFF714FF60B10146686900F0A6F9044631462846FFF76CFFE0B2B0FA80F04009C0B270BD70B544780CB9002070BD02F085F8844201D1012001
:4031800070BD02F07BF88442F9D002F087F8844236D002F077F8844234D30025002002F091F8EEB2864209D23146002002F07CF8844205F10105F1D1022070BD002501206A
:4031C00002F080F8EEB2864209D23146012002F06BF8844205F10105F1D1032070BD0025022002F06FF8EEB28642C2D23146022002F05AF8844205F10105F1D1042070BD13
:40320000062070BD072070BDF7B5837800F19D0790F8A0500646002438468DF805408DF80430FFF7A3FF012815D10323F3703846FFF76CFF022818D80D4A6B08137050708C
:4032400003EB43030B4A034452F82330384601A9984702200AE0022801D1F47005E00638012894BF0020012000E0204603B0F0BD8C90FF1FAC0B00204FF0FF33C0F8C431B9
:403280000023C0F8C831C0F8CC31421E00F2C11002F8013F8242FBD17047B2F5E17FF8B504460F46164632D8D0F8C851AB18B3F5E17F284408DDC5F5E175ADB22A4609F053
:4032C000FFF92046721B791909F0FAF9D4F8C4314FF4E171002BBCBF0023C4F8C431D4F8C831F21892FBF1F301FB1323D4F8CC21C4F8C83116448E42D9BF0020C4F8CC61EA
:40330000C4F8CC11C4F8C431C8BF0220F8BD0120F8BDD0F8CC319942BFBFD0F8C4314FF4E172C91891FBF2F3BABF02FB1311405C0020704770B5D0F8CC51AA421EDAD0F889
:40334000C44113190444B3F5E17F08DAA65C8E4217D00132954203F10103F4D12A464FF4E17693FBF6F406FB14339B1A1844AA4204DA835C8B4204D00132F8E74FF0FF30C5
:4033800070BD104670BD70B5D0F8CC51AA4225DCB0F8C441224492B2131BB2F5E17F9BB207D34FF4E176B2FBF6F406FB142292B210E09D42F5DD865C8E42F2D10132EAE7ED
:4033C000845C8C4208D1013292B20133B2F5E17F9BB201D09D42F3DC184670BD4FF0FF3070BDD0F8CC3130B599422BDA934229DB531A002B26DDD0F8C43119441A444418D0
:40340000002391420BDB4FF4E17592FBF5F405FB142291FBF5F405FB1411014408E0B1F5E17FF0DA14F8015B01312B44DBB2E8E70C1AA24204DD11F8014B2344DBB2F7E75D
:40344000184630BD002030BDF8B50E461F46054628B321B3D0F8CC11D3188B421FDCD0F8C4314FF4E1741A4492FBF4F104FB1124A1B2CB19B3F5E17F01440ADDC4F5E1746A
:40348000A4B22246304609F01BF93A1B2946301901E03A46304609F013F90020F8BD0120F8BDB1F5E17FF8B5044606D8D0F8CC71B942D4BF0027012700E00227D4F8C421C0
:4034C000B1F5E17F28BF4FF4E171002A0D4630DB5318B3F5E17F04EB02000ADDC2F5E17296B23246002109F0F6F8AA1B0021204601E00A46002109F0EEF8D4F8CC315B1BE9
:40350000002BC4F8CC3109DC4FF0FF33C4F8C4310023C4F8C831C4F8CC310AE0D4F8C4110D444FF4E17195FBF1F301FB1355C4F8C4513846F8BDD0F8CC01704770B5044607
:40354000C51D00F25F26284696220021963509F0C2F8B542F7D14FF41672002104F2612009F0B9F80023A4F8BA3470BD10B504460023017042708370C3700371836000F5C0
:40358000EE70FFF7DBFF04F5D360FFF7D7FF04F10C00BDE81040FFF76FBE30B5044603A810F8045B5B00006821706270C4F80200DBB20DB943F00103E37130BD2DE9F04F87
:4035C000002422469626ED274FF0E90E4FF0EE0CB0F8BA3493425DD9032C7DD806FB04030021DD1DDF710B468F2B984626DCB0F8BA9491453FD900EB020A9AF861B20BF101
:4036000013095FFA89F9B9F1010F02D9BBF1E90F06D117390133A844C9B29BB288F803E09AF8618203F1010941442B44013283F80380C9B292B21FFA89F3D5E7902B1AD893
:40364000B0F8BA94914516D900EB020999F8619209F1130A5FFA8AFABAF1010F0BD9B9F1E90F08D0494401330132A844C9B29BB292B288F80390DBB26B700333DBB2E954A1
:403680002B4483F801C0B0F8BA34934284BF0134E4B29DE7032C1FD800231A4645794FF0960E44EA85156DB201260EFB0307D90001F038012943797206FA03F101330A4328
:4036C000D9B28C42D2B2F0D2002380F85F2280F860321846BDE8F08F0120BDE8F08F00002DE9F3411C4616460027A3F8527B00EB40031944184B054653F8218004F2454007
:4037000004F6523304F601123146C047B4F8520BB0F5147F18DAC0B1104B04F6F9001B68B2781B68F1780193022300932B46FFF734FFB4F8523B38460833A4F8523B94F867
:40374000E13184F89D3600E00120002384F83B3402B0BDE8F08100BFB8050020DC8AFF1F37B590F83C3404460BB9002033E0002380F83C34037890F844548DF8043090F8E5
:403780003D3400F23D408DF8063043786D088DF80730FFF7EBFC01280BD194F84414032301F0010184F8DD3101AA234681F001010BE094F83E1409B102200CE05D2DFBD1AB
:4037C000AA2384F84534234601AA2846FFF788FF0028F1D0C9E703B030BD41710021A0F8BA1480F85F124FF4167200F2612008F072BF2DE9F04100F10C06174605463046DE
:403800008846FFF798FEA7F5E174204404B23A4641463046FFF741FD002C05DDA868001B4ABF0023A860AB60EB7800200133EB70BDE8F08138B50D46044690B1002910DBF3
:40384000D0F8D8310C309942C8BF1DB2A9B2FFF728FEA368AB4202DB5D1BA56038BD0023A36038BD2DE9F8430546C07818B30138E8700020044685F83C0405F1080705F5DB
:40388000EE7805F10C093A464146484600F000F9B5F9081006462846FFF7CCFF95F83C3433B12846FFF75CFF022804BF601C84B2002EE8D1E0B2BDE8F883000070B540F6A5
:4038C00054341D4B064604FB003494F8F7288AB394F8F83873BBDDB242FA05F1C90703F10103F8D5032D06D90023012084F8F73884F8F80870BD012E01D0002016E09620BE
:403900006843231893F8A01603F29F600531FEF7CFF90028F1D094F8F73806FA05F523EA050584F8F7580DB984F8F868B0FA80F0400970BDFF2070BDA4220020D0F8CC31D0
:4039400070B5043B8B4205460C4622DD8EB2711C89B2FFF7DEFCD5F8CC312044041D9C4217DAA4B221462846FFF7D3FCEE2810D1013CA4B2F11C224689B22846FFF731FDC8
:40398000214606462846FFF7C4FC331A5842584170BD002070BD30B5002423460A4491420AD011F8015BE92D00D11CB1C55400240133F4E70124F2E7184630BD2DE9F041D4
:4039C0000646D0F8C4011D46014403314FF4E17091FBF0F400FB14108318B3F5E17F174605F2612806EB000110DDC0F5E17084B222464046FFF7CFFFB5F8BA343A1B184456
:403A000080B2A5F8BA043146404400E04046FFF7C2FFB5F8BA341844A5F8BA04BDE8F0812DE9F84F8DB20F46691C89B280461446FFF76FFCA91C3E18814689B24046FFF7AE
:403A400068FCC0F3C20A05360546C0F3871BBAF1000F03D159462046FFF7BFFE63795B4513D123464A4639464046FFF7A7FF012294F85F1202FA0AF305F007050B43AA45F1
:403A800084F85F3208BF84F860223046BDE8F88F2DE9F047154607468946FFF74CFD2B6806469842BCBF00232B602C68A04215D0A0F1050A013CA24523DD621C92B2ED21BE
:403AC0003846FFF737FCB0F1FF3F804619D001463846FFF733FF20B94446ECE70020BDE8F0874A4641463846FFF79AFF0021286082B204463846FFF746FC2860A0B2BDE8B2
:403B0000F087002C01DB2C6000E02E600024F5E77047000013B5012302A921F8023D0478FFF7B9F9024B063443F8240002B010BD2C49002037B50D4604460A46014601A87F
:403B4000FFF779F96B78054A8DF8053001A9044B201DFFF7DFFF03B030BD00BFD8550020A090FF1F73B5002302AC24F8023D21460646FFF790F90E4D214628603046FFF7B1
:403B80008AF9214668603046FFF785F92146A8603046FFF780F92146E8603046FFF77BF9214628613046FFF776F9686102B070BD2C49002037B50D4604460A46014601A8B5
:403BC000FFF739F96B78054A8DF8053001A9044B201DFFF7C7FF03B030BD00BFD8550020A090FF1F0D4B0E4AC3F808210D4AC3F810210D4AC3F814210C4AC3F81C210C4A03
:403C0000C3F818210B4B0C4AC3F814210B4AC3F81C210B4AC3F81821704700BFAC0B00200D3D0000113B0000E13D0000B53B0000353B0000B8050020C13D0000653B000082
:403C4000153B0000F7B5044602AE1F46002326F8023D16232C4D0B7002231370014632462888FFF7EFF8324621466888FFF7EAF832462146A888FFF7E5F832462146E88870
:403C8000FFF7E0F8324621462889FFF7DBF8324621466889FFF7D6F832462146A889FFF7D1F832462146E889FFF7CCF832462146288AFFF7C7F86B6A324618682146FFF700
:403CC000D7F832462146286AFFF7D2F895F82C30BDF80620A35495F82D10531C9BB2E15495F82E10931C9BB2E15495F83030D11C89B2635495F83130111D89B20532635441
:403D00003A8003B0F0BD00BFD84D00202DE9F043804689460D4F0E4E0E4D0F4C85B03B46324629462046FFF78DFF01203B88029098F80000327800902978CDF804902046F4
:403D400000F08EFA05B0BDE8F08300BFA090FF1FA290FF1FA390FF1FD8550020F7B5064602AC1F46002324F8023D1723134D0B7002231370014622462868FFF779F82246AF
:403D800031466868FFF774F822463146A868FFF76FF822463146E868FFF76AF8224631462869FFF765F8224631466869FFF760F8BDF806303B8003B0F0BD00BF2C4900206C
:403DC00007B51046002200920349044AFFF7C6FF03B05DF804FB00BFA390FF1FA290FF1FF0B50D46044687B00A46014605A8FFF722F80D4F6B780D4E8DF8153032463B4617
:403E000005A9201DFFF7DCFF094A0A4901203B88127809780290207801950090304600F01FFA07B0F0BD00BFA090FF1FD8550020A290FF1FA390FF1F704700000279084B7E
:403E4000DA7142791A7282795A72C2799A72027ADA72427A1A73827A5A73C27A9A737047DC440020F0B50B4B3D251D700A4B02220A4C0B4F1A7085B0002601233B8026701B
:403E800002960191017820460091294600F0E8F905B0F0BDA390FF1FA290FF1FD8550020A090FF1F70470000084B094AC3F8DC22084AC3F8E022084AC3F8E422074AC3F846
:403EC0002423074AC3F82C23704700BFAC0B0020653E0000A53E0000393E00001D3F00003D3E000010B543240C70022111700A4AD1790170117A4170517A8170917AC17070
:403F0000D17A0171117B4171517B8171927BC27108221A8010BD00BFDC4400202DE9F043804689460D4F0E4E0E4D0F4C85B03B46324629462046FFF7D5FF01203B88029069
:403F400098F80000327800902978CDF80490204600F086F905B0BDE8F08300BFA090FF1FA290FF1FA390FF1FD85500207047000030B50A4B29241C70094B0222094D1A70BE
:403F800000232B8085B0012502950191017806480091214600F064F905B030BDA390FF1FA290FF1FA090FF1FD855002007B5042302A921F8023DFEF76EFF03B05DF804FB76
:403FC00070477047094B0A4AC3F8EC21094AC3F8F021094AC3F8F421084AC3F80422084AC3F80822074AC3F80C227047AC0B0020713F0000C33F0000C13F0000314000004C
:40400000AD3F00006D3F000037B51D4602AC002324F8023D2B230B7002231370014622460698FEF725FFBDF806302B8003B030BD2DE9F043804689460E4F0F4E0F4D104C10
:4040400085B00023009332463B4629462046FFF7DBFF01203B88029098F80000327800902978CDF80490204600F0FAF805B0BDE8F08300BFA090FF1FA290FF1FA390FF1FBA
:40408000D8550020054A064B536204339362054B00229A61DA611A625A627047D84D00205C0100202C4900200023194640F823100133322B4FF00002F8D10449C0F8CC20CB
:4040C0000B60C0F8C820C0F8D02070479090FF1FD0F8CC3030B50133322593FBF5F405FB14339A1A2A44C0F8C81040F82310C0F8CC3092FBF5F305FB132250F82230C91A2E
:40410000C0F8D01030BDD0F8CC303222591A323191FBF2F302FB131150F82100704700000023F0B51E461C460F4A3227536013725D1C8B42EDB20DDAD0F8CC40E31A3233E0
:4041400093FBF7F407FB143350F8233001241E442B46EDE70CB113725660536893FBF1F1C0F8D410F0BD00BF9090FF1F00221A807047704770B540F2F456144D1449154CC3
:40418000154A0023581959511A514160816018190C33B34242608260F4D1FFF785FE00F05BF900F00DFB00F001FE00F00DFFFFF719FD00F025FFFFF705FF00F06DFC00F0C4
:4041C00019FDBDE8704001F0D7B900BFAC0B002073410000B80500206D4100002DE9F0419046079E0D461C46074601F04BF8042332469DF81810FEF77DFF01239845B37015
:4042000002D19D401D4303E0B8F1020F0DD16D00202C28BF2024F57022463946301D08F04FFA201D80B2BDE8F0814FF48060FEF701FE0020BDE8F08130B58DB09DF840501C
:4042400003AC01940095FFF7C9FF1399C2B22046FEF732FE129B30221A800DB030BD00002DE9F0470D46914686B006AC4FF0000E24F802ED0F9FDFF8648002949DF83840F6
:4042800001970094CDF80C809DF84060FFF7D4FF3F784FF41C747C43DFF844A004F59C7454444146BDF81620E01D08F009FA4FF41C7303FB07A76900B9F1010F08BF41F0DB
:4042C0000101C9B287F83D11204616B900F0B2FF01E000F0B0FF06B0BDE8F087A855002034170020704700210079FBF733BF00007FB50B4A50250B4C0B4B157002222270A9
:404300001B780A4C0A4E237001233380029301910178204600912946FFF7A2FF04B070BDA390FF1FA290FF1FD091FF1FD8550020A090FF1F37B5054602AC042324F8023D32
:404340002146FEF7A8FD21462846FEF7A4FD044B1A78032A08BFC3F8200103B030BD00BFD091FF1F37B5054602AC042324F8023D2146FEF790FD21462846FEF78CFD03B0EC
:4043800030BD07B5042302A921F8023DFEF783FD03B05DF804FB0000F7B50546042302AC24F8023D2146FEF776FD21462846FEF772FD21462846FEF76EFD21460646284629
:4043C000FEF769FD214607462846FEF764FD094B1A78C3F83062022AC3F83472C3F8380202D1C3F8286203E0042A08BFC3F8686203B0F0BDD091FF1F37B5054602AC0423D5
:4044000024F8023D2146FEF746FD21462846FEF742FD21462846FEF73EFD21462846FEF73AFD21462846FEF736FD03B030BD000007B5042302A921F8023DFEF72CFD054B82
:404440001B78012B02D10021FCF712FB03B05DF804FB00BFD091FF1F124B134AC3F8C023124AC3F8C423124AC3F8C823114AC3F8FC23114AC3F80024104AC3F80424104AE6
:40448000C3F814240F4AC3F818240F4AC3F81C240E4AC3F808240E4AC3F80C240D4AC3F810247047AC0B0020F1420000E7420000E5420000A5450000314400008343000067
:4044C0005146000099430000F9430000194500003543000065430000F7B5064602AC1F46002324F8023D56230B700A4D0223137001462246D5F81C01FEF7BAFC22463146F0
:40450000D5F82001FEF7B4FCBDF806303B8003B0F0BD00BFD091FF1F2DE9F043804689460F4B104F104E114D114CD3F8583185B0009332463B4629462046FFF7CDFF012027
:404540003B88029098F80000327800902978CDF804902046FFF784FE05B0BDE8F08300BFD84D0020A090FF1FA290FF1FA390FF1FD855002037B51D4602AC002324F8023DBC
:4045800055230B7002231370054B01462246D86BFEF76EFCBDF806302B8003B030BD00BFD84D00202DE9F043804689460E4B0F4F0F4E104D104CDB6B85B0009332463B46D3
:4045C00029462046FFF7D6FF01203B88029098F80000327800902978CDF804902046FFF73FFE05B0BDE8F083D84D0020A090FF1FA290FF1FA390FF1FD855002073B5054687
:4046000002AC1E46002324F8023D57230B7002231370014622460698FEF72AFC224629460798FEF725FC224629460898FEF720FC224629460998FEF71BFC224629460A98D4
:40464000FEF716FCBDF80630338002B070BD00002DE9F04380468946154B87B0D3F83822144F0492D3F83422134E0392D3F83022124D0292D3F82C22114C0192D3F82432D2
:404680003246009329463B462046FFF7B7FF01203B88029098F80000327800902978CDF804902046FFF7DCFD07B0BDE8F08300BFD091FF1FA090FF1FA290FF1FA390FF1F82
:4046C000D8550020F7B5042302AC24F8023D21460546FEF7C2FB214607462846FEF7BDFB214606462846FEF7B8FB064B0022A3F81071A3F81261A3F81401C3F8082203B0B0
:40470000F0BD00BFD091FF1FF7B5042302AC24F8023D21460546FEF7A0FB214607462846FEF79BFB214606462846FEF796FB064B0022A3F81872A3F81A62A3F81C02C3F8F9
:40474000442203B0F0BD00BFD091FF1FF7B5042302AC24F8023D21460546FEF77EFB214607462846FEF779FB214606462846FEF774FB064B0022A3F85872A3F85A62A3F85F
:404780005C02C3F8502303B0F0BD00BFD091FF1F37B5054602AC042324F8023D2146FEF75CFB21462846FEF758FB21462846FEF754FB03B030BDFFF7EBBFFFF7E9BF0000A1
:4047C0000E4B0F4AC3F8D8230E4AC3F8DC230E4AC3F8E0230D4AC3F8E4230D4AC3F8E8230C4AC3F8EC230C4AC3F8F0230B4AC3F8F4230B4AC3F8F823704700BFAC0B002010
:4048000069480000C5460000BB4700001549000009470000B7470000C14900004D4700009147000073B5054602AC1E46002324F8023D52230B700223137001462246BDF899
:404840001800FEF7FFFA22462946BDF81C00FEF7F9FA22462946BDF82000FEF7F3FABDF80630338002B070BD2DE9F04380468946124B85B0B3F91421114F0292B3F9122173
:40488000104E0192104D114CB3F910313246009329463B462046FFF7C5FF01203B88029098F80000327800902978CDF804902046FFF7D6FC05B0BDE8F08300BFD091FF1FD2
:4048C000A090FF1FA290FF1FA390FF1FD855002073B5054602AC1E46002324F8023D53230B700223137001462246BDF81800FEF7A9FA22462946BDF81C00FEF7A3FA22462A
:404900002946BDF82000FEF79DFABDF80630338002B070BD2DE9F04380468946124B85B0B3F91C22114F0292B3F91A22104E0192104D114CB3F918323246009329463B4658
:404940002046FFF7C5FF01203B88029098F80000327800902978CDF804902046FFF780FC05B0BDE8F08300BFD091FF1FA090FF1FA290FF1FA390FF1FD855002073B505464B
:4049800002AC1E46002324F8023D54230B700223137001462246BDF81800FEF753FA22462946BDF81C00FEF74DFA22462946BDF82000FEF747FABDF80630338002B070BDCC
:4049C0002DE9F04380468946124B85B0B3F95C22114F0292B3F95A22104E0192104D114CB3F958323246009329463B462046FFF7C5FF01203B88029098F8000032780090C5
:404A00002978CDF804902046FFF72AFC05B0BDE8F08300BFD091FF1FA090FF1FA290FF1FA390FF1FD8550020034B82781A705A6801325A60704700BFA490FF1F034B417863
:404A40009A7A1972521A5A72704700BFA490FF1F13B504460A46014601A8FEF7ECF9044BA2791A705A6801325A6002B010BD00BFA490FF1F13B504460A46014601A8FEF7F1
:404A8000DAF9044B61799A7A1972521A5A7202B010BD00BFA490FF1F074B084A9A61084ADA61084A1A62084B084A9A61084ADA61084A1A62704700BFAC0B0020914B000075
:404AC000514A0000754A0000B8050020454B0000294A00003D4A000070B502240C701D4614709DF810309DF818209DF81C6003704270F3B1104A46B1147810498470224639
:404B0000033007F0DDFD033413E09DF814400A26202C28BF202484700948147001780334013191FBF6F306FB1311D36801700133D3602C8070BD00BFA490FF1FFC55002004
:404B4000B88AFF1FF0B51C46154682780E4B302A87B0067828BF30224778C11C0B481A7007F0AEFD002301222380039201930297009623460DF117020DF116012846FFF783
:404B8000ABFF07B0F0BD00BFA490FF1FFC550020F0B504460E4687B00D4F0E4D0A46014605A8FEF748F93B462A4605A9201DFFF7C9FF094A094901203B88127809780290FA
:404BC0002078019600902846FFF74AFB07B0F0BDA090FF1FD8550020A290FF1FA390FF1F704707B50A46014601A8FEF724F903B05DF804FB0A4B0B4AC3F844240A4AC3F805
:404C000048240A4AC3F84C24094B0A4AC3F84424094AC3F84824094AC3F84C24704700BFAC0B0020C94C0000674D0000E34B0000B8050020A94C0000614D0000E14B0000D6
:404C4000F7B504461F469DF820005B230B700221117001230207ADF8063020701CD4C3061AD5104D02AE2B7826F8021D6370324621466888FEF7E6F8324621466868FEF741
:404C8000F7F8BDF806202B7BA354931CADF806300132AB7B92B2A354BDF806303B8003B0F0BD00BF0C58002013B514460278044900922046034AFFF7C3FF02B010BD00BF02
:404CC000A390FF1FA290FF1FF0B50D46044687B00A46014605A8FEF7AEF80D4F6B780D4E8DF8153032463B4605A9201DFFF7DCFF094A0A4901203B881278097802902078E3
:404D0000019500903046FFF7ABFA07B0F0BD00BFA090FF1FD8550020A290FF1FA390FF1FF8B50546A9B10778FDF7DEFA0A4C064668B93846FDF7DEFA48B12078074B3843D5
:404D4000012220701A7031462878FBF703FA2078F8BD0846F8BD00BF528FFF1F538FFF1F0121FFF7DDBF37B50D4604460A46014601A8FEF760F86B780121201D8DF805301C
:404D8000FFF7CEFF03B030BD7047000013B5052302A921F8023D0479FEF77DF8024B03EB8403D86202B010BD9091FF1F054B064AC3F83824054AC3F83C24054AC3F84024B6
:404DC000704700BFAC0B0020714E00008D4D0000894D0000F7B505461F465A23224E0B709DF82000022302AC1370012324F8023D287006EB800022462946C06AFEF738F87A
:404E0000224629467068FEF733F822462946B068FEF72EF822462946F068FEF729F822462946308AFEF70EF8FBF73AFBFBF726FB22462946708BFEF705F80C4B2246B3F860
:404E40001C012946FDF7FEFF22462946F069FEF70FF822462946306AFEF70AF8BDF806303B8003B0F0BD00BF9091FF1FD091FF1F2DE9F043804689460E4F0F4E0F4D104C4E
:404E800085B00023009332463B4629462046FFF7A1FF01203B88029098F80000327800902978CDF804902046FFF7DAF905B0BDE8F08300BFA090FF1FA290FF1FA390FF1FBF
:404EC000D85500207047704716280FD0A0F14303DBB21A2B04D8064A22FA03F3DB0705D464381A288CBF0020012070470120704701008004F7B50378857804468DF8073090
:404F0000DDB19DF80700FFF7DFFF00283FD0214B1A78002A3BD16678E5781F4A20799DF80740968014608C785C80097891711B4A1580508001221A7029E0164A164B117838
:404F40001446164821B19DF807601F68B7420DD04FF0FF321A6043F2390203219A8000226280997102804280227010E09DF80760FF2EEDD04FF0FF341C6043F23904013962
:404F80009C80032455809C7105804580117003B0F0BD00BFB890FF1FBC8AFF1F1C58002037B50D4604460A46014601A8FDF743FF6B7801A98DF8053000231A46201DFFF788
:404FC00099FF03B030BD0000074B084AC3F85024074AC3F85424074AC3F85824064A074BC3F85424704700BFAC0B0020C74E0000A14F0000C54E0000F54E0000B805002040
:40500000034B044AC3F85C24034AC3F860247047B8050020DD500000055100002DE9F341012305460E46ADF8063002706AB30223ADF8063000F024F9BDF806406870631C20
:40504000ADF8063000F01AF9BDF8063002AF5A1C27F8022DDFF8788003222855EA54002458F824003A4629460134FDF701FF032CF6D1BDF80640631CADF8063000F002F95D
:40508000BDF80630285533801CE0104FDFF844E0DFF844C001303B681B889A4210DA94000023DEF80010895C8B4206DADCF800100959C95CC1540133F3E708440132EAE75A
:4050C000401B308002B0BDE8F08100BFD48AFF1F20580020CC8AFF1FD08AFF1F30B415460278AA2A0CBF0122002204D104480024046044608460284630BC1946FFF78EBF54
:40510000205800202DE9F347804614461D4602AF012390F80090DFF8B0A027F8023D0026F3B24B4502D3284A002111E0032E07D039464046FDF7AFFE4AF826000136EFE7BB
:40514000224B214E1B684FF0010E1879034606E0032BF5D0581C42F82310C3B2F8E75F2B0DD85F0903F01F020EFA02F156F82720013322EA010246F82720DBB2EFE7144B95
:40518000114E196800224FF0010CD3B283420FD251F8227057B95F0903F01F030CFA03FE56F8273023EA0E0346F827300132ECE7054800F00FF8012229462046FFF72EFF4A
:4051C00002B0BDE8F08700BF20580020C48AFF1FC88AFF1F124B2DE9F0411A685D680023D4681A46DFF840E0DFF840C0DFF840800127066807FA02F1314209D055F822104A
:405200004EF82310A15C58F821100CF8031001330132102AEDD1034A1380BDE8F08100BFC48AFF1FC090FF1F7C5800202C5800200CC900007047C2780AB9FCF77BBA012AFE
:4052400003D130210730FCF733BD704738B5094C094DFCF717FD20462946FDF76BFF343C84F83900A5F51C712046FDF763FF607138BD00BF3C220020A41900204220704765
:4052800002207047014B1878704700BF708BFF1F014B1870704700BF708BFF1F014B5878704700BF708BFF1F08B9044B02E0012802D1034B585C704700207047BC580020EA
:4052C000BC58002000207047F0B51AB3002507462C4611F0070318BF012303EBD10301703E1AB34213DDEE1DAE420CDB8E4208DA640012F806E0E4B2BEF1000F18BF44F090
:405300000104013EF0E707F8014F0835E8E7013398B2F0BD1046F0BDF0B50678964220D10024274616F0070318BF012303EBD605A54214DD3A46013410F801EF4FEAC40CEA
:40534000D31B6245DBB208DAB24206DA4EFA03F303F001038B540132F2E70837E8E70020F0BD4FF0FF30F0BD10B51C467E230B700221117000F8011B034A1B21FFF7A4FF22
:405380000130208010BD00BFD790FF1F2DE9FF41044688461B220E490430FFF7BDFFA0B90C4F0D4E0D4D3B46324629460C48FFF7DBFF01203B880290207832780090297845
:4053C000CDF804800648FEF74BFF04B0BDE8F081D790FF1FA090FF1FA290FF1FA390FF1FD85500202DE9F04F7E240C7002211170002216461446DFF86CC0DFF86C80027025
:40540000164D655D072D06D8154F57F82550012DB8BF012500E001251CF80470AFB18E46B71A05EB020A07EB080B07EB0209B9F13B0F0ADC1BF8029001320131924589B2BB
:4054400000F80E9001D08E46EFE701341B2C2E44D6D142701980BDE8F08F00BF96C900000CC90000D790FF1FBC580020F8B59DF8185004461A2D1F461CD87E230B70022396
:405480001370012303700C4B0C4E5B5D4570837056F8250007F027F90022E07080B2111D824289B205DA56F825309B5C01326354F5E73980F8BD00BF96C90000748BFF1F7E
:4054C0002DE9F041027986B0012A044688461F4D1F4E204F25D14379FF2B0CD17E232B70022333701C4B1A701B225A703C229A7003233B801BE01A2B19D8012B059203D163
:40550000059A02EB420203E0022B02D1059A5200059200930E4A0F4B0C490F48FFF7A6FF05E03B46324629460B48FFF75BFF01203B8802902078327800902978CDF8048082
:405540000548FEF78DFE06B0BDE8F081A390FF1FA290FF1FA090FF1FD8550020034B044AC3F8E825034AC3F8EC257047AC0B0020C15400008D5300000A4B0B4AC3F8B0241D
:405580000A4AC3F8B8240A4AC3F8AC25094AC3F8B425094B094AC3F8AC25094AC3F8B425FFF7DCBFAC0B002071590000095A00004D580000A1560000B80500209D5700001D
:4055C000C95600007047000008B52920FFF760FE044B002119700846FBF74AFABDE8084000F013BAD091FF1FF7B505461F4679230B70022302AC1370012324F8023D9DF8F8
:405600002030254E0370D6F88430224601461868FDF72EFCD6F88830224629461868FDF727FCD6F88C30224629461888FDF70AFCD6F89030224618882946FDF703FC224616
:405640002946F06FFDF714FC22462946D6F89800FDF70EFCD6F8800022462946C0F3CF00FDF7F0FB0D4B2246D3F820012946C0F3CF00FDF7E7FB22462946B6F87800FDF733
:40568000E1FB22462946B6F89C00FDF7DBFBBDF806303B8003B0F0BDF8580020D091FF1F07B50A46014601A8FDF7C5FB044B01221A70044B002283F8302403B05DF804FB3B
:4056C0000691FF1FF8580020034B01221A70034B002283F8302470470691FF1FF85800202DE9F0479DF830400D4621461F469046BDF92060BDF92490BDF928A0FAF72AFDF2
:405700004FF4587363432449C818CB5C032B0DD1B8F1010FC0F820513BD10023A0F81071A0F81261C0F80832BDE8F087012B05D121462846BDE8F047FBF79AB9022B14D1E8
:405740004FF4587303FB0414B8F1010F4FF00003C0F8285202BFA0F81872A0F81A62A0F81C92C4F84432BDE8F087042B11D1B8F1010FC0F868520CD10023A0F85872A0F817
:405780005A62A0F81091A0F812A1C0F80832C0F85033BDE8F08700BFD091FF1F2DE9F04F8DB00CAE9946022326F8023D054631469046047890F801A0FDF76DFBBDF82E30C9
:4057C00031465A1CEB5C83462846ADF82E200793FDF743FB314609902846FDF73EFB314607462846FDF739FB314608902846FDF734FBBDF82E10632C01F10106ADF82E602C
:4058000013D8012C089A099B11D8695C00B212B23FB2039102900192049400971BB2079A59465046FFF75CFF01E0643CE4B200944B46044A04494046FFF7D6FE0DB0BDE890
:40584000F08F00BFA290FF1FA390FF1FF0B50D46044687B00A46014605A8FDF7ECFA0D4F6B780D4E8DF8153032463B4605A9201DFFF794FF094A0A4901203B88127809784C
:4058800002902078019500903046FEF7E9FC07B0F0BD00BFA090FF1FD8550020A290FF1FA390FF1FF7B504461F4664230B70022302AE1370012326F8023D9DF820302B4D56
:4058C0000370324601462888FDF7BCFA324621466888FDF7B7FA32462146A888FDF7B2FA32462146E888FDF7ADFA324621462889FDF7A8FA324621466889FDF7A3FA324610
:405900002146A889FDF79EFA32462146E889FDF799FA32462146288AFDF794FA6B6A324618682146FDF7A4FA32462146288CFDF789FA95F82C30BDF80620A35495F82D1004
:40594000531C9BB2E15495F82E10931C9BB2E15495F83030D11C89B2635495F83130111D89B2053263543A8003B0F0BDD84D00202DE9F0411F4D86B004468846062600217C
:405980004079ADF81660FAF7E5FB2B78032B09D106A921F8026D2046FDF75FFA00B2C5F820010CE0012B0AD106A9082321F8023D2046FDF752FA002100B2FBF759F82379A0
:4059C0000D4F0E4E0E4D009332463B4629460D48FFF768FF01203B883278297802902078CDF8048000900748FEF73AFC06B0BDE8F08100BFD091FF1FA090FF1FA290FF1F93
:405A0000A390FF1FD855002070477047012807D8044B53F8202018441178037A0B431370704700BF54CA0000012808D8044B53F820201844017A137823EA01031370704721
:405A400054CA00000B4BFF221A700B4A00238121137082F8401110320821137082F8F810A2F61C122021137082F8171A82F8C839704700BFE08BFF1F185A00401C4A002147
:405A800013780133DBB21370032B03D8DFE803F0030D19261170174B00221A70082203F8BC2C892283F884207047134B8122197083F84021402210331A70482283F8F82056
:405AC00070470E4B0822197083F8F8200122A3F61C131A70212283F8172A7047084B2022197083F8172A082283F8C829704700BFE08BFF1FD45A0040185A0040285A0040D4
:405B00000C5100402DE9F84372B6794E0024062707FB04630021DA89D3F80A00013406F0DAFD0C2C724DF3D100240A2606FB0452134653F8520FB2F85A205968013406F0F8
:405B4000BFFD0B2CF2D16B486B4D002450F8041F04F1105303F1540221F0FF065533C9B20B4452005B000232934206D012F8027C12F801EC07F806E0F5E7A8420C44E5D1AF
:405B80005E4B0A221A7040F2032223F8372C022283F884225A4A002313605A4A5A4C11685A4A5B4D1160936042F8483C42F8403C584ABE351168584A43F2C8261160574A66
:405BC0001168574A1160574A1168574A1160574A1168574A1160574A116802F1784202F5C24211605449936013610A7842F002020A700A7C42F002020A742278A1F5863138
:405C000042F04002227041390A7842F010020A704A4A03CA45F8BE0C45F8BA1C07CA03C52A80474A283507CA03C52A80454AD83D03CA45F80E0C45F80A1C07CA03C52A8047
:405C4000414A183503CA45F80E0C45F80A1C07CA03C52A803D4A183503CA45F80E0C45F80A1C07CA03C53A492A800A78012042F008020A70374A612111704F21A2F5F0622B
:405C80001180354918220A7048800C200A71C88003200A7248811F200873CB812F4B50211970042159802A211A71D9801A7202F190426E3302F5A85207CA83E8070006220D
:405CC00083F8002245F20E52A3F81221052283F8102193F8102103F588731D462B781B063ED54FF4F07004F06FF8013EF6D1FEE754CA0000FCFFFF47A40000488358004097
:405D00000076004024150048A0430040507600400251004028150048187600402C15004820760040301500482876004034150048307600403815004803500140BC1400489B
:405D4000D0140048DC140048F01400480415004822430040004800408240004092400040574B4FF4A5621A8001224FF040231A7042F25122534EA3F82022192500273278C8
:405D80004FF4F07002F0010242EA470303F0030704F01AF8013D00F09280032FEFD14A4A4FF480731380494B52211970484B49491B78A1F29B61DBB281F89B3607231370E8
:405DC000482000230B70887013705371424B04224248022119709A720378DFF8288143F07F03037010F8013CDFF81C9143F0070300F8013C237800F5A65043F0800323703C
:405E0000374B0C301B7898F80050DBB299F80060EDB203F0070ED34080F800E0F6B2437045F0030388F8003046F0030389F800302C4B80201970A3F5A4531B3B14211A702A
:405E400083F8761D4CF20F01A3F8951D264983F8A67D40230B708B700B728B7281F80F21224A01211170102182F87810204920220A7081F82D00082081F84D0081F850208C
:405E800081F855301B4B0A201A701B4AC3F8152040F20112A3F81920812283F82D2003F0A9FD164B89F80060442288F80050144D1A7094E80F0007C52B80BDE8F883FEE7EE
:405EC000224200402542004004400040004200400F010049A146004001400040A2430040CF0100494258004001590040205A0040D35A00402B5B004002010102765800409D
:405F0000B0430040F8460040F946004008B506F0ABFB03680C2B00D1FEE7FEE780B51148114B0025C0B1A3F1100192C922460439161BB74204D051F8046F42F8046BF7E735
:405F4000114653F8046C8C1AA64202D041F8045BF9E701381033E5E706F08CFBFAF73CFCFEE700BF01000000B8CF0000124A134B10B51A60124A134C1368134843F40073E9
:405F800013600023032B98BF54F823204FEA830188BF0E4A0133302B4250F3D10C4B1A780C4B1A700C4B084A1A60FFF7ABFDBDE8104003F0A1BB00BF0004FA050CED00E08C
:405FC00014ED00E0000000000080FF1F0D5F0000BC760040C080FF1F08ED00E073B515461E460B4C0A230022019200920A4601461846237003F008FC32462946207803F06E
:40600000DFFB0221207803F0C9FB207802B070BDE18BFF1FFAF762BB074A8023136002F6883212680549D165054AE0211170A2F207321360704700BF80E100E015600000B1
:4060400007E400E073B515461E460B4C04230022019200920A4601461846237003F0D4FB32462946207803F0ABFB0221207803F095FB207802B070BDE28BFF1FFAF716BB45
:40608000084A4FF40073136002F68832126806495166064AE02111706FF442710A441360704700BF80E100E07D60000009E400E073B515461E460B4C05230022019200927C
:4060C0000A4601461846237003F09EFB32462946207803F075FB0221207803F05FFB207802B070BDE38BFF1F014B1870704700BF70640040FAF7EABA074A4FF480631360C2
:4061000002F68832126805499166054AE0211170A2F20A321360704780E100E0F56000000AE400E0044A137803F07F0343EAC010C0B21070704700BF00510040044AC0006D
:40614000137800F0080003F0F703034313707047C0510040164B17491A7802F001021A700A7802F0FC020A701A7842F004021A70DA7A02F0CF02DA72DA7A42F03002DA7265
:40618000DA7A02F0F002DA72DA7A42F00F02DA72094A137843F00103137040F28F13A2F80330A2F80530054B08221A70704700BF184F00401A4F0040194F00401B4F004054
:4061C000074A137843F004031370137C43F00403137492F8753B43F0010382F8753B7047A343004008B5054803781BB9FFF7B2FF01230370BDE80840FFF7E2BF0891FF1F6C
:40620000014B1878704700BF1B4F0040FAF7DCB9084A4FF40023136002F6883212680649C2F88C10054AE0211170A2F213321360704700BF80E100E00D62000013E400E0C6
:40624000024B4FF400221A60704700BF80E200E0014B1870704700BF77640040F8B503F0BBFD474A01271378022643F001031370137C444C43F001031374434B02F5E352C0
:406280001F700B3203F8946C1378054603F07F031370002003F0AEFB23783C4A03F0F90323701378384603F0DF03137023783B43237003F09FFB282003F09CFB344B304689
:4062C0001A7802F07F021A701A7802F0BF021A7023783343237003F08DFB23782D4A43F0040323700023137053702B4AFF2199540133092BFBD1284603F072FD07211720F4
:4063000003F08EFB2549172003F07CFB0721182003F086FB2249182003F074FB0721152003F07EFB1F49152003F06CFB0721042003F076FB1C49042003F064FB0721052061
:4063400003F06EFB1949052003F05CFB0721062003F066FB1649062003F054FB0021162003F05EFB1349162003F04CFB07210C2003F056FBBDE8F8400F490C2003F042BB2F
:40638000A5430040944300409D60004012600040F851004084600040595D0020336E00005D6C0000316E00009D6D0000C96D0000F96D0000396E0000AD700000224B012229
:4063C00010B51A705A70214B214A187000231370204A40201370204A072413701F4A13701F4A13701F4A13701F4A13701F4B4FF400021A604FF080721A604FF400121A60C7
:4064000010221A6020221A601860194804704FF480001860174B1A70933B19B91A7802F0FE0202E01A7842F001021A70124B03221A70802203F8202C012003F0C5FC0F4B05
:4064400004221A7010BD00BF095E0020055E0020045E0020785D0020795D00207A5D0020085E00207B5D0020775D002000E100E09E6000409C60004028600040126000404B
:4064800070B5074C054623780E461BB9FFF7E6FE0123237031462846BDE87040FFF78EBF0991FF1F0C4B01221A705A700B4A002313700B4A13700B4A13700B4A13700B4AEA
:4064C00013700B4A13700B4A13700B4B03221A70802203F8202C7047095E0020045E0020785D0020795D00207A5D0020085E00207B5D0020775D002028600040014B1878C3
:40650000704700BF795D0020024A0C2303FB002040787047965D0020431E072B0CD8074A064B00010344805C5B7800F00F0043EA0020023880B2704700207047FC5F0040E3
:40654000194A10B50C2303FB00231B79090C13F0800F19BF8AB24FF480438BB24FF48042022804460AD003280FD0012813D10021084602F077FF0D4B58700CE00021084655
:4065800002F054FF094B987005E00021084602F031FF064BD870631E072B03D803F054F9034B185510BD00BF965D0020505D0020595D0020431E072B2DE9F0470446894667
:4065C00015465CD82F4F0C2202FB0072D388DFF8B8A09BB2C3F500739D424FF00C0303FB007388BFD588DB7884BFC5F50075ADB2254A43EA15230601B354B244EBB28AF892
:406600000130224B1A5C9846FF2A01D1FFF798FF0C2303FB047200215170B9F1000F28D03DB31B4F385D03F093F811232946FE2218F8040003F022F906F5C04278321FFA98
:4066400089F118F8040003F02BF9124D18F80410385D03F0CDF80121385D03F063F8735D43F002037355735D03F0FD037355BDE8F08703FB04746379DBB28AF80230BDE8F1
:40668000F08700BF965D0020FC5F0040595D0020505D0020706000402DE9F047044615468846002940D0431E072B3FD8FFF734FFA84203D22046FFF72FFF05461D4E335DE8
:4066C000FF2B03D141462046FFF73AFFDFF868A027011AF8040003F03BF81223FE222946305D03F0CBF807F5C0411FFA88F27831305D03F0D5F8DFF84490315D1AF8040061
:4067000003F076F801211AF8040003F00BF817F8093043F0020307F8093017F8093003F0FD0307F8093002E00D4600E000252846BDE8F087595D0020505D00207060004028
:40674000431E072B0AD8064A0C2303FB002300225A705A79034BD2B200011A54704700BF965D0020FE5F004070B5094C094DFF2100230C26E25C06FB0252927A824204BF73
:40678000194602230133DBB2012BF3D0084670BD665D0020965D002010B51E4C2079FFF7E3FF237813F0800F63780DD0212B2ED1BDE81040184B07221A80184AC0EBC0007C
:4067C0001044586000F0A0BADBB2202B0ED0222B1DD1A378124A22F81030124A135C43F002031354BDE8104000F06EB90A4A07230A491380C0EBC0030B445360094A135C75
:4068000043F001031354BDE8104000F0A3BA002010BD00BF00600040885D0020E48BFF1F6E5D00206C5D002010B5164A00231370154A164C137053702078C0B2431E072B57
:4068400001D8FFF77DFF6078C0B2431E072B01D8FFF776FF0E4A13788BB123787BB10D4B197861B11278082A09D8084A1278082A05D81878082894BF0020012010BD012001
:4068800010BD00BF0A91FF1F6C5D0020645D0020625D0020665D00200A4610B40A4B0B491B780B4CCB5C0C21DBB201FB03410C89A4B2944238BF0A8910BC014638BF92B2A6
:4068C0001846FFF777BE00BF0A91FF1F625D0020965D0020024B034A1B78D05CFFF714BE0A91FF1F645D0020024B034A1B78D05CFFF70ABE0A91FF1F625D002038B50D4BF6
:406900000D4A1B780146D45C0C4AE4B20C2303FB04231A89204692B2FFF7BEFE05462046FFF7F2FD0128FAD02046FFF709FF284638BD00BF0A91FF1F645D0020965D0020FB
:40694000C37890F9020003F0030300280FDA032B15BF0C480C4802F00103C2F3800319BFC15442F00102C15442F0040207E0032B1FBF0648C2F34003C15442F00202104626
:40698000704700BF625D0020665D0020645D002030B51A4A1A491B4D0878138803449BB21380194A00231488D8B2A4B27CB1082B0CD050680078C0B2E8545068013301302F
:4069C00050601088013880B21080ECE718460B780E4C082B0E4A00D040B10E4D2B7883F080032B700F232370022301E0022323701370094B1870087030BD00BF025E0020E5
:406A0000775D002000600040885D0020765D0020045E00207C5D0020945D0020074B02221A70074B80221A70064B0F221A70064A00231370054A012013707047045E002092
:406A40007C5D0020765D0020775D0020945D002030B5164B16491B780A8803F00F03023BDBB21A4492B20A80124C134A0020118889B279B173B15568215C013BC9B22970D9
:406A80005168DBB20131516011880130013989B21180ECE7094A1370094A137883F080031370084B0B221A7030BD00BF29600040025E002000600040885D0020945D002028
:406AC0007C5D0020765D0020064A06231370064A01201370054B80221A70054B00221A70704700BF045E0020765D00207C5D0020945D0020054B9A683AB19A680449107041
:406B00009A680988518000229A607047885D0020025E002008B5124B1A78D2B21A701B78DBB21A0602D50F4A137008BD0220FFF7E1FF0D4B1B7803F06003202B05D0402B63
:406B400006D043B900F024FD04E003F04DF901E000F058FE10B9034B03221A7008BD00BF28600040765D00200060004008B5084A084B0120197813880B449BB21380064B1A
:406B800000221A70FFF7B6FF044B03221A7008BD025E0020775D0020045E0020765D002008B50C4B1B78DBB2042B07D0062B09D0022B0DD1BDE80840FFF7D8BFBDE808401C
:406BC000FFF746BF0320FFF795FF034B03221A7008BD00BF045E0020765D002008B5054B002201201A70FFF785FF034B03221A7008BD00BF045E0020765D002008B50A4B9B
:406C00001A7832B11A78094942F080020A7000221A70074B002201201A70FFF76BFF054B03221A7008BD00BF085E002008600040045E0020765D0020074B1B78DBB2042BDB
:406C400005D0062B05D0022B05D1FFF7A1BEFFF7C5BFFFF7D3BF7047045E002038B51D4C2378DBB2DD0634D518060AD503F00F03012B2ED1FFF74EFF174B1B78190609D5DA
:406C800038BD5A0602D5FFF7D7FF03E09D0620D5FFF786FF23781B061BD4104B1A78104B1B7813430F4A13701278934211D10A4A0849154613782078DBB2000605D41378D3
:406CC000DBB20B700B7803F00F0328788342F1D138BD38BD28600040765D00207C5D0020945D002029600040054A00231380054A916819B191680B7092685380704700BF97
:406D0000025E0020885D00200E4808B503889BB213B9FFF783FE13E00B4B02221A700B4B00221A70FFF7E0FF094AD1799379028843EA012392B2934238BF0380FFF728FE9F
:406D4000012008BD885D0020045E00207C5D00200060004008B50C4B04221A700B4B80221A70FFF7C1FF0A4A0120D179937943EA012308490A8892B2934238BF0B80064B26
:406D80000B221A7008BD00BF045E00207C5D002000600040885D0020765D0020084B01221A700F3B9B7C074B1A7B02F00302012A1EBFDA7B82F08002DA7301225A73704701
:406DC0000B600040965D0020094B02221A700F3B93F82230074B1A7E02F00302012A1EBFDA7E82F08002DA7601225A76704700BF0B600040965D00200B4B04221A700F3BB0
:406E000093F83230094B93F8242002F00302012A1EBF93F8272082F0800283F82720012283F82520704700BF0B600040965D00207047FFF737BB0000F0B5184B184E197806
:406E40000C27C9B201234FF0000C31B3CA0720D5144A4FEA031E7244947850782040C5070DD507FB03652C79240608D5147804F0FE0414706D790C4CEDB204F80E5084071D
:406E800006D507FB036425792D0658BF84F801C090700133DBB24908D7E7F0BD9F600040965D002070600040FE5F004008B50B4B18780138C0B200F075F9094B09491B7907
:406EC000DBB200EBC3004269CB5C02EBC3035B68054A596A0B781380516008BD795D002000600040845D0020885D002008B50D4B18780138C0B200F055F90B4B0B491B7909
:406F0000DBB200EBC3004269CB5C02EBC3035B68DB69597813F8022B42EA012204490A804B6008BD795D002000600040845D0020885D002070B5194C00232380184B18780C
:406F40000138C0B200F02EF91649CB780A79DBB2D2B2012A20D8144D5E1EAD5C022EEDB21AD800EBC202526903F1005302EBC5025068013B8A7800EBC30510F83330D2B252
:406F8000934209D30C2353436968CA185068CB5A606023809368A36070BD00BF885D0020795D002000600040845D002038B53A4A13791178DBB211F0800F114633D052781B
:406FC000013A052A66D8DFE802F0101827656503CB78212B02D1FFF769FF08E02E4BDB78222B57D1FFF782FF01E0FFF7A3FF2B4B1B889BB2002B4DD00AE0012B4AD88A7853
:40700000002A47D1254901220A80254A13444B60BDE83840FFF778BE012B3BD81F4901220A80204AF2E75178C9B20A290DD00B2923D009292ED1FFF77DFF184B1B889BB231
:4070400043B3BDE83840FFF785BE012B22D8917801F0FF00F1B9D2781149D2B2CA54124ACD5CD45CA54201D2D0540FE0D05C01280CD9C95CC9B2D15408E0012B0AD8917835
:40708000012907D892780749D2B2CA54BDE83840FFF71ABD002038BD00600040885D00200D5E0020095E00200B5E002002F0F6B970B50446184B88B003AA03F110061546CF
:4070C00018685968083303C5B3422A46F7D11B782B70FCB12223237001AD03232846637002F0A8FC002220461146AB5C08AC04EB131414F8144C03F00F03847008AC234491
:4071000013F8143C0132082AC1700371417100F10400EAD108B070BD14CB00002DE9F0431C4D01222E460C201F274FF0800E4FF0080C194B00FB02581401234418705F705D
:40714000164998F805902144B9F1000F07D098F8044024064CBF887081F802C001E081F802E000FB0261CC880132E4B29C71CC88092AC4F30724DC71CC88E4B21C71C98818
:40718000C1F307215971D4D1054BFF221A70BDE8F08300BF965D002070600040FC5F00400A600040064B074A1B7802EBC30253681A7C824286BF03EBC003586900207047C0
:4071C000055E00209CCB00002DE9F84F424B1A78002A7ED01878414D0138C0B2FFF7E2FFA8463F4AC3681478007ADFF800C1E4B203EBC0000C2600274FF0010E834268D0E9
:407200001A78A24263D11CF80420597891425ED19A7893F8039002F07F0206FB02FA05EB0A01CF7093F802B009F0030981F804B093F803B005F80AB0B3F804A0A1F808A0CB
