:400000000080002011000000054F0000054F000008B5044B1A6803F53F5302331A6004F079FF00BFFA46004010B5054C237833B9044B13B10448AFF300800123237010BD53
:40004000808CFF1F0000000034910000084B10B51BB108490848AFF300800848036803B910BD074B002BFBD0BDE81040184700BF00000000848CFF1F34910000C880FF1FF2
:40008000000000002DE9FF41294B05461B780F46002B4AD14FF458724A43264EB418B25C824242D00228A4F81832A4F81A32A4F81C32A4F85832A4F85A32A4F85C32A4F849
:4000C0001031A4F81231A4F81431C4F82031C4F80832DFF86C8005D1084600F08BF9C4F8280206E0042813D1084600F083F9C4F868020246C31700210120CDE90201CDE912
:4001000000011946104601F0A5F90B4B186001E0062801D0002300E0012388F800304FF458735F43054BF5551D7004B0BDE8F081A78EFF1F2891FF1FB4FCFF1FE890FF1FC6
:40014000448DFF1F2F4B002118460A46425401F55871B1F5D86F1A815A819A81DA811A825A825A619A61C3F8F820C3F80021C3F80421A3F81822A3F81A22A3F81C22A3F83C
:400180001E22A3F82022A3F82222C3F82422C3F82822C3F83C22C3F84422C3F84822A3F85822A3F85A22A3F85C22A3F85E22A3F86022A3F86222C3F86422C3F86C22C3F8FD
:4001C0006822C3F84823C3F85023C3F85423A3F81021A3F81221A3F81421A3F81621A3F81821A3F81A21C3F81C21C3F82021C3F80022C3F80822C3F80C2203F55873A5D131
:40020000704700BF2891FF1F2DE9F0412E4C4FF4587303FB02472D4ED7F83C52C7F82412C7F82802B1607060401AD7F84412C7F8405200EB010E451B06214D43D7F84812BA
:4002400003FB024305EB41052149C7F844E28E45C4BF0131C7F84412ED101E49C7F83C02C7F848524FF45878D3F8447208FB02488F42BCBF01F1FF31C3F84412D8F84432B9
:400280000A2793FBF7F7B8F81842B8F81AE2B8F81C32F0600EFB07F760435D43642497FBF4F790FBF4F095FBF4F3F0613844C418204611463762736200F0B0F93461D8F886
:4002C0003C02BDE8F08100BF2891FF1FE890FF1F7F969800816967FFF0B5214C4FF4587303FB0245D5F80862411A1E4F0E4403FB0243BE42C8BF1C4EC5F80012C5F80862A1
:40030000D3F80862194D85B0AE42BCBF05F1FF35C3F808524FF4587303FB0244B4F81031594309120191D4F80832B4F812114B435B1302930E49019D029BD1F8B8112B44C2
:40034000252505FB01330A2190FBF1F0184403900398114600F062F9D4F8000205B0F0BD2891FF1FFF2C3101002D310101D3CEFEE0FCFF1F0C4A4FF4587303FB0020D0F895
:400380006412D0F86832B0F858225B1A02FB03F1D0F86C32B0F85A225B4253439B1103EB6123C0F8203170472891FF1F07490B785B0303F4C0428B7D1B0303F480531343FB
:4003C0008A8AC2F30B0213434B837047E890FF1F024B00229A829A75704700BFE890FF1F08B506F089F806F06DF8BDE80840002006F04CB838B5044606F032F80A4B0B4A79
:40040000186058600A484FF45875536A05FB04001968926AC0F864121268C0F86C221A68C0F82422186838BDE897FF1FC84D00202891FF1F014B01221A7070479C8CFF1F6A
:4004400010B5054C30220549606902F05EF923790133237110BD00BF8C24002075FBFF1F08B504F0DBFF024B01221A7008BD00BFCD8CFF1F10B51F4C05F0F2FF214601F078
:40048000D9FDD4F8C0011C4B1C4C596B40F3CF0000F092FD23781BB101F0BCFB002323706378132B05D9134801F0F6FD134B00225A7044F61F626378013363706388934223
:4004C00008D843F2B062934201D901F07BFC638801336380237914210133DBB2B3FBF1F201FB1233DBB223711BB9BDE8104001F0B1B810BDE0FCFF1FC84D00209C8CFF1FD2
:400500000A4B01221A700A4B1A78FF2A0CD01A780849D2B28A5C52B27D2A05DC1A78D2B28B5C01335BB28B54704700BFD98CFF1FF880FF1FCF8CFF1F024A13780133DBB237
:4005400013707047C88FFF1F80B502F059FD01F0E7FD00F02FF902F0DBFC03F08FFF03F0A1FF134E134D144C3378012B1DD12F78002387F0010733702F709FB92378DFF84A
:400580003C80DBB288F8003005EB83035B689847FF2388F8003023780133DBB2042B237088BF277001F0D2F9DEE701F0FFF9DBE7D98CFF1FCC80FF1FDA8CFF1FF880FF1F29
:4005C00040F2E631054A0020138801339BB28B428ABF108013800120704700BFA88CFF1F054A0020538801339BB2622B8ABF508053800120704700BFA88CFF1F08B500F02B
:4006000043FE044A044BD2F8FC21A3F87800DA6708BD00BF2891FF1F1055002013B50023044602A800F8013D00F0FCF89DF8073073B14CF25033A342A8BF23460A4A934239
:40064000B8BF134640F24122534393FBF0F000E01846064B1B78002B18BF0020044B00B2586302B010BD00BFB03CFFFFF38CFF1FC84D002070B54FF4804341F6FF72012122
:40068000022005F051FE064606F07EF904462B4D00230246022106F091F9291D46F6480289B2204606F09CF92146304606F040F90121304606F0E8F84FF4804341F6FF722B
:4006C0000121022005F04CFE064606F05DF9044600230246022106F071F9A91D46F6502289B2204606F07CF92146304606F020F90121304606F0C8F84FF4804341F6FF723F
:400700000121022005F048FE064606F03DF9044600230246022106F051F9A9B246F65002204606F05DF92146304606F001F93046BDE87040012106F0A7B800BFDC8CFF1FBB
:4007400008B501F051FA05F081FB4FF4FA7005F08BFB05F091FD4FF4FA7005F09BFD05F0C9FD4FF4FA7005F0D3FD0C4B4FF4FA729A80DA801A805A80FFF77CFF05F02AFE81
:40078000012005F0CBFD012006F0BEF901F090F900F0B2FABDE80840FFF722BEDC8CFF1F10B5034CA080E1802280638010BD00BFDC8CFF1F08B5052006F0A6F9002005F076
:4007C00001FB002005F00AFBFFF7BAFFFFF7BAFC01F016FD00F0E8FC62B601F013FD05F01BF802230A4AFE21402000F021FF00F091FD3221074800F04BF9074801F063FB95
:40080000064B01221A700648BDE8084001F05BBB7C8FFF1F1098FF1FF0FFFF1FE48CFF1FE0FCFF1F194B10B51C88194B1A88A242184A01D8146007E0596801310A295960C8
:4008400004DD116801391160002159601C8049F288041168A1F58443683B9BB2A34201D8012300E00023B1F57A5F0370DCBF4FF47A5313604FF6FE731168994203DD4FF64C
:40088000FF71044B1960108810BD00BF10550020E88CFF1FFC80FF1F37B52B4C002394F90420ADF806300132032A46D8DFE802F0020F1D3C40F6C411244A138901339BB2E2
:4008C0008B4201D8138139E00023138135E01F4A138104F07FFB072830D194F9053013B1194A013B5371012327E0184A1389154601339BB2072B138120D90DF1060004F099
:400900007DFB48B994F905200F4B4AB9BDF80620DA8002221A7111E0102801D100230CE02B89B3F5FA6F06E0084A138901339BB21381B3F57A7FF1D800E02371B4F9060002
:40094000208103B030BD00BFFC80FF1FE88CFF1F014BB3F908007047FC80FF1F542804D84F2894BF0020012070470220704700000F4B10B50446187AFFF7F0FF012802D12B
:400980002070002311E002280A4A0BD1937A0133DBB2192B937209D90023237001230B70D37210BD0023937223700B7010BD00BFFC80FF1FE88CFF1F10B5044603F020FCCD
:4009C000044B022804BF01221A730CB100221A73187B10BDE88CFF1F012910B554D82B4CB4F89C3008284DD8DFE800F00508101A232C353E460049428BB243E023F0030354
:400A000001299BB23ED102F0030207E023F0040301299BB236D1920002F00402134331E023F0800301299BB22CD1D20002F00802F4E723F0100301299BB223D1120102F080
:400A40001002EBE723F0200301299BB21AD1520102F02002E2E723F0400301299BB211D1920102F04002D9E723F0800301299BB208D1D201D2B2D1E7DBB2012904BF43EAF8
:400A800002239BB2A4F89C3010BD00BF10550020002303604160836070470B68086083420ABF8B68002301338B6088684B689842B4BF002001207047114A002330B513701E
:400AC000104B184603F1EE0433F8021F33F8025C491B4439882902D90123137001E09C42F2D10388CC2B08DC064BB3F8EE30A3F57C53333B9BB2CC2B01D90123137030BDE5
:400B0000088DFF1F24D9FF1F38B514461D460AA3D3E9002307F0CAFD22462B4607F0F0FE06F0AEF90022064B07F0C0FD06F058F908F06CF838BD00BFA7E8482EFF2119409C
:400B4000000090400000000038B514461D460AA3D3E9002307F0AAFD22462B4607F0D0FE06F0F6F80022064B07F0A0FD06F038F908F04CF838BD00BFA7E8482EFF211940B3
:400B800000009040F7B500230093594B0C461A880621B2FBF1F3574E01FB132332889BB28242374612DDB6F8EE5002F58042521B7733009293FBF1F201FB1233009E00F512
:400BC0008040401B06FB0301019148E07588A84206DAAD1A00950099801A01FB030020E0B6F8EE50A8420DDB02F58042521B7733009293FBF1F201FB1231009E401B06FBFC
:400C000001000EE0B6F8EC60B0420CDB763393FBF1F2AD1B01FB12310095009D801B05FB010001901BE0882290FBF2F2BE4637F81250A84201DA561E57E0561C3EF816108B
:400C4000884252DA1344491B0622009193FBF2F102FB1132009E401B06FB02030193009B0620584307F0BCFC06460F46019D284607F0B6FC32463B46FFF746FF20800098F9
:400C8000019B03EB400007F0ABFC32463B46FFF73BFF60800098019B03EB800007F0A0FC32463B46FFF730FFA080019807F098FC32463B46FFF748FFE0800098019B03EB74
:400CC000400007F08DFC32463B46FFF73DFF20810098019B03EB800007F082FC32463B46FFF732FF608103B0F0BD32469FE700BF0881FF1F24D9FF1F70B52D4C002120464C
:400D000000F00FFFB4F8F0202A4B2B4C1A80FFF7D3FE2A4E032528462949FFF733FF681C2849FFF72FFFB4F90E20B4F9021045F3CC031144022291FBF2F1B4F9060026F891
:400D40001310B4F912100835014491FBF2F11E4820F81310B4F90400B4F91010014491FBF2F11A4820F81310B4F90800B4F91410014491FBF2F1164820F81310B4F90C0094
:400D8000B4F91810014491FBF2F1124820F81310B4F90A00B4F91610014491FBF2F20E4921F8132044F203039D42B4D170BD00BF24D9FF1F0881FF1F088DFF1F28A8FF1F44
:400DC0000A8DFF1F168DFF1F2CC8FF1F2898FF1F1CEAFF1F1CDAFF1F28B8FF1FF8B5704C6F4AE3690133B3F5A27FC3BF0023E361236AE361C4BF01332362236A7D2B7BDC6A
:400E000001215162062193FBF1F201FB1233052B2CD8DFE803F0030910161D244FF4ED73A36240F2012311E04FF4ED73A362E36240F2012319E040F201234FF4ED72A3627B
:400E400012E040F20123A3624FF4ED73E3620CE040F20123A362E3624FF4ED7305E040F201224FF4ED73A362E2622363208D0023228EA18DFFF794FCE069494DA22840F352
:400E80008D80484BB0F5A27FD3F8C83003F500426B6B1344AA6B6B6302F10101A9637DD1286A782290FBF2F502FB1505022291FBF2F2134493FBF1F23B4B1340002BBEBFDE
:400EC00003F1FF336FEA83436FEA9343374AB8BF013322F81530364A9BB25168994207DD0621536090FBF1F301FB13009560108000236363A363F8BD536A012B4ED140F2F3
:400F0000DE322B4D114610460023FFF749FCAF68DFF8A0E03A46DFF894C00026D11B772A0B46244806DC3CF8123001262EF811300132F3E706B1AA60AA68DFF870E0561A38
:400F400076000027521A772B02EB030109DC06EB4301714431F8F01C012720F813100133F1E707B1A9602B880126A0F8F030A0F8F260FFF7A1FD00210E4800F0A1FDFFF796
:400F8000BBFE3046FFF718FD43F6FF7200236A604FF0FF322362E361AA606362F8BD00BF088DFF1FE0FCFF1FFF3F00802CD8FF1F0881FF1F24D9FF1F2DE9F041494D04466E
:400FC00095F83C300E466BB1474C00F500731C40002CBFBF04F1FF346FEA44546FEA5454013424B2686ADFF8FC80002878D1FFF7E3FC3E4F3E49DFF818E128B93D4B1B7817
:4010000013B998F8003023B14FF4FA733B600B602CE0394AD8F8403032F91400374A4FF4806C32F914205A4306FB002292FBFCF202F5FA723A60324A32F91400314A32F9E4
:4010400014205A4306FB002292FBFCF22E4802F5FA7230F914000A6043432C4A32F9142006FB023393FBFCF303F5FA733A68CEF80030B2F5757F1D4B02DB40F2D33202E07D
:40108000142A01DC15221A600A68194BB2F5757F02DB40F2D33202E0142A01DC15221A60DEF800201A4BB2F5757F02DB40F2D33202E0142A01DC15221A600023BEF8002080
:4010C00009883888FFF76CFB1248FFF7ABFBA864704340F2412690FBF6F00F4BC3F88000BDE8F081088DFF1FFF07008028C8FF1F20D9FF1FF38CFF1F28A8FF1F1CEAFF1FCB
:401100002CC8FF1F1CDAFF1F28B8FF1F2898FF1F18DAFF1F4C8DFF1F10550020142110B50F4801F036FF0F4A0F49D2F8F0311844022390FBF3F0137803B10823CB640B4B30
:40114000CC6CD3F8B8211423504340F62C2290FBF2F0634343438A6C93FBF2F30B6410BD5092FF1F2891FF1F088DFF1FE0FCFF1F10B5044604F014FE012005F0DBFC20461B
:40118000074B04F1300250F8041B904243F8041BF9D1BDE81040034B0121187805F074BB13FBFF1F74FBFF1F38B5012005F040F90121042004F07AFA04F0B8FD04F0C8FD3B
:4011C00004F0E0FD012141F6FF734FF48042084603F06EFF1F4C204D207005F0D5FB062302463021287005F0E9FB1C4A46F2434192B2287805F0F4FB2978207805F098FB95
:401200000121207805F040FB03F070FF01214FF4804341F6FF72084603F07EFF104C114D207005F0B1FB3523FE223021287005F0C5FB0D4946F2464289B2287805F0D0FB22
:401240002978207805F074FB20780121BDE8384005F01ABBB2FAFF1F73FBFF1F75FBFF1F74FBFF1FD5FBFF1F13FBFF1FC3782BB9034B01229A76034A1278DA76704700BF68
:401280008C240020DA8CFF1F014B1888704700BF608DFF1F09498A88CB8808899BB292B21A4480B28318488980B21844044BC0F38F005883034B1880704700BFA4FCFF1F84
:4012C000D8FBFF1F608DFF1F38B54FF4804241F6FF730121022003F0B7FE054605F054FB0446062302460C2105F068FB084A44F6106192B2204605F073FB2146284605F0C8
:4013000017FB2846BDE83840012105F0BDBA00BFA4FCFF1F08B504F069F805F0ADF9FFF7D3FF03F0AFFE044B7D221A7032225A700022DA825A8308BDD8FBFF1F2DE9F84FEC
:40134000DDE90CAB42F21079824273EB0104DDF82880334CB9BF4FF0FF364FF0FF3701260027121A63EB0103C4E90401A8FB09010B9DC4E90067C4E902ABC4E9062309FB94
:40138000051152465B46C4F82080656207F086FC0A220023C4E90A0107F080FC064694E809000F46A0FB090109FB0311454308FB0155A0FB0801324629443B46C4E90C67DA
:4013C00007F06CFC82468B460020054602460346014680468146C4E90EAB20646064B04271EB070E0CDA18EB0A0849EB0B0912EB080243EB0903013041F100010125EEE731
:401400000DB1C4E91023D4E91001064A002307F045FCC4E9100100200021BDE8F88F00BF788DFF1F8096980030B50D4604460849C1E91C23121A63EB050392185B41C1E9AC
:401440001823DDE90323C1E91A45C1E9162330BD788DFF1F2DE9F04FDFF888818BB00024DDE916AB0025BAF10B0FC8E91245DDE91467C8F85040C8F878407BF10004CDE90D
:401480000801CDE90423444613DA022E77F100044FF0010404DAC8E92023C8F8784005E0CDE90067FFF7C0FFC8F850403046394694E0002E77F1000302DA764267EB470768
:4014C000DDE90423CDE902ABDDE9080100960197FFF734FFD4E90689B8F1000F79F100033D4603DAD8F1000869EB4909D4E91023002A73F10001CDE9068902DA524263EBAC
:401500004303901843EB0301804579EB010125DA0AFB09F3AAFB080108FB0B33194407F097F805F0F5FC07F009FCDDE904230090019106460D46DDE90801CDE902ABFFF7D6
:40154000FDFEA269002AB8BF52421046D117226CCDE90601002AB8BF5242D31742F2107EDDE9060192185B41801A61EB03010B460246A0FB0E01C4E932230EFB03113246EF
:401580002B4607F08BFB4FF47A73A0FB038903FB019942F2107200234046494607F07EFB002871F100030F4F02DBC7E9340103E000220023C7E93423D4E90C67D4E93401F2
:4015C00080197941C4E92E018019794100220023C4E92C67C4E93001C4E922230BB0BDE8F08F00BF788DFF1F0A494FF47A700B8801339BB2B3FBF0F200FB12339BB2B3F5FA
:40160000F97F0B8088BFC31A4B804B885B080B71704700BF588EFF1F044BC0F1FA001B798342D4BF00200120704700BF588EFF1F182B10B50AD8064CA36001232070617027
:401640000020237323756260206110BD012010BD608EFF1F014B01225A757047608EFF1F5A4A70B5138813B1013B138070BD584C227B002A00F0A980E28A022A0AD9E38289
:40168000236104F017FB04F03BFB04F023FB237E01332376227E4E4B032A04D904221A6100225A761A762169494B21B95A7D012A04BF59751A612669454D012E10D1002336
:4016C000EB8204F0F7FA04F01BFB04F003FB29460223324611F8010B04F018FA022316E0022E1DD1EB8A0133EB8204F0CDFA860716D501060DD404F0DDFA294601232A7A09
:4017000011F81A0B04F060FA0023EB8203232B6170BD0023EB822B612B7E01332B7670BD23692B4D032B23D1EB8A0133EB8204F0ABFAC2071CD5030613D4002305F11A0045
:40174000A168234A8B4204D2195C6A68D1540133F6E7137E0BB1013B1376636B0133636302E02B7E01332B760023E382236170BD2269174B042A28D1012283F838205B7E7D
:40178000072B22D8DFE803F0041313131313101604F090FA04F0B4FA04F09CFA04F04EF8638F0133638701E004F036F8637E0133637670BD00250223064AFE214020E58228
:4017C000FFF736FF256184F8385070BD1481FF1F608EFF1F7C8FFF1F014B586B704700BF608EFF1F014B00221A757047608EFF1F014B187D704700BF608EFF1F2D4B10B52E
:40180000D3F8FC0102F094FCFEF7EAFE70B102F0ABFC02F0F5FC012182B20846FFF7DCF8254B01211A780320FFF7D6F8234B01211A780520FFF7D0F8FFF7DAFF08B100F0EE
:40184000E9FB1F4CB4F900300BB1013B2380B4F90030B3F5FA6F0AD1FFF7BEFFF92806D8FFF7C0FF17496FF0010000F057FBB4F90030F3B9FFF7BCFF70B1124B1249D3F891
:40188000BC01FFF70AF9114B01211A781043C2B206201A70FFF7A0F8B4F900304BB9FFF7A7FF30B9BDE8104006496FF0010000F035BB10BD2891FF1F088DFF1F988EFF1FD8
:4018C0001681FF1FF0FFFF1F1098FF1F9C8EFF1F10B50020FEF78EFD3221134801F066FB124B1A78F2B9124C2378022B06D1D4F82412D4F82802FEF787FC04E0042B02D1C6
:401900001046FEF737FD217811B90846FEF786FE084B1B7833B1002121700846BDE81040FEF77CBE10BD00BF5092FF1FA78EFF1F2891FF1FF38CFF1FFFF7F0BB08B503F06C
:4019400065FDBDE80840FFF7A5BC000008B51448437883F00103437013B102F0B7FB04E0023000F01FFC00F037FC0E4B1A780E4B52B919780339012906D8D3F8FC11D3F850
:401980002001FEF7A9FC02E00022C3F80822FFF72FFF18B1BDE80840FFF762BE08BD00BF9C8EFF1FA78EFF1F2891FF1F034BD87880F00100D87003F0DFBE00BF9C8EFF1FAF
:4019C0000022134630B54FF0FF34855C6DB29D42C4BF54B2835C01320A2AF6D10F2B01D89BB205E0642B8CBF012300230B700F23621C1ABF43EA041398B2002030BD00009B
:401A000038B5254CFEF7FAFD00F016FC2379234D23B100232B70237100F020FC2B780BB1012323711C4DFEF737FF691DA81DFEF79FFF627901210220FEF7CEFFA3780BB1DB
:401A40000023AB70FFF7D0FDA279637912B123B9642003E00BB1C82000E00C20FFF7DCFD03F078FB0E490F48FFF7AAFFE2790E4C01210420FEF7B0FF2378DB0706D5FFF749
:401A8000ADF90A4B1B681BB9237001E002F018FDBDE83840FEF794BD9C8EFF1FC88FFF1FA38EFF1FCF8CFF1FA78EFF1F2C8DFF1F08B504F0E6F9BDE80840052005F03AB8BE
:401AC000F0B50C4685B0064610220021684607F020FB24B1012C22D13C25142701E02746132504F0E4F93C46AC4218D2E21B06EB0212002332F8130004A901EB43010133A6
:401B00004FEA102E082B01F810EC01F80F0CF1D1E1B26846013404F0CFF9A4B2E4E705B0F0BD2DE9F843804629B101291BD14FF4F079A02502E00D464FF098092C464C45EB
:401B400011D26600B6B2304604F09DF90746701C80B204F098F9631B40EA0720013428F81300A4B2EBE7BDE8F8830000014B1878704700BFA78EFF1F012807D0C30704D45E
:401B800002288CBF00200120704700207047000038B54FF4804241F6FF730121022004F009FB0E4C0E4D207004F0EEFE062319460246287004F002FF0A4A45F6A23192B2E2
:401BC000287804F00DFF2978207804F0B1FE20780121BDE8384004F057BE00BFDEFCFF1FB8FCFF1FBAFCFF1F08B504F0D1FA04F077FA04F03FFA04F0C1FD012004F084FFD4
:401C0000FFF7C6FF04F0F4FABDE80840012004F07BBF00006149624BB1F90020B1F90200B1F904102DE9F04F1A80588099805D4B5D4C1E685D689F685C4BD4F8B0B11B7856
:401C4000002BD4F8BC31D4F8B0A1D4F8BC81D4F8B091D4F8BCE16FF03B0404FB0BF44FF47A7B94FBFBF414BF4FF4805C4FF0000C63441C444E4B04F580442340002BBEBFED
:401C800003F1FF336FEA83436FEA9343494CB8BF0133DB1034F913406FF063039AFBF3FAE044D044424B08F5804808EA0303002BBEBF03F1FF336FEA83436FEA9343DFF849
:401CC000FC80B8BF0133DB1038F913806FF06D0303FB09F94FF47A7399FBF3F9E644CE44334B0EF5804E0EEA0303002BBEBF03F1FF336FEA83436FEA9343DFF8C4E0B8BFF8
:401D00000133DB103EF913E0264B4FF0000CC3F80CC0C3F810C004F5F07CBCF5707F06D9C01B800290FBF4F40120DC60186108F5F070B0F5707F09D9891B890291FBF8F884
:401D4000D9684144D9601969013119610EF5F071B1F5707F09D9521B920292FBFEF2DD682A44DA601A6901321A6119690D4C002908DDE0686FF01702504390FBF1F0C1173F
:401D8000C4E90601BDE8F04F0B4899693222C0F81C1100F5947001F0E1B800BFBAFCFF1FCCFCFF1FB08EFF1FE0FCFF1F448DFF1FFF3F008028A8FF1F2891FF1F2CC8FF1F27
:401DC0002898FF1F124B70B5124C596AB4F904001A6A0844B4F90060D96AB4F90240551C9A6A0C440221164495FBF1F25862DC6210441444324494FBF5F490FBF5F092FB5E
:401E0000F5F21D629E629C6018605A6070BD00BFB08EFF1FCCFCFF1F2DE9F0410021804601F0B7F80746084E1C2400252146404601F0AFF856F8043FC01B073C03FB005583
:401E4000F4D16800BDE8F081748AFF1F2DE9F0410021804601F09DF8002407462546084EC4F10401404601F094F856F824300134C01B042C03FB0055F2D12846BDE8F081E4
:401E80008C8AFF1FD0B5A0F1080100F1500400260027E1E90267A1424FF000024FF00003F7D1C0E91623C0E91823C0E91A23C0E91C2300238367C367C0F88030C0F884303D
:401EC000C0F88830D0BD38B50446002501F032F804F1D80001F02EF804F5E870C4F8B051C4F8B451C4F8B851C4F8BC51C4F8C051C4F8C451C4F8C851FFF7C4FF04F5187080
:401F0000FFF7C0FF42F21073C4F8F052C4F8FC32C4F8F452C4F8F85238BD0000F8B53A4C0D46D4E91423134318BF0123D1F8BC2118BF84F85830354B821A9A42D1F8C8314A
:401F400004DA94F858205AB1013307E041F288318A4205DD94F8582012B1013BC5F8C831D5F8C82100270A23C5F8BC01A36600EB82309E463E463A463B46C1172766676641
:401F800005F5087CBEF1000F09D07CE902679219CCE902677B410EF1FF3E0126F2E70EB1C4E9182305F5E873C3E90001D4E9182380185941C4E91801154A0A23013B72E9C1
:401FC0000267C2E90267F9D1A3660B22002306F065FED4E90823821A61EB0303002AC4E9000173F10004C5F8D80202DA033243F10003920842EA8372C5F8E022A5F8EC02EE
:40200000A5F8EE22F8BD00BF108FFF1F78ECFFFF608FFF1F054B064993F86C0093F86D3003F03F0303EB8010FFF778BF108FFF1FF0FFFF1F002807DA4FF46152404290FBDF
:40204000F2F302FB1300101A4FF4615290FBF2F302FB130040F28D43D1F8B0215843502353434FF47A7293FBF2F38012C1F8BC011844084B00F580400340002BBFBF03F19D
:40208000FF336FEA83436FEA93430133C1F8C031704700BFFF3F00802DE9F8430446D0F8BC51DFF878E01C4ADEE92001EF17281A67EB01014FF0FF33904271EB03032E46EC
:4020C000D4F8C83101DA013308E041F288384FF00009804579EB010202DA013BC4F8C831D4F8C811022205EB81312046CEE9206700F034FF2046FFF7A9FE4FF47A7390FB00
:40210000F3F0D4F8C830C4F8B001C4F8B431C4F8B801BDE8F88300BF78ECFFFF108FFF1F2DE9F043184D194FDFF87090DFF8708085B0002440F61450E6B23A5D314600FB2F
:40214000049000F01DFCA5F59C711148E25D02914FF4647101FB04019623634301910D490D481944009131463426039506FB04004344013400F0D1F9032C05F51C75D9D105
:4021800005B0BDE8F08300BFF01A00202490FF1F080F0020CA2200208C240020282500200821002038B5094B04465A796AB100225A71074800F060FA064B0546187804F0AF
:4021C00079FB022D04BF0123237038BD8C240020B8190020B2FAFF1F10B5074CA37E012B08D1064890F83E1100F23F10FEF7C0FF0023A37610BD00BF8C240020B819002061
:4022000004F000B938B5002421460A4AA1540134072C084D4FF00003F8D1EB712B726B7203F054F92A462146BDE838400A2003F05BB900BFF002002010B5FEF789FB054BCE
:40224000054CB3F89C302072E37101F0D3FF607210BD00BF10550020F002002013B50E4C0E4B627802A91A70032221F8022DA27820465A7000F029F8094B00225A809A803C
:40228000DA80BDF806201880A15C013292B2A25C19729A8102B010BDF0020020C68FFF1F105500207047137803700B7883704B78C3707047138810B5040ACC541388194452
:4022C000487013880233138010BD10B50B88C45C18444278023302EB04200B8080B210BD138810B5040ECC541388040C0B445C701388040A0B449C7013881944C870138871
:402300000433138010BD30B50C880319055DDA78587802EB056202EB0042987804340C8002EB002030BD0000F8B50C4607461646AA213022204606F0ECFE00223D46104696
:4023400002234FF0E90CE91B8E4209D802332F2B28D930220021204606F0DBFE0020F8BD2F2BF3D815F8011B01F1130E5FFA8EFEBEF1010F01D9E9290FD104F803C015F8A5
:40238000011C04EB030E0133E1549EF800E0013072440A4402F0FF0202E00A44E154D2B20133D0E70E4D8319A979E8700131D8B22F2B6E70A870A97106D9302200212046D6
:4023C00006F0A7FE002009E0ED212A716070217003301C44EE23A270E370C0B26871F8BDCC8FFF1F2DE9F74F06460F46924600F0ACFA8146A0F1040B4FF0FF34A3454EDD56
:40240000621C92B2ED21304600F0CCF9431C044645D08345F2DB1FFA80F808F1010189B2304600F0AEF9E31C034499450546E5DD9BB219463046009300F0A3F9EE28009B57
:40244000DCD1013B9BB208F102011A4689B23046019300F0D0F9019B00901946304600F090F9009A8242C9D12B1D39462C449BB242463046013500F0F1F90434791C0023D8
:402480002F440022B9420BD011F8010FE92800D11AB10AF803000133F3E70122F2E70024A0B203B0BDE8F08F037830B58B7043780BB9012300E002230B710369CA1D03F1C9
:4024C000300453F8045BA34242F8045BF9D1C3689D3103F1300253F8040B934241F8040BF9D130BD10B54478C16202630378C1F83401C2F8340134B90120087103208B7063
:40250000C870022105E00220087103208B70C870012111719070D37010BD2DE9F84304460025962708A890E84103E3602170627029463A46A57025716571206106F0E9FD5A
:402540003A462946E06806F0E4FD304600F0CCF86661257665764A4641462046BDE8F843FFF7C0BF70B5144606460D461A460021204606F0CEFD2670657070BD0278437881
:402580009A4205D2C07800F0010080F00100704706D9C37813F0010F14BF0320022070470320704770B5054600790E46A8B101382871EA6829696869FFF714FF60B10146C3
:4025C000686900F078F9044631462846FFF76CFFE0B2B0FA80F04009C0B270BD70B544780CB9002070BD01F081FD844201D1012070BD01F077FD8442F9D001F083FD844212
:4026000036D001F073FD844234D30025002001F08DFDEEB2864209D23146002001F078FD844205F10105F1D1022070BD0025012001F07CFDEEB2864209D23146012001F017
:4026400067FD844205F10105F1D1032070BD0025022001F06BFDEEB28642C2D23146022001F056FD844205F10105F1D1042070BD062070BD072070BDF7B5837800F19D07F1
:4026800090F8A0500646002438468DF805408DF80430FFF7A3FF012815D10323F3703846FFF76CFF022818D80D4A6B081370507003EB43030B4A034452F82330384601A966
:4026C000984702200AE0022801D1F47005E00638012894BF0020012000E0204603B0F0BDDC8FFF1FF00800204FF0FF33C0F884330023C0F88833C0F88C33421E00F2833076
:4027000002F8013F8242FBD17047B2F5617FF8B504460F46164632D8D0F88853AB18B3F5617F284408DDC5F56175ADB22A4606F0E5FC2046721B791906F0E0FCD4F8843390
:402740004FF46171002BBCBF0023C4F88433D4F88833F21892FBF1F301FB1323D4F88C23C4F8883316448E42D9BF0020C4F88C63C4F88C13C4F88433C8BF0220F8BD012008
:40278000F8BDD0F88C339942BFBFD0F884334FF46172C91891FBF2F3BABF02FB1311405C0020704770B5D0F88C53AA421EDAD0F8844313190444B3F5617F08DAA65C8E42A1
:4027C00017D00132954203F10103F4D12A464FF4617693FBF6F406FB14339B1A1844AA4204DA835C8B4204D00132F8E74FF0FF3070BD104670BDD0F88C3330B599422BDA0A
:40280000934229DB531A002B26DDD0F8843319441A444418002391420BDB4FF4617592FBF5F405FB142291FBF5F405FB1411014408E0B1F5617FF0DA14F8015B01312B44CD
:40284000DBB2E8E70C1AA24204DD11F8014B2344DBB2F7E7184630BD002030BDF8B50E461F46054628B321B3D0F88C13D3188B421FDCD0F884334FF461741A4492FBF4F1B1
:4028800004FB1124A1B2CB19B3F5617F01440ADDC4F56174A4B22246304606F02FFC3A1B2946301901E03A46304606F027FC0020F8BD0120F8BDB1F5617FF8B5044606D813
:4028C000D0F88C73B942D4BF0027012700E00227D4F88423B1F5617F28BF4FF46171002A0D4630DB5318B3F5617F04EB02000ADDC2F5617296B23246002106F00AFCAA1BB7
:402900000021204601E00A46002106F002FCD4F88C335B1B002BC4F88C3309DC4FF0FF33C4F884330023C4F88833C4F88C330AE0D4F884130D444FF4617195FBF1F301FB22
:402940001355C4F884533846F8BDD0F88C03704770B50446C51D00F25F26284696220021963506F0D6FBB542F7D14FF41672002104F2612006F0CDFB0023A4F8BA3470BDC0
:4029800010B504460023017042708370C3700371836000F56770FFF7DBFF04F65800FFF7D7FF04F10C00BDE81040FFF79DBE704713B5012302A921F8023D0478FFF7A3FC8D
:4029C000024B063443F8240002B010BD084D002037B50D4604460A46014601A8FFF763FC6B78054A8DF8053001A9044B201DFFF7DFFF03B030BD00BFE0510020F08FFF1F9C
:402A000073B5002302AC24F8023D21460646FFF77AFC0E4D214628603046FFF774FC214668603046FFF76FFC2146A8603046FFF76AFC2146E8603046FFF765FC214628614A
:402A40003046FFF760FC686102B070BD084D002037B50D4604460A46014601A8FFF723FC6B78054A8DF8053001A9044B201DFFF7C7FF03B030BD00BFE0510020F08FFF1F68
:402A80000D4B0E4AC3F808210D4AC3F810210D4AC3F814210C4AC3F81C210C4AC3F818210B4B0C4AC3F814210B4AC3F81C210B4AC3F81821704700BFF0080020992B0000DC
:402AC000AF2900006D2C0000512A0000D1290000FC0200204D2C0000012A0000B12900002DE9F3410446002602AD9846162325F8026D0B700223137001462A463046FFF702
:402B0000D9FB2A4621463046FFF7D4FB2A4621463046FFF7CFFB2A4621463046FFF7CAFB1C4F2A4621463046FFF7C4FB2A4621463046FFF7BFFB2A462146B889FFF7BAFB6D
:402B40002A462146F889FFF7B5FB2A462146388AFFF7B0FB7B6A2A4618682146FFF7C0FB2A462146386AFFF7BBFBBDF80620531C9BB2A654E654931C9BB2E654111DD31CED
:402B80009BB289B20532E6546654A8F8002002B0BDE8F081C84D00202DE9F043804689460D4F0E4E0E4D0F4C85B03B46324629462046FFF795FF01203B88029098F80000C6
:402BC000327800902978CDF80490204600F08EFA05B0BDE8F08300BFF08FFF1FF28FFF1FF38FFF1FE0510020F7B5064602AC1F46002324F8023D1723134D0B7002231370C4
:402C0000014622462868FFF76BFB224631466868FFF766FB22463146A868FFF761FB22463146E868FFF75CFB224631462869FFF757FB224631466869FFF752FBBDF80630A0
:402C40003B8003B0F0BD00BF084D002007B51046002200920349044AFFF7C6FF03B05DF804FB00BFF38FFF1FF28FFF1FF0B50D46044687B00A46014605A8FFF714FB0D4FC7
:402C80006B780D4E8DF8153032463B4605A9201DFFF7DCFF094A0A4901203B88127809780290207801950090304600F01FFA07B0F0BD00BFF08FFF1FE0510020F28FFF1F43
:402CC000F38FFF1F704700000279084BDA7142791A7282795A72C2799A72027ADA72427A1A73827A5A73C27A9A737047A44C0020F0B50B4B3D251D700A4B02220A4C0B4F12
:402D00001A7085B0002601233B80267002960191017820460091294600F0E8F905B0F0BDF38FFF1FF28FFF1FE0510020F08FFF1F70470000084B094AC3F8DC22084AC3F8AD
:402D4000E022084AC3F8E422074AC3F82423074AC3F82C23704700BFF0080020F12C0000312D0000C52C0000A92D0000C92C000010B543240C70022111700A4AD179017070
:402D8000117A4170517A8170917AC170D17A0171117B4171517B8171927BC27108221A8010BD00BFA44C00202DE9F043804689460D4F0E4E0E4D0F4C85B03B46324629469D
:402DC0002046FFF7D5FF01203B88029098F80000327800902978CDF80490204600F086F905B0BDE8F08300BFF08FFF1FF28FFF1FF38FFF1FE05100207047000030B50A4BEA
:402E000029241C70094B0222094D1A7000232B8085B0012502950191017806480091214600F064F905B030BDF38FFF1FF28FFF1FF08FFF1FE051002007B5042302A921F88D
:402E4000023DFFF760FA03B05DF804FB70477047094B0A4AC3F8EC21094AC3F8F021094AC3F8F421084AC3F80422084AC3F80822074AC3F80C227047F0080020FD2D0000FF
:402E80004F2E00004D2E0000BD2E0000392E0000F92D000037B51D4602AC002324F8023D2B230B7002231370014622460698FFF717FABDF806302B8003B030BD2DE9F043E3
:402EC000804689460E4F0F4E0F4D104C85B00023009332463B4629462046FFF7DBFF01203B88029098F80000327800902978CDF80490204600F0FAF805B0BDE8F08300BF34
:402F0000F08FFF1FF28FFF1FF38FFF1FE0510020054A064B536204339362054B00229A61DA611A625A627047C84D002094FEFF1F084D00200023194640F823100133322B74
:402F40004FF00002F8D10449C0F8CC200B60C0F8C820C0F8D0207047E08FFF1FD0F8CC3030B50133322593FBF5F405FB14339A1A2A44C0F8C81040F82310C0F8CC3092FB0F
:402F8000F5F305FB132250F82230C91AC0F8D01030BDD0F8CC303222591A323191FBF2F302FB131150F82100704700000023F0B51E461C460F4A3227536013725D1C8B4294
:402FC000EDB20DDAD0F8CC40E31A323393FBF7F407FB143350F8233001241E442B46EDE70CB113725660536893FBF1F1C0F8D410F0BD00BFE08FFF1F00221A80704770470A
:4030000070B540F2F456144D1449154C154A0023581959511A514160816018190C33B34242608260F4D1FFF785FE00F05BF900F00DFB00F001FE00F00DFFFFF721FD00F0F4
:4030400025FFFFF705FF00F06DFC00F019FDBDE8704001F0E3B900BFF0080020FF2F0000FC020020F92F00002DE9F0419046079E0D461C46074601F039F8042332469DF88C
:403080001810FFF76FFA01239845B37002D19D401D4303E0B8F1020F0DD16D00202C28BF2024F57022463946301D06F027F8201D80B2BDE8F0814FF48060FFF7F3F800209F
:4030C000BDE8F08130B58DB09DF8405003AC01940095FFF7C9FF1399C2B22046FFF724F9129B30221A800DB030BD00002DE9F0470D46914686B006AC4FF0000E24F802ED49
:403100000F9FDFF8648002949DF8384001970094CDF80C809DF84060FFF7D4FF3F784FF41C747C43DFF844A004F59C7454444146BDF81620E01D05F0E1FF4FF41C7303FB4F
:4031400007A76900B9F1010F08BF41F00101C9B287F83D11204616B900F0B2FF01E000F0B0FF06B0BDE8F087B0510020B8190020704700210079FCF785BF00007FB50B4AF1
:4031800050250B4C0B4B1570022222701B780A4C0A4E237001233380029301910178204600912946FFF7A2FF04B070BDF38FFF1FF28FFF1F2891FF1FE0510020F08FFF1F85
:4031C00037B5054602AC042324F8023D2146FFF79AF821462846FFF796F8044B1A78032A08BFC3F8200103B030BD00BF2891FF1F37B5054602AC042324F8023D2146FFF775
:4032000082F821462846FFF77EF803B030BD07B5042302A921F8023DFFF775F803B05DF804FB0000F7B50546042302AC24F8023D2146FFF768F821462846FFF764F8214671
:403240002846FFF760F8214606462846FFF75BF8214607462846FFF756F8094B1A78C3F83062022AC3F83472C3F8380202D1C3F8286203E0042A08BFC3F8686203B0F0BD38
:403280002891FF1F37B5054602AC042324F8023D2146FFF738F821462846FFF734F821462846FFF730F821462846FFF72CF821462846FFF728F803B030BD000007B50423FC
:4032C00002A921F8023DFFF71EF8054B1B78012B02D10021FDF7A2F903B05DF804FB00BF2891FF1F124B134AC3F8C023124AC3F8C423124AC3F8C823114AC3F8FC23114AA8
:40330000C3F80024104AC3F80424104AC3F814240F4AC3F818240F4AC3F81C240E4AC3F808240E4AC3F80C240D4AC3F810247047F00800207D3100007331000071310000F5
:4033400031340000BD3200000F320000DD3400002532000085320000A5330000C1310000F1310000F7B5064602AC1F46002324F8023D56230B700A4D022313700146224682
:40338000D5F81C01FEF7ACFF22463146D5F82001FEF7A6FFBDF806303B8003B0F0BD00BF2891FF1F2DE9F043804689460F4B104F104E114D114CD3F8583185B0009332463C
:4033C0003B4629462046FFF7CDFF01203B88029098F80000327800902978CDF804902046FFF784FE05B0BDE8F08300BFC84D0020F08FFF1FF28FFF1FF38FFF1FE0510020AF
:4034000037B51D4602AC002324F8023D55230B7002231370054B01462246D86BFEF760FFBDF806302B8003B030BD00BFC84D00202DE9F043804689460E4B0F4F0F4E104D67
:40344000104CDB6B85B0009332463B4629462046FFF7D6FF01203B88029098F80000327800902978CDF804902046FFF73FFE05B0BDE8F083C84D0020F08FFF1FF28FFF1F38
:40348000F38FFF1FE051002073B5054602AC1E46002324F8023D57230B7002231370014622460698FEF71CFF224629460798FEF717FF224629460898FEF712FF2246294649
:4034C0000998FEF70DFF224629460A98FEF708FFBDF80630338002B070BD00002DE9F04380468946154B87B0D3F83822144F0492D3F83422134E0392D3F83022124D02927E
:40350000D3F82C22114C0192D3F824323246009329463B462046FFF7B7FF01203B88029098F80000327800902978CDF804902046FFF7DCFD07B0BDE8F08300BF2891FF1F80
:40354000F08FFF1FF28FFF1FF38FFF1FE0510020F7B5042302AC24F8023D21460546FEF7B4FE214607462846FEF7AFFE214606462846FEF7AAFE064B0022A3F81071A3F83D
:403580001261A3F81401C3F8082203B0F0BD00BF2891FF1FF7B5042302AC24F8023D21460546FEF792FE214607462846FEF78DFE214606462846FEF788FE064B0022A3F8AE
:4035C0001872A3F81A62A3F81C02C3F8442203B0F0BD00BF2891FF1FF7B5042302AC24F8023D21460546FEF770FE214607462846FEF76BFE214606462846FEF766FE064B1E
:403600000022A3F85872A3F85A62A3F85C02C3F8502303B0F0BD00BF2891FF1F37B5054602AC042324F8023D2146FEF74EFE21462846FEF74AFE21462846FEF746FE03B0AD
:4036400030BDFFF7EBBFFFF7E9BF00000E4B0F4AC3F8D8230E4AC3F8DC230E4AC3F8E0230D4AC3F8E4230D4AC3F8E8230C4AC3F8EC230C4AC3F8F0230B4AC3F8F4230B4A99
:40368000C3F8F823704700BFF0080020F53600005135000047360000A137000095350000433600004D380000D93500001D36000073B5054602AC1E46002324F8023D5223FF
:4036C0000B700223137001462246BDF81800FEF7F1FD22462946BDF81C00FEF7EBFD22462946BDF82000FEF7E5FDBDF80630338002B070BD2DE9F04380468946124B85B053
:40370000B3F91421114F0292B3F91221104E0192104D114CB3F910313246009329463B462046FFF7C5FF01203B88029098F80000327800902978CDF804902046FFF7D6FCBA
:4037400005B0BDE8F08300BF2891FF1FF08FFF1FF28FFF1FF38FFF1FE051002073B5054602AC1E46002324F8023D53230B700223137001462246BDF81800FEF79BFD2246AC
:403780002946BDF81C00FEF795FD22462946BDF82000FEF78FFDBDF80630338002B070BD2DE9F04380468946124B85B0B3F91C22114F0292B3F91A22104E0192104D114CB7
:4037C000B3F918323246009329463B462046FFF7C5FF01203B88029098F80000327800902978CDF804902046FFF780FC05B0BDE8F08300BF2891FF1FF08FFF1FF28FFF1F07
:40380000F38FFF1FE051002073B5054602AC1E46002324F8023D54230B700223137001462246BDF81800FEF745FD22462946BDF81C00FEF73FFD22462946BDF82000FEF7CD
:4038400039FDBDF80630338002B070BD2DE9F04380468946124B85B0B3F95C22114F0292B3F95A22104E0192104D114CB3F958323246009329463B462046FFF7C5FF0120C2
:403880003B88029098F80000327800902978CDF804902046FFF72AFC05B0BDE8F08300BF2891FF1FF08FFF1FF28FFF1FF38FFF1FE0510020034B82781A705A6801325A605C
:4038C000704700BFF48FFF1F034B41789A7A1972521A5A72704700BFF48FFF1F13B504460A46014601A8FEF7DEFC044BA2791A705A6801325A6002B010BD00BFF48FFF1F19
:4039000013B504460A46014601A8FEF7CCFC044B61799A7A1972521A5A7202B010BD00BFF48FFF1F074B084A9A61084ADA61084A1A62084B084A9A61084ADA61084A1A62A4
:40394000704700BFF00800201D3A0000DD38000001390000FC020020D1390000B5380000C938000070B502240C701D4614709DF810309DF818209DF81C6003704270F3B1D3
:40398000104A46B11478104984702246033005F0B5FB033413E09DF814400A26202C28BF202484700948147001780334013191FBF6F306FB1311D36801700133D3602C80DF
:4039C00070BD00BFF48FFF1F04520020B48AFF1FF0B51C46154682780E4B302A87B0067828BF30224778C11C0B481A7005F086FB00230122238003920193029700962346D2
:403A00000DF117020DF116012846FFF7ABFF07B0F0BD00BFF48FFF1F04520020F0B504460E4687B00D4F0E4D0A46014605A8FEF73AFC3B462A4605A9201DFFF7C9FF094A85
:403A4000094901203B881278097802902078019600902846FFF74AFB07B0F0BDF08FFF1FE0510020F28FFF1FF38FFF1F704707B50A46014601A8FEF716FC03B05DF804FBB9
:403A80000A4B0B4AC3F844240A4AC3F848240A4AC3F84C24094B0A4AC3F84424094AC3F84824094AC3F84C24704700BFF0080020553B0000F33B00006F3A0000FC02002069
:403AC000353B0000ED3B00006D3A0000F7B504461F469DF820005B230B700221117001230207ADF8063020701CD4C3061AD5104D02AE2B7826F8021D63703246214668880B
:403B0000FEF7D8FB324621466868FEF7E9FBBDF806202B7BA354931CADF806300132AB7B92B2A354BDF806303B8003B0F0BD00BF1454002013B51446027804490092204671
:403B4000034AFFF7C3FF02B010BD00BFF38FFF1FF28FFF1FF0B50D46044687B00A46014605A8FEF7A0FB0D4F6B780D4E8DF8153032463B4605A9201DFFF7DCFF094A0A49B7
:403B800001203B881278097802902078019500903046FFF7ABFA07B0F0BD00BFF08FFF1FE0510020F28FFF1FF38FFF1FF8B50546A9B10778FDF7DAFF0A4C064668B9384686
:403BC000FDF7DAFF48B12078074B3843012220701A7031462878FCF755FA2078F8BD0846F8BD00BFA78EFF1FA88EFF1F0121FFF7DDBF37B50D4604460A46014601A8FEF7DC
:403C000052FB6B780121201D8DF80530FFF7CEFF03B030BD7047000013B5052302A921F8023D0479FEF76FFB024B03EB8403D86202B010BDE890FF1F054B064AC3F838248A
:403C4000054AC3F83C24054AC3F84024704700BFF0080020FD3C0000193C0000153C0000F7B505461F465A23224E0B709DF82000022302AC1370012324F8023D287006EB28
:403C8000800022462946C06AFEF72AFB224629467068FEF725FB22462946B068FEF720FB22462946F068FEF71BFB22462946308AFEF700FBFCF78CFBFCF778FB2246294634
:403CC000708BFEF7F7FA0C4B2246B3F81C012946FEF7F0FA22462946F069FEF701FB22462946306AFEF7FCFABDF806303B8003B0F0BD00BFE890FF1F2891FF1F2DE9F04316
:403D0000804689460E4F0F4E0F4D104C85B00023009332463B4629462046FFF7A1FF01203B88029098F80000327800902978CDF804902046FFF7DAF905B0BDE8F08300BF38
:403D4000F08FFF1FF28FFF1FF38FFF1FE05100207047704716280FD0A0F14303DBB21A2B04D8064A22FA03F3DB0705D464381A288CBF00200120704701207047010080046B
:403D8000F7B50378857804468DF80730DDB19DF80700FFF7DFFF00283FD0214B1A78002A3BD16678E5781F4A20799DF80740968014608C785C80097891711B4A15805080A0
:403DC00001221A7029E0164A164B11781446164821B19DF807601F68B7420DD04FF0FF321A6043F2390203219A8000226280997102804280227010E09DF80760FF2EEDD08E
:403E00004FF0FF341C6043F2390401399C80032455809C7105804580117003B0F0BD00BF0890FF1FB88AFF1F2454002037B50D4604460A46014601A8FEF735FA6B7801A9B1
:403E40008DF8053000231A46201DFFF799FF03B030BD0000074B084AC3F85024074AC3F85424074AC3F85824064A074BC3F85424704700BFF0080020533D00002D3E00005D
:403E8000513D0000813D0000FC020020034B044AC3F85C24034AC3F860247047FC020020693F0000913F00002DE9F341012305460E46ADF8063002706AB30223ADF8063071
:403EC00000F012F9BDF806406870631CADF8063000F008F9BDF8063002AF5A1C27F8022DDFF8788003222855EA54002458F824003A4629460134FEF7F3F9032CF6D1BDF852
:403F00000640631CADF8063000F0F0F8BDF80630285533801CE0104FDFF844E0DFF844C001303B681B889A4210DA94000023DEF80010895C8B4206DADCF800100959C95CE6
:403F4000C1540133F3E708440132EAE7401B308002B0BDE8F08100BFD08AFF1F28540020C88AFF1FCC8AFF1F30B415460278AA2A0CBF0122002204D104480024046044605A
:403F80008460284630BC1946FFF78EBF285400202DE9F347804614461D4602AF012390F80090DFF8B0A027F8023D0026F3B24B4502D3284A002111E0032E07D0394640467F
:403FC000FEF7A1F94AF826000136EFE7224B214E1B684FF0010E1879034606E0032BF5D0581C42F82310C3B2F8E75F2B0DD85F0903F01F020EFA02F156F82720013322EA6D
:40400000010246F82720DBB2EFE7144B114E196800224FF0010CD3B283420FD251F8227057B95F0903F01F030CFA03FE56F8273023EA0E0346F827300132ECE7054800F0B3
:404040000FF8012229462046FFF72EFF02B0BDE8F08700BF28540020C08AFF1FC48AFF1F124B2DE9F0411A685D680023D4681A46DFF840E0DFF840C0DFF84080012706687C
:4040800007FA02F1314209D055F822104EF82310A15C58F821100CF8031001330132102AEDD1034A1380BDE8F08100BFC08AFF1F1090FF1F84540020345400204091000088
:4040C0007047C3780BB9FDF7D1B8704710B5034C03492046FEF766FA607110BD8C240020B81900200120704702207047014B1878704700BF6C8BFF1F014B1870704700BFFA
:404100006C8BFF1F014B5878704700BF6C8BFF1F08B9044B02E0012802D1034B585C704700207047C4540020C4540020002070470A4910B50B680C24013393FBF4F204FB9C
:4041400012330B604BB9064A1378072B03F1010111709CBF034A22F8130010BD708BFF1F2890FF1FC454002000231A4610B51D4830F9121001320029B8BF4942082A0B4467
:40418000F6D1194800220270184ADB1011790B41517C802906D1117C8B4208DD591A0A2404FB013340F28A218B42A8BF0B46104C0D4954F8234043682344D488D268A34270
:4041C0008CBF1B1B00234B604168074B8A4201D9002005E0054A9268914234BF01200220187210BDC45400202890FF1F708BFF1FCC910000014B587A704700BF2890FF1F33
:40420000014B187A704700BF2890FF1F10B51C467E230B700221117000F8011B034A1B2100F074F90130208010BD00BF3290FF1F2DE9FF41044688461B220E49043000F010
:404240008DF9A0B90C4F0D4E0D4D3B46324629460C48FFF7DBFF01203B8802902078327800902978CDF804800648FEF73FFF04B0BDE8F0813290FF1FF08FFF1FF28FFF1F2A
:40428000F38FFF1FE05100202DE9F04F7E240C7002211170002216461446DFF86CC0DFF86C800270164D655D072D06D8154F57F82550012DB8BF012500E001251CF804702E
:4042C000AFB18E46B71A05EB020A07EB080B07EB0209B9F13B0F0ADC1BF8029001320131924589B200F80E9001D08E46EFE701341B2C2E44D6D142701980BDE8F08F00BFF1
:40430000F89B0000409100003290FF1FD4540020F8B59DF8185004461A2D1F461CD87E230B7002231370012303700C4B0C4E5B5D4570837056F8250004F0F3FE0022E07027
:4043400080B2111D824289B205DA56F825309B5C01326354F5E73980F8BD00BFF89B0000848BFF1F2DE9F041027986B0012A044688461F4D1F4E204F25D14379FF2B0CD176
:404380007E232B70022333701C4B1A701B225A703C229A7003233B801BE01A2B19D8012B059203D1059A02EB420203E0022B02D1059A5200059200930E4A0F4B0C490F48C4
:4043C000FFF7A6FF05E03B46324629460B48FFF75BFF01203B8802902078327800902978CDF804800548FEF781FE06B0BDE8F081F38FFF1FF28FFF1FF08FFF1FE051002046
:40440000034B044AC3F8E825034AC3F8EC257047F008002065430000314200000D4B0E4A0E49C3F8AC250E4AC3F8B4250D4AC2F8AC150D49C2F8B4150C4AC3F8A0250C4ABF
:40444000C3F8A8250B4AC3F894250B4AC3F89C25FFF7D6BFF0080020114800006147000065460000FC0200208D4600001D49000071490000454A0000214B0000064B074A1D
:40448000C3F884200432C3F88820054AC3F88C200232C3F8902070471055002094FEFF1FDC02002008B52820FFF726FE034B002119700846BDE80840FCF7B0B82891FF1F41
:4044C00070B50E4D0E4CD5F8843021681B680D4E591A0D4B61609B6A0A221B683046A360FEF73CFD3046FDF797FC40F6312390FBF3F0E060C5F8980070BD00BF1055002018
:404500005090FF1F70650020C84D0020F0B51AB3002507462C4611F0070318BF012303EBD10301703E1AB34213DDEE1DAE420CDB8E4208DA640012F806E0E4B2BEF1000F4B
:4045400018BF44F00104013EF0E707F8014F0835E8E7013398B2F0BD1046F0BDF0B50678964220D10024274616F0070318BF012303EBD605A54214DD3A46013410F801EFB6
:404580004FEAC40CD31B6245DBB208DAB24206DA4EFA03F303F001038B540132F2E70837E8E70020F0BD4FF0FF30F0BDF7B505461F4679230B70022302AC1370012324F8FB
:4045C000023D9DF82030254E0370D6F88430224601461868FDF784FED6F88830224629461868FDF77DFED6F88C30224629461888FDF760FED6F89030224618882946FDF7F2
:4046000059FE22462946F06FFDF76AFE22462946D6F89800FDF764FED6F8800022462946C0F3CF00FDF746FE0D4B2246D3F820012946C0F3CF00FDF73DFE22462946B6F8CE
:404640007800FDF737FE22462946B6F89C00FDF731FEBDF806303B8003B0F0BD105500202891FF1F07B50A46014601A8FDF71BFE044B01221A70044B002283F8302403B0FB
:404680005DF804FB6090FF1F10550020034B01221A70034B002283F8302470476090FF1F105500202DE9F0479DF830400D4621461F469046BDF92060BDF92490BDF928A02A
:4046C000FBF7E0FC4FF4587363432449C818CB5C032B0DD1B8F1010FC0F820513BD10023A0F81071A0F81261C0F80832BDE8F087012B05D121462846BDE8F047FBF78EBF83
:40470000022B14D14FF4587303FB0414B8F1010F4FF00003C0F8285202BFA0F81872A0F81A62A0F81C92C4F84432BDE8F087042B11D1B8F1010FC0F868520CD10023A0F8B7
:404740005872A0F85A62A0F81091A0F812A1C0F80832C0F85033BDE8F08700BF2891FF1F2DE9F04F8DB00CAE9946022326F8023D054631469046047890F801A0FDF7C3FD1A
:40478000BDF82E3031465A1CEB5C83462846ADF82E200793FDF799FD314609902846FDF794FD314607462846FDF78FFD314608902846FDF78AFDBDF82E10632C01F101063C
:4047C000ADF82E6013D8012C089A099B11D8695C00B212B23FB2039102900192049400971BB2079A59465046FFF75CFF01E0643CE4B200944B46044A04494046FFF7D6FE10
:404800000DB0BDE8F08F00BFF28FFF1FF38FFF1FF0B50D46044687B00A46014605A8FDF742FD0D4F6B780D4E8DF8153032463B4605A9201DFFF794FF094A0A4901203B884E
:404840001278097802902078019500903046FEF74DFC07B0F0BD00BFF08FFF1FE0510020F28FFF1FF38FFF1FF7B505461F4678230B70022302AC1370012324F8023D9DF8FD
:404880002030254E0370D6F88430224601461868FDF726FDD6F88830224629461868FDF71FFDD6F88C30224629461888FDF702FDD6F89030224618882946FDF7FBFC2246C1
:4048C0002946F06FFDF70CFD22462946D6F89800FDF706FDD6F8800022462946C0F3CF00FDF7E8FCD6F8C00122462946C0F3CF00FDF7E0FC22462946B6F87800FDF7DAFCBB
:4049000022462946B6F89C00FDF7D4FCBDF806303B8003B0F0BD00BF105500202DE9F043054689460379DFF844800D4F0D4E0E4C85B000933A46434631462046FFF794FF86
:4049400001203A7802902878B8F8003000903178CDF804902046FEF7C9FB05B0BDE8F083F28FFF1FF38FFF1FE0510020F08FFF1F034B01221A70034B002283F830247047B6
:404980006490FF1F10550020F7B506461F4677230B70022302AD1370012325F8023D9DF82000274B4FF4667404FB00343070D4F884302A4631461868FDF792FCD4F8883013
:4049C0002A4631461868FDF78BFCD4F88C302A4631461888FDF76EFCD4F890302A4618883146FDF767FC2A463146E06FFDF778FC2A463146D4F89800FDF772FCD4F8800067
:404A00002A463146C0F3CF00FDF754FCD4F8C0012A463146C0F3CF00FDF74CFC2A463146B4F87800FDF746FC2A463146B4F89C00FDF740FCBDF806303B8003B0F0BD00BF32
:404A4000A05D00202DE9F04305460F4687B006AC062324F8023D21460679FDF754FCBDF81630214601332846ADF81630FDF72DFC21462846FDF729FC21462846FDF725FCB5
:404A800021462846FDF721FCBDF81630214601332846ADF81630FDF736FCBDF81630214601332846ADF81630FDF70FFC21462846FDF70BFC21462846FDF707FC214628469C
:404AC000FDF703FC632EBDF8163088BF643EDFF84890DFF848800E4C88BFF6B20133ADF8163042464B46214600960A48FFF74CFF0120217802902878B9F80030009098F802
:404B0000002001970348FEF7F1FA07B0BDE8F083F38FFF1FE0510020F08FFF1FF28FFF1F034B01221A70034B002283F8C82770479090FF1FA05D0020012809D8054B03EB67
:404B40008002526B1844117890F83C300B431370704700BFB89C000001280AD8054B03EB8002526B184490F83C10137823EA010313707047B89C00002DE9F04172B6B44E2F
:404B80000024062707FB04630021B3F84220D3F83E00013404F0BDFA0C2CAD4DF2D100240A2606FB0452134653F8860FB2F88E205968013404F0A2FA0A2CF2D1A548A64D94
:404BC000002450F8041F04F1105303F1580221F0FF065933C9B20B4452005B000232934206D012F8027C12F801EC07F806E0F5E7A8420C44E5D1994B0A274FF0010E1F7066
:404C000083F884E2964B00251D60964B964C1A68964B974E1A60974B1A68974B1A60974B1A68974B1A60974B1A68974B1A60974A9D601D619D61137843F002031370137C1C
:404C400043F0020313742378A2F5863243F040032370413A137843F0100313708C4B03CBC2F8400DC2F8441D93E8070003C63280884A894B1068A83E186012791A71874A8C
:404C8000874B03CB1060516003CB42F8E00C42F8DC1C93E8070003C63280824A0C3303CB5160814910600A780C2042F008020A707E4A612111704F21A2F5F06211807C496E
:404CC00018220A70A1F802E00A71C88003200A7248811F2008735020CD810874042048820A75CF820A76734A93E80300724B82E8030006221A7045F20E5223F8EE2C05221E
:404D000003F8F02C13F8F02CF03B43F2C8261D462B781B0606D54FF4F07002F009F8013EF6D1FEE7654B4FF4A5621A8001224FF040231A7042F25122614FA3F8202219260E
:404D400000253B784FF4F07003F0010343EA450501F0EEFF013E05F0030578D0032DF0D1584A4FF480731380574B52211970574B57491B78A1F29B61DBB281F89B36072389
:404D80001370482000230B70887013705371514B04225148022119709A7203784F4F43F07F03037010F8013CDFF8548143F0030300F8013C237800F5A65043F080032370A9
:404DC000474B0C301B783D78DBB298F80060EDB203F0070ED34080F800E0F6B2437045F003033B7046F0030388F800303D4B0A20197044F20F015A7419863B4940230B7091
:404E00008B700B728B7281F80F21384A10211170012182F86B10364920220A704B71354B1A7040F20122A3F81720802283F82D2001F080FE304B88F8006044223D702F4D1E
:404E40001A7094E80F0007C52B80BDE8F081FEE7B89C0000FCFFFF47AC0000488358004000760040F4150048A043004050760040C0510040F815004808760040FC1500481A
:404E800010760040001600481876004003500140AC150048C0150048CB510040F2510040C815004832510040224300400048004082400040004100400043004022420040A8
:404EC0002542004004400040004200400F010049A146004001400040A2430040F8460040CF0100490C51004001590040985A0040235B00402B5B004076580040B04300401A
:404F0000F946004008B504F0CDF803680C2B00D1FEE7FEE780B51148114B0025C0B1A3F1100192C922460439161BB74204D051F8046F42F8046BF7E7114653F8046C8C1A21
:404F4000A64202D041F8045BF9E701381033E5E704F0AEF8FBF7F8FAFEE700BF0100000028A00000124A134B10B51A60124A134C1368134843F4007313600023032B98BF7D
:404F800054F823204FEA830188BF0E4A0133302B4250F3D10C4B1A780C4B1A700C4B084A1A60FFF7E9FDBDE8104001F057BC00BF0004FA050CED00E014ED00E000000000E3
:404FC0000080FF1F054F0000BC760040C080FF1F08ED00E010B501F0CDFD01F059FE50B9012001F03BFE072814BF4FF0FF34072401F06EFE00E00424204610BD37B5114B7F
:4050000005461A78920713D41C78A4080ED1022101A801F0C1FD02280CD19DF80430012B9DF8053018BF5B422B8005E0072405E0102401E04FF0FF3401F04AFE204603B0C6
:4050400030BD00BF2247004073B515461E460B4C0A230022019200920A4601461846237001F072FC32462946207801F049FC0221207801F033FC207802B070BDF08BFF1FA2
:40508000FBF7EEB9074A1023136002F68832126805491165054AE0211170A2F541721360704700BF80E100E08150000004E400E073B515461E460B4C0123002201920092E9
:4050C0000A4601461846237001F03EFC32462946207801F015FC0221207801F0FFFB207802B070BDF18BFF1FFBF7AAB9074A4023136002F68832126805499165054AE02189
:405100001170A2F206321360704700BF80E100E0E950000006E400E0F7B516461F460C4C02250023019300930A462B4601462846257001F009FC3A463146207801F0E0FB63
:405140002946207801F0CAFB207803B0F0BD00BFF28BFF1F044A8000137800F0040003F0FB03034313707047C05100402DE9F843374B34221A7004229A7000240622DA7098
:405180001C713F225C7106331A70012550229C70DC701C719D7383F87E2A0A2283F87F2A2C2283F8802A442283F8814A83F8842A482283F8852A4FF00208122283F8865ABD
:4051C00083F8888A83F8892A282283F88A2AEB2283F88B2A01F0B4FD81461E4F1E4E3B78522243F003033B703378032043F0030333701A4B1A7001F09DFC3B78484603F09A
:40520000FC033B70337803F0FC03337001F09CFD134B58221A7005225C7020469A7183F807801C725C7201F0ABF943F233320D4B294613201A6001F0AFF929464F2001F0CB
:4052400023FABDE8F84308491D2001F07BBC00BF004E0040F8460040F94600409258004094580040486600202D54000070B5244D244E00240123102033702C7001F0F2F9F1
:40528000102001F071FA07211D2001F069FC1E4B04221A701D4A5C701C72137843F0180313701B4B0A221C7083F8F54283F8F642133B1A705B225C70DC701A725E225A72A9
:4052C0005C731422A3F67F231A700F232B7148F6F0536B80337815F823200E4B1A70337805EB830333F8022C0B4B1A803378AC71012B03D1BDE87040FFF738BF70BD00BF6C
:40530000BE90FF1FF38BFF1F96580040075B0040935800400E4E00400C4E004070B501F00FFD294B294D1B78294B2A4C1A78064642F001021A701A78032042F010021A708B
:405340001A7C42F001021A741A7C42F010021A742B78214A43F002032B70237843F002032370137843F00303137001F0E3FB2B781A4A03F0FD032B702378304603F0FD0376
:405380002370137843F006031370154B7A221A70144A137843F002031370137C43F002031374537843F010035370537C43F0100353740D4A4FF000531360A2F5C072136050
:4053C000BDE8704001F0C0BCF38BFF1FF8460040AA430040F9460040915800407758004082580040A143004080E200E010B5064CE3792BB9237A0BB9FFF738FF0123E37110
:40540000BDE81040FFF78ABFBE90FF1F024A137843F0010313707047004E0040024A137803F0FE0313707047004E004070470000124B412210B51A70C12203F80E2C332230
:4054400003F80C2C00240C225A719C710C4B4FF400421A6007210F2001F082FB09490F2001F070FB084B1C70084B1C70084B1C70084B1C70084B1C8010BD00BFD649004081
:4054800080E100E0315500005A660020546600205C6600205B6600205866002008B501F04FFC084A137843F004031370137C43F00403137401F048FC034B4FF400421A6065
:4054C00008BD00BFA543004000E100E010B5054C23781BB9FFF7ACFF01232370BDE81040FFF7DCBFC790FF1F0A4B10B54FF400441C602AB1084B1A60084B1880084B1980CB
:40550000084A00231370084A1370084B4FF400421A6010BD80E100E05066002056660020586600205C6600205B66002000E100E070B4534B1978C9B201F0080000F0FF0272
:4055400058B3504D50492A78504C12F0010F17D04F48504E02783668D2B2B25CD2B22A7014221A7002784C48D2B2027002780132D2B202700A7842F011020A70082229E0DB
:4055800010221A700A7842F012020A700122434922700A7842F0100249E0C8075CD53B4C2078C0B2042817D0082829D001284DD134493B4809780088C9B23A4D80B28142A9
:4055C000297048D210221A702A7831490A7032490A70042222703FE02F4933480C78008880B2844237D2274A2E481278294C027010221A700A7824680078D2B2A05413E0D5
:4056000011F0020F1F4818D12349254A0C78128892B294420DD21F4C0A782468D2B2A25CD2B2027004221A700A780132D2B20A7012E0FF22027004220DE0FF21017012483F
:405640001A70017801F0EF010170C3E7104922700A7011490A701A701B789B060CD50A4A137803F0EF031370084B00221A700B4A137803F0EF03137070BCFAF75DBF00BFCD
:40568000D7490040D8490040546600205A6600205C660020506600205B660020D649004056660020C890FF1F58660020F0B52C4D2C4E2F78348807F00707A4B2A0424DD0F2
:4056C000294B1A78D2B26FB934B158B92B7843F040032B703080F0BD30802B7803F0BF032B70F0BD02F0200202F0FF060AB31F4F1F4A00254FF0200E157087F800E03D71DE
:4057000017F8085C05F07F0507F8085C144D2D782D0700D568B9174D2C8007241470147814F00104FBD11A7802F0DF021A70104A14701B780C4A9C060BD50E4B0029188078
:4057400014BF03220122013B1A701A78D207FCD4F0BD044B1880137833431370F0BD00BF9640004094400040A2430040104000400140004002400040044A4001137800F09D
:40578000200003F0DF03034313707047F0510040144B10B5012200241C701A7401F0D0FA114A137843F01003137001F0CDFA0F4B0F221A7008221A740D4B04221A60052161
:4057C000022001F0CDF90B49022001F0BBF90A4B10221A70094B1C70094B1C70094B1C7010BD00BF7B6500409B6500402565004080E100E0795800005D6600206266002071
:405800006466002060660020024A137843F00203137070477B65004010B5064C23781BB9FFF7B6FF01232370FFF7EEFF024B04221A6010BDC990FF1F00E100E0094B0A49CB
:4058400004221A600B7803F0FD030B70074B1B780B7C03F0DF030B74054B1A60054B10221A70704780E100E07B6500406B65004080E200E05D66002030B59649964B1B787C
:405880000A78DBB212F0400F0A4600F01C81D80740F1058109784539052900F20081DFE811F006006E00FE00FE000600C10003F0DF0103F00A03082B35D113788548452BA2
:4058C00025D1864B1B789BB1854B864C1B681B78DBB22370844B06241C70FF2403F8674C002403F8274C814B01241C70462318E07F4B1B7803F0020303F0FF048BB37D4C12
:40590000237843F00A0323706023037025E0764B02241C70FF2403F8674C002403F8274C4A230370BAE00A2B40F0B880714B187840F0A00018706E48007800F0020000F05D
:40594000FF0470B110781C7810F0080F14BF09200A202043187060231370674B042018609CE06648037843F0200303705E4B52201870FF2003F8670C03F8274C8EE003F0FE
:40598000020101F0FF0400292DD158485349057809788D4214D2524D01782D68C9B2695C504DC9B22970504906250D70FF2501F8675C01F8274C01780131C9B201706EE0CA
:4059C0004B49097801F0020101F0FF0421B14948017841F00A014CE04848017841F020010170522052E042490878424900F0020000F0FF0520B1087840F09A00087039E0CE
:405A00003E4C207840F020002070374852240470FF2400F8674C00F8275C087840F0900008703CE0364C374825682E4C01782478C9B2E4B26C5401780131C9B201703249DE
:405A400000780978884209D2274902200870FF2001F8670C002001F8270C20E02449097801F0020101F0FF0451B12248017841F009010170602111701F49042008600EE05C
:405A80001E48017841F020010170122016490870FF2001F8670C01F8274C00E00B46990616D51378134913F0080F087814BF0123022303430B7011490B7803F0DF030B70FE
:405AC0001023137030BD0B78DB065CBF10230B7030BD00BF5D6600206B6500406366002068660020046500407B65004060660020616600206266002080E100E08B65004071
:405B00006C660020646600207066002070B5A9B1214C2578102D05D1204D2D78ED060FD5012070BD2578602D08D11D4D04262E601C4E357805F0F705357001E0022070BDBE
:405B400045252570184D00242C70184D40002A70174AC0B21160174A124913700A7813F0010302F0FD020A70134A1449107002F17702134805D032231370FF230B7004708C
:405B800004E082241470FF220A7003700D4B04221A60002070BD00BF5D6600206B65004080E200E062660020606600206366002068660020616600200465004014650040A2
:405BC0005465004000E100E070B5A9B1224C2578102D05D1214D2D78ED060FD5012070BD2578602D08D11E4D04262E601D4E357805F0F705357001E0022070BD492525700F
:405C0000194D00242C70194D40002A70184A40F001001160174A134913700A78C0B202F0FE020A70144A13F001031070134902F17702134805D032231370FF230B70047094
:405C400004E082241470FF220A7003700D4B04221A60002070BD00BF5D6600206B65004080E200E06266002064660020706600206C660020616600200465004014650040CC
:405C80005465004000E100E0064A04231360064A1078064AC0B212785206054A48BF18431360704780E100E0626600205D66002000E100E0044A04231360044A002110783D
:405CC0001170034A1360704780E100E06266002000E100E0064B04221A60064B0021197005490B7803F0FE030B70044B1A60704780E100E0646600206266002000E100E042
:405D0000064B04221A60064B0021197005490B7803F0FD030B70044B1A60704780E100E0606600206266002000E100E0074B72221A70202203F8092C062203F8652C4722E9
:405D400003F8552C022203F80A2C70478C64004008B500F0F5FF0A4A137843F02003137012F8093C43F0100302F8093C12F80A3C43F0100302F80A3CBDE8084000F0E4BFE8
:405D80009C64004008B505490B781BB9FFF7CEFF01230B70BDE80840FFF7DABFCA90FF1F08B500F0CDFF064B1A7842F001021A701A7802F0FE021A70BDE8084000F0C4BF62
:405DC00096640040044AC000137800F0080003F0F703034313707047C0510040044A00F00100137803F0FE0318431070704700BF005100400F4A137803F0C00343F00B039F
:405E00001370D37F43F00103D37792F8203043F0010382F820304FF47A73A2F89333A2F8F33340F2DE32044B1A801322A3F222331A7070477564004048680040024A137876
:405E400043F08003137070477564004008B505490B781BB9FFF7CEFF01230B70BDE80840FFF7ECBFCC90FF1F014B1880704700BF4868004008B500F0C1FDBDE8084000F0BB
:405E800007BEFFF7F7BF38B5044600F059FF054600F026FE04F1804303F500431C7800F02BFEE4B2284600F04FFF204638BD08B500F0A4FDC0B208BD38B50D46044600F057
:405EC00059FE2B0632D400F0E3FE002830D110222146402000F07EFE072808D1164A1378154C13F0020FFAD02378980702D44FF0FF3418E023789B08F9D1104A294653786D
:405F00004020127800F08AFE0728F0D122780A4B9107FBD51A789207E9D51B789B0814BF4FF0FF34002400F0D3FE02E0012400E00424204638BD00BF224700407E66002099
:405F400038B500F0FDFE204A04461378022543F002031370137C0A2043F00203137412F8093C43F0400302F8093CD37943F04003D37102F5AB52137843F003031370134B0D
:405F800004221A7013F8012C42F0400203F8012C13F8012C02F0FC0203F8012C0E2203F8062CA3F597530A4A183B1D70137843F00803137000F0BEFD064B20461D60BDE82A
:405FC000384000F0C1BE00BFAB4300400E5900402F5B004080E200E0082804D00A280CBF8423C42300E0442308380E4AC0B20428137098BF0C4B4FF0000298BF33F91010F9
:406000000A4B88BF11461A8042F210734B4341F2883103F6C41393FBF1F305490B60054B1A8070470A590040A29D00007C660020746600207866002008B5102000F0A4FBAE
:406040000721012000F08CFD0749012000F07AFD064A0C20137843F006031370FFF7BCFF034B00221A8008BD91600000095900407A66002010B5054C23781BB9FFF7DCFF57
:4060800001232370BDE81040FFF75ABFCD90FF1F70470000084A137843F060031370A2F5A652133A137843F002031370137C43F002031374704700BF77580040054B00F0C8
:4060C00003001A7802F0FC021A701A7810431870704700BF5A5800400320FFF7EFBF000008B5054B1A781AB901221A70FFF7F4FFBDE80840FFF7CEBFCE90FF1F044A137828
:4061000043F008031370137C43F0080313747047A8430040054B00F002001A7802F0FD021A701A7810431870704700BF2C580040064B074A1B78C3F3810303F19243063301
:4061400093F83831DBB21370704700BF2C5800400B460040054B00F00C001A7802F0F3021A701A7810431870FFF7E2BF2C58004008B5064B0021197008465970FFF7EAFF8B
:40618000BDE808400846FFF7C5BF00BF2C58004010B5064C23781BB9FFF7EAFF01232370FFF7ACFF024B1C221A7010BDCF90FF1F835B004073B515461E460B4C0023019378
:4061C00000930A4601461846237000F0BDFB32462946207800F094FB0221207800F07EFB207802B070BD00BFF48BFF1FFAF722B9074A4FF48063136002F6883212680549B7
:406200009166054AE0211170A2F20A321360704780E100E0ED6100000AE400E0104A137803F0C00343F00B03137092F8223143F0010382F8223192F8233143F0010382F870
:4062400023314FF47A73A2F89A35A2F8FA3540F2DE32044B1A801322A3F225531A70704776640040506A0040024A137843F08003137070477664004008B505490B781BB963
:40628000FFF7CCFF01230B70BDE80840FFF7ECBFD090FF1F014B1880704700BF506A00400E4A137803F0C00343F00B031370D37E43F00103D376137F43F0010313774FF45A
:4062C0007A73A2F89333A2F8F33340F2DE32044B1A801322A3F226331A7070477D64004050680040024A137843F08003137070477D64004008B505490B781BB9FFF7D0FFDA
:4063000001230B70BDE80840FFF7ECBFD190FF1F014B1880704700BF50680040014B1870704700BF74640040F7B516461F460B4C00230425019300930A460146284625702C
:4063400000F002FB3A463146207800F0D9FA0221207800F0C3FA207803B0F0BDF58BFF1FF7B516461F460B4C00230525019300930A4601462846257000F0E6FA3A46314647
:40638000207800F0BDFA0221207800F0A7FA207803B0F0BDF68BFF1FF7B516461F460B4C00230625019300930A4601462846257000F0CAFA3A463146207800F0A1FA0221F7
:4063C000207800F08BFA207803B0F0BDF78BFF1FFAF750B8074A4FF48073136002F68832126805491166054A80211170A2F542721360704780E100E0D163000008E400E0ED
:40640000FAF77EB8074A4FF48053136002F68832126805491167054AC0211170A2F543721360704780E100E0016400000CE400E0014B1870704700BF7A64004008B5064B56
:4064400008221A600549032000F07CFBBDE808400221032000F084BB80E100E02D650000074B10B508241C6000F0A6F9054B064A1B68A0F5004000B21460184410BD00BF17
:4064800080E100E0D490FF1F00E100E038B50546054B08241C604FF4004000F087F9034B1D60034B1C6038BD80E100E0D490FF1F00E100E0024B187800F00F00704700BFD5
:4064C0006064004008B5094B0F221A70FFF7F2FF00F036FC064A137843F01003137000F033FC044B08221A6008BD00BF806400409064004000E100E010B500F0A1F94FF4DE
:40650000004000F053F9074C074B00221A6023781BB9FFF793FF01232370BDE81040FFF7D1BF00BFD290FF1FD490FF1F0B4B1B78DBB2D90705D50A490A6802F5FF427F32D6
:4065400005E09A0704D506490A68A2F500420A605B0742BF024B00221A60704760640040D490FF1F08B50020FEF7F6FA0120FEF7F3FA024BFF221A7008BD00BFF88BFF1F4D
:4065800010B50446FFF7EEFF2046FEF7D5FA014B1C7010BDF88BFF1FF0B52C4D2C4E2F78348807F00707A4B2A0424DD0294B1A78D2B26FB934B158B92B7843F040032B70C8
:4065C0003080F0BD30802B7803F0BF032B70F0BD02F0100202F0FF060AB31F4F1F4A00254FF0100E157087F800E03D7117F8085C05F07F0507F8085C144D2D782D0700D5ED
:4066000068B9174D2C8007241470147814F00104FBD11A7802F0EF021A70104A14701B780C4ADC060BD50E4B0029188014BF03220122013B1A701A78D207FCD4F0BD044B5F
:406640001880137833431370F0BD00BF9240004090400040A2430040104000400140004002400040034A00F0F800137803431370704700BF92400040024B4FF000521A604F
:40668000704700BF00E100E02DE9F041304C314E94F800C035880CF0070CADB2A842A646374653D02C4B1A78D2B2BCF1000F0FD13DB168B9237843F0400323703080BDE843
:4066C000F0813080237803F0BF032370BDE8F08102F0020202F0FF061AB3DFF888C01F4A00244FF0020814708CF800800CF8044C1CF80C4C04F07F040CF80C4C9EF80040E0
:40670000240700D568B9164C258007241470147814F00104FBD11A7802F0FD021A700F4A14701B780C4A9C070CD50D4B0029188014BF03220122013B1A701A78D207FCD495
:40674000BDE8F0813880137833431370BDE8F0810641004004410040A1430040014000400240004014400040034A00F0F800137803431370704700BF06410040014B0222F4
:406780001A60704700E100E0034A00F0F800137803431370704700BF9A400040024A137843F08003137070477F640040014B1880704700BF1C680040024B1B78024B1888F9
:4067C00080B270470E6400409C680040034A044913785B0601D50B88FAE770476F6400409C68004008B5124B1A7802F0F8021A701A7802F0FC021A70FFF7E8FF0D4A4FF437
:4068000000436FF473701380002122F8403C02441170203A1278084A138000F091FA074A137843F010031370BDE8084000F08CBA7F6400405C6800407C6800409F64004024
:4068400010B5054C23781BB9FFF7CCFF01232370BDE81040FFF7A2BFD890FF1F074A7F23802113705170064A013BDBB202F80839002BF9D1034A1370704700BFFC8BFF1F3D
:40688000F87B00400078004017280FD8084B0001C25C11B142F0200201E002F0DF02C254C25C42F00102C25400207047012070471070004017280DD8074900010B46034410
:4068C0001A7942F004021A71435C43F00103435400207047012070471070004017280BD8064A0001835C490003F0F10301F00E011943815400207047012070471070004044
:4069000041F6FF73994208BF4FF400519A4208BF4FF4005217289FBFC00000F1804000F5EC4081809ABFC280002001207047000017289FBF034B00011954002088BF01209C
:40694000704700BF19700040172810B51AD8C00001F07F0100F1804441EAC21204F5EC44D2B222709DF8082003F00F0343EA0213DBB263709DF80C30002003F00F03A37051
:40698000E07010BD012010BD10B500F0D9F90A4A5378182B0AD91478013B5370E30003F1804303F5F0431B78137000E0FF2400F0CBF9204610BD00BFFC8BFF1F30B504065D
:4069C0000CD411F4704509D1C40004F1804404F5F0442180A270E370284630BD012030BD03065FBFC00000F1804000F5F04081805ABFC280002001207047000070B500F0E4
:406A0000B9F800F045F908B104243AE000F07AF90728044610D11C4D2A781B4B900703D4012000F087F8F7E71A78910704D51B789B0814BF0724002400F04AF90CBB00F02D
:406A400099F800F025F90028DED1012000F006F907280AD10C4D02210C4800F09DF80228094E05D02B789B07F5D54FF0FF3406E033789A0703D4012000F05CF8F8E700F01D
:406A800027F9204670BD00BF224700407E66002008B500F055F90F4A137843F008031370137C43F0080313740B4BC8221A700B4A137843F010031370137C43F010031374F4
:406AC00002F5557213789B06FCD5BDE8084000F03BB900BFA043004001470040AC430040044B1A7842F001021A701A789207FCD5704700BF02470040024A137803F0FE030B
:406B0000137070470247004038B50446084DB4F5004F05D9286800F00BF9A4F50044F6E7034B58686043BDE8384000F001B900BF048CFF1F024B1B7A584300F0F9B800BF30
:406B4000048CFF1F054A00F01F00126800F1100352F8230042F82310704700BF08ED00E000F01F0000F16040490100F56440C9B20170704708B500F0E3F8064A137843F0AA
:406B800008031370137C43F008031374BDE8084000F0DAB8A04300402DE9F0410E464B1E0A4FDFF82C80451EC418A5420BD03B78DB0703D40120FFF7BDFFF8E798F80030A2
:406BC00005F8013FF1E73046BDE8F081224700402047004030B50F4C23789D0715D50E4BB6251D70D5251D7002251D702478A4070DD40C461870601A80B2824203D914F8E5
:406C0000010B1870F7E7072030BD042030BD092030BD00BF224700402047004070B50D4D2C78A60712D50C4CB6262670D8262670052626702D78AD070AD42070080AC9B26E
:406C40002070217022702370072070BD042070BD092070BD22470040204700400A4A137899070CD5094BB6211970E12119700E2119701278920704D41870072070470420A7
:406C800070470920704700BF224700402047004038B500F055F80C4A147874B901250B4915700B682B400AD00B6823F001030B6000BF00BF00BF556002E0042400E01C460B
:406CC00000F042F8204638BDDC90FF1F0400084010B500F035F8094B00215A681970012A08D1074C226842F00102226000BF00BF00BF5960BDE8104000F026B8DC90FF1FBC
:406D000004000840074B1B789B0708D5064BB6221A70E0221A700D221A70072070470420704700BF2247004020470040000000000230800803D000BF01380046FCD1704794
:406D4000EFF3108072B6704780F31088704700BF30B5214A21F00043934287B01BDD1F4A934205DD02460B4601F0ECFA07B030BD02AA00F029F900F0030001281AD0022877
:406D80000FD008B3DDE9020101230093DDE9042301F012F9EAE70022002300F0F1FB07B030BDDDE90423DDE9020100F0E9FB01F10041DBE70090DDE90423DDE9020101F084
:406DC000FBF801F10041D1E7DDE90423DDE9020100F0D6FBCAE700BFFB21E93FFFFFEF7FF8B5C1F30A56A6F2FF35132D0A460B460446864611DC002D2EDB0F461F49294150
:406E00000A4225D04FF400232B413B4423EA01030026194634462046F8BD332D05DDB5F5806F1FD011462046F8BDA6F213464FF0FF3121FA06F63042F4D00122C5F133059B
:406E400002FA05F52D1828BF9B1825EA0606E0E70028D7D11146E6E7013501F0004307D00026D6E702460B4601F06EFA0446D2E743F07F5343F440130026CAE7FFFF0F00DB
:406E800030B5214A21F00043934287B01BDD1F4A934205DD02460B4601F054FA07B030BD02AA00F091F800F0030001281ED0022811D0DDE9042300B3DDE9020100F060FBA0
:406EC00001F10041EAE7002300930022002301F073F807B030BD01230093DDE90201DDE9042301F069F801F10041D7E7DDE90423DDE9020100F044FBD0E70124DDE9020159
:406F0000009401F059F8C9E7FB21E93FFFFFEF7F2DE9F04F8BB004460D4600F06BFA284B064693F900A00F46BAF1FF3F12D022462B462046294601F053FE834650B94FF08D
:406F400000084FF000092046294642464B4601F01FFE20B9304639460BB0BDE8F08F194A0123CDF820B0CDE90445CDE9024501920093BAF1000F15D042464B46404649460D
:406F800001F0BEFCBAF1020FCDE906010CD102F089F821230360089B63B9DDE906010BB0BDE8F08FCDE90689684601F049F90028F1D1ECE702F076F8089B0360EDE700BF6F
:406FC000148CFF1FAC9D00002DE9F04F944C21F00047A7428FB040F381801446914A0E46974226DC84A3D3E90023002940F3A08101F0A8F98C4B80469F42894600F08380E8
:407000007FA3D3E9002301F09DF902460B464046C4E90023494601F095F979A3D3E9002301F090F90125C4E9020128460FB0BDE8F08F7E4A974240F383807D4A974258DC84
:407040003D15A5F21645A7EB05518B46824601F0DDFD01F0C5FA8046894642464B4650465946CDE9088901F06DF90022714B01F01DFB8B46824601F0C9FD01F0B1FA8046B6
:40708000894642464B4650465946CDE90A8901F059F90022674B01F009FB00220023CDE90C0101F06BFD002800F06A81002340464946002201F062FD002814BF012302230C
:4070C0005D480221019000912A46214608A800F07BFB002EC0F24A81054606E0C2E9000100250024C2E90245002528460FB0BDE8F08F02460B4601F025F90025C4E9020103
:40710000C4E90001F1E740A3D3E9002301F01AF93FA3D3E9002306460F4601F013F902460B463046C4E90023394601F00BF938A3D3E9002301F006F90125C4E90201D4E716
:4071400000F0F0FF34A3D3E900238046894601F0ADFA0022394B01F0F7F801F057FD054601F03EFA24A3D3E90023CDE9040101F09DFA02460B464046494601F0E3F820A3E8
:40718000D3E9002382468B46DDE9040101F08EFA1F2DCDE9020155DC294B6A1E53F822309F424FD002460B465046594601F0CAF802460B4681468846C4E900234A464346AC
:4071C0005046594601F0BEF8DDE9022301F0BAF802460B46002EC4E9022386DA4A4608F1004301F1004184E80C00E160A0606D427BE700BFAFF3008000004054FB21F93F9A
:407200003163621A61B4D03D0000601A61B4D03D7370032E8A19A33B83C8C96D305FE43FFB21E93F7BD90240FB21F93FFB213941FFFFEF7F00007041349E00000000E03FE6
