:020000040800F2
:100000000000032075020008215D00082D5D000836
:10001000395D0008455D0008515D000800000000E2
:100020000000000000000000000000005D5D00080E
:10003000695D000800000000755D0008895B00082C
:100040009D0200089D0200089D0200089D02000814
:100050009D0200089D0200089D0200089D02000804
:100060009D0200089D020008B15B0008695C000861
:10007000095C0008815C0008215C00089D02000802
:100080009D020008755C00089D0200089D020008A2
:100090009D0200089D0200089D0200089D020008C4
:1000A0009D0200089D0200089D0200089D020008B4
:1000B0009D0200089D0200089D020008BD5C00082A
:1000C000C95C00089D0200089D0200089D0200080E
:1000D0009D020008C15B00089D02000869770008C6
:1000E000B95B00089D0200089D0200089D020008FF
:1000F0009D0200089D0200089D0200088D5C00081A
:100100009D0200089D0200089D0200089D02000853
:100110009D0200089D0200089D020008B15C0008D5
:10012000995C0008395C0008D95B00089D02000852
:100130009D0200089D0200089D0200089D02000823
:100140009D0200089D0200089D020008A55C0008B1
:100150009D020008515C0008F15B0008CD5B0008BF
:10016000D55C0008E15C00089D0200089D020008C3
:100170009D0200089D0200089D020008000000008A
:100180009D0200089D0200089D0200089D020008D3
:10019000995B00089D0200089D0200089D0200086E
:1001A00000000000000000009D02000800B5264B82
:1001B000264A934283B00AD2D9430A4422F003026A
:1001C00004321A44002143F8041B9342FBD1204A15
:1001D000204B9A420CD2D043184420F003001E4B0F
:1001E0000430184453F8041B42F8041B8342F9D12D
:1001F0001A4D1B4C04F0CEFE01A9684604F00AFE1D
:100200002B1B032B04DD54F8043B9847AC42FAD176
:10021000144D154C2B1B032B04DD54F8043B98475D
:10022000A542FAD19DE80300104C114D06F084F967
:10023000631B032B064604DD54F8043D9847A54292
:10024000FAD1304604F0E2FD2804002044E5002005
:10025000000000202404002058D30008C802000831
:10026000C8020008C8020008C8020008C802000846
:10027000C8020008FFF79ABFFEE700BFFEE700BF15
:10028000FEE700BFFEE700BFFEE700BFFEE700BFDE
:10029000FEE700BFFEE700BFFEE700BFFEE700BFCE
:1002A00058D30008000000202404002058D3000880
:1002B00000000010000000102804002044E5002089
:0802C000000000100000001016
:10030000704700BF084B094A1B6810B5A2FB0323C6
:100310000446980900F0CEFA214600224FF0FF3043
:1003200000F084FA002010BD18000020D34D6210A8
:1003300008B50B4B1A6842F400721A601A6842F44E
:1003400080621A601A6842F480721A60032000F01A
:100350005BFA0F20FFF7D6FFFFF7D2FF002008BDA2
:10036000003C0240024A136801331360704700BF2B
:1003700014090020014B1868704700BF14090020C1
:1003800030B583B00190FFF7F5FF019C631C054673
:1003900018BF0134FFF7EEFF401BA042FAD303B0B1
:1003A00030BD00BF704700BF002800F0AB80F8B53B
:1003B000036C04463BB1236CDB060CD50023012003
:1003C00084F83C30F8BD436480F83C30FFF7EAFF26
:1003D000236CDB06F2D4226C4B4923684B4D22F48C
:1003E000885222F0020242F0020222644A6822F499
:1003F00040324A604868626802434A605F68A66AA1
:1004000004F1080191E8064027F480775F6058689E
:1004100040EA0E205860586820F0407058605868D4
:1004200001435960996821F4006199609968AE426E
:1004300042EA01029A6046D09968E26A21F070614E
:10044000996099680E439E60996821F040519960C7
:1004500099680A439A609968A569206A21F00201A7
:1004600099609A6842EA45029A605A68002833D136
:1004700022F400625A60DA6AE069276B666922F446
:100480007002DA62DD6A013845EA0050D862986885
:1004900020F400709860996841EA47219960996852
:1004A00021F4806199609A68002042EA86229A606D
:1004B0006064236C23F0030343F0010323640023EF
:1004C00084F83C30F8BD9A6822F070629A609A68AD
:1004D00022F040529A60BEE742F400625A605A68C5
:1004E00022F460425A604FF4604292FAA2F2B2FAE9
:1004F00082F2616A5868D2B2013901FA02F202430B
:100500005A60B8E701207047002301400100000F46
:10051000F0B590F83C3083B00024012B019469D0F1
:100520000568AB680124DF0780F83C4014D4374BE2
:10053000374E1C68AB68A6FB0464A40C43F00103AF
:1005400004EB4404AB600194019B2BB1019C013C82
:100550000194019C002CF9D1AB68DE0747D5046CEF
:1005600024F4E06424F0010444F4807404646B68AF
:100570005C0505D5036C23F4405343F480530364B6
:10058000036C244C244F13F480531CBF436C23F0A2
:10059000060343640646806B13464FF0000E1F4A65
:1005A00086F83CE0C2636FF02202C46407642A60EC
:1005B0006C6844F080646C60AC6844F480740A46F3
:1005C000AC6005F14C0100F047FA154B5B68DB06A7
:1005D00009D13368986810F0405008D19A6842F009
:1005E00080429A6004E032680E4B9A4205D00020A7
:1005F00003B0F0BD022003B0F0BD936813F040508B
:10060000F5D1936843F080439360F1E71800002030
:1006100083DE1B439D0600088D060008290600089E
:100620000023014000200140836B1A6C12F0500F30
:1006300022D11A6C196842F4007210B51A648A68E3
:1006400012F0405F14D19A6992B9CA6A12F4700F1D
:1006500015D14A6822F020024A601A6C22F4807296
:100660001A641A6CD20403D41A6C42F001021A64A0
:10067000184604F09BFD10BD9B6BDB6C18478A6825
:100680005005F5D4E5E700BF704700BF08B5806BA3
:10069000FFF7FAFF08BD00BF704700BF806B08B5C9
:1006A00040230364436C43F004034364FFF7F4FF07
:1006B00008BD00BFF0B590F83C3083B00022012B9C
:1006C000019258D00E680123092E374680F83C303D
:1006D00029D805688B682C6906EB460E072202FABA
:1006E0000EF224EA02022A612A6903FA0EF3134386
:1006F0002B614B68062B2CD803EB8303696B053BFE
:100700001F229A4021EA02026A636A6B07FA03F326
:1007100013436B63374B9D423FD0002380F83C303E
:10072000184603B0F0BD05688C68EA68B7B207EBFD
:1007300047031E3B4FF0070E0EFA03FE22EA0E029D
:10074000EA60EA6804FA03F31343EB604B68062B94
:10075000D2D90C2B12D803EB83042A6BA4F123010A
:100760001F238B4022EA03032B632B6B07FA01F153
:1007700019432963CEE7022003B0F0BD03EB8302E7
:10078000E96A413A1F23934021EA0303EB62E96AD5
:1007900007FA02F30B43EB62BCE7122E23D0164B91
:1007A0009E4207D0112EB8D1144A536843F4000377
:1007B0005360B2E71149124B4A68124C42F40002EE
:1007C0004A601B68A4FB03239B0C03EB83035B00C1
:1007D0000193019B002BA0D0019B013B0193019B46
:1007E000002BF9D199E7054A536843F4800353601D
:1007F00093E700BF002001401200001000230140D9
:100800001800002083DE1B43074AD1684FF6FF0320
:100810000B40000243F0BF6300F4E06043F4003398
:100820000343D360704700BF00ED00E0194BDB6865
:10083000C3F3022330B4C3F10705042D03F104040C
:1008400028BF0425062C18D9033B01249C40013CF9
:1008500022400124AC40013C214001FA03F300286E
:1008600042EA03020CDB00F1604000F56140120136
:10087000D2B280F8002330BC704700221346E8E76C
:10088000054B00F00F0012010344D2B21A7630BCBF
:10089000704700BF00ED00E0FCEC00E000F01F013D
:1008A00001234009024A8B4042F82030704700BFC4
:1008B00000E100E00138B0F1807F0ED2084B10B4A7
:1008C000084C5860F02084F82300002207211046CD
:1008D0009A6019605DF8044B70470120704700BFB3
:1008E00010E000E000ED00E04309603300F01F007D
:1008F0000122034902FA00F041F82300704700BFCB
:1009000000E100E0044A136804280CBF43F004032C
:1009100023F004031360704710E000E0704700BF4D
:1009200008B5FFF7FBFF08BDF8B50446FFF722FD49
:10093000002C72D00222236884F835201A68002126
:1009400022F0010284F8341005461A6005E0FFF732
:1009500011FD401B05283AD823681A68D107F6D440
:1009600004F10C0027C86768A6683E433043014382
:100970001143E669206A1F68344A29430E43616ABD
:1009800030433A40042942EA000227D01A605A69EB
:1009900022F007021143DAB22D4D5961103AA5FB3E
:1009A000021212092B4823F47F73815CE16523F066
:1009B0000303032A88BF04333F228A400125002114
:1009C000A36508469A60616584F83550F8BD032335
:1009D00020226265184684F83530F8BDE06A216B44
:1009E000A66A01430A431A605A6946F0040122F0DC
:1009F000070211430028CED08DB1B5F5005F18D0A5
:100A0000022E03D9032EC6D1C201C4D50123402230
:100A10006265184684F83530F8BD0120F8BD012E16
:100A200003D0F1D3022EB6D1EEE7B0F1C07FB2D140
:100A3000ECE7032EAFD801A252F826F00D0A000809
:100A4000090A00080D0A00082B0A00083F8010F070
:100A5000ABAAAAAA9CD00008F0B490F83440012CAC
:100A60000DD090F83540866D0125AC4280F83450A9
:100A700008D0002380F834300220F0BC70470220F8
:100A8000F0BC704704680227002580F83570456582
:100A90002568876825F48025402F256063600ABF9C
:100AA000A260A160E160C16D18BFE2603F238B408E
:100AB000026CB360236843F016032360636943F05C
:100AC000800363611AB1236843F00803236023683D
:100AD00043F0010323600020CFE700BF90F83530DA
:100AE000022B03D080234365012070470268052351
:100AF00080F83530136823F001031360002070473D
:100B0000F0B583B00023876D0193C36D3D686249E2
:100B100008229A40154204460E6803D0016808680E
:100B2000400776D45D4A9A40154203D0216849694E
:100B3000080668D45A4A9A40154203D021680968C9
:100B400089075AD410229A40154203D021680868B8
:100B500000073FD420229A40154203D0216808683C
:100B6000C00625D4636D0BB3636DDA071AD5052370
:100B7000216884F835300B684A4A23F00103A2FB50
:100B800006020B60920A02E00B68DB0704D5019BAA
:100B900001339A420193F7D20022012384F83420D2
:100BA00084F83530E36C0BB12046984703B0F0BDB4
:100BB000BA6094F83520052A3BD00B6813F4802FD7
:100BC0000B6854D019035FD5E36B002BCAD02046C5
:100BD0009847C7E7BA600A6812F4802F0A6822D1E2
:100BE000D20503D40A6822F008020A60226C002AA7
:100BF000B0D020469047E36DACE7BA60626D42F03A
:100C0000040262659EE7BA60626D42F002026265AC
:100C100090E7086820F004000860BA60626D42F056
:100C2000010262657EE71103E0D5A26C002AE0D1E3
:100C300090E70A68206C22F016020A604A6922F0E6
:100C400080024A6120B30A6822F008020A603F224B
:100C5000216D02FA03F300200122BB6084F8340006
:100C600084F835200029A1D0204688479EE713F458
:100C70008073A9D10A68012022F010020A6084F86A
:100C8000343084F835009FE7636C002B9FD169E70F
:100C9000A26C002AD7D1DAE71800002001008000FA
:100CA00004008000B5814E1B406D7047214BDA680F
:100CB000D00605D52049CA6910200243CA61D86010
:100CC0001C4BDA68910606D51B49CA69202042F000
:100CD0000802CA61D860174BDA68520606D5164971
:100CE000CA69402042F00402CA61D860114BDA6838
:100CF000100606D51049CA69802042F00202CA6176
:100D0000D8600C4BDA68D10507D50B49CA694FF496
:100D1000807042F00102CA61D860064BDA6892071F
:100D200006D50549CA69022042F02002CA61D8608E
:100D3000704700BF003C024018090020054B1A69AB
:100D4000002A01DB012070470349044A5960002052
:100D50005A607047003C024023016745AB89EFCDE4
:100D6000124B70B500220446DA61FFF703FB104D09
:100D7000064601E0601C11D1EB680D4AD903F9D495
:100D8000D368DB0744BF0123D360094BDB6813F44E
:100D9000F97002D0FFF78AFF012070BD24B1FFF780
:100DA000E9FA801B8442E7D2032070BD18090020B5
:100DB000003C02402DE9F041284C257E012D02D156
:100DC0000220BDE8F0811F46054601234CF2503059
:100DD00090460E462376FFF7C3FFB8B9204B1A6939
:100DE00022F440721A611A69A5B91A6119695FFA89
:100DF00088F241F00101196132704CF25030FFF776
:100E0000AFFF174A136923F0010313610023237610
:100E1000BDE8F081012D16D0022D0AD042F44072B7
:100E20001A611A6942F001021A61C6F800807760FF
:100E3000E3E742F400721A611A6942F001021A6192
:100E4000C6F80080D9E742F480721A6119691FFA66
:100E500088F241F0010119613280CEE718090020C3
:100E6000003C02400E4B1A6922F440721A610329B9
:100E70001A690ED001290CBF42F0040242F400426C
:100E80001A61074A136943F4803343EA0020106172
:100E9000704742F4004242F004021A61F1E700BFD9
:100EA000003C024039B1012925D002290CBF4FF482
:100EB00000714FF44071114B1A6922F440721A61AB
:100EC0001A69114319611A690B2822F0F8021A6194
:100ED00088BF0430F82292FAA2F2B2FA82F21969BB
:100EE000D2B2904041F00202104318611A6942F4F4
:100EF00080321A6170474FF48071DCE7003C024099
:100F0000144B1A6891050FD51A6822F400721A6002
:100F10001A6842F400621A601A6822F400621A60C9
:100F20001A6842F400721A600A4B1A6852050FD50B
:100F30001A6822F480621A601A6842F480521A60B9
:100F40001A6822F480521A601A6842F480621A60A9
:100F5000704700BF003C02402DE9F843284F3B7E1C
:100F6000012B02D10220BDE8F883012304464CF294
:100F7000503088463B76FFF7F3FE064648BB4FF0FD
:100F8000FF33C8F800302368012B27D0A568E36839
:100F90002B449D421BD2DFF86C9005E0E268A36809
:100FA00001351344AB4212D9217C2846FFF77AFF62
:100FB0004CF25030FFF7D4FED9F8103023F0FA038A
:100FC000C9F810300028E9D0C8F800500646FFF7ED
:100FD00097FF002330463B76BDE8F8836168207CAC
:100FE000FFF740FF4CF25030FFF7BAFE054A136995
:100FF00023F4004323F0040306461361E7E700BF30
:1010000018090020003C02402DE9F04FDFF810C223
:10101000D1F800E0DFF80C82784F83B0002603E0BF
:101020000136102E00F094800123B34033EA0E0203
:10103000F6D1D1F8049029F01004022C00F08B8036
:101040004FEA460A0322056802FA0AF2D24309F07F
:10105000030B15400BFA0AFB013C4BEA0505012C7A
:10106000056040F29A80C5688C682A4004FA0AF448
:10107000224319F0805FC260D2D000220192DCF8D6
:10108000444044F48044CCF84440DCF8444026F02A
:10109000030505F1804504F4804405F59C35019471
:1010A00006F0030B019CD5F808A04FEA8B0B0F2428
:1010B00004FA0BF440452AEA040A23D002F18042E4
:1010C00002F50132904278D04D4A904279D04D4A93
:1010D00090427AD04C4A90427BD04C4A90427CD08D
:1010E0004B4A90427DD04B4A90427ED04A4A904231
:1010F0007FD04A4A90420BBF09220A2402FA0BF21F
:1011000004FA0BF24AEA0202AA603A68DC4319F4D4
:10111000803F14BF1A4322403A607A6819F4003FB6
:1011200014BF1A4322407A60BA6819F4801F14BFB2
:101130001A432240BA60FA6819F4001F06F101064A
:101140000CBF04EA02031343102EFB607FF46CAF64
:1011500003B0BDE8F08F4FEAD60A00EB8A0A06F02A
:101160000704DAF820500A69A4004FF00F0B0BFABD
:1011700004FB25EA0B05A2402A43CAF820204FEAC7
:10118000460A0322046802FA0AF2D24309F0030570
:10119000144005FA0AF52C4304608468CD681440B5
:1011A00005FA0AF5254385604468C9F3001524EA69
:1011B0000304B5402C43446055E7012202FA0BF2C8
:1011C000A0E7022202FA0BF29CE7032202FA0BF2DA
:1011D00098E7042202FA0BF294E7052202FA0BF2D6
:1011E00090E7062202FA0BF28CE7072202FA0BF2D2
:1011F00088E7082202FA0BF284E700BF003C0140B6
:1012000000080240000C024000100240001402409E
:1012100000180240001C024000200240002402404E
:10122000003802400000024002B9090481617047A1
:10123000044A5169014200D1704708B5506104F079
:10124000D1F808BD003C01402DE9F8430D460646A3
:1012500090469946C1F307473468012F20D0A06912
:10126000C04380B2284214BF0120002008B3606947
:10127000430520D4B8F1FF3FEFD0B8F1000F05D0FF
:10128000FFF778F8C9EB00008045E5D20023202263
:10129000336386F83C3086F83D200320BDE8F883B0
:1012A0006369DB439BB22B4214BF0120002000285E
:1012B000DDD1BDE8F883236800226FF4806743F432
:1012C000007304252021236001206761356486F8BE
:1012D0003C20326386F83D10BDE8F8832DE9F041EB
:1012E0000C46064617461D46C1F30748336801E021
:1012F0006A1C0FD1B8F1010F0CBF58699869C0433F
:1013000080B220420CBF01200020B842F0D0002063
:10131000BDE8F0812DB1FFF72DF8069BC01A85427C
:10132000E4D200232022336386F83C3086F83D2047
:10133000032086F83E30BDE8F08100BFF8B50446D2
:101340000E4617462068436913F0040324D145690B
:101350006A050CD56FF48065042120224561216463
:101360000120236384F83C3084F83D20F8BD731CD1
:10137000E9D026B1FEF7FEFFC01B8642E2D2236C05
:10138000002243F020032021236484F83C202263C0
:10139000032084F83D10F8BD0020F8BDF8B50446E0
:1013A0000E4617462068436913F0800324D145692F
:1013B0006A050CD56FF48065042120224561216403
:1013C0000120236384F83C3084F83D20F8BD731C71
:1013D000E9D026B1FEF7CEFFC01B8642E2D2236CD5
:1013E000002243F020032021236484F83C20226360
:1013F000032084F83D10F8BD0020F8BD2DE9F0472A
:10140000056884B02C680D9E44F48074884691462B
:101410009A462C600C9B009600224FF00111074663
:10142000FFF75CFF18B1032004B0BDE8F0873A680D
:101430001E4908F0FE031361384633460C9AFFF745
:1014400003FF20B13B6C042BEDD10120ECE73B689E
:1014500003905A6903929B69039332460C99039B4C
:101460003846FFF79BFF88B9BAF1010F18D03968E9
:101470004FEA19230B6132460C993846FFF78EFF6D
:1014800020B93A685FFA89F31361CDE73B6C042B0E
:10149000C9D13A68136843F4007313600120C3E7AD
:1014A0003B685FFA89F21A61BEE700BF02000100E3
:1014B0002DE9F0470468256845F48065256084B00F
:1014C00025680D9E45F48075884691469A462560AC
:1014D0000C9B009600224FF001110746FFF7FEFE1D
:1014E00018B1032004B0BDE8F0873B682F495FFACC
:1014F00088F808F0FE021A61384633460C9AFFF766
:10150000A3FE20B13B6C042BEBD10120EAE73B6842
:1015100003905A6903929B69039332460C99039B8B
:101520003846FFF73BFF60B9BAF1010F3B6811D1B4
:101530005FFA89F21A6132460C993846FFF72EFF9E
:10154000B8B13B6C042BCCD13A68136843F40073F8
:101550001360DAE74FEA19221A610C9932463846CD
:10156000FFF71CFF0028ECD13A685FFA89F313619A
:10157000E1E739680B6843F480730B6002460C9B0B
:1015800000964FF001113846FFF7A8FE0028A8D1B9
:101590003868064948F00102026133460C9A384621
:1015A000FFF752FE0028ADD19CE700BF020001000A
:1015B00000286CD0F8B590F83D30044603F0FF02E7
:1015C000002B4FD02268334D242384F83D3013681C
:1015D00023F00103136002F003F82F4A61682368C7
:1015E000A2FB0062920CA9425A6026D84900B0FBC7
:1015F000F1F0C0F30B01013203291A6298BF0420F5
:10160000256AD4F81CE02769E1686669A269D86197
:1016100039434EEA0500324318609960DA60196870
:10162000002241F00101202519601046226484F84F
:101630003D50226384F83E20F8BD4FF49675174F55
:10164000A66805FB02F2A7FB0252920901321A6258
:101650006EB901EB4101B0FBF1F0C0F30B029AB996
:101660000120CDE780F83C2004F0C8FDAAE701EB9B
:10167000810101EB8101B0FBF1F0C0F30B02002A04
:10168000EED040F44040BBE740F40040B8E7012012
:10169000704700BFA086010083DE1B43D34D62105C
:1016A000F0B482B00023019390F83D30202B03D09A
:1016B000022002B0F0BC7047F1B1EAB1254B264CD4
:1016C0001B68DB08A4FB03431B0A03EB830303EB48
:1016D0008303019303E003689C69A5070ED5019B72
:1016E0005C1E0194002BF6D12022036380F83C306D
:1016F00080F83D200320DCE70120DAE790F83C4049
:10170000012CD5D01C680125E40780F83C5002D498
:101710001C682C431C601C68104D24F400641C6081
:1017200021270024202680F83D7080F83E60046464
:101730004285C562458D1A68416242F48062058522
:101740001A605A6880F83C4042F4E06220465A60D1
:10175000AFE700BF1800002089B5F8140000FFFFB4
:10176000F0B482B00023019390F83D30202B03D0D9
:10177000022002B0F0BC7047F1B1EAB1244B254C15
:101780001B68DB08A4FB03431B0A03EB830303EB87
:101790008303019303E003689C69A5070ED5019BB1
:1017A0005C1E0194002BF6D12022036380F83C30AC
:1017B00080F83D200320DCE70120DAE790F83C4088
:1017C000012CD5D01C680125E40780F83C5002D4D8
:1017D0001C682C431C601C680F4D24F400641C60C2
:1017E00022270024202680F83D7080F83E600464A3
:1017F0004285C5621D68416245F4806102851960B9
:101800005A6880F83C4042F4E06220465A60B0E7F3
:101810001800002089B5F8140000FFFF2DE9F047FB
:10182000044682B098460E461746BDF82C90FEF747
:10183000A1FD94F83D30202B03D0022002B0BDE87A
:10184000F087054600901923012240492046FFF702
:1018500045FD0028F1D194F83C30012BEDD02368F0
:101860001A680121D20784F83C1002D41A680A438E
:101870001A601A68364922F400621A604FF0000AB2
:101880002122402384F83D2084F83E30C4F840A053
:10189000A4F82A90E162608D0A9B636231460C9E37
:1018A00001950096434620853A462046FFF7A6FD5F
:1018B000002839D1268D0C992A462046B6B1FFF76B
:1018C0006DFD002837D1626A2168208D531C636248
:1018D00013780B61638D013B9BB263854B69461E98
:1018E000B6B25B072685E6D5931C96B92A460C99B5
:1018F0002046FFF723FDF0B922681368202143F446
:101900000073136084F83D1084F83C6084F83E60F6
:1019100094E7636253780B61638D861E013BB6B218
:101920009BB226856385C6E7236C84F83CA0042B14
:1019300009D0032082E7236C042BFAD122681368B4
:1019400043F400731360012078E700BF0200100029
:101950000000FFFF2DE9F043044687B000209846C1
:101960000E4617460390BDF83C50FEF703FD94F871
:101970003D30202B03D0022007B0BDE8F083504B50
:10198000504A1B68DB08A2FB03231B0A03EB8303FB
:1019900003EB83038146039303E021688B699A0775
:1019A0000CD5039B5A1E0392002BF6D120222363F1
:1019B00084F83C3084F83D200320DDE794F83C3087
:1019C000012BD8D00B680122DB0784F83C2002D41D
:1019D0000B6813430B600B683B4823F4006322221F
:1019E0000B6084F83D204023002284F83E302264BE
:1019F0006585E062638D0E9860629BB22385002B43
:101A000033D0A06BDFF8C8E00264426482640265F0
:101A10002E4AC26410310E9AC0F83CE0FFF71CF861
:101A200023200090CDF8049043463A4631462046A4
:101A3000FFF73EFD002834D1012D23683BD05A68C2
:101A400042F480525A60002104915A6904929A69C2
:101A50000492049A5A6884F83C1042F480725A60E6
:101A60005A6842F400625A6086E723200090CDF85D
:101A7000049043463A4631462046FFF719FD80B9A7
:101A8000236805905A6905929A690592059A1A6821
:101A9000202142F400721A6084F83C0084F83D1062
:101AA0006AE7236C042B4FF0000384F83C300CBF32
:101AB0000120032060E71A6822F480621A60C2E7FE
:101AC0001800002089B5F8140000FFFFE11A000893
:101AD000151B0008704700BF704700BF704700BF6C
:101AE00010B5846BFFF7E0F8022812D021680B686C
:101AF000002223F4806320200B60628584F83D007F
:101B000084F83E20236C43F010032364204604F045
:101B10002BFB10BD806B08B590F83D3090F83E204F
:101B2000DBB2212B25D0222B20D003681A6822F4A7
:101B300080621A601A6842F400721A605A6822F4CD
:101B400080525A605A68002122F400625A6041852E
:101B5000036CEBB9202280F83D2090F83E2080F8FD
:101B60003E30402A11D004F08FFA08BDD2B2202AAC
:101B7000DBD103685A68002122F400625A60418573
:101B80005A6842F440725A6008BD04F07FFA08BDFA
:101B900004F0EAFA08BD00BF704700BF38B590F8FE
:101BA0003D30293B012B04464DD990F83D30602B48
:101BB000036805D05A6815055CBF202280F83D20D7
:101BC0000022226384F83E201A6822F400621A6020
:101BD0005A6812F4006213D05A68606B22F40062F3
:101BE0005A6090F83530012B34D0394B0365FEF73D
:101BF00075FF00285FD194F83D30282B13D038BDF5
:101C000094F83D10602941D05A69520604D5626AA1
:101C10001B69511C61621370204604F0A5FA94F808
:101C20003D30282BEBD1236C5B07E8D5294BE362D1
:101C3000202200232363204684F83D2084F83E3090
:101C4000FFF74AFF38BD002328220363036880F8AA
:101C50003D20B9E7A06B1E4B0365FEF73FFF002850
:101C6000C9D023685A69500605D5626A1B69511CA0
:101C70006162137023681A68A06B22F001022021B0
:101C80001A60036D84F83D109847B4E7202184F86A
:101C90003D1022645A69510605D5626A1B69511CC0
:101CA0006162137023681A6822F001021A602046EC
:101CB000FFF772FF9FE72268606B1368016D23F0E6
:101CC00001032025136084F83D50884793E700BF47
:101CD000FD2500080000FFFFF0B5036804469D697C
:101CE0005969586894F83E20D2B2102A8DB000F09D
:101CF0008F80402A00F08C808E4A0A401AB38205F9
:101D000000F101828C4A2A40002A00F0F9808B4AB7
:101D10000A40002A40F0B281894A0A40002A00F0B5
:101D2000D480860540F1D180628D92B2002A00F005
:101D3000CC80626A511C616212781A61638D013B2A
:101D40009BB26385C1E07F4F0F40002FDAD086053C
:101D5000D8D594F83D00596821F4E06159600B92A0
:101D60005A690B92196841F0010119600B9A1968C0
:101D700021F4806119605968C2B208051E460ED56B
:101D800094F83D10222900F05A8294F83D102A2937
:101D900000F05582616B0968496889B26185618D7F
:101DA00089B2E1B15969490709D5616A1B69481CC3
:101DB00060620B70638D2668013B9BB2638573691B
:101DC0005B0608D5636A3169581C60621970638DBF
:101DD000013B9BB26385236C43F004032364236CB3
:101DE000002B40F03F82A2F12801022940F2F2814B
:101DF000236B222B01D0222A67D1002320222363C8
:101E0000204684F83D2084F83E3004F077F95CE009
:101E100011F0011F43D0860500F15E814A4A0A4055
:101E2000002A54D0444A2A40002A44D0434A0A4057
:101E3000002A00F08D80470540F18A80404A0A4020
:101E4000002A40F0898094F83D20258D94F83E10BA
:101E5000E06AD2B2C9B2002D40F00E82212A00F011
:101E60003882402931D1222A2FD1628D92B2002AA4
:101E700000F02A8294F83E20402A7FF45AAF226D67
:101E8000002A40F0DA82E26C012AA26C00F0F582AE
:101E9000C2F307221A61236D0133236515E02A4A34
:101EA0000A40A2B18205BDD5626CD2B21A61224A43
:101EB0002A40002ABAD1254A0A40002A78D1204A6D
:101EC0000A4012B1810500F138810DB0F0BD194A08
:101ED0000A40002AA6D08705A4D594F83E20E76AD8
:101EE000D4F830E094F83D60222ED2B200F08A811E
:101EF00000220A925A690A929A690A920A9A91E70A
:101F0000124A0A40002A40F08A800D4A0A40002AFC
:101F1000DBD08205D9D5628D92B2002AD5D0626A13
:101F20001B69511C61621370638D013B9BB2638519
:101F3000CBE700BF02000100040010008000010098
:101F40000400010010000100080001004000010031
:101F5000AA4A0A40002AB8D08605B6D5E16A94F8A4
:101F60003D20212AB1D1628D92B2002A7FF4E1AEE8
:101F7000042905D0082903D011F5803F40F0C9811C
:101F80005A6822F4E0625A601A680021202042F464
:101F900000721A60216384F83D0094F83E3084F8A2
:101FA0003E10402B204600F0B18104F087F88CE70A
:101FB000450584D5914A0A40002A83D194F83D20F2
:101FC000222A82D1628D92B2032AA8D8023A012A2B
:101FD0001A6822F480621A6040F27281E26A022A70
:101FE00000F0F3815A68616A22F4E0625A601B696A
:101FF0004A1C62620B70638D013B9BB20022202160
:10200000638584F83D10226394F83E3084F83E20C6
:10201000402B204600F0D38004F036F855E7450504
:102020007FF573AF754A0A40002A7FF472AF94F8C7
:102030003D10628D92B2C9B2002A3FF446AF626A87
:102040001B69501C60621370638D013B9BB26385FA
:10205000638D9BB2002B7FF438AF2A297FF435AF14
:1020600022685368222523F4806328215360204688
:10207000256384F83D1004F041F826E747057FF515
:102080004BAE5E4A0A40002A7FF44BAE94F83D10F6
:10209000628D92B2C9B2002A3FF417AF626A501C37
:1020A000606212781A61628D013A92B26285628D25
:1020B00092B2002A7FF409AF29297FF406AF5A684B
:1020C000212522F4806228215A602046256384F865
:1020D0003D1004F029F8F8E694F83E20402A71D02B
:1020E0002269B2F5804F1CD0226D002A7ED0226D6D
:1020F000012A7FF497AE626CD21102F0060242F020
:10210000F1021A618EE699699B6981F004011F064C
:10211000C1F3800154BFA289228B2046FFF7DAFC6D
:10212000D3E694F83D20212A626C16BF42F00102EA
:1021300002F0FE02D2B21A6174E6E16A628D92B2D6
:10214000032A00F08280628D92B2022A7FF4E7AE09
:10215000042900F09580082900F0928011F5803F55
:1021600000F08E801A68013922F4806201291A6019
:1021700040F22681626A1B69511C61621370638D93
:10218000626A2168013B9BB263850B69511C6162E5
:102190001370638D2268013B9BB2638553682020D6
:1021A00023F440730021536084F83D00216394F8C8
:1021B0003E3084F83E10402B20467FF42DAF03F0D4
:1021C00065FF82E6226D002A50D1626C02F0FE02A9
:1021D0001A6127E60A4AE26220222363204684F835
:1021E0003D2084F83E30FFF777FC6EE6626CD2113A
:1021F00002F0060242F0F0021A6113E60400010048
:102200000000FFFF266D16B9402A00F0AA80266D57
:1022100026B92269B2F5404F00F0AA80628D92B2D1
:10222000002A32D103925A6903929A690392039A5F
:102230001A6842F400721A6000222265F2E5A16B6E
:102240000968496889B26185A9E5042905D008298A
:1022500003D011F5803F7FF462AE1A6822F48062E9
:102260001A605CE62046FFF799FC2EE6626C42F0AD
:102270000102D2B21A61D5E5212A7FF4F2ADF4E56C
:102280001A6842F400721A6074E7628D92B2012AF1
:102290004CD0628D92B2022A78D01A6842F48062E1
:1022A0001A605A68120503D55A6842F480525A607F
:1022B000002209925A6909929A690992099ABBE720
:1022C0001A6842F400621A605A6822F480625A6006
:1022D000FBE5042805D0082803D010F5803F40F026
:1022E0009D805A6822F4E0625A601968002220201A
:1022F00041F400711960226384F83D0094F83E3087
:1023000084F83E20402B20467FF44FAEFFF7E6FBDB
:10231000DBE55968112621F4E0612025596020464B
:10232000266384F83E2084F83D503EE617F5803F52
:1023300060D0042F4ED0082F4CD0BEF1120F49D0E0
:10234000E26A022A1A6814BF22F4806242F48062B0
:102350001A60002206925A6906929A690692069AB3
:102360006AE701965A6901929A690192019A59E5C0
:1023700002965A6902929A690292029A1A6842F483
:1023800080721A60226D013222654BE5E26A022AF0
:102390001A6863D022F480621A601A6842F40062FC
:1023A0001A605A68160503D55A6842F480525A607A
:1023B000002208925A6908929A690892089A3BE7A3
:1023C0001A6842F480721A60D4E61A6842F4006215
:1023D0001A6007E61A68002622F480621A600796DF
:1023E0005A6907929A690792079A1A6842F400722A
:1023F0001A6021E71A6822F480621A605A6812F49F
:1024000000622FD01A68002622F480621A600496B7
:102410005A6904929A690492049A0DE75A6811263F
:1024200022F4E06220215A602046266384F83E5060
:1024300084F83D1003F042FE47E5226D012A22D0C8
:10244000226D022A7FF441AD94F83D20222A21D04A
:1024500094F83D20212A7FF438AD6AE442F480628A
:102460001A609EE705925A6905929A690592059A43
:102470001A6842F400721A60DEE6D2B21A61236D65
:102480000233236521E5A26CD2B21A61236D0133B8
:1024900023651AE51A6842F480721A6015E500BFD8
:1024A0000368544A70B55D6959682A40044622B3EE
:1024B000CE0522D5026C15F4813F6FF4807042F096
:1024C00001022264586147D0226C6FF4007042F020
:1024D000020215F4823F2264586123D115F4843F2F
:1024E00008D0CA0506D5226C6FF4006142F00802DC
:1024F00022645961236C5BB970BD15F4813F0CD027
:10250000C805E1D415F4823FE8D0236C002BF3D04A
:102510002046BDE87040FFF741BB15F4823FDDD097
:10252000C905E7D594F83E00628D94F83D10266BFE
:10253000202892B2C9B213D0226C42F00402226465
:1025400094F83E20102A36D06FF480625A6115F458
:10255000843FCFD02368C6E715F4823FE2D1BDE7C0
:10256000002AE9D101F0F702212A03D02829E3D17A
:10257000212EE1D194F83D20E16A0429D2B21FD086
:1025800008291DD0212ADFD11B49E162202000212A
:10259000226384F83D0084F83E105A686FF480612D
:1025A00022F4E0625A6059611A680A401A602046B3
:1025B00003F0BAFDCBE71A6842F400721A60C3E771
:1025C000282ADFD10C4AE2625A686FF4806122F453
:1025D000E0625A6059611A68002122F48062202664
:1025E0001A602046216384F83D6084F83E10FFF7AE
:1025F00073FAACE7000101000000FFFF806B026886
:10260000116838B521F480610023456B846B11603B
:10261000438590F83D102B6560294FF0200123651C
:1026200080F83D1080F83E3006D0136823F0010397
:10263000136003F099FD38BD0364136823F00103B0
:102640001360FFF7A9FA38BDF8B138B503684168DF
:1026500082684CF6CC45044645F255501D60186022
:1026600059609A60FDF786FE054604E0FDF782FE9C
:10267000401B302807D82368D8680028F6D14AF6CE
:10268000AA221A6038BD032038BD0120704700BF60
:1026900003684AF6AA221A6000207047002868D012
:1026A000F0B5032305468BB080F8B933044605F036
:1026B0009FFD286801F0CEFE54F810EB27460FCF9F
:1026C0006E460FC60FCF0FC697E8030086E80300DB
:1026D0002E1D96E80E00704601F078FE0021286855
:1026E00001F0C0FE002108462B462A46012782F849
:1026F0003810D18701310F2982F8397082F83B00F8
:1027000010645064D06402F11C02F0D100222F68E2
:10271000114602F1400083F8F821DA8707EB8000C8
:1027200001320F2A83F8F91183F8FB11C3F8001264
:10273000C3F80412C3F80C1203F11C034160E8D182
:102740000FCCEE46AEE80F000FCCAEE80F0094E8D9
:1027500003008EE80300384696E80E0001F09CFE68
:10276000012385F8B933286802F0BAFA00200BB0CB
:10277000F0BD0120704700BF90F8B833012B01D1A4
:102780000220704710B50123044680F8B833006872
:1027900002F09AFA206801F055FE002084F8B80390
:1027A00010BD00BF2DE9F04F056887B004462846EC
:1027B00002F0D0FA10B107B0BDE8F08F206802F047
:1027C0009BFA0028F7D0206802F096FA10F0020F6A
:1027D000206803D0436903F00203436102F08CFADE
:1027E000010300F137814FF0000A206802F084FAFB
:1027F00010F4802F206840F0D08002F07DFA00288D
:10280000C0F20B82206802F077FA010548D42068F4
:1028100002F072FAC3047FD4206802F06DFA10F45B
:10282000005F20685AD102F067FA10F0100F20689C
:1028300011D0836923F0100383612E6AC6F34343EA
:10284000022B06F00F0700F0CA81062B33D08369F4
:1028500043F01003836102F04FFA070700F149814A
:10286000206802F049FAC60200F12D81206802F0CA
:1028700043FA850200F13281206802F03DFA4000FF
:1028800000F1DF80206802F037FA410793D5236812
:102890005D686A0700F191815A682A435A608AE7A5
:1028A000D5F80838DA0700F18D812068436903F410
:1028B00000634361ACE70822284604F56F71C7EB5B
:1028C000C70702F0A1F904EB8703C6F30A16D3F891
:1028D00010221644C3F810622068B8E702F03EFAEE
:1028E0002068C36823F47053C36001F0A3FE00287E
:1028F00040F0D2812268E060D3684FF4007143F465
:1029000010536161D360204605F0C4FC2068436920
:1029100003F40053436186E705F500677B68206890
:1029200023F0010310217B6001F072FE66686EB136
:1029300005F530630022FF21A3F500700132B24299
:10294000816003F1200343F8181CF5D14FF0FF33E9
:10295000BB61FB69226B43F00113FB61002A00F0AD
:102960003581D7F8843043F00B03C7F884307B6C93
:1029700043F00B037B64D5F80038217C206823F4F6
:10298000FE63C5F8003804F56F7202F003FA2068A0
:10299000436903F4805343613FE702F0B9F983468A
:1029A000002800F0958120680395264605F51069FA
:1029B0004FF0000A09E05FEA5B0B0AF1010A06F139
:1029C0001C0609F1200900F09D801BF0010FF2D0D8
:1029D0005FFA8AF7394602F0ADF9C307054618D504
:1029E000039B2069D3F83418012202FA0AF221EA83
:1029F0000202C3F8342801239842C9F8083000F0D5
:102A000029813946204605F037FC2169012900F06B
:102A10001381280744BF0823C9F80830E90644BFDA
:102A20001023C9F808306A0644BF4023C9F80830AB
:102A3000AB0744BF0223C9F80830280664D42068D5
:102A4000B9E7204605F05AFC2068436903F080434B
:102A5000436118E7206802F053F9064600283FF466
:102A6000C2AE05F53067A0464FF0000A08E07608D0
:102A70000AF1010A07F1200708F11C083FF4B5AE7E
:102A8000F207F4D55FFA8AFB5946206802F048F94C
:102A900010F0010F81460DD0236901229342BA60E4
:102AA00000F0EC805946204605F0DCFB2169012945
:102AB00000F0D58019F0080F79D119F0100F1CBF64
:102AC0001023BB60D3E720465FFA8AF105F012FCC1
:102AD0002068436903F480134361C8E620465FFA27
:102AE0008AF105F003FC2068436903F40013436195
:102AF000C3E6204605F0CAFB2068436903F00803DB
:102B00004361AEE6039D78E6D4F80080F06CD6F819
:102B100050E0326C08F5106303EB4A131946CEEB14
:102B200000039342049189691D46A8BF154689B2E6
:102B300005F1030CB1EB9C0F40F2CD80704540F2E3
:102B4000CA80002800F0C780CDF814A0716CDDF8B1
:102B500010A01D4604E0F26C9A4218D9D51A326CC6
:102B6000237C00939542A8BF1546ABB23A46404637
:102B700002F034F8716C336D29442B447164336571
:102B8000DAF81820E81C92B2B2EB900FE3D8DDF827
:102B900014A02068002D3FF70EAFD8F83428012389
:102BA00003FA0AF322EA0303C8F8343803E720469D
:102BB00005F052FB0823BB607FE7204605F0A2FB2F
:102BC000236869E6204605F075FB6EE67B6943F0F5
:102BD0000B037B613B6943F00B033B61CBE647F69C
:102BE000F0733340002B3FF432AEC7EBC70704EB62
:102BF0008707C6F30A1632462846D7F8041202F0B1
:102C000003F8D7F80432D7F8102233441644C7F833
:102C10000432C7F81062206819E6D5F8042822F0BB
:102C200001022046C5F8042805F05CFB20684369D2
:102C300003F000434361E6E5BAF1000F7FF4E9AE2B
:102C4000E36C002B7FF4E5AE04F56F72206802F0B0
:102C5000A1F8DEE6726C336C13447364D1E6BAF10A
:102C6000000F7FF427AFD4F80C32002B7FF422AF93
:102C700004F56F72206802F08DF81BE73B69D8F805
:102C80000012D8F80422C3F31203CB1A0A44C8F87E
:102C90001032C8F8042205E703224023E260636192
:102CA00000F098FC374B384A0344934205D8226819
:102CB000D36843F47053D36025E6344B344A03445D
:102CC00093420AD82268D36843F46053D3601AE66B
:102CD0008246206891E540465CE7A0F574032D4AE2
:102CE000A3F51053934205D82268D36843F4505398
:102CF000D36008E6A0F18373274AA3F5E743934224
:102D000005D82268D36843F44053D360FBE5234BD6
:102D1000234A0344934205D82268D36843F43053CE
:102D2000D360F0E51F4B204A0344934205D8226844
:102D3000D36843F42053D360E5E51C4B1C4A03449D
:102D4000934205D82268D36843F41053D360DAE580
:102D5000A0F1B773174AA3F55853934205D82268D8
:102D6000D36843F40053D360CDE5134B134A0344B7
:102D700093422268D36894BF43F4E05343F4C053B2
:102D8000D360C0E5405327FFFF340C00401E1BFFFB
:102D90003F420F007F4F12001FD6130060B6E5FEC2
:102DA0005FE3160000D3CEFE3F771B00C05BB3FE8F
:102DB000BF9121001F753800E05459FEDF9C41008F
:102DC00090F8B833012B01D10220704710B50123D0
:102DD000044680F8B833006801F066FF002084F8EC
:102DE000B80310BD70B50C0619D4C1EBC104A40022
:102DF0000519002604F5FC7485F8F811C5F80022C1
:102E000085F8FB31011985F8F961022B04BF002315
:102E10000B7190F8B833012B13D1022070BD01F073
:102E20007F01C1EBC104A40005190126383485F8DF
:102E30003810E9872A6485F83B30011985F8396034
:102E4000E3E70123044680F8B833006801F00EFC84
:102E5000002084F8B80370BD4AB2002A1BDBC1EB26
:102E6000C10300EB830303F5FC73D20F5A70197092
:102E700090F8B823012A01D10220704710B5012231
:102E8000044680F8B8231946006801F037FC00209A
:102E900084F8B80310BD01F07F01C1EBC10300EB62
:102EA00083033833E1E700BF70B501F07F06C6EB5E
:102EB000C604A40005190021C5F80422C5F81012A3
:102EC00085F8F911C5F80C3285F8F8610369012B12
:102ED00008BFC5F8082204F5FC740119DAB20068CD
:102EE0001EB101F083FC002070BD01F0BBFD00208D
:102EF00070BD00BF01F00F01C1EBC10100EB81000B
:102F0000B0F81002704700BFF8B501F07F06C6EBBD
:102F1000C604A4000519012100276A6485F8391048
:102F2000EB6485F838602F650369012B08BFAA643C
:102F300038340119DAB200681EB101F057FC0020E4
:102F4000F8BD01F08FFD0020F8BD00BF4AB2002A95
:102F500038B51DDBC1EBC10300EB830303F5FC7344
:102F60000C46D20F01215A701C70997090F8B8234A
:102F70008A4201D1022038BD80F8B81305461946AF
:102F8000006801F053FE5CB1002085F8B80338BD3D
:102F900001F07F04C4EBC40300EB83033833E0E7A4
:102FA00005F56F72297C286801F0F4FEECE700BF9C
:102FB0004AB2002A38B51CDBC1EBC10300EB830326
:102FC00003F5FC73D20F00255A7019709D7090F8AC
:102FD000B823012A01D1022038BD0446012280F81D
:102FE000B8231946006801F041FE84F8B85328461A
:102FF00038BD01F07F01C1EBC10300EB830338331F
:10300000E0E700BF70B40668736AD1B1B46A0139F1
:1030100003EB14440CD000231846403306EB830323
:1030200001305D68C0B2884204EB15440346F4DB0E
:10303000403106EB810144EA02444C60002070BC40
:10304000704743EA0244B462002070BC704700BF7E
:103050000368002059627047F0B50368DD0783B04C
:1030600004462FD5A6498A6802F00C02042A00F013
:10307000F7808A6802F00C02082A00F0ED8063688D
:10308000B3F5803F00F03181B3F5A02F00F005814A
:103090009B4D2A6822F480322A602A6822F480221A
:1030A0002A60002B40F00281FDF764F9064605E036
:1030B000FDF760F9801B642800F2AD802B689B034C
:1030C000F6D423689F0730D58D4A916811F00C0F14
:1030D00000F0A880916801F00C01082900F09E80A2
:1030E000E368002B00F0F080864B854D01221A60CA
:1030F000FDF740F9064605E0FDF73CF9801B022884
:1031000000F289802B687E4A9807F5D51168F8236C
:1031100093FAA3F3B3FA83F32069DBB221F0F80149
:1031200000FA03F30B43136023681A0720D45907EE
:1031300034D4A269CAB1724B996801F00C01082914
:1031400077D0022A704A4FF00001116000F0D3805E
:103150001C46FDF70FF9054604E0FDF70BF9401B8F
:10316000022858D823689B01F7D4002003B0F0BD93
:103170006369002B60D0654B614D01221A60FDF739
:10318000F9F8064604E0FDF7F5F8801B022842D85E
:103190006B6F9F07F7D523685907CAD5584B5C4D0D
:1031A000002201921A6C42F080521A641B6C03F0E8
:1031B00080530193019B2B6843F480732B60FDF7D0
:1031C000D9F8064604E0FDF7D5F8801B022822D87E
:1031D0002B68DA05F7D5A368012B00F0F980052BE1
:1031E00000F0DD80464D2A6F22F001022A672A6F27
:1031F00022F004022A67002B40F0DA80FDF7BAF8CB
:1032000041F2883607462B6F980792D5FDF7B2F842
:10321000C01BB042F7D9032003B0F0BD526856027C
:103220003FF55EAF364A1268950723D5E268012A5A
:1032300020D0012003B0F0BD344A314D1360FDF7BA
:1032400099F8064604E0FDF795F8801B0228E2D8BD
:103250006B6F9807F7D49EE74A6850027FF50FAF6F
:10326000274A126891037FF52DAF6268002A7FF428
:1032700029AFDEE7224DF822296892FAA2F2B2FACB
:1032800082F22069D2B221F0F80100FA02F20A4378
:103290002A601A077FF54BAF6AE7194B1A6842F4A8
:1032A00080221A601A6842F480321A60FDF762F8D0
:1032B000134D064604E0FDF75DF8801B6428AAD88C
:1032C0002B689A03F7D5FCE60E4A0D4D1360FDF707
:1032D00051F8064604E0FDF74DF8801B02289AD805
:1032E0002B689907F7D423681FE7054A136843F44E
:1032F00080331360DAE71D46FDF73CF806460FE021
:10330000003802400000474260004742800E4742BA
:1033100000700040FDF72EF8801B02283FF67BAFBF
:103320002B682E4A9901F5D447F6C07090FAA0F0A8
:10333000B0FA80F04FF4403393FAA3F3B3FA83F377
:103340004FF0706595FAA5F5B5FA85F6A16A656A3C
:10335000D4F81CE0276AE46AC0B2490805FA00F014
:103360004EEA07070139DBB2F5B2384301FA03F33D
:10337000034304FA05F11A480B430121536001602D
:103380001446FCF7F7FF054605E0FCF7F3FF401B8A
:1033900002283FF640AF23689A01F6D5E5E60F4BC9
:1033A0001A6F42F004021A671A6F42F001021A679C
:1033B000FCF7E0FF094D074641F288362B6F9B076B
:1033C0003FF5B7AEFCF7D6FFC01BB042F6D922E7F7
:1033D000024A136F43F001031367E9E70038024024
:1033E000600047421C4A936803F00C03042B30D062
:1033F000082B2CD15368516803F03F0311F4800F60
:10340000516847F6C07292FAA2F2B2FA82F247F617
:10341000C070D2B200EA010020FA02F014BF0F4AD5
:103420000F4AB2FBF3F30C4A03FB00F34FF44031B5
:10343000506891FAA1F1B1FA81F100F44032C8B2BA
:1034400022FA00F001304000B3FBF0F0704704486E
:1034500070470248704700BF00380240001BB700A9
:103460000024F400574A136803F00F038B422DE940
:10347000F04109D2CBB21370136803F00F039942E5
:1034800002D00120BDE8F08103689A0706D54E4DB1
:103490008268AC6824F0F0042243AA60DF07064685
:1034A0000C4626D54368012B00F086809A1E012A1F
:1034B000454A12687AD99107E3D5434DAA6822F0AC
:1034C00003021343AB60FCF755FF7368012B0746FB
:1034D00041F288384ED0022B57D0032B05D15FE044
:1034E000FCF748FFC01B404563D8AB6813F00C0FD6
:1034F000F6D1344A136803F00F039C4206D2E3B2BC
:103500001370136803F00F039C42BAD133685A0753
:1035100006D52D48F268816821F4E0510A438260A3
:103520001B0707D5284A3169936823F4604343EAAF
:10353000C1039360FFF756FF234A0146F0239268C8
:1035400093FAA3F3B3FA83F302F0F002DBB222FAA8
:1035500003F31E481E4AC35C0F2021FA03F31360D5
:10356000FCF7D0FE0020BDE8F081FCF703FFC01B94
:1035700040451ED8AB6803F00C03042BF5D1B8E727
:10358000FCF7F8FEC01B404513D8AB6803F00C03F2
:10359000082BF5D1ADE7FCF7EDFEC01B404508D880
:1035A000AB6803F00C030C2BF5D1A2E7900184D497
:1035B00067E70320BDE8F081034A126895033FF5F1
:1035C0007CAF5EE7003C024000380240080000206B
:1035D00018000020014B1868704700BF1800002039
:1035E000094A4FF4E053926893FAA3F3B3FA83F3D2
:1035F00002F4E052DBB222FA03F30449044ACB5C42
:103600001068D840704700BF003802401C000020FE
:1036100018000020094A4FF46043926893FAA3F31C
:10362000B3FA83F302F46042DBB222FA03F30449F3
:10363000044ACB5C1068D840704700BF0038024095
:103640001C000020180000202DE9F04180460F46A4
:1036500016461D46D8F8004001E06B1C0AD1A06850
:1036600037EA00030CBF012000208642F5D100207C
:10367000BDE8F0813DB1FCF77DFE069BC01A854296
:10368000E8D8D8F800406368D8F8042023F0E003B5
:10369000B2F5827F636017D0D8F82830B3F5005FA9
:1036A00008D00122002388F8512088F850300320E8
:1036B000BDE8F08122684DF6FF7313402360236854
:1036C00043F400532360ECE7D8F80830B3F5004F1B
:1036D00002D0B3F5806FDFD1236823F0400323606D
:1036E000DAE700BF30B4044690F851000125C0B2BB
:1036F000A84284F850500ED06568B5F5827F05D099
:103700000220002384F8503030BC7047A568002D9B
:10371000F6D10428F4D121B31AB313B394F85100AD
:103720002163012804BF052084F85100E068A386C6
:1037300000216165A263E386A387E387C8B10F4ACE
:103740000F4B2264636423685A6842F0E0025A60B7
:10375000186810F040000AD11A6842F040021A605E
:10376000CFE70023012084F8503030BC70470020A0
:10377000C7E7044A044B22646364E4E79539000810
:103780005D39000821390008E538000800283BD0E1
:10379000F8B590F851300021044603F0FF02816231
:1037A00063B308466668A168E56822696369E769EA
:1037B0003143294311431943266AA2692368656A84
:1037C0003943022784F85170314302F400771E68B0
:1037D000120C394302F0040201432A4326F0400050
:1037E000186019605A60DA69002122F4006201252C
:1037F000DA610846616584F85150F8BD80F85020C0
:1038000003F0CAFCA06ACDE70120704710B490F81D
:103810005040012C03D05DF8044BFFF763BF02203A
:103820005DF8044B704700BF704700BF704700BF92
:1038300010B52A4B2A4A1B68A2FB032384B0044616
:1038400064225B0A02FB03F30293FCF793FD2168F9
:103850004B6823F020034B6002E08B689B0708D481
:10386000029B5A1E0292002BF7D1636D43F0200396
:10387000636500906423002280212046FFF7E4FE68
:1038800038B1636D43F020036365636D43F020033B
:103890006365A36833B922680393D368039393687D
:1038A0000393039B636D63B994F85130042B4FF07D
:1038B000010384F8513020460BD0FFF7B7FF04B066
:1038C00010BD012384F85130204603F093FB04B06F
:1038D00010BDFFF7A9FF04B010BD00BF1800002005
:1038E000F119760510B4026B0168541C0463127858
:1038F0000A73C28E013A92B2C286C28E92B23AB9AD
:1039000001684A6822F080024A60C38F9BB213B1FB
:103910005DF8044B70475DF8044BFFF789BF00BFAB
:1039200010B4826B0168541C8463097B1170C28FD0
:10393000013A92B2C287C28F92B23AB901684A681C
:1039400022F060024A60C38E9BB213B15DF8044B53
:1039500070475DF8044BFFF76BBF00BF016B10B4FD
:10396000046831F8022BE260C28E0163013A92B220
:10397000C286C28E92B232B9626822F08002626060
:10398000C38F9BB213B15DF8044B70475DF8044BD5
:10399000FFF74EBF10B40468816BE26821F8022B78
:1039A000C28F8163013A92B2C287C28F92B232B99A
:1039B000626822F040026260C38E9BB213B15DF870
:1039C000044B70475DF8044BFFF732BF026830B517
:1039D0005168936803F04105012D85B0044654D029
:1039E0009D074CD413F4B07F47D08D0645D55806BB
:1039F0000ED594F85100032850D0606D002540F09A
:103A0000040060650095D068009090680090009870
:103A10009D060CD5606D002540F0010060650295A3
:103A200090680290106820F0400010600298D8055D
:103A300008D5636D002043F0080363650390936825
:103A40000393039B636DC3B1536823F0E00353609A
:103A500001208B0784F851001CD05368E06C23F0E0
:103A60000303536018B1114B0365FDF737F8A06CE1
:103A700018B10E4B0365FDF731F805B030BD0806EF
:103A8000B0D5636C20469847F7E74D06A8D5036C80
:103A90009847F2E7204603F0ADFAEEE700230193E2
:103AA000D368019393680193019BE6E7B13A00085C
:103AB00008B5836B0022DA871846DA8603F09AFA93
:103AC00008BD00BF90F85100704700BF0168022296
:103AD00010B480F839200A680124034622430A60A2
:103AE000002083F839405DF8044B7047704700BFF1
:103AF000704700BF704700BF704700BF704700BFEE
:103B000003681A69910710B5044602D5DA6892076E
:103B100062D41A69500702D5DA68510749D41A6984
:103B2000120702D5DA68100731D41A69D20602D515
:103B3000DA68D00618D41A69D10702D5DA68D20734
:103B40006BD41A69100602D5DA6811066DD41A69A9
:103B5000520602D5DA68500657D41A69910602D582
:103B6000DA68920649D410BD6FF010021A61DB6961
:103B7000082213F4407F2276204661D1FFF7B8FF78
:103B80002046FFF7B9FF002223682276D3E76FF0C3
:103B900008021A61DB69042299072276204655D172
:103BA000FFF7A6FF2046FFF7A7FF00222368227633
:103BB000BBE76FF004021A619B69022213F4407F95
:103BC000227620463FD1FFF793FF2046FFF794FF70
:103BD000002223682276A2E76FF002021A619B6935
:103BE00001229B07027628D1FFF782FF2046FFF7CC
:103BF00083FF0022236822768BE76FF020022046A5
:103C00001A61BDE8104000F0D7B86FF040021A61A9
:103C10002046FFF773FF23689FE76FF001021A61E8
:103C20002046FFF763FF23688BE76FF080021A617D
:103C3000204600F0C3F8236889E7FFF75BFFD8E769
:103C4000FFF758FF9FE7FFF755FFC1E7FFF752FF68
:103C5000ABE700BF364A0368904270B454D0B0F16D
:103C6000804F30D0A2F57C4290422CD002F5806289
:103C7000904228D002F58062904224D002F578422A
:103C8000904220D002F57052904230D002F580620E
:103C900090422CD002F58062904228D0A2F5983252
:103CA000904224D002F58062904220D002F58062DA
:103CB00090421CD08C680A6803600123C46282624F
:103CC00070BC436170474A681A4C8E680D6823F0D7
:103CD00070031343CA6823F440731343A042036084
:103CE000C66285621DD00123436170BC7047CA68FB
:103CF0008C68096823F44073134303600123C46292
:103D0000816270BC436170474A68CC688E680D68F8
:103D100023F070031A4322F4407222430260C66209
:103D200085620B6903630123436170BC704700BF68
:103D30000000014000040140B8B190F8393010B5DE
:103D400003F0FF0204465BB1022384F83930206897
:103D5000211DFFF77FFF012384F83930002010BDBB
:103D600080F8382003F05CFBEEE70120704700BFCD
:103D700090F83830012B1DD002460220136830B471
:103D800082F839005C6824F0700403C95C605C68E8
:103D900020435860986820F080009860986800245C
:103DA000012501439960204682F8395082F8384055
:103DB00030BC704702207047704700BF704700BF9B
:103DC000002800F09E8090F83D302DE9F04103F08E
:103DD000FF020446002B73D02568E169A769206AB9
:103DE000A268022384F83D30EE68E36826F00C06F2
:103DF000EE600F432E69216947F40067384326F4CB
:103E00007C56184330432861EB6860693E4E0A4394
:103E100023F4164342F4004223F00C0302431343FD
:103E2000EB606B69B54223F440736B614DD0374B47
:103E30009D424AD0FFF7D4FB6668354F00EB800007
:103E400000EB80007600B0FBF6F6FFF7C9FBA7FB9E
:103E500006366268760900EB800000EB80005200B5
:103E60003601B0FBF2F8FFF7BBFB616800EB8000A6
:103E700000EB80004900B0FBF1F1A7FB01314909DB
:103E8000642202FB118212013232A7FB0223C3F328
:103E900043133343AB6023681A6922F480421A61EA
:103EA0005A6922F02A025A61DA68002142F400526B
:103EB0000125DA600846216484F83D50BDE8F081B0
:103EC00080F83C2003F0E4FC86E7FFF7A3FB66687C
:103ED0000F4F00EB800000EB80007600B0FBF6F6A1
:103EE000FFF798FBA7FB06366268760900EB8000B7
:103EF0005200360100EB8000B0FBF2F8FFF78AFBBE
:103F0000B3E70120704700BF0010014000140140DA
:103F10001F85EB51F8B590F83D40E4B2012C01D07B
:103F20000220F8BD51B34AB390F83C50012DF7D0B0
:103F300005461346406B2A6885F83C40122600244B
:103F40006B85DFF844E02C640D4F85F83D600D4E25
:103F50002B85696204320465C0F83CE00764C664DE
:103F6000FCF77AFD2B686FF040021A605A6985F8F9
:103F70003C4042F0800220465A61F8BD2046F8BD20
:103F8000E53F0008854100088D3F000803681B6875
:103F900013F4807310B5846B0FD1638594F83D30B2
:103FA000122B12D094F83D30122B05D0222384F826
:103FB0003D30204603F0BCFB10BD94F83D30122B81
:103FC000F0D1204603F0B4FBECE723685A6922F0F5
:103FD00080025A61DA6842F04002DA60E2E700BF2C
:103FE000704700BF08B5806BFFF7FAFF08BD00BF40
:103FF000704700BF8368B3F5805F32D00369A3B117
:104000000368C26A5B68511C03F07F03C1621370CE
:10401000438E013B9BB2438613B10368FF225A6073
:10402000438E9BB243B100207047C36A0268591C9B
:104030005268C1621A70EBE70268D16821F0200172
:1040400010B5D160D16821F48071D160516901242B
:1040500021F00101516180F83D40FFF7C9FF0020C8
:1040600010BD0269C36A7AB102685168C9B223F807
:10407000011BC362438E013B9BB24386002BCFD012
:1040800040F2FF135360CBE702685168C1F30801A7
:1040900023F8021BC362EDE7704700BF438D9BB25C
:1040A00010B51BB103681A6811062ED4438E9BB25B
:1040B0001BB103681A68920616D4438E9BB28BB963
:1040C0000268D16821F02001D160D16821F48071AB
:1040D000D1605169012421F00101516180F83D4016
:1040E000FFF7DAFF002010BD8268B2F5805F2BD0A9
:1040F0000269002A33D1C26A5B68511CC162137025
:10410000438E013B9BB24386D7E78268B2F5805F5E
:10411000426A10D0511C416212785A60428D013AB5
:1041200092B24285428D92B2002ABFD1DA6822F063
:104130008002DA60BAE711880469C1F308015960A6
:10414000E4B902324262E9E70169C26A79B95968A1
:104150001346C1F3080223F8022BC362D0E75B6861
:10416000C26A03F07F03511CC1621370C8E759682B
:104170001346CAB223F8012BC362C1E7013242627F
:10418000CCE700BF08B5836B00211A6859865985B2
:10419000506993F83D1012291DD0506993F83D10D5
:1041A00022290AD01A6C012142F010021A64184622
:1041B00083F83D1003F020FB08BD4106F2D5D1681D
:1041C00021F49071D1605169012021F00101516108
:1041D00083F83D00E6E70006DFD5D168012021F035
:1041E000C001D16083F83D00D7E700BF03681A68BB
:1041F00070B51607DD685969044651D011F0010108
:104200005FD0D60705D5E80503D5206C40F0010046
:104210002064560778D5002900F08280216C900731
:1042200041F00201216474D5216C41F00401216444
:10423000110770D4216C002931D091060DD5AA0642
:104240000BD594F83D20222A94F83D2078D0322ACC
:1042500003D12046FFF722FF23685A69216C0E071D
:1042600002D412F0400578D0DA6822F49072DA6055
:104270005A69012122F001025A6184F83D105A69FD
:10428000550654D55A69A06B22F040025A610028A5
:104290004DD0484B0365FCF721FC00284BD170BD85
:1042A000960611D5A9060FD590F83D30222B90F82F
:1042B0003D304CD0322BF2D12046BDE87040FFF7A4
:1042C000EDBE15F4907F9CD1100612D45606E6D5AB
:1042D0006D06E4D5DA6822F04002DA605A690121FD
:1042E00022F001025A61204684F83D1003F020FAC2
:1042F00070BD2906EAD594F83D20122A32D094F8F0
:104300003D30322BCBD1D7E796070BD500298BD187
:1043100090E711078ED5216C41F00801216489E7EF
:10432000900787D4100785D5002983D0F3E720466E
:1043300003F062FA70BDA06BBDE87040036D1847D2
:10434000222A8AD12046FFF755FE236885E7222BD3
:10435000A5D1BDE87040FFF74DBE204603F04CFAF2
:10436000256470BD94F83D20122A98D1A268B2F558
:10437000805F626A12D0511C616212785A60628D4D
:10438000013A92B26285002A89D1DA6822F080026D
:10439000DA60DA6842F04002DA6070BD11882069A4
:1043A000C1F30801596010B902326262E7E70132D5
:1043B0006262E4E7B943000808B5836B00225A86BD
:1043C00018465A8503F018FA08BD00BF84B038B506
:1043D0000A9D05AC012D84E80E00044618D0C36880
:1043E00043F04003C36000F0F7FC4FF48033A36355
:1043F000089B012B07D1A36843F00603A360A368C1
:1044000043F02003A360BDE83840002004B07047AB
:10441000836B119A23F480338363C36823F484038A
:1044200023F04003C360C368012A23F44013C36030
:1044300003D0204600F0D0FCDAE7C36843F48013D1
:10444000C360F6E702460020936843F001039360DF
:10445000704700BF02460020936823F00103936079
:10446000704700BF08B5C368012923F0C043C3608B
:1044700009D019B9C36843F08043C3603220FBF709
:104480007FFF002008BDC36843F00053C3603220A3
:10449000FBF776FF002008BD84B02DE9F04308AC9F
:1044A00084E80E00DDF84890DDF82CE0836BB9F16C
:1044B000000F40F0858043F4001383630023C0F8AD
:1044C000003E0D9BD0F80028C0F80028012B00F515
:1044D000006600F08880D0F8003843F00303C0F88D
:1044E00000384FF484630361464B01E0013B02D086
:1044F00002699406FAD410230361424B01E0013BA8
:1045000002D00269D206FAD400224FF0FF333261A2
:104510007261B361F26141B3144600F510634FF06C
:104520009048FF251F680132002FB4BFC3F80080F8
:104530001C6091421C619D6003F12003F2D10022B6
:10454000154600F530634FF090484FF0FF0C1F68A0
:104550000132002FB4BFC3F800801D6091421D617D
:10456000C3F808C003F12003F1D13369BEF1010F94
:1045700023F48073336127D000226FF0804382617F
:104580004361BEF1000F03D1836943F010038361DF
:1045900081691D4B0E9A0B4383611AB1836943F005
:1045A00008038361B9F1010F05D1836943F08043AA
:1045B00043F004038361BDE8F043002004B070477A
:1045C00043F40023836379E7104B3363336B43F485
:1045D000803343F00303336300226FF08043316B79
:1045E00082614361D4E70A9B23B9D0F80038C0F850
:1045F000003876E7D0F8003843F00103C0F80038FF
:104600006FE700BF400D030000383C8000018000D0
:10461000890141F020010161054A01E0013A05D01C
:10462000036913F02003F9D118467047032070473F
:10463000400D0300D0F8083800F5006213F00600C2
:1046400012D0936803F00603022B0CD0936803F09A
:104650000603062B07D0936803F00603042B14BF50
:104660000020022070470320704700BF70B44B78D1
:10467000012B20D00D78D0F81C484FF48032AA408E
:104680002243C0F81C280C784FF4306303EB441429
:1046900023581B040CD422588D68C97842F08053EB
:1046A00043F40043C5F30A02134343EA8143235012
:1046B000002070BC70470C78A340D0F81C489BB217
:1046C0002343C0F81C380E784FF4106505EB4615EF
:1046D0002B581A04ECD42C588A68C97844F08053BB
:1046E00043F40043C2F30A021A4342EA814343EA15
:1046F00086532B50002070BC704700BF00F000B8FC
:10470000F0B44B780D78012B33D020234FF4306474
:1047100013FB05454FF000674659334A26F400461F
:1047200046510D7813FB05454FF0804647510D78F3
:1047300013FB054546510D7813FB0544044401E085
:10474000013A4DD0A36813F01003F9D100F50062CF
:10475000D0F8040840F4806050600978D0694FF4C4
:10476000803404FA01F120EA0101D1611846F0BC5D
:10477000704720224FF4106412FB05454FF000678C
:104780002E58194B26F400462E500D7812FB054585
:104790004FF080462F500D7812FB05452E500D78B6
:1047A00012FB0544044401E0013B19D0A268550006
:1047B000FAD44FF4846303610B4B01E0013B02D058
:1047C00002699206FAD40A7801239340D0F81C2893
:1047D0009BB222EA0303C0F81C38F0BC00207047EB
:1047E0000320F0BC704700BF400D03002DE9F041ED
:1047F0004B78012B76D00D784C6920234FF430672D
:1048000013FB057505442E69F60CF6042E610D7830
:1048100013FB057505442E6926F0FF5626F4C016D5
:104820002E618CB30E788D68DFF834C213FB0676E8
:1048300006442C44D6F810E0013CB4FBF5F44FEAF2
:10484000C44808EA0C0C4CEA0E0EC6F810E00E78CC
:1048500013FB06730344A4B205FB04F41D69C4F3FF
:1048600012042C43012A1C6122D0CB78012B28D0C2
:104870000A784FF4306303EB4213C25842F004420B
:10488000C2500020BDE8F0810C788D6813FB0474E1
:104890000444C5F312052669354325610C7813FBE2
:1048A00004730344012A1C6944F400241C61DCD114
:1048B0000B78CA6800EB4313C3F8142BCB78012B99
:1048C000D6D1D0F808380A7813F4807F4FF43063DB
:1048D00003EB4213C2580CBF42F0005242F0805228
:1048E000C250C5E74B690D78002B6BD020264FF4E2
:1048F000106716FB05750544D1F808C0D5F810807F
:10490000DFF85CE14FEAD8484FEAC848C5F81080A4
:104910000D7816FB0575054403EB0C04D5F81080E3
:10492000013CB4FBFCF428F0FF5C2CF4C01CC5F87F
:1049300010C00D7816FB05750544E404D5F810C0C9
:1049400004EA0E0E4EEA0C042C610C7816FB04747B
:104950000444C3F3120E25694EEA05052561CC789F
:10496000012C6BD0012A62D00F78D0F83468012571
:10497000BD403543C0F83458CC78012C46D00D7872
:104980004FF4106404EB4514055945F004450551F6
:10499000CC78012C7FF475AF002A7FF472AF9BB204
:1049A00003339A083FF46DAF0C78CB6800EB04300A
:1049B00000F5805003EB820153F8042B02608B4218
:1049C000FAD15EE720244FF4106714FB0575054407
:1049D0002E6926F0FF5626F4C0162E610D7814FBC2
:1049E000057505442E6946F400262E610D7814FBEA
:1049F000057404442569ED0CED042561012A16D0E7
:104A0000CC78012C02D0002BB9D0ADE7D0F8084803
:104A10000D7814F4807F4FF4106404EB45140559AD
:104A20000CBF45F0005545F080550551A7E70C78BF
:104A30000D6900EB4414C4F814599DE70C7816FB7B
:104A400004740444256925F0C04525610C7816FBE3
:104A500004760644346944F000543461CEE700BF64
:104A60000000F81FF0B54B78012B3BD00D784F6953
:104A700020244FF4306314FB053505442E69F60CF1
:104A8000F6042E610D7814FB053303441C6924F0F1
:104A9000FF5424F4C0141C618C680FBB0B782025D4
:104AA0004FF4306615FB03630344C4F312041F691B
:104AB00047F400271F610B7815FB03630344012AA9
:104AC0001F6944EA07041C615BD00A784FF4306325
:104AD00003EB4213C25842F00442C2500020F0BD22
:104AE0004C61DBE74B69002B52D00E78D1F808E01F
:104AF00020254FF4106415FB0646064473453769BC
:104B00004FEAD7474FEAC74737610E7815FB06448F
:104B1000044488BF7346256925F0FF5525F4C01568
:104B200025610E7888BFC1F814E020254FF4106489
:104B300015FB06460644C3F31203376947F4002702
:104B400037610E7815FB0644044425692B43236125
:104B50000B7820254FF4106615FB0363012AC45817
:104B600044F00444C45031D04B69002BB6D00978CE
:104B7000D0F8342801238B401343C0F83438002088
:104B8000F0BD0A78CB6815FB026505446B619CE7B4
:104B90000C7820234FF4106613FB04640444256949
:104BA00025F0FF5525F4C01525610C7813FB04642E
:104BB0000444256945F4002525610C7813FB046342
:104BC00003441C69E40CE4041C61C1E70A780B6926
:104BD00015FB02652844436180E700BF10B49DF8CF
:104BE00004406CB903339B080AD000F5805000EBF9
:104BF000023201EB830451F8043B13608C42FAD17A
:104C000000205DF8044B7047033292080CD010B4BA
:104C100000F5805401EB8200236841F8043B884290
:104C2000FAD15DF8044B7047084670474B78012B6A
:104C30000B7870B44FF020020CBF4FF410654FF4A6
:104C4000306512FB03531C181E58002E07DB1C583E
:104C500024F080441C500B7812FB03521418236874
:104C600043F400132360002070BC70474B78012B85
:104C70000B7830B40CBF4FF410654FF4306520242E
:104C800014FB03531A5822F400121A50CB78023B3B
:104C9000012B06D80B7814FB0354235843F08053A0
:104CA0002350002030BC7047D0F8003823F4FE6356
:104CB000C0F80038D0F80038090101F4FE6119434A
:104CC000C0F800180020704700F5006208B553686E
:104CD00023F0020303205360FBF752FB002008BDC2
:104CE00000F5006208B5536843F0020303205360E7
:104CF000FBF746FB002008BD426980691040704701
:104D000000F50063D0F81808DB691840000C704704
:104D100000F50063D0F81808DB69184080B27047CE
:104D200000F5306303EB411100F500608A684069CB
:104D300010407047D0F81028D0F8343800EB4110FC
:104D400000F5106023FA01F1C9018068C9B211436E
:104D500008407047406900F001007047D0F8003902
:104D600023F4FF6323F0070300F50062C0F8003965
:104D7000936803F00603042B05D1D0F8003943F003
:104D80000303C0F80039536843F480735360002074
:104D9000704700BF10B40024C0F8104BD0F8104B7F
:104DA00044F40024C0F8104BD0F8104B44F0180421
:104DB000C0F8104BD0F8104B012944F0C044C0F8A3
:104DC000104B05D14FF08021C0F8142BC0F8001B08
:104DD00000205DF8044B70470B4B01E0013B10D005
:104DE0000269002AFADA0369074A43F00103036102
:104DF00001E0013A05D0036913F00103F9D1184627
:104E000070470320704700BF400D030008B500F055
:104E100009F800BF0122024B02600B60704700BF1F
:104E200000000020BFF34F8F0449054BCA6802F40D
:104E3000E0621343CB60BFF34F8FFEE700ED00E06D
:104E40000400FA051049114BD1F8882042F4700291
:104E500010B4C1F888201A680D4C002042F00102FD
:104E60001A6098601A6822F0847222F480321A6004
:104E70005C601A684FF0006422F480221A60D860E7
:104E80008C605DF8044B704700ED00E00038024094
:104E9000103000241848836803F00C03042B29D039
:104EA000082B0AD0154B144A154892681549C2F3CD
:104EB0000312825CD3400B6070474368416813F46F
:104EC000800F436818BF104801F03F020CBF0B4928
:104ED000B0FBF2F1C3F3881308BFB1FBF2F101FBA1
:104EE00003F2054B5B68C3F3014301335B00B2FB84
:104EF000F3F3D8E7044BD6E7003802400024F4006F
:104F00000800002018000020001BB700F0B595B085
:104F100000241E4A0194116C1D4B41F08051116414
:104F2000126C02F080520192019A02941A6842F4C3
:104F300040421A601B68012003F44043029302259B
:104F40000C214FF4A872072308904FF480374FF4D8
:104F5000800608A8DDF808E00F96109111921393CF
:104F600009970E9512950F26FEF776F84FF4A0528A
:104F70004FF48053052103A80495059403960692E7
:104F80000793FEF76FFA15B0F0BD00BF003802407E
:104F90000070004008B5FFF755FF064AD2F8883088
:104FA00043F47003C2F88830FBF7C2F9BDE808404B
:104FB000FFF7ACBF00ED00E02DE9F04389B000261B
:104FC000DFF860810196D8F844304E484E4F4F4C80
:104FD0004F4D43F48073C8F84430D8F8443003F49C
:104FE00080730193019B0296D8F8303043F001039F
:104FF000C8F83030D8F83030059603F0010302933A
:105000004FF003091F2303A9029A0393CDF81090D0
:10501000FBF7FAFF0396D8F830307E6043F4800344
:10502000C8F83030D8F83030DFF8FCE0C7F800E0DE
:1050300003F4800303934FF480604FF400614FF456
:105040000052039B38614FF480733846FB61BE60A9
:10505000FE607E62FE623E633E627961BA61FBF78A
:1050600063FC32460A213820BC63A763FBF7DEFBF2
:105070003820FBF713FC0127264A274B22604FF00C
:1050800005082046A3626660A660A6612662E66205
:10509000E660666127612763C4F81C80FBF784F92A
:1050A0002946204685E8C000AF600226FBF702FBD8
:1050B000294620462F60AF606E60FBF7FBFA294659
:1050C000204685E84002AF60FBF7F4FA0423294646
:1050D00020466B60C5F80090AF60FBF7EBFA072342
:1050E0000E4A2A6029462046AB60C5F80480FBF7CB
:1050F000E1FA424620460A49FBF70AFA09B0BDE840
:10510000F08300BF000002409809002044090020FD
:10511000F8090020002001400100000F12000010DB
:105120008C0900200038024010640240064B1A78B7
:1051300002B9704710B400241C70052203490448CA
:105140005DF8044BFBF7E4B9290400208C0900202A
:1051500044090020094B0A481B890A499BB24FF4B5
:10516000C872A3F2AF3302FB03F380FB0320DB170B
:10517000C3EB2020193040B2087070478C09002022
:10518000431CCF342A040020064A074B10B414886D
:1051900050889188D2885C849884D9841A855DF877
:1051A000044B70478C090020D84600200268044B4D
:1051B0009A4200D07047034B01221A70704700BF1B
:1051C0000020014029040020014B1878704700BFDF
:1051D00032040020024B187800F00800704700BF2E
:1051E00032040020024B187800F01000704700BF16
:1051F00032040020012807D0C30704D410288CBF34
:105200000020012070470020704700BF2DE9F041C9
:10521000444B45491A7884B052B101200022434DD5
:1052200008701A7001322A80012004B0BDE8F081B4
:105230000B78032B26D8DFE803F01B280C023C4830
:105240003A4A0023037002200B70138004B0BDE8BB
:10525000F081384A138801339BB24DF66C108342BB
:1052600013800BD9032301200B7004B0BDE8F0813B
:10527000304B0020188004B0BDE8F081012004B05C
:10528000BDE8F0814FF0FF30CFE7284D2A88B2F516
:10529000167F22D040F259239A423CD0642AC1D1D1
:1052A000254EDFF8A480254F25480024314643468B
:1052B0003A46009403F02EFB3178224E3A78B8F843
:1052C0000030029428208DE841001D4804F09CFB2A
:1052D0002B8801332B800120A7E7174EDFF8688069
:1052E000164F17480124314643463A46009403F0CE
:1052F00021F9144831783A78019000262820B8F82E
:105300000030009002960E4804F07EFB2B88234468
:1053100020462B8089E7074A0020022310800B706B
:10532000012082E7330400202E04002030040020F6
:10533000320400202C040020BE080020BA080020FF
:105340007446002024000020BC08002038B5124A12
:10535000137813F001001BD103F0080101F0FF04E2
:1053600069B903F0100303F0FF003BB10B4B0C4D88
:1053700014700FCB2C7000F081FA022038BD084B5E
:105380001070187001F050FD00F034FA022038BDA2
:10539000BDE83840FFF73ABF32040020C00F0020BC
:1053A0003304002030B587B000210C4B00911A6BFC
:1053B0000B4842F008021A631B6B039103F00803C9
:1053C000009301220323072401A9009D0194029266
:1053D0000493FBF719FE07B030BD00BF0038024050
:1053E000000C0240102818D0B0F5004F00D07047D4
:1053F00008B501F0DBFF0A4B1A78FF2A0CD01A78A7
:10540000084952B28A5C52B20E2A05DC1A7852B2AE
:105410008B5C01335BB28B5408BD01F0E5BD00BF6E
:105420005D0000206C04002038B51D4A1D4B148817
:105430001B889DB2A4B2FDB94EF6EE63E31A18BF05
:10544000012303F50054184D013320349B03A403BA
:105450001D44AC4203D319E00434A54216D9236895
:105460000133F9D10A460546002321460120FBF706
:10547000A1FC68B180B238BD34B94EF6EE63EB1AC8
:10548000B3FA83F35B09DCE7AB2038BD802038BD7D
:10549000A11C2A4600230120FBF78CFCEAE700BF91
:1054A0000000080800400808FFFF070810B586B094
:1054B000002102220124009101910E4B0E4803921B
:1054C000059204944FF6FF7101E083420AD01A88D6
:1054D00092B28A4203F10403F7D0694601A8FBF7B0
:1054E0003BFD28B90022002302490120FBF762FCA2
:1054F00006B010BD0000080800400808154B164A09
:105500001B8812889BB210B42BB192B2B2B9134B64
:10551000134C1A4602E0134B134C1A46128892B2EF
:10552000904204D10EE01A8892B282420AD0043B23
:105530009C42F8D301205DF8044B7047AB205DF826
:10554000044B704733F8023C0B8000205DF8044B9D
:10555000704700BF0000080800400808FE7F0808E8
:1055600002400808FE3F0808020008082DE9F04143
:105570006449654A0C88138886B0A4B24EF6EE677B
:10558000002602250120BC429BB20096019603959D
:10559000059504907DD04FF6FF7084424FD03CB10A
:1055A000FFF784FF002846D080B206B0BDE8F08146
:1055B000002BF5D083423ED0544D554E554F4FF001
:1055C000FF38338835F8022F52499BB2934208BF07
:1055D0000FFA84F84445104604F1010409D0FFF79E
:1055E0008DFF012805D039882888FFF71DFF002886
:1055F000DBD1852CE5D10022002343490120FBF7B4
:10560000D9FB0028D0D10222012104913D4B3E4814
:10561000039205924FF6FF7101E083420BD01A8886
:1056200092B28A4203F10403F7D0694601A8FBF75E
:1056300093FC0028B8D1002006B0BDE8F081DBB1B2
:10564000BB42ADD101E091420BD00B889BB2A3428B
:1056500001F10401F7D0694601A8FBF77DFC0028A1
:10566000A2D10022002328490120FBF7A3FB002838
:10567000E1D099E79142DED00B889BB2A34201F1C1
:105680000401F7D0694601A8FBF766FC00288BD11E
:10569000D1E74BBB1D4D204E1E4F1C464FF0FF382F
:1056A000338835F8022F1B499BB2934208BF0FFA8B
:1056B00084F84445104604F101040AD0FFF71EFFA8
:1056C000012806D039882888FFF7AEFE00287FF42D
:1056D0006CAF852CE4D1002200230A490120FBF79E
:1056E00069FB0028A7D05FE74FF6FF7293427FF473
:1056F00057AF0324002200230394FBF75BFB002831
:1057000099D051E700000808004008081A0A002054
:105710000640080834040020060008082DE9F04778
:1057200086B006460D46FFF77FFE8028044603D06C
:10573000204606B0BDE8F0872A482B4903880A882E
:1057400000249BB292B2009423B182B980464FF0FC
:10575000030902E088464FF002094EF6EE6200238C
:1057600041460120FBF726FB18B184B2E0E7AB24E9
:10577000DEE729463046FFF757FE04460028D7D11A
:105780001A4DDFF86CA005F5857701E0AF4212D025
:1057900035F8023F16499E421846F7D0FFF7AEFE95
:1057A0000128F3D0BAF800102888FFF73DFE002842
:1057B000ECD00446BCE7002201250223694601A87B
:1057C000CDF80C90019204950593FBF7C5FB0028DA
:1057D000CBD14146284600220023FBF7EBFA0028F4
:1057E000A6D0C2E700000808004008081A0A0020F6
:1057F0003404002008B501468620FFF78FFF08B16A
:10580000002008BD43F239018720FFF787FFB0FA77
:1058100080F0400908BD00BF00B583B002A9002395
:1058200021F8023D8620ADF80430FFF767FE18B17D
:10583000002003B05DF804FB01A98720FFF75EFE9E
:1058400003460028F4D1BDF8041043F23902914216
:1058500005D0064A0220138003B05DF804FB034B19
:10586000BDF806201A800120E3E700BF38040020BD
:10587000014B1888704700BF38040020F0B58BB08A
:1058800002AC84E80F000AAF002507F80D5D07AEF3
:1058900094E80F008DE8C00007950895ADF82450F6
:1058A00001F01CFB0123BDF81C108DF81B308A2071
:1058B000FFF734FF10B100200BB0F0BD9DF81B3096
:1058C0000AAA02EB43028B20013332F80C1C8DF83C
:1058D0001B30FFF723FF0028EDD19DF81B300AAAEB
:1058E00002EB43028C20013332F80C1C8DF81B3084
:1058F000FFF714FF0028DED19DF81B300AAA02EB47
:1059000043028D20013332F80C1C8DF81B30FFF759
:1059100005FF0028CFD19DF81B300AAA02EB4302F5
:105920008E20013332F80C1C8DF81B30FFF7F6FE89
:105930000028C0D144F283318F20FFF7EFFEB0FA88
:1059400080F04009B8E700BF30B585B000230124DE
:1059500001A98A200293ADF802300193ADF80C3012
:105960008DF80140FFF7CAFD10B1002005B030BD31
:105970009DF8011001AA4B1C8B2002EB41018DF810
:105980000130FFF7BBFD0028EFD19DF8011001AAFF
:105990004B1C8C2002EB41018DF80130FFF7AEFD6E
:1059A0000028E2D19DF8011001AA4B1C8D2002EBCA
:1059B00041018DF80130FFF7A1FD0028D5D19DF8F8
:1059C000011001AA4B1C8E2002EB41018DF8013021
:1059D000FFF794FD0028C8D10DF102018F20FFF7D9
:1059E0008DFD03460028C0D1BDF8021044F2833279
:1059F000914203D0074A02201370B7E704AA054D6D
:105A000002F80F0D01A904482C7001F099FA204604
:105A1000ACE700BF36040020280B002030B4044B54
:105A2000044D04460FCB84E80F00287830BC704743
:105A3000280B00203604002038B505460730EC78E6
:105A4000B4B1012C04D08020BDE8384005F092BCF0
:105A5000302101F019FE6B7913F0010F064B4FF066
:105A6000340202FB043414BF02230123A37038BDA7
:105A7000302101F0CDFDEEE75C930020C378032BCD
:105A800070B500F107010BD0022B1ED0042B22D0E1
:105A900003B170BD01F0CCFE124B02229A7070BDB2
:105AA00002461048104B0124373280F8B6400D688A
:105AB0004C688868CE68DE60103191421D605C6081
:105AC000986003F11003F2D170BD0846BDE8704044
:105AD000302102F06DBB0846BDE87040302101F076
:105AE000FDBD00BF5C9300209C8E002008B50A48D5
:105AF000FDF7E8FF012800D008BD3023074A084918
:105B00000548FDF783FE0028F6D04FF48070BDE80D
