:400000000080002011000000A9500000A950000008B5044B1A6803F53F5302331A6005F04BF800BFFA46004010B5054C237833B9044B13B10448AFF300800123237010BD3D
:40004000B08BFF1F00000000649B0000084B10B51BB108490848AFF300800848036803B910BD074B002BFBD0BDE81040184700BF00000000B48BFF1F649B0000C880FF1F20
:400080000000000010B4002414E003EBC4000B4A32F8102092B2114401339BB201E000210B46072BF1D9C1F3CF01054B23F814100134A4B2052CF2D910BC70476890FF1F67
:4000C0005890FF1F052804D8034B33F8100000B270470020704700BF5890FF1F38B541F6FF734FF480420121022006F011FA0D4C207007F01DF902460B4D287006231021FB
:4001000007F030F9094A92B245F6A031287807F03DF92978207807F0DDF80121207807F07DF838BD3A91FF1F6490FF1F2891FF1F08B505F07BF905F0E7FD06F08DF9FFF7CC
:40014000CDFF05F011FE08BD384B1B78002B6CD14FF4587303FB01F3354AD35C834264D030B585B00D4604464FF4587303FB01230022A3F81822A3F81A22A3F81C22A3F89C
:400180005822A3F85A22A3F85C22A3F81021A3F81221A3F81421C3F82021C3F80822022817D1084600F0ECF94FF45873204A03FB0523C3F82802C11701220023CDE9022399
:4001C000CDE9002302460B4601F0DAF9194B186018E0042816D1084600F0D2F94FF45873134A03FB0523C3F86802C11701220023CDE90223CDE9002302460B4601F0C0F90E
:400200000C4B1860062C03D000220B4B1A7002E00122094B1A704FF4587101FB05F1044B5C54064B1C7005B030BD70472D8EFF1F8091FF1F10FDFF1F288CFF1F4091FF1FDE
:4002400010B400215BE0304C4FF4587000FB01F0221800232354138153819381D3811382538253619361C2F8F830C2F80031C2F80431A2F81832A2F81A32A2F81C32A2F82D
:400280001E32A2F82032A2F82232C2F82432C2F82832C2F83C32C2F84432C2F84832A2F85832A2F85A32A2F85C32A2F85E32A2F86032A2F86232C2F86432C2F86C32C2F80C
:4002C0006832C2F84833C2F85033C2F85433A2F81031A2F81231A2F81431A2F81631A2F81831A2F81A31C2F81C31C2F82031C2F80032C2F80832C2F80C320131C9B20129B0
:40030000A1D910BC704700BF8091FF1FF8B54FF458743D4B04FB0233C3F82412C3F828023A4CA1606060D3F83C62C3F84062401AC3F83C02E060D3F844420444C3F844420A
:40034000D3F84852801B00EB4000410001EB4501C910C3F848122E4B9C4207DD4FF45873294903FB02132B49C3F844124FF45873254903FB0213D3F84412274B994207DAC0
:400380004FF45873204903FB02132449C3F844124FF458761C4B06FB0236B6F81802D6F83C3203FB00F01E4981FB0043C017C0EB6314164FFC61B6F81A32D6F844521948F2
:4003C00080FB05E0ED17C5EBA00505FB03F081FB0053C017C0EB63133B62B6F81C52D6F8480200FB05F081FB0051C017C0EB611179622344CC181146204600F0D9F93C61C6
:40040000D6F83C02F8BD00BF8091FF1F4091FF1F7F96980080969800816967FF806967FF1F85EB516766666630B585B0411A4FF458732B4C03FB0243C3F80012D3F808428C
:400440002144C3F80812274B994207DD4FF45873234903FB02132449C3F808124FF458731F4903FB0213D3F80812204B994207DA4FF458731A4903FB02131D49C3F80812EE
:400480004FF45874164B04FB0234B4F81011D4F8003203FB01F31B120393B4F81211D4F8083203FB01F35B1302930399029B1944104BD3F8B83103EBC30503EB85030B442D
:4004C0000D4981FB0051C017C0EBA100184401900198114600F06CF9D4F8000205B030BD8091FF1FFF2C3101002D310101D3CEFE00D3CEFE50FDFF1F676666664FF45873D8
:400500000B4A03FB0020D0F86832D0F864125B1AB0F8581203FB01F1D0F86C325B42B0F85A2202FB03F303EB2113C0F8203170478091FF1F084803785B03827D1203B0F920
:40054000141003F4C04302F480521343C1F30B0213434383704700BF4091FF1F024B00229A829A75704700BF4091FF1F08B506F03DFC06F023FC002006F0FCFB08BD00BF6C
:4005800038B5044606F0E0FB0A4B186058600A4A536A19684FF45875084805FB0400C0F86412926A1268C0F86C221A68C0F82422186838BD4098FF1F603700208091FF1FFD
:4005C00008B5002307E05A1C094931F81200094921F813001346062BF5DD054BDA89054BDA810122044B1A70002004F02FFF08BD2891FF1F6890FF1FD68BFF1F0122014B1B
:400600001A707047CC8BFF1F10B5054C30220549606902F0DFF923790133237110BD00BFA82B0020D0FBFF1F704700BF08B505F007F90122014B1A7008BD00BFD58BFF1FCC
:40064000704700BF10B506F07FFB194C214601F0E7FDD4F8C001174B596B40F3CF0000F0B7FC154B1B7823B101F0A2FB0022124B1A70114B5B78132B05D90D4801F014FED5
:4006800000220D4B5A700C4B5A7801325A705B8844F61F62934209D843F2B062934201D901F062FC044A53880133538010BD00BF50FDFF1F60370020CC8BFF1F0122014B75
:4006C0001A707047D78BFF1F024A137801331370704700BF4A8FFF1F08B502F0E5FD01F02BFE00F045F902F057FD03F091FE03F0A3FE124B1B78DBB2012B1BD100220F4BF8
:400700001A700F4C22780F4B53F82230984723780133DBB223702278D2B20B4BA3FB0213DB0803EB83035900521AD2B2227001F0E5F9DEE701F008FADBE700BFD78BFF1F94
:40074000D88BFF1FCC80FF1FCDCCCCCC074A138801339BB2138040F2E632934204D90022024B1A800120704700207047D08BFF1F064A538801339BB25380622B04D9002225
:40078000024B5A800120704700207047D08BFF1F08B500F0C5FD044BA3F87800034AD2F8FC21DA6708BD00BFD84100208091FF1F10B582B002AA002302F8013D4CF25033F9
:4007C0009842A8BF1846174B9842B8BF18460446104600F0FBF89DF8073033B14C2202FB04F3021193FBF2F300E00023B3F5806F03DA13F5806F03DD03E04FF4806300E0F7
:40080000094B19B2094A51630211094981FB0212C017C0EB621000FB03F0064BC3F8800002B010BDB03CFFFF00FCFFFF60370020F31ACA6BD841002070B54FF4804341F638
:40084000FF720121022006F0ABF9064606F070FD054600230246022106F084FD274C46F64C02A1B2284606F091FD2946304606F031FD0121304606F0D1FC4FF4804341F647
:40088000FF720121022006F0A9F9064606F050FD054600230246022106F064FDA11C46F6542289B2284606F071FD2946304606F011FD0121304606F0B1FC4FF4804341F64F
:4008C000FF720121022006F0A7F9064606F030FD054600230246022106F044FD211D46F6502289B2284606F051FD2946304606F0F1FC0121304606F091FC70BDDA8BFF1FC2
:4009000010B4034C20806180A280E38010BC7047DA8BFF1F08B501F037FA05F05BFE40F2EF1005F027FE06F0D5F840F2EF1006F0A1F806F021F940F2EF1006F0EDF840F24F
:40094000EF131A4619461846FFF7DAFFFFF774FF06F0A2F9012006F01DF9012006F0C6FD01F0FEF800F0BEF9FFF700FE08BD00BF08B5FFF7CFFFFFF763FC01F099FD00F035
:40098000A9FCFFF7D5FB62B601F096FD00F03EFF00F00AFD044801F071FB0122034B1A70034801F06BFB08BD60000020E28BFF1F50FDFF1FA0F58440683880B249F288039A
:4009C000984201D8012070470020704738B505461C4B1B881C4A1288934205D31B4A13600021194A51600CE017494A6801324A600A2A06DD15490A68013A0A600021124AB5
:400A00005160114A1380114B1C68A0B2FFF7D2FF10B101232B7001E000232B70B4F57A5F03DC4FF47A52094B1A60084B1A684FF6FE739A4203DD4FF6FF72044B1A60034BAD
:400A4000188838BDD8410020E48BFF1FF480FF1F002303700B707047064B1B78022B02D10122054B1A7210B10022034B1A72024B187A70472C8EFF1FE48BFF1F0000000026
:400A800038B514461D460AA3D3E9002308F026FB22462B4608F04CFC06F00AFF06A3D3E9002308F01BFB06F0B3FE08F0C7FD38BDA7E8482EFF2119400000000000F07E40B5
:400AC00038B514461D460AA3D3E9002308F006FB22462B4608F02CFC06F052FE0022064B08F0FCFA06F094FE08F0A8FD38BD00BFA7E8482EFF21194000009040F0B583B028
:400B00000E4600230193724B1988724BA3FB01239B0803EB43035A00891A89B26E4B1B88834219DD03F580436B4AB2F8EE209B1A019300F58040801A01F17703674981FB4F
:400B40000321A1EBE37202EB420251005A1A019B03FB0202009273E05F4A528890420EDAD21A0192C31A5D4A82FB010202EB420250000A1A019800FB0233009360E0564A56
:400B8000B2F8EE40A04213DB03F58042121B0192001B7731514D85FB0135A5EBE17404EB44046300CC1A019B03FB0404009447E0494BB3F8EC20904211DBA41A0194801A44
:400BC0007631464C84FB0134A4EBE17202EB42025300CA1A019B03FB0202009230E0404B83FB0023C217C2EBA31300240FE03A4A32F81320904201DA013B08E05A1C364D58
:400C000035F81250A84201DA012400E01346002CEDD05A1C304C34F8122034F81340121B0192001B19442D4B83FB0123A3EBE17303EB43035A008B1A019A02FB03000090B8
:400C4000019B03EB43035800009F08F0E1F904460D46384608F0DCF922462B46FFF710FF30800198009B03EB400008F0D1F922462B46FFF705FF70800198009B03EB8000DC
:400C800008F0C6F922462B46FFF7FAFEB080009808F0BEF922462B46FFF712FFF0800198009B03EB400008F0B3F922462B46FFF707FF30810198009B03EB800008F0A8F928
:400CC00022462B46FFF7FCFE708103B0F0BD00BFF880FF1FABAAAAAA7CD9FF1FABAAAA2A7978787838B52F4C0021204600F076FFB4F8F0202C4B1A8003254EE02B4C21460A
:400D00002846FFF7FBFE04F10C01681CFFF7F6FEEA10B4F90010B4F90C300B4403EBD3735B10234921F81230B4F90410B4F910300B4403EBD3735B101E4921F81230B4F986
:400D40000210B4F90E300B4403EBD3735B101A4921F81230B4F90610B4F912300B4403EBD3735B10154921F81230B4F90A10B4F916300B4403EBD3735B10114921F8123014
:400D8000B4F90810B4F914300B4403EBD3735B100C4921F8123008352DB2B5F5804FADDB38BD00BF7CD9FF1FF880FF1FF08BFF1F80A8FF1F84C8FF1F8098FF1F74EAFF1F0A
:400DC00074DAFF1F80B8FF1F38B5794A936901339361B3F5A27F05DD134600229A61DA690132DA61724BDA69724B83FB0213A3EBE27303EB43035900531A7D2A00F39080B4
:400E000001216B4A1162052B39D8DFE803F0030C151E2730664B40F2D1125A624FF4FF729A62DA622BE0624B40F2D1125A629A624FF4FF72DA6222E05D4B4FF4FF725A62D7
:400E400040F2D1119962DA6219E0594B4FF4FF725A6240F2D1129A62DA6210E0544B4FF4FF725A629A6240F2D112DA6207E0504B40F2D1125A624FF4FF719962DA624C4CAC
:400E80000023A28D218DA08CFFF73AFDA369A22B0ADD494AD2F8C82002F50042206B02442263626B01326263B3F5A27F7ED1404DE969424A81FB0223CA18CB17C3EBA21335
:400EC000C3EB0313DA008B1A6C6B04EBD4702A6B02EB600292FBF4F0394A0240002A05DA013A6FEA82426FEA9242013292B2354820F813203448406882420CDA32484260D4
:400F000083602C4B83FB0123A3EBE17303EB43035A008B1A0380264B00221A635A6338BD234B1B6A012B41D1002340F2DE3211461046FFF7E5FC002309E0224931F812008F
:400F4000224921F81300013301321F498A601E4A9268772AF1DD0CE01B498A68A2F17804184830F81440194820F81340013301328A60772BF0DD1548134C2388A0F8F03078
:400F80000125A0F8F250002100F0F2FD2846FFF763FDFFF7A7FE064B0022DA619A6143F6FF7161604FF0FF31A1601A6238BD00BFF08BFF1FABAAAA2A50FDFF1F89888888D1
:400FC000FF3F008084D8FF1FF880FF1F7CD9FF1F70B504460D46564B93F8383063B100F50074544B2340002B05DA013B6FEA43536FEA535301331CB24D4B1B6A002B40F02D
:4010000095800020FFF728FD40B140F2EF134A4A13604A4A13604A4A136049E0444BD86B2B18B3F5806F02DDC0F5806306E013F5806F02DA434B1B1A00E02B462646424A15
:4010400032F91410414A32F9142002FB00F201FB0322002A01DA02F2FF32921202F2EF1235490A603A4A32F916103A4A32F9162002FB00F201FB0322002A01DA02F2FF3288
:40108000921202F2EF122D490A60334A32F91610324A32F9162002FB00F001FB0303002B01DA03F2FF339B1203F2EF13244A1360214B1B6840F2DD32934202DD1E4B1A60A4
:4010C00004E0002B02DC01221B4B1A601B4B1B6840F2DD32934202DD184B1A6004E0002B02DC0122154B1A60154B1B6840F2DD32934202DD124B1A6004E0002B02DC01229C
:401100000F4B1A6000230E4A12880C4909880A480088FFF7F5FB124A11888B091149A1FB0331490805FB01F1C2F8801070BD00BFF08BFF1FFF07008080C8FF1F78D9FF1F00
:4011400070DAFF1F00FCFFFF80A8FF1F74EAFF1F84C8FF1F74DAFF1F8098FF1F80B8FF1FD8410020BD86F21A30B583B000238DF80730194C194D1422D4F81C11284602F010
:401180002DF80221284602F063F823782BB90022A5F14003C3F8182103E00A22104BC3F818210DF10700FFF711FC0E4BD3F8B8110B4AD2F8183103FB01F1D2F8143103FB06
:4011C00001F393FBF0F0084B83FB0013C017C0EBE300D06303B030BD8091FF1F308CFF1FF08BFF1F50FDFF1F1FB6BE0D38B541F6FF734FF480420121084604F007F80D4C6D
:40120000207006F095F802460B4D28700623302106F0A8F8094A92B246F24241287806F0B5F82978207806F055F80121207805F0F5FF38BD0AFBFF1FCCFBFF1FD0FBFF1FB9
:4012400038B54FF4804341F6FF720121084604F02BF80D4C207006F06BF80C4D28703523FE22302106F07EF846F24B42084989B2287806F08BF82978207806F02BF8012106
:40128000207805F0CBFF38BDCDFBFF1F30FCFF1F6CFBFF1F70B5044605F028F9012006F03BF92346094A30341E685D689868D968166055609060D16010331032A342F3D137
:4012C0000121034B187805F0A9FF70BD6CFBFF1FCDFBFF1F08B5012005F01EFD0121042004F02EFC05F0CAF805F0DAF805F0F0F8FFF77CFF03F0CAFFFFF7A2FF04F014F848
:4013000008BD00BFC3782BB9034B01229A76034A1278DA76704700BFA82B0020D88BFF1F014B1888704700BF108DFF1F0223002006E0084A32F8132092B210440133DBB228
:40134000052BF6D9C0F38F00034B5883034B1880704700BF00FDFF1F34FCFF1F108DFF1F38B541F6FF734FF480420121022003F0FFFE054605F0DCFF0446062302460C21B1
:4013800005F0F0FF074A92B244F61061204605F0FDFF2146284605F09DFF0121284605F03DFF38BD00FDFF1F08B504F02DFA05F0F9FDFFF7D5FF03F01BFF044B7D221A7069
:4013C00032225A700022DA825A8308BD34FCFF1F2DE9F047DDE90867DDE90A89824273EB010408DA4FF0FF344FF0FF35DFF858E1CEE9004505E001240025DFF84CE1CEE9A2
:401400000045DFF844A1CAE90289CAE90401121A63EB0103CAE90623CAE90867BB00B00043EA96714B0143EAD0634201121A63EB010392197B41990041EA927190008018D7
:4014400059410B0143EA107302011046194642464B4608F03BF9CAE90A018B00840043EA90756B0143EAD4636201121B63EB050380185941CB0043EA5073C2001046194600
:4014800042F21072002308F021F904460D46CAE90C45DAE900894FEA89034FEA880043EA98714B0143EAD0634201101A63EB010118EB000849EB01094FEA890141EA9871EF
:4014C0004FEA880010EB080041EB09010B0143EA1073020106FB03F302FB0733A6FB0201194422462B4608F0F1F880468946CAE90E890022CAF84020CAF844201046114654
:40150000164617460EE016EB080647EB0907DFF838E0DEE9102392197B41CEE91023013041F10001A04271EB0503ECDB064C074A0023D4E9100108F0C9F8C4E910010020DD
:401540000021BDE8F08700BF288DFF1F8096980030B404460D460949C1E91A45C1E91C23121A63EB050392185B41C1E91823DDE90223C1E9162330BC704700BF288DFF1F79
:401580002DE9F04F87B0CDE9040114461D46DDE91089DDE912237E4E00200021C6E9120100213165B1670B2A73F1000119DAB8F1020F79F1000306DAC6E920450122B2674B
:4015C00040464946E0E0CDE9008922462B46DDE90401FFF7BDFF01226D4B1A6540464946D2E040464946B8F1000F79F1000603DAD8F1000069EB490182468B461046194691
:40160000002A73F1000602DA504263EB430107460E4602900391CDF800A0CDF804B022462B46DDE90401FFF7D3FE594BD3E90601002871F1000302DA404261EB4101544B87
:40164000D3E91023002A73F1000E02DA524263EB43039046994692185B41904271EB030327DA07FB01F306FB0033A7FB008999444046494607F004FD06F062F908F076F8B5
:4016800082468B46029703960090019122462B46DDE90401FFF79CFE3D4B98690028B8BF4042C1171B6C83EAE378A8EBE3784FEAE87918EB080849EB0909B0EB080061EB68
:4016C0000901334CC4E932018B004FEA800843EA90794FEA491343EAD8634FEA4812B2EB080263EB0903801859414FEA810949EA90794FEA800810EB080041EB09010B0137
:4017000043EA107302011046194652465B4607F0DDFF8B00860043EA90777B0143EAD6637201921B63EB070380185941CB0043EA5073C2001046194642F21072002307F062
:40174000C5FFC4E93401002871F1000303DA00200021C4E934010E4CD4E90C23C4E92C23D4E9348912EB080043EB0901C4E92E0192185B4118EB020049EB0301C4E9300100
:4017800000220023C4E9222307B0BDE8F08F00BF288DFF1F0D490B8801339BB20C4AA2FB030292094FF47A7000FB12339BB20B80B3F5F97F02D9C31A4B8001E0034A53809F
:4017C000024A5388C3F3470313717047088EFF1FD34D6210044B1B79C0F1FA00834201DD0120704700207047088EFF1F08B5064B1B783BB903F0B2FD20B103F0CBFD0122C7
:40180000014B1A7008BD00BF0D8EFF1F08B50422024B1A6004F008FB08BD00BF00E100E038B51B4B1B7813F0040F2ED00D46194B187006226D331A70FF225D3B1A700024BD
:4018400040331C7005E00134AC4207D8012005F063FE0F4B1B7813F0010FF4D146220E4B1A700B4B1B7813F0010FFAD0084B1B7813F0020F04D16022074B1A70002038BDF3
:401880006022054B1A70032038BD022038BD00BF67650040076500404956002070B505460E461C46002304E01349C95CD1540133DBB299B2A142F7D30021284604F0CCFC90
:4018C000B8B94FF4FA713046FFF7AAFF48B102200A4B1870FF225D3B1A70002240331A7070BD0123E2B20449284604F045FC002070BD012070BD00BF6898FF1F74650040F4
:4019000008B5FEF745FF00F0E5FD084B1B7833B10023074A1370054A137000F0DDFD044B1B7813B10122014B1A7008BD108EFF1F4A8FFF1F08B500F059FC08BD08B5064B96
:40194000D3F8FC0100F082F9FEF712FF18B100F09DF9024B187008BD8091FF1F2C8EFF1F08B500F043FC03F063FFFFF7DFFC08BD10B5FFF70FFF0C20FFF72CFF03F0E2FC80
:40198000084B5B88B3F57A7F02D80133054A5380044C211D601DFFF75BF8A3790BB10022A27110BD108EFF1F08B50020FEF7E8FD08BD00BF08B50E4B1B78C3B90D4B1B78EB
:4019C000022B08D10B4B0022D3F82412D3F82802FEF79CFC04E0042B02D10020FEF78EFD044B1B781BB900210846FEF7E1FE08BD2D8EFF1F8091FF1F214B187840B97047EE
:401A0000204A02EB8302916801319160013300E0002301468342F3DB10B5C0B000242AE0184B03EB84039A68174B33F814309A4220DB4FF480720021684608F082F8134BE4
:401A400033F814308DF80030114B53F8243003EB43039A000F4B9B580F49214468469847094B33F81420074B03EB8404A3689B1AA36002E001348C42D2DB40B010BD00BF96
:401A80008C8FFF1F108EFF1FB08AFF1F908FFF1FA88AFF1F68030020B48AFF1F08B53221064801F0D5FBFFF75FFB054B1B7823B1FEF7E8FA0022024B1A7008BDA892FF1F52
:401AC000D68BFF1F08B50B4B1B7813F0010F08D0FFF77AF9084B1B682BB90022054B1A7001E002F0ABFCFEF731FE08B1FFF77EFE08BD00BF2D8EFF1F108CFF1F08B502F028
:401B00001DFB0E4800F070FC00F0B2FC0C4B1B7873B90C4B1B78033BDBB2012B08D8094B0022D3F8FC11D3F82001FEF77DFC08BD0022044BC3F8082208BD00BF168EFF1F5D
:401B40002D8EFF1F8091FF1F08B5044B187C80F00100187404F016F908BD00BF108EFF1F08B504F04BFD052005F0D6FC08BD00BFF0B585B00023009301930293039311B103
:401B8000012903D028E01327002601E03C271426054604F04BFD34461CE0A21B03EBC20235F812105A004FEA112E04A8104400F810EC013204A8024402F8101C01339BB2F5
:401BC00000E00023072BE8D9E1B2684604F034FD0134A4B2BC42F4D305B0F0BD2DE9F84319B1012905D0BDE8F8834FF09808002702E04FF4F078A02706463C4613E065001D
:401C0000ADB2284604F0FEFC00021FFA80F9681C80B204F0F7FC80B2E31B49EA000026F813000134A4B24445E9D3BDE8F88300BF024B1878421C1A70704700BF248EFF1F6A
:401C40000022014B1A707047248EFF1F10B50C4C226801320B4B83FB0231D317C3EB610303EB4303A2EB830323603BB90446FFF7DFFF072802D8044B23F8104010BD00BFDD
:401C80000481FF1FABAAAA2A14FDFF1F10B50024234607E0184A32F91320002AB8BF524214440133072BF5DDFFF7CAFFA412FF2C00DDFF24114B33F81420114B5B6813449A
:401CC00044F60412934205D9A3F59243043B0C4A536002E000220A4B5A60094B5B68094A934204D9084A934203D8012010BD002010BD022010BD00BF14FDFF1F709B000038
:401D0000248EFF1F7F1E16001FA61B00014B1878704700BF2D8EFF1F012802D010F0010F03D1022803D900207047002070470120704700BF38B541F6FF734FF4804201212E
:401D4000022004F035FE0D4C207005F0F1FA02460B4D28700623194605F004FB094A92B245F6A231287805F011FB2978207805F0B1FA0121207805F051FA38BD4EFDFF1F26
:401D800024FDFF1F28FDFF1F08B504F0FFFD04F09BFD04F061FD05F09DF9012005F0A6FBFFF7C8FF04F044FE012005F09FFB08BDF8B5624AB2F90000614B1880B2F9021067
:401DC0005980B2F904209A805E4B1C68141B5A68801A9D684D1B5C4B1B7813B14FF4805E01E04FF0000E594ED6F8B071A7EB07118A00574981FB0231D217C2EBA112D6F87F
:401E0000BC310EEB0306324402F5804251491140002905DA01396FEA81416FEA914101316FF0090202FB07F2494B83FB02E3D217C2EBA312324402F58042464B1340002BFF
:401E400006DA013B6FEA834E6FEA9E4E0EF101039E466FF06D0202FB07F33D4F87FB0327DA17C2EBA713334403F58043394A1A40002A05DA013A6FEA82426FEA92420132CB
:401E8000C910354B33F911704FEAEE0E334B33F91E60D210324B33F912202A4B0021D960196107F1F003B3F5F07F09D9C5EB051505EB451595FBF7F5224BDD6001211961FF
:401EC00006F1F003B3F5F07F0CD9C4EB041404EB441494FBF6F41B4BD9680C44DC6019690131196102F1F003B3F5F07F0CD9C0EB001000EB401090FBF2F0124BDA681044DC
:401F0000D8601A6901321A610E4B1A69002A09DD1846D968A1EB8101CB0093FBF2F2D317C0E90623074B99690E48C0F81C11322200F5947001F052F9F8BD00BF28FDFF1FD7
:401F40003CFDFF1F308EFF1F288CFF1F50FDFF1FD34D6210FF3F008080A8FF1F84C8FF1F8098FF1F8091FF1F70B4124B1A6A501C18621149B1F904405A6A14445C62B1F9D5
:401F800000609A6A16449E62B1F90250D96A0D44DD6200EBD0714A10154495FBF0F59D60144494FBF0F41C60324492FBF0F25A6070BC7047308EFF1F3CFDFF1FF8B507464D
:401FC000002101F033F9064600252C460FE0A4EBC4011C31384601F029F9801B064B03EB8403D3F8603903FB00550134E4B2032CEDD96800F8BD00BF0881FF1FF8B507464A
:40200000002101F013F9064600252C460EE0C4F10401384601F00AF9801B064B03EB8403D3F8743903FB00550134E4B2032CEED92846F8BD0881FF1F30B4002306E000EBF6
:40204000C30200240025C2E9004501330A2BF6DD00220023C0E91623C0E91823C0E91A23C0E91C2300238367C367C0F88030C0F88430C0F8883030BC704700BF38B5044639
:4020800001F094F804F1D80001F090F80025C4F8B051C4F8B451C4F8B851C4F8BC51C4F8C051C4F8C451C4F8C85104F5E870FFF7C3FF04F51870FFF7BFFF42F21073C4F808
:4020C000FC32C4F8F052C4F8F452C4F8F85238BDF8B50E46434BD3E91423134303D00122404B83F85820D6F8BC31C31A3E4A934209DA3C4A92F858202AB1D6F8C831013335
:40210000C6F8C8310CE041F28832934208DD354B93F8583023B1D6F8C831013BC6F8C831C6F8BC01D6F8C83100EB8330C1172D4B00240025C3E918450A229A6615E003F19D
:40214000FF3E03F1390206EBC202D2E900453A3306EBC303C3E90045224FD7E91823A4185D41C7E91845C7F868E01E4B9B6E002BE5DC06F5E873C3E900011A4CD4E9182390
:4021800080185941C4E918010A23A36609E05F1E144A02EBC70430CC02EBC303C3E900459766104B9B6E002BF1DC0B22002307F08DFA0C4BC3E90001C6F8D802D3E908232B
:4021C000821A61EB0303D90F521843F100035B104FEA3202C6F8E022A6F8EC02A6F8EE22F8BD00BF908EFF1F78ECFFFF10B50A4C022304F16C02FE214020FFF74FFB94F896
:402200006C0094F86D3003F03F03044903EB8010FFF75EFF10BD00BF908EFF1F6000002030B400280CDA43421C4C83FB04455819DA17C2EB60304FF4615202FB1030101ACC
:40224000164A80FB0223C218C317C3EB62334FF4615202FB130340F28D4202FB03F39812C1F8BC01D1F8B02102EB820213010C4C84FB0324DA17C2EBA413034403F58043D6
:40228000084A1A40002A05DA013A6FEA82426FEA92420132C1F8C02130BC7047C5B3A291D34D6210FF3F0080F8B50446D0F8BC512846E9171D4BD3E92023AA1A61EB0303C2
:4022C0001B4E4FF0FF37B24273EB070605DAD4F8C8310133C4F8C8310BE041F288360027964277EB030304DAD4F8C831013BC4F8C8310E4BC3E92001D4F8C811022205EB5E
:402300008131204600F06AFF2046FFF777FE094B83FB0023C017C0EBA310C4F8B001D4F8C830C4F8B431C4F8B801F8BD908EFF1F78ECFFFFD34D621030B587B01C4D1D4C17
:402340000494A4F59C7403941B4B02931B4B01931B4B00931B4B00221146284600F02EFA04F5C363049304F59C630393164B0293164B0193164B0093164B0022022105F173
:40238000680000F01BFA04F6F823049304F51C640394114B0293114B0193114B0093114B0022042105F1D00000F008FA07B030BDA82B002020120020180A002088250020D1
:4023C000AC2D0020CC0D00204410002048290020F8210020F80B0020080F0020B0280020E82600208009002038B505461B4B5B7973B10022194B5A71194800F06FFA0228B9
:4024000014BF00240124174B187804F023FF00E00024124B93F86D305BB100220F4B83F86D20114800F05AFA022814BF2046601CC4B20A4B93F8D5305BB10022074B83F88D
:40244000D5200A4800F04AFA022814BF2046601CC4B20CB101232B7038BD00BFA82B0020E81000200AFBFF1FC8150020A81A002008B5074B9B7E012B09D1064890F83E11FC
:4024800000F23F10FEF706FF0022014B9A7608BDA82B0020E8100020002303E00021034AD1540133062BF9DD704700BF6003002008B504F023FC08BD08B5FFF7EDFF03F09F
:4024C00019FA034A0721084603F022FA08BD00BF60030020704700BF10B582B002A9022321F8023D094C204600F022F8084B188000225A809A80DA80BDF806104A1C92B2C6
:40250000615C1972A25C9A8102B010BD60030020D8410020704700BF10B41388040ACC5413880133C85413880233138010BC704710B40B88C45C1844427802EB0420023358
:402540000B8080B210BC704710B41388040ECC5413880133C0F30744CC5413880233C0F30724CC5413880333C85413880433138010BC704730B40C88055D021953781B041B
:4025800003EB0563907803EB0023D07804340C80184430BC704700BFF8B506460C4615463022AA21204607F0CCFA02224FF0000E734613E0F718F05C00F11301C9B20129DA
:4025C00001D9E92807D10EF1010EE921A15401323978A15400E0A054013201332946AB42E8D37144154B5D7083F803E0C8B298709A7901329A712F290ED9302200212046B5
:4026000007F09FFA00200D4B5871F8BDA518AD782B44DBB2013201E000231A468A42F5D3064A1371ED25257060708D1C63550331EE2363540330C0B25071F8BD4C8FFF1F4F
:402640002DE9F04F83B000908B46019200F018FB0746051F4FF0FF34002638E0621C92B2ED21009800F010FA0446B0F1FF3F31D0854213DB411C89B2009800F0EFF98246A9
:4026800004F10308804447450ADD1FFA88F1009800F0E4F9EE2805D1012304E0002302E0002300E0002393B1A11C08F1FF391FFA89F94A4689B2009800F016FA06464946C2
:4026C000009800F0CBF9864214BF002601260EB9AC42C3DBF6B10AEB040504350AF104039BB2A2B25946009800F03AFA0022104613460CE0991C1BF80110E92900D120B12D
:40270000019881540132002000E0012001339A45F0DC00E00025A8B203B0BDE8F08F00BFF0B503788B70437813B901230B7101E002230B710369CA1D03F13004D3F800E019
:402740005F689E68DD68C2F800E057609660D56010331032A342F1D1C3689D3103F130021E685D689C68D8680E604D608C60C860103310319342F3D1F0BD00BFC1620263B1
:40278000C1F83401C2F8340143785BB901230B7103788B700723CB700221117193700378D370704702230B7103788B700723CB700121117193700378D3707047F8B5044646
:4027C0000798089E217062700025A57025716571A360069BE360206196273A46294607F0B0F93A462946E06807F0ABF9304600F0E1F86661257665760A9A09992046FFF7E7
:40280000BDFFF8BD38B5457801F0A4FC854236D001F0A6FC854234D001F09CFC854232D3002407E02146002001F0A0FC85422CD00134E4B2002001F0A9FC8442F2D300245A
:4028400007E02146012001F091FC85421FD00134E4B2012001F09AFC8442F2D3002407E02146022001F082FC854212D00134E4B2022001F08BFC8442F2D3002038BD0120E5
:4028800038BD062038BD072038BD022038BD032038BD042038BD00BF70B506460D4614461A460021204607F04CF92670657070BD027843789A4205D2C07880F0010000F08B
:4028C000010070479A4205D9C37813F0010F03D102207047032070470320704770B582B0044600F19D0600238DF8053083788DF8043090F8A0305D083046FFF783FF01281D
:4029000014D10723E3703046FFF7D2FF022823D8144B1D70587005EB45030344124A52F8233001A930469847022018E0022802D10020E07013E0032803D10123E370002098
:402940000DE0042803D10523E370002007E00638012803D9012002E0002000E0002002B070BD00BF5C8FFF1F68030020F8B50379EBB10D460446013B0371C2680169406901
:40298000FFF75EFE064648B10146606900F02AF9C7B229462046FFF7C3FE00E0002716B11FB1002302E0002300E00123DBB21846F8BD00BF4FF0FF33C0F898300023C0F863
:4029C0009C30C0F8A03002E00022C2540133952BFADD7047962A3AD8F8B515460E460446D0F89C008318962B03DC204407F09EF80BE0C0F19607BFB23A46204407F096F8CC
:402A0000EA1BF119204607F091F8D4F89830002B02DA0023C4F89830D4F89C202A440E4B83FB0231D317C3EB2113962101FB1323C4F89C30D4F8A0201544C4F8A0508D42C2
:402A400007DDC4F8A010C4F898300220F8BD012070470020F8BD00BFB5814E1BD0F8A03099420DDAD0F898301944064B83FB0132CB17C3EB2213962202FB1313C05C7047E4
:402A800000207047B5814E1B70B4D0F8A050AA4220DCD0F89830134404E0C45C8C421CD001320133AA4201DA952BF6DD0D4C84FB0346DC17C4EB2614962606FB143404E090
:402AC000035D99420BD001320134AA42F8DB4FF0FF3005E04FF0FF3002E0104600E0104670BC7047B5814E1BD0F8A03099422CDA93422CDB531A002B2BDD70B4D0F898303F
:402B00001944D518002303E0425C1344DBB20131A94201DA9529F7DD104C84FB0126CA17C2EB2612962606FB121284FB0514E917C1EB241406FB145403E0815C0B44DBB20F
:402B40000132A242F9DB184605E000207047002070470020704770BC704700BFB5814E1BA8B32DE9F041054699B3D018D5F8A040A04231DC1E460F46D5F898301A44184C94
:402B800084FB0231D417C4EB2114962303FB1424A1B28B19962B12DDC1F196081FFA88F842462944384606F0C1FFC8EB0602294607EB080006F0BAFF0020BDE8F08132466B
:402BC0002944384606F0B2FF0020BDE8F081012070470120BDE8F0810120BDE8F08100BFB5814E1BF8B5962905D8D0F8A030994203DC002602E0022600E00126962928BFF1
:402C000096210D46D0F89830002B35DB04465A18962A0DDDC3F19607BFB23A460021184406F08FFFEA1B0021204606F08AFF04E00A460021184406F084FFD4F8A0305B1BCF
:402C4000C4F8A030002B09DC4FF0FF33C4F898300023C4F89C30C4F8A0300DE0D4F898100D44064B83FB0532EB17C3EB2213962202FB1353C4F898303046F8BDB5814E1B86
:402C8000D0F8A000704700BF704700BF10B582B002A9052321F8023D0479FFF76BFC0434024B43F8240002B010BD00BFD432002070B582B0064602AC042324F8023D214642
:402CC000FFF758FC094D286021463046FFF752FC686021463046FFF74DFCA86021463046FFF748FCE86002B070BD00BFD4320020084B094AC3F80821084AC3F81021084A62
:402D0000C3F81421074AC3F81C21074AC3F81821704700BF68030020FD2D0000892C00009D2E0000B12C00008D2C0000F0B583B004461F46002502AE26F8025D16230B7047
:402D400002231370324601462846FFF7E5FB324621462846FFF7E0FB324621462846FFF7DBFB324621462846FFF7D6FB324621462846FFF7D1FB324621462846FFF7CCFB44
:402D8000FEF7CEFA32462146FFF7C6FB2846FDF799F93246214680B2FFF7BEFB0120FDF791F93246214680B2FFF7B6FB114B5B6A324621461868FFF7C7FB324621460E4B45
:402DC000D3F81C01FFF7C0FBBDF806305A1CE55493B25A1CE55493B25A1CE55493B25A1CE55493B25A1CADF80620E55493B23B8003B0F0BD603700208091FF1F2DE9F04376
:402E000085B0804689460D4F0D4E0E4D0E4C3B46324629462046FFF789FF3B883278297801200290CDF8049098F800000090204600F0A6FA05B0BDE8F08300BF728FFF1F35
:402E4000748FFF1F758FFF1F603F0020F0B583B006461F4602AC002324F8023D17230B70022313700C4D224601462868FFF76CFB224631466868FFF767FB22463146A86853
:402E8000FFF762FB22463146E868FFF75DFBBDF806303B8003B0F0BDD43200202DE9F04385B0804689460E4F0E4E0F4D0F4C002300933B46324629462046FFF7C7FF3B8890
:402EC0003278297801200290CDF8049098F800000090204600F054FA05B0BDE8F08300BF728FFF1F748FFF1F758FFF1F603F0020704700BF704700BF0279084BDA7142794A
:402F00001A7282795A72C2799A72027ADA72427A1A73827A5A73C27A9A737047842E0020084B094AC3F8DC22084AC3F8E022084AC3F8E422074AC3F82423074AC3F82C231C
:402F4000704700BF68030020752F0000F12E0000F52E000001300000F92E000010B43D240C70022111709DF80420027001221A8010BC70472DE9F04784B081468A46DFF873
:402F800044800D4F0D4E0E4C0025009543463A4631462046FFF7E2FFB8F800303A7831780295CDF804A099F800000090204600F0E7F904B0BDE8F087748FFF1F758FFF1F20
:402FC000603F0020728FFF1F10B443240C70022111700A4AD1790170117A4170517A8170917AC170D17A0171117B4171517B8171927BC27108221A8010BC7047842E002053
:403000002DE9F04385B0804689460D4F0D4E0E4D0E4C3B46324629462046FFF7D5FF3B883278297801200290CDF8049098F800000090204600F0A4F905B0BDE8F08300BFC0
:40304000728FFF1F748FFF1F758FFF1F603F0020704700BF704700BF704700BF00B583B002A9042321F8023DFFF784FA03B05DF804FB00BF094B0A4AC3F8EC21094AC3F803
:40308000F021094AC3F8F421084AC3F80422084AC3F80822074AC3F80C22704768030020C93000005130000055300000453100005D30000059300000292008700221117006
:4030C00000221A80704700BF2DE9F04385B0804689460D4F0D4E0E4D0E4C3B46324629462046FFF7E9FF3B883278297801200290CDF8049098F800000090204600F040F9AA
:4031000005B0BDE8F08300BF728FFF1F748FFF1F758FFF1F603F002030B583B01C4602AB002523F8025D2B250D70022111701A4601460698FFF708FABDF80630238003B02D
:4031400030BD00BF2DE9F04385B0804689460E4F0E4E0F4D0F4C002300933B46324629462046FFF7D9FF3B883278297801200290CDF8049098F800000090204600F000F945
:4031800005B0BDE8F08300BF728FFF1F748FFF1F758FFF1F603F0020024A034B53620433936270476037002004FFFF1F00220A4B1A6005E0002240F823200133064A1360EE
:4031C000054B1B68312BF5DD0023C0F8CC30C0F8C830C0F8D0307047608FFF1F70B4C0F8C810D0F8CC4001340F4D85FB0436E317C3EB2613322606FB134340F82310C0F845
:40320000CC3050F823109A1A324485FB0235D317C3EB251306FB132350F82330C91AC0F8D01070BC704700BF1F85EB51D0F8CC30591A3231054B83FB0132CB17C3EB221337
:40324000322202FB131350F8230070471F85EB5130B4124B00225A601A7214E0D0F8CC309B1A32330E4C84FB0345DC17C4EB2514322505FB143450F82440084B5D682C448B
:403280005C6001321A72054B1A7A8A42E6DB5B6893FBF1F1C0F8D41030BC7047608FFF1F1F85EB51704700BF10B5002309E0104C5A001A44910060180E4A625042608260D1
:4032C00001337E2BF3DDFFF72BFE00F04FF900F05DFB00F0BDFD00F015FFFFF709FDFFF7C9FE00F0A7FC00F039FD01F06BF810BD68030020A53200002DE9F04180460E467E
:403300001746079D202B28BF20231C4600F022FF04232A469DF81810FFF7BEFA0123AB709F4203D19E401E43EE700BE0022F02D17600EE7006E04FF48060FFF7EBF800204C
:40334000BDE8F08122464146281D06F0EFFB201D80B2BDE8F08100BF30B58DB003AC01949DF840500095FFF7C7FFC2B213992046FFF712F93022129B1A800DB030BD00BF7A
:403380002DE9F04387B00C4691460F9F9DF8406006AD4FF0000E25F802EDDFF87080CDF80C80029501979DF838500095FFF7D4FF3D784FF41C7303FB05F303F59C73124FCE
:4033C0001F44BDF816204146F81D06F0AFFBB9F1010F04D1640044F00104E4B201E06400E4B24FF41C72084B02FB053585F83D411EB9384600F09AFE02E0384600F098FE8D
:4034000007B0BDE8F08300BFE8100020303F0020704700BF08B500210079FCF795FE08BD30B583B0054602AC042324F8023D2146FFF7A0F821462846FFF79CF8044B1B7876
:40344000032B02D1024BC3F8200103B030BD00BF8091FF1F30B583B0054602AC042324F8023D2146FFF786F821462846FFF782F803B030BD00B583B002A9042321F8023D2F
:40348000FFF778F803B05DF804FB00BFF0B583B0054602AC042324F8023D2146FFF76AF821462846FFF766F821462846FFF762F8064621462846FFF75DF8074621462846F2
:4034C000FFF758F8104BC3F83062C3F83472C3F838021B78022B03D10B4BC3F8286210E0042B0ED1084BB3F85802B3F85A12B3F85C22C3F86862A3F85802A3F85A12A3F8A7
:403500005C2203B0F0BD00BF8091FF1F30B583B0054602AC042324F8023D2146FFF72AF821462846FFF726F821462846FFF722F821462846FFF71EF821462846FFF71AF821
:4035400003B030BD00B583B002A9042321F8023DFFF710F8044B1B78012B02D10021FDF727F903B05DF804FB8091FF1F124B134AC3F8C023124AC3F8C423124AC3F8C823F7
:40358000114AC3F8FC23114AC3F80024104AC3F80424104AC3F814240F4AC3F818240F4AC3F81C240E4AC3F808240E4AC3F80C240D4AC3F810247047680300200536000029
:4035C0001534000011340000293700004535000075340000D53700008D3400000D3500009D360000213400005534000010B450240C70022111709DF80420027001221A80BA
:4036000010BC70472DE9F04385B0804689460E4F0E4E0F4D0F4C104B1B7800933B46324629462046FFF7E2FF3B883278297801200290CDF8049098F8000000902046FFF7C8
:403640009FFE05B0BDE8F083728FFF1F748FFF1F758FFF1F603F00208091FF1FF0B583B006461F4602AC002324F8023D56230B7002231370084D22460146D5F81C01FEF75C
:4036800063FF22463146D5F82001FEF75DFFBDF806303B8003B0F0BD8091FF1F2DE9F04385B0804689460F4F0F4E104D104C114BD3F8583100933B46324629462046FFF7C7
:4036C000CDFF3B883278297801200290CDF8049098F8000000902046FFF752FE05B0BDE8F08300BF728FFF1F748FFF1F758FFF1F603F00206037002030B583B01C4602AB8D
:40370000002523F8025D55250D70022111701A460146044BD86BFEF717FFBDF80630238003B030BD603700202DE9F04385B0804689460E4F0E4E0F4D0F4C104BDB6B00936F
:403740003B46324629462046FFF7D6FF3B883278297801200290CDF8049098F8000000902046FFF70DFE05B0BDE8F083728FFF1F748FFF1F758FFF1F603F0020603700206A
:4037800070B582B005461E4602AC002324F8023D57230B7002231370224601460698FEF7D3FE224629460798FEF7CEFE224629460898FEF7C9FE224629460998FEF7C4FE8E
:4037C000224629460A98FEF7BFFEBDF80630338002B070BD2DE9F04387B080468946154F154E164D164C174BD3F838220492D3F834220392D3F830220292D3F82C22019250
:40380000D3F8243200933B46324629462046FFF7B7FF3B883278297801200290CDF8049098F8000000902046FFF7AAFD07B0BDE8F08300BF728FFF1F748FFF1F758FFF1F2D
:40384000603F00208091FF1FF0B583B0054602AC042324F8023D2146FEF76AFE074621462846FEF765FE064621462846FEF760FE054BA3F81071A3F81261A3F81401002209
:40388000C3F8082203B0F0BD8091FF1F30B583B0054602AC042324F8023D2146FEF748FE21462846FEF744FE21462846FEF740FE03B030BDF0B583B0054602AC042324F897
:4038C000023D2146FEF734FE074621462846FEF72FFE064621462846FEF72AFE054BA3F81872A3F81A62A3F81C020022C3F8442203B0F0BD8091FF1F30B583B0054602AC51
:40390000042324F8023D2146FEF712FE21462846FEF70EFE21462846FEF70AFE03B030BDF0B583B0054602AC042324F8023D2146FEF7FEFD074621462846FEF7F9FD06464E
:4039400021462846FEF7F4FD054BA3F85872A3F85A62A3F85C020022C3F8502303B0F0BD8091FF1F30B583B0054602AC042324F8023D2146FEF7DCFD21462846FEF7D8FD41
:4039800021462846FEF7D4FD03B030BD0E4B0F4AC3F8D8230E4AC3F8DC230E4AC3F8E0230D4AC3F8E4230D4AC3F8E8230C4AC3F8EC230C4AC3F8F0230B4AC3F8F4230B4A46
:4039C000C3F8F823704700BF68030020393A0000493800008D380000ED3A0000B5380000F9380000A13B0000213900006539000070B582B005461E4602AC002324F8023DEC
:403A000052230B700223137022460146BDF81800FEF782FD22462946BDF81C00FEF77CFD22462946BDF82000FEF776FDBDF80630338002B070BD00BF2DE9F04385B0804654
:403A400089461349B1F81031B1F81221114F124E124D134CB1F91411029112B201921BB200933B46324629462046FFF7C1FF3B883278297801200290CDF8049098F8000090
:403A800000902046FFF77CFC05B0BDE8F08300BF8091FF1F728FFF1F748FFF1F758FFF1F603F002070B582B005461E4602AC002324F8023D53230B7002231370224601464C
:403AC000BDF81800FEF728FD22462946BDF81C00FEF722FD22462946BDF82000FEF71CFDBDF80630338002B070BD00BF2DE9F04385B0804689461349B1F81832B1F81A22E6
:403B0000114F124E124D134CB1F91C12029112B201921BB200933B46324629462046FFF7C1FF3B883278297801200290CDF8049098F8000000902046FFF722FC05B0BDE853
:403B4000F08300BF8091FF1F728FFF1F748FFF1F758FFF1F603F002070B582B005461E4602AC002324F8023D54230B700223137022460146BDF81800FEF7CEFC22462946E5
:403B8000BDF81C00FEF7C8FC22462946BDF82000FEF7C2FCBDF80630338002B070BD00BF2DE9F04385B0804689461349B1F85832B1F85A22114F124E124D134CB1F95C1283
:403BC000029112B201921BB200933B46324629462046FFF7C1FF3B883278297801200290CDF8049098F8000000902046FFF7C8FB05B0BDE8F08300BF8091FF1F728FFF1FC4
:403C0000748FFF1F758FFF1F603F0020034B82791A705A6801325A60704700BF788FFF1F4179034B19729A7A521A5A72704700BF788FFF1F034B044A9A61044ADA61044A7D
:403C40001A62704768030020D93C00000D3C0000213C000070B51C469DF810309DF81C6002250D70157003709DF8182042703BB356B1154D2B7883702A781449033005F02F
:403C800055FF2B7803331CE09DF81430202B28BF20230D490B7083700D4D2A7801320D4B83FB0230D317C3EBA00303EB83035800131A2B700B780333CA680132CA6000E09B
:403CC0000223238070BD00BF788FFF1F843F0020A48AFF1F676666662DE9F04F85B00446894690F804A090F805B08279302A28BF3022134B1A70C11D124805F017FFDFF887
:403D00005480114F114E01250395CDF808B000230193CDF800A043463A4631460C48FFF799FFB8F800303A7831780295CDF80490207800900648FFF723FB05B0BDE8F08FA9
:403D4000788FFF1F843F0020748FFF1F758FFF1F603F0020728FFF1F704700BF054B064AC3F84424054AC3F84824054AC3F84C24704700BF68030020CD3D0000213E000087
:403D8000593D000010B45B240C70022111709DF80420027001221A8010BC704738B504460579FDF7B3FF58B92846FDF7B5FF38B1054A13781D43157000212079FCF7C4F90B
:403DC000014B187838BD00BF2D8EFF1F2DE9F04385B080468946FFF7E1FF0D4F0D4E0E4D0E4C00903B46324629462046FFF7CAFF3B883278297801200290CDF8049098F83E
:403E0000000000902046FFF7BBFA05B0BDE8F083728FFF1F748FFF1F758FFF1F603F002008B5FFF7BBFF08BD704700BF10B582B002A9052321F8023D0479FEF79BFB0A34E3
:403E4000024B03EB8403586002B010BD4091FF1F054B064AC3F83824054AC3F83C24054AC3F84024704700BF68030020193F00002D3E0000293E0000F0B583B005461F4618
:403E80009DF820305A2008700221117002AC012224F8022D2B701E4E0A3306EB8303224629465868FEF750FB224629467068FEF74BFB22462946B068FEF746FB22462946F3
:403EC000F068FEF741FB22462946308AFEF724FBFCF744FBFCF72EFB22462946708BFEF71BFB224629460B4BB3F81C01FEF714FB22462946F069FEF727FB22462946306AB8
:403F0000FEF722FBBDF806303B8003B0F0BD00BF4091FF1F8091FF1F2DE9F04385B0804689460E4F0E4E0F4D0F4C002300933B46324629462046FFF79FFF3B8832782978E3
:403F400001200290CDF8049098F8000000902046FFF716FA05B0BDE8F08300BF728FFF1F748FFF1F758FFF1F603F0020704700BF704700BF162809D05A2809D0432809D05A
:403F80006438C0B21A2807D801207047012070470120704701207047002070472DE9F04182B003798DF8073090F805808379C779067A6BB30D4604469DF80700FFF7DAFFFB
:403FC00040B34D4B1B78012B26D89DF807104B4A42F8231059005018A0F808802478464801448C8029781A441173454A22F8237002EB830256800133037079E03F4A52F895
:4040000023009DF80720D2B290420BD0013304E0002302E0002300E00023374A11780C468B42EBDBA3421ED09DF80720D2B2FF2A43D11AE0314A4FF0FF3142F82310590044
:40404000501843F2390404812B480144002088801A44072111732A4A22F8230002EB83025080013302E0002300E00023012BE1DD0022214B1A703BE0581C204A52F8204023
:4040800042F823404500541927895C0016193781194E3544AD883444A5801418247B1A441473174A32F8204022F8234002EB8004648802EB83035C800346002BDCDD0F4AC2
:4040C0004FF0FF3042F823005800141843F239052581094D2844002484801A4407201073074A22F8234002EB83035C800139297002B0BDE8F08100BF8C8FFF1FA88AFF1F66
:4041000094410020054B064AC3F85024054AC3F85424054AC3F85824704700BF680300206D3F00009D3F0000713F0000704700BF08B5C3780BB9FDF7E5F808BD10B5034C9E
:4041400003492046FEF712FC607110BDA82B0020E8100020014B1878704700BFB68AFF1F014B5878704700BFB68AFF1F10B9054B585C7047012802D1034B585C70470020E8
:40418000704700BF9C4100209C4100200020704710B51C467E230B700223137000F8013B034A1B2100F04EF90130208010BD00BF988FFF1F2DE9F04385B004460D461B22DF
:4041C0001049043000F06AF9C0B9DFF84490DFF844800D4F0D4E4B46424639463046FFF7D7FFB9F8003098F800203978012002900195207800903046FFF7C2F805B0BDE85C
:40420000F08300BF988FFF1F758FFF1F603F0020728FFF1F748FFF1F2DE9F04198467E230B70022414704FF0000C80F800C06546E64624E0164B13F80C30072B07D8144A86
:4042400002EB8303DB69002B02DC012300E00123104A12F80C2042B90EE0661C0E4FC95D015501350132B4B200E000229A4203DA02EB0E013B29F0DD9E440CF1010CBCF132
:404280001A0FD7DD4570A8F80040BDE8F08100BF709D0000988FFF1F9C41002010B47E240C7002211170012202701B2242703C22827003221A8010BC704700BF2DE9F041C6
:4042C0009DF818401A2C22D8984606467E230B700223137001230370447027460D4B1B5D83700D4B53F8240005F033FCF0700022042107E04C1C084B53F827309D5C755490
:404300000132A1B284B2A242F4DBA8F80010BDE8F08100BF709D0000B88AFF1F30B587B004460D460379012B20D14379FF2B06D1194B1A4A1A491B48FFF7B0FF1CE01A2B99
:404340001AD801220592934203D1059A02EB42020592022B02D1059A5200059200930E4B0E4A0F490F48FFF7A9FF05E00A4B0B4A0B490C48FFF750FF074B1B88074A12781C
:4043800007490978012002900195207800900548FEF7F6FF07B030BD728FFF1F748FFF1F758FFF1F603F0020034B044AC3F8E825034AC3F8EC257047680300201D430000A0
:4043C000B541000008B50B4B0B4AC3F8AC250B4AC3F8B4250A4AC3F8A0250A4AC3F8A825094AC3F89425094AC3F89C25FFF7DCFF08BD00BF68030020B9460000B9450000C7
:40440000A9480000FD480000D1490000194B0000064B074AC3F884200432C3F88820054AC3F88C200232C3F890207047D841002004FFFF1F4C030020704700BF08B500F036
:40444000D5F908BD3AB3F0B5164611F0070C18BF4FF0010C0CEBD10C017000220127144615E004F1010E4FEACE03013B09E08B4206DA5200D2B2F55C002D18BF42F0010266
:40448000013BB3EBC40FF2DAC255013774466445E7DBB8B2F0BD0020704700BFF0B50778BBB2934226D117F0070C18BF4FF0010C0CEBD70C0025012318E003F1010EC65C88
:4044C000EB00002207E046FA02F404F00104CC540132D2B201336C1CB3EBC40F04DABB42F1DB2546734601E0254673466545E4DB0020F0BD4FF0FF30F0BD00BFF0B583B0DD
:4045000005461F4679230B700223137002AC012324F8023D9DF820300370254ED6F88430224601461868FEF70FF8D6F88830224629461868FEF708F8D6F88C302246294634
:404540001888FDF7E9FFD6F89030224629461888FDF7E2FF22462946F06FFDF7F5FF22462946D6F89800FDF7EFFFD6F8800022462946C0F3CF00FDF7CFFF0E4BD3F82001FA
:4045800022462946C0F3CF00FDF7C6FF22462946B6F87800FDF7C0FF22462946B6F89C00FDF7BAFFBDF806303B8003B0F0BD00BFD84100208091FF1F0122034B1A70002221
:4045C000024B83F818247047B38FFF1FD84100202DE9F8430D4691461F46BDF92060BDF924809DF830402146FBF7AEFD4FF4587303FB04F32F4AD35C032B15D14FF4587321
:4046000003FB0423C3F82051B9F1010F4FD14FF4587303FB0424A4F81071A4F812610023C4F80832BDE8F883012B05D121462846FCF7BEF8BDE8F883022B18D14FF45873F2
:404640001C4A03FB0423C3F82852B9F1010F2ED14FF4587303FB0424A4F81872A4F81A62A4F81C820023C4F84432BDE8F883042B1DD14FF458730F4A03FB0423C3F8685282
:40468000B9F1010F13D14FF458720A4B02FB0434A4F85872A4F85A62A4F81081BDF92830A4F812310023C4F80832C4F85033BDE8F88300BF8091FF1F2DE9F04F8BB00446AD
:4046C0000F4606790AAD062325F8023D90F805802946FDF74FFF0690BDF826305A1CADF82620E35C079329462046FDF721FF0FFA80F929462046FDF71BFF0FFA80FA2946D1
:404700002046FDF715FF0FFA80FB29462046FDF70FFFBDF826305A1CADF82620E35C632E10D800B2012E0FD8049603930290CDF804B0CDF800A04B46079A06994046FFF7D7
:4047400047FF01E0643EF6B2DFF840A0DFF84090DFF840800C4D009653464A4641462846FFF7CCFEBAF8003099F8002098F80010012002900197207800902846FEF700FEFF
:404780000BB0BDE8F08F00BF603F0020728FFF1F748FFF1F758FFF1F70B50F4DD5F884301B680E4C2168591A61600D4B9B6A1B68A3600C4E0A223046FEF710FD3046FDF753
:4047C000FDFB094B83FB0023C017C0EB6320E060C5F8980070BD00BFD8410020B88FFF1F60370020AC54002025083D3208B5FFF7D3FF08BDF0B583B005461F4678230B704D
:404800000223137002AC012324F8023D9DF820300370244ED6F88430224601461868FDF793FED6F88830224629461868FDF78CFED6F88C30224629461888FDF76DFED6F81A
:404840009030224629461888FDF766FE22462946F06FFDF779FE22462946D6F89800FDF773FED6F8800022462946C0F3CF00FDF753FED6F8C00122462946C0F3CF00FDF79E
:404880004BFE22462946B6F87800FDF745FE22462946B6F89C00FDF73FFEBDF806303B8003B0F0BDD84100202DE9F04385B0054689460379DFF840800C4F0D4E0D4C00939D
:4048C00043463A4631462046FFF794FFB8F800303A78317801200290CDF80490287800902046FEF74DFD05B0BDE8F083748FFF1F758FFF1F603F0020728FFF1F0122034BCE
:404900001A700022024B83F818247047C88FFF1FD8410020F0B583B006461F469DF82030772008700221117002AD012225F8022D33704FF46274254A04FB0324D4F8843052
:404940002A4631461868FDF7FFFDD4F888302A4631461868FDF7F8FDD4F88C302A4631461888FDF7D9FDD4F890302A4631461888FDF7D2FD2A463146E06FFDF7E5FD2A46E1
:404980003146D4F89800FDF7DFFDD4F880002A463146C0F3CF00FDF7BFFDD4F8C0012A463146C0F3CF00FDF7B7FD2A463146B4F87800FDF7B1FD2A463146B4F89C00FDF779
:4049C000ABFDBDF806303B8003B0F0BD384A00202DE9F04F93B004460F910379069312AD062325F8023D427907922946FDF7C2FD0890BDF846305A1CADF84620E65C0996F1
:404A000029462046FDF794FD07B20A9729462046FDF78EFD0FFA80F929462046FDF788FD0FFA80FA29462046FDF782FD0FFA80FBBDF846305A1CADF84620E65C0B96294651
:404A40002046FDF797FD0C90BDF846305A1CADF84620E75C0D9729462046FDF769FD0FFA80FECDF838E029462046FDF761FD06B229462046FDF75CFD07B229462046FDF703
:404A800057FD0FFA80F8BDF846305A1CADF84620E55C002304930395CDF808B0CDF804A0CDF800900A9B099A08990798FFF790FD4FF00109CDF810900395CDF80880019771
:404AC00000960E9B0D9A0C990B98FFF781FDDFF844800D4F0D4E0E4D069B009343463A4631462846FFF716FFB8F800303A783178CDF808900F980190207800902846FEF7DF
:404B00003FFC13B0BDE8F08F748FFF1F758FFF1F603F0020728FFF1F0122034B1A700022024B83F8A0277047F48FFF1F384A0020FEE700BFF0B40022174611E050F8276005
:404B4000F3B226F0FF0608E001EB420511F812406D78A5550132013BDBB2002BF4D101372B2FEBD9F0BC704708B50A46002104F0E8FF08BDF8B5244B1B78DBB2234E347854
:404B8000E4B2234F3D78EDB203F00701214A11701B090132137044F00303337045F003033B7002221C4B1A70042211331A7044F20F011F331980402318490B7002310B70EE
:404BC00006310B7002310B7001F205110A701021134A117001216B321170202211490A7005310B70104B1A7040F2012217331A80802216331A700A2002F08EFC3D70347032
:404C000044220A4B1A70F8BDCF010049F8460040F94600406E5800400C51004001590040985A0040235B00402B5B00407658004008B504F07BFF08BD38B54F224C4B1A80E4
:404C400018234C4A1370012102321180023213700C2102321180023213700321023211801F2102321170002102321180502102321170042102321180023213700A210232AF
:404C800011800232137008223B493C48FFF7D0FF06223B4B1A7045F20E52EE3B1A80023B05221A701B7843F2C82404E04FF4F07002F056FD013C24B1324B1B7813F0800F01
:404CC000F4D114B90120FFF733FF4FF4A5622E4B1A8001224FF040231A7042F2512203F508731A80002419250CE0284B1B7803F0010343EA440404F003044FF4F07002F029
:404D00002FFD013D0DB1032CEFD115B90320FFF70FFF1F4A4FF48073138052211D4B19701D4B1B78DBB21D490B70072313700023A1F29B610B7048200231087013700532C1
:404D400013700222164B1A7004220A331A70154A137843F07F031370013A137843F003031370013A137843F08003137038BD00BF8040004082400040181500480041004065
:404D80000043004010420040224200402542004004400040004200400F010049A146004001400040A243004001238340042824D8DBB2124A127813421FD110B40F4913432E
:404DC0000B700F4B53F820201844047D137823431370037F19440A794AB9094A02EB8301496A1A4492F834000A7802430A70034A13441A7901321A7110BC70472490FF1F7F
:404E00008C9E000001238340042825D8DBB2134A1278134220D010B4104922EA03030B700F4B53F820201844047D137823EA04031370007F0A181379013BDBB2137153B96B
:404E4000074B03EB8002526A184490F83410137823EA0103137010BC704700BF2490FF1F8C9E0000012809D8054B03EB8002926B184490F8401013780B431370704700BF62
:404E80008C9E000001280AD8054B03EB8002926B184490F84010137823EA0103137070478C9E000038B572B600240CE0564863001A19510001440A46B1F84810506CFFF7DA
:404EC00053FE0134E4B20E2CF0D900240EE04E48A20011194B000344B3F8A820D3F8A410D3F8A000FFF7A4FE0134E4B20B2CEED946494FF09040FFF71DFE0A24444B1C70D7
:404F0000012203F521731A7004214248FFF72CFE042241494148FFF78BFE04214048FFF723FE04213F48FFF71FFE04223E493F48FFF77EFE04223E493E48FFF779FE0421C3
:404F40003D48FFF711FE04223C493D48FFF770FE04223C493C48FFF76BFE04213B48FFF703FE04213A48FFF7FFFD3A4A3A4B1A603A4A137843F0020313701032137843F000
:404F800002031370364D2B7843F040032B70A2F58632513A137843F010031370082231493148FFF745FE224630493148FFF740FE052230493048FFF73BFE22462F49304881
:404FC000FFF736FE08222F492F48FFF731FE22462E492F48FFF72CFE08222E492E48FFF727FE2E4A137843F00803137061222C4B1A70FFF721FEFFF7BDFD0E222946294884
:40500000FFF716FE38BD00BF8C9E0000B000004883580040007600402015004850760040087600401076004024150048187600402815004820760040287600402C150048A7
:40504000307600403015004838760040407600404876004004040484580C014003500140A0430040D414004802510040DC140048C0510040E8140048CB510040F0140048B7
:40508000F0510040FC14004812510040041500482051004010150048325100402243004000480040B043004008B504F013FD03680C2B00D1FEE7FEE708B5104E104D16E066
:4050C00029686B68AC68002204E051F8040B43F8040B0432A242F8D1E868002203E0002143F8041B04328242F9D11035013E002EE6D104F0F5FCFBF7EFFAFEE7010000000A
:4051000028A2000008B5114A114B1A60114A136843F40073136000230AE0032B03D80E4A52F8231000E00D490D4A42F8231001332F2BF2D90B4B1A780B4B1A70084A0B4B16
:405140001A60FFF7AFFE02F04FF808BD0004FA050CED00E014ED00E000000000A95000000080FF1FBC760040C080FF1F08ED00E0F0B583B016461F460B4C0A252570002344
:40518000019300932B460A460146284602F0AEF83A463146207802F083F80221207802F06DF8207803B0F0BD248BFF1F08B5FBF73DFA08BD014B1B681866704708ED00E063
:4051C0004001C0B2014B1870704700BF08E400E04FF48072014B1A60704700BF00E100E04FF48072014B1A60704700BF80E100E008B5FFF7F5FF0448FFF7DCFF0720FFF721
:40520000DFFFFFF7E5FF08BDAD510000F0B583B016461F460B4C042525700023019300932B460A460146284602F060F83A463146207802F035F80221207802F01FF8207831
:4052400003B0F0BD258BFF1F08B5FBF7DDF908BD014B1B685866704708ED00E04001C0B2014B1870704700BF09E400E04FF40072014B1A60704700BF00E100E04FF400726C
:40528000014B1A60704700BF80E100E008B5FFF7F5FF0448FFF7DCFF0720FFF7DFFFFFF7E5FF08BD49520000F0B583B016461F460B4C062525700023019300932B460A46BD
:4052C0000146284602F012F83A463146207801F0E7FF0221207801F0D1FF207803B0F0BD268BFF1F08B5FBF79FF908BD014B1B689866704708ED00E04001C0B2014B187068
:40530000704700BF0AE400E04FF48062014B1A60704700BF00E100E04FF48062014B1A60704700BF80E100E008B5FFF7F5FF0448FFF7DCFF0720FFF7DFFFFFF7E5FF08BD07
:40534000E5520000044A137803F0FB03800000F00400184310707047C0510040014B1878704700BFA1550020431EDBB2072B0BD8420002449300054A134400225A705A79EA
:40538000D2B20001024B1A54704700BFC0550020FE5F004010B500241F4B1C701F4B1C705C700AE01E4B185DC0B2431EDBB2072B01D8FFF7D9FF0134E4B2012CF2D9194B9C
:4053C0001B7813F0FF0F1AD0154B1B7813F0FF0F17D0154B1B7813F0FF0F14D0114B1B78DBB2082B11D80E4B1B78DBB2082B0ED80D4B1B78DBB2082B0BD8002010BD012086
:4054000010BD012010BD012010BD012010BD012010BD012010BD00BF2C90FF1F9455002088550020845500208C55002010B5002404E02046FFF7E6FC0134E4B2042CF8D989
:40544000FF22014B1A7010BD278BFF1F10B50446FFF7ECFF2046FFF7A7FC014B1C7010BD278BFF1F10B59DF80840012C51D1013809282ED8DFE800F0052D2D052D2D0F1936
:405480002D230F2B03D92548007840B222E02448007840B21EE00F2B03D92248007840B218E02148007840B214E00F2B03D91F48007840B20EE01E48007840B20AE00F2B67
:4054C00003D91C48007840B204E01B48007840B200E0002001EB401101FB02F1C90B8AB20D2B0BD8C3F10E0289B211418AB2611E124800EB810101338B7005E0631E0F493A
:4055000001EB83030F219970013C0C4B23F8242010BD002001F0E8FF10BD00BF180100491C010049190100491D0100491A0100491E0100491B0100491F0100493090FF1F72
:40554000F8B5074602F014F906460D4D2B7843F003032B700B4C237843F0030323700A4B1F70032001F0D8FF2B7803F0FC032B70237803F0FC032370304602F0FDF8F8BD26
:40558000F8460040F9460040925800400022324B1A7101285FD170B53422304B1A70042202331A70062201331A70002401331C7001331C703F2201331A7002331C7001333E
:4055C0001C7001331C7001250A331D70502203F527631A700A2201331A702C2201331A7001331C70442203331A70482201331A7001331D70022602331E70122201331A704F
:40560000282201331A70EB2201331A705220FFF797FF5822124B1A7001331C70052205331A7001331E7001331C7001331C70204601F026FC43F233320A4B1A6029461320C9
:4056400001F042FC29464F2001F0CCFC06491D2001F06CFF70BD70473090FF1F004E0040945800403456002051580000F0B583B0284D01272F70284E00247471102001F0F9
:4056800011FC102001F09CFC07211D2001F062FF0422224B1A7001331C7007331C70204A137843F0180313701E4B1C7003F2F5231C7001331C700A22A3F209331A700133FB
:4056C0001C7002331C705B2205331A705E2201331A7004331C701422A3F68C231A70009710234FF4004248F6F0510220FFF7BAFE2B78013B06EB83039A780B4B1A702B788C
:40570000013B36F82320094B1A802878FFF73EFF03B0F0BD288BFF1F3090FF1F96580040075B0040935800400E4E00400C4E004070B502F01DF806462A4B1B782A4B1A7834
:4057400042F001021A701A7842F010021A7010331A7842F001021A701A7842F010021A70224D2B7843F002032B70214C237843F0020323701F4A137843F00303137003208B
:4057800001F0CAFE2B7803F0FD032B70237803F0FD032370184A137843F0060313707A22164B1A70164A137843F0020313701032137843F0020313700F3A137843F0100363
:4057C00013701032137843F0100313704FF000530C4A1360A2F5C0721360304601F0CCFF70BD00BF288BFF1FAA430040F8460040F94600409158004077580040825800408E
:40580000A143004080E200E008B5084B9B794BB9064BDB7913F0FF0F01D1FFF727FF0122024B9A71FFF784FF08BD00BF3090FF1F024A137843F0010313707047004E00400A
:40584000024A137803F0FE0313707047004E0040704700BF10B54122124B1A70C1220E3B1A70332202331A700C2211331A70002401331C704FF400420B4B1A6007210F20BA
:4058800001F068FE09490F2001F050FE084B1C70084B1C70084B1C70084B1C70084B1C8010BD00BFD649004080E100E05D5900004656002040560020485600204756002097
:4058C0004456002008B501F053FF084A137843F0040313701032137843F00403137001F04BFF4FF40042024B1A6008BDA543004000E100E008B5054B1B7823B9FFF7AAFF7A
:405900000122024B1A70FFF7DDFF08BD3890FF1F10B44FF400440A4B1C6032B11346094A1360094B1880094B19800023084A1370084A13704FF40042074B1A6010BC704758
:4059400080E100E03C5600204256002044560020485600204756002000E100E008B5664B1B78DBB213F0080F32D0644B1B7813F0010F1CD0624A1378DBB262490968CB5C94
:40598000DBB25E490B7014215B4B19701378DBB25D4A137013780133DBB213705B4A137843F0110313700822594B1A708FE01022514B1A70554A137843F012031370012292
:4059C000534B1A70534A137843F0100313707EE013F0010F7BD04E4A1278D2B2042A1FD0082A3BD0012A69D1444B1B78DBB24A4A13709BB2494A128892B293420CD2102204
:405A00003D4B1A70444B1B783D4A13703E4A137004223F4B1A705AE00022374B1A7056E0394B1A783E4B1B889BB29A4212D2334B1B7839490B7010222F4B1A70324A1378AB
:405A4000DBB2304800680978C15413780133DBB213703CE00022284B1A7038E013F0020F1ED1294B1A782D4B1B889BB29A4210D2254A1378DBB223490968CB5CDBB21F4952
:405A80000B7004211C4B197013780133DBB213701DE0FF22194B1A700422013B1A7016E0FF22164B1A700022013B1A7017490B7803F0EF030B70164B1A7008E00023144A0E
:405AC00013700F4A1370104A13700B4A13700A4B1B7813F0200F0CD00C4A137803F0EF03137000220A4B1A700A4A137803F0EF031370FAF7E9FD08BDD7490040D8490040AE
:405B0000485600203C560020475600204056002046560020D64900403990FF1F4256002044560020014B188880B2704794400040024B187800F00700704700BF96400040C5
:405B400070B504460D46FFF7F3FF0646FFF7EAFFA04257D02C4B1B7803F02003DAB296B900B184B938B9294B1C80294A137803F0BF03137070BD264A137843F04003137006
:405B8000224B1C8070BD22B3002322490B7020260F310E7004310B700C390B7803F07F030B701B4B1B7813F0080F00D08CB91A4B18800721013B1970164B1B7813F0010F4C
:405BC000FAD111490B7803F0DF030B700021114B19700D4B1B7813F0200F0DD00E4B1C800DB1032200E001220A4B1A70094B1B7813F0010FFAD170BD044B1C8002490B7848
:405C000013430B7070BD00BFA243004094400040964000400140004002400040084A137843F0020313701032137843F00203137002F5A5521E32137843F08003137070477C
:405C4000A9430040044A137803F0FC0300F0030018431070704700BF0558004010B487B00446194B03AA1868596803C2197A11706A4653F80C0F596803C21B7A1370082CF4
:405C80001ED812490B7803F08003DBB20B70087806AB1C4414F80C3C14F8182C920002F00C02134303430B70094A137803F0F3031370117814F8183C0B4343F00C0313706E
:405CC00007B010BC704700BFA49F0000065800400558004008B50C22084B1A70084A137843F0200313708022064B1A700020FFF7B5FF0120FFF7A6FF08BD00BF045800408C
:405D0000055800400658004008B5054B1B7823B9FFF7E0FF0122024B1A70FFF77FFF08BD3A90FF1F08B5FAF74BFC08BD014B1B685867704708ED00E04001C0B2014B187061
:405D4000704700BF0DE400E04FF40052014B1A60704700BF00E100E04FF40052014B1A60704700BF80E100E008B5FFF7F5FF0448FFF7DCFF0620FFF7DFFFFFF7E5FF08BDDB
:405D8000255D0000044A137803F0DF03400100F02000184310707047F051004010B50024144B1C70012213331A7001F0E1FC124A137843F01003137001F0DEFC0F220F4BB4
:405DC0001A70082210331A7004220D4B1A600521022001F0BFFB0B49022001F0A7FB1022094B1A70094B1C70094B1C70094B1C7010BD00BF746500409765004029640040D0
:405E000080E100E0515E0000495600204E560020505600204C560020024A137843F00203137070477465004008B5074B1B7823B9FFF7B4FF0122044B1A70FFF7EDFF0422DA
:405E4000024B1A6008BD00BF3B90FF1F00E100E038B5AC4B1C78AC4B1B7813F0400F00F07B81E4B214F0010F00F04281A64B1B78453B052B00F23981DFE813F0060092004E
:405E8000370137010600F90004F0DF0504F00A04082C50D19C4B1B78DBB2452B3DD19B4B1B7813F0FF0F16D0994B1B681B78DBB2984A13700622984B1A70FF225D3B1A708B
:405EC000002240331A700122944B1A7046228E4B1A702C460CE1924B1B7813F0020F0CD0904A137843F00A0313706022864B1A7004228D4B1A602C46FAE08C4A137843F010
:405F0000200313705222844B1A70FF225D3B1A70002240331A702C46EAE002227E4B1A70FF225D3B1A70002240331A704A22764B1A702C46DCE00A2C2DD17A4A137843F0DC
:405F4000A0031370764B1B7813F0020F13D06E4B1B7813F0080F01D0092300E00A23714A11780B4313706022674B1A7004226E4B1A602C46BCE06D4A137843F020031370EB
:405F80005222654B1A70FF225D3B1A70002240331A702C46ACE0002001F0A6FA2C46A7E014F0020F3ED15D4B1A78D2B2574B1B78DBB29A4216D2594A1378DBB254490968F8
:405FC000CB5CDBB253490B700621534B1970FF215D3B197000214033197013780133DBB2137085E04E4B1B7813F0020F0BD04D4A137843F00A0313706022434B1A70042236
:40600000494B1A6074E0494A137843F0200313705222414B1A70FF225D3B1A70002240331A7065E03E4B1B7813F0020F0BD03D4A137843F09A0313706022334B1A700422B6
:40604000394B1A6054E0394A137843F0200313705222314B1A70FF225D3B1A70002240331A70304A137843F09003137040E0304A1378DBB22F49086826490978C9B2C154C3
:4060800013780133DBB213701278D2B22A4B1B78DBB29A4209D202221F4B1A70FF225D3B1A70002240331A7022E01D4B1B7813F0020F0BD01B4A137843F00903137060221D
:4060C000114B1A700422184B1A6011E0174A137843F02003137012220F4B1A70FF225D3B1A70002240331A7002E0002001F0FCF914F0200F38D0044B1B7813F0080F1DD07B
:4061000001231CE067650040495600204F5600205456002007650040746500404C5600204D5600204E56002080E100E08765004050560020585600205C56002002230B4A8A
:4061400011780B4313700A4A137803F0DF0313701022084B1A7038BD064B1B7813F0100F02D11022034B1A7038BD00BF4E5600208765004049560020002951D070B40C4684
:406180002A490978C9B2102906D12949097811F0100F10D1002111E024490978C9B260290BD1042523490D60234D297801F0F7012970002102E0012100E00221002932D1A3
:4061C00049261A4D2E7000261C4D2E701C4D2A701C4A14601C4A1370174C227802F0FE0222704200D2B242F001021848027013F0010F08D03222164B1A70FF225D3B1A707D
:4062000040331E7008E08222114B1A70FF225D3B1A70002240331A7004220E4B1A6002E0022108467047084670BC7047495600206765004080E200E04E56002050560020BE
:406240005C560020585600204D560020076500407465004000E100E01F4B1B78DBB2102B33D11E4B1B7813F0100F30D104221C4B1A604000C0B229B140F001004922164BBD
:406280001A7002E04522144B1A70164B187082226D331A70FF225D3B1A70002240331A70114B1B7813F0FF0FFAD10C4B1B7813F0010FFAD0094B1B7803F00A030A2B08D182
:4062C0001022054B1A700320704702207047012070470020704700BF495600206765004080E100E0076500401765004008B50A280FD00C2802D0082806D102E04FF480522B
:4063000009E04FF4807206E0002001F0EDF8002201E04FF480620021094B198042F2107303FB02F303F6C413064A82FB0302DB17C3EBE223044A1360044B198008BD00BF0F
:4063400060560020AD8BDB68645600206256002010B501F00DFA04461E4A137843F0010313701032137843F0010313701A3A137843F0010313701032137843F001031370BF
:4063800002F5AA521232137843F0030313700422114B1A70013B1A7802F0BF021A701A7842F003021A700E22053B1A700222A3F597530C3B1A70094A137843F008031370E5
:4063C0000A2001F0A9F80122054B1A60204601F0D3F910BDAB43004006590040275B004080E200E010B504460A280DD00C2802D0082804D101E0C42207E0442205E00020F1
:4064000001F072F8C42200E08422034B1A702046FFF76CFF10BD00BF0259004008B5102000F04EFE0721002001F094F80749002001F07CF8064A137843F0060313700C2046
:40644000FFF7D0FF0022034B1A8008BD75640000015900406856002008B5054B1B7823B9FFF7DCFF0122024B1A70FFF771FF08BD3C90FF1F08B5FAF7E3F808BD7222074BA7
:406480001A70202201331A700622563B1A70472210331A7002224F331A7070478164004008B501F065F9094A137843F0200313700132137843F0100313700932137843F08A
:4064C0001003137001F058F908BD00BF9164004008B5054B1B7823B9FFF7D0FF0122024B1A70FFF7DDFF08BD3D90FF1F08B501F03FF9064B1A7842F001021A701A7802F042
:40650000FE021A7001F038F908BD00BF9B640040F0B583B016461F460B4C072525700023019300932B460A460146284600F0DEFE3A463146207800F0B3FE0221207800F0D4
:406540009DFE207803B0F0BD298BFF1F024A137843F080031370704774640040014B1880704700BF0C680040014B1880704700BF6C680040014B1880704700BF4C6800400D
:40658000014B1870704700BF2164004008B5104A137803F0C00343F00B0313702232137843F0010313700132137843F0010313704FF47A70FFF7D2FF4FF47A70FFF7D4FFB5
:4065C00040F2DE30FFF7D6FF1320FFF7D9FF08BD7464004008B5054B1B7823B9FFF7D6FF0122024B1A70FFF7B1FF08BD3F90FF1F08B500F02FFF00F037FF08BD08B5FFF7A0
:40660000F7FF08BD38B5044601F0B2F8054600F055FF04F1804000F500400478E4B200F05BFF284601F0A8F8204638BD08B500F011FFC0B208BD00BF38B504460D4600F071
:40664000A1FF15F0800F48D101F034F8002846D110222146402000F0C1FF07282FD1214B1B7813F0020FFAD01E4B1B7813F0020F06D01C4B1B789B0805D04FF0FF3403E00F
:406680004FF0FF3400E00024E4B9174A537812782946402000F0CAFF072816D1114B1B7813F0020FFAD00F4B1B7813F0020F0FD00C4B1B789B080DD04FF0FF340AE04FF0C1
:4066C000FF3407E04FF0FF3404E04FF0FF3401E04FF0FF3401F014F802E0012400E00424204638BD224700407856002008B50A280FD00C2802D0082806D102E04FF4805295
:4067000009E04FF4807206E0002000F0EDFE002201E04FF480620021094B198042F2107303FB02F303F6C413064A82FB0302DB17C3EBE223044A1360044B198008BD00BF06
:4067400074560020AD8BDB686C5600207056002038B501F00DF804461E4A137843F0020313701032137843F002031370193A137843F0400313701032137843F040031370EC
:4067800002F5AA521932137843F0030313700422114B1A70013B1A7842F040021A701A7802F0FC021A700E22053B1A700225A3F59753123B1D70094A137843F00803137054
:4067C0000A2000F0A9FE064B1D60204600F0D4FF38BD00BFAB4300400E5900402F5B004080E200E010B504460A280DD00C2802D0082804D101E0C42207E0442205E000200A
:4068000000F072FEC42200E08422034B1A702046FFF76CFF10BD00BF0A59004008B5102000F05EFC0721012000F094FE0749012000F07CFE064A137843F0060313700C201B
:40684000FFF7D0FF0022034B1A8008BD75680000095900407256002008B5054B1B7823B9FFF7DCFF0122024B1A70FFF771FF08BD4090FF1F704700BF084A137843F06003D4
:406880001370A2F5A652133A137843F0020313701032137843F002031370704777580040054B1A7802F0FC021A701A7800F0030010431870704700BF5A58004008B50320E1
:4068C000FFF7EEFF08BD00BF08B5054B1B7823B90122034B1A70FFF7F1FFFFF7CDFF08BD4190FF1F054A137843F0080313701032137843F008031370704700BFA843004094
:40690000054B1A7802F0FD021A701A7800F0020010431870704700BF2C580040014B1870704700BF835B0040064B1B78C3F3810303F19243063393F83831DBB2024A137089
:40694000704700BF2C5800400B46004008B5064B1A7802F0F3021A701A7800F00C0010431870FFF7E1FF08BD2C58004010B50024054B1C7001331C702046FFF7E7FF204646
:40698000FFF7BEFF10BD00BF2C58004008B5074B1B7823B9FFF7EAFF0122044B1A70FFF7A1FF1C20FFF7BAFF08BD00BF4290FF1FF0B583B016461F460B4C032525700023B6
:4069C000019300932B460A460146284600F08EFC3A463146207800F063FC0221207800F04DFC207803B0F0BD2A8BFF1F08B5F9F705FE08BD014B1B689867704708ED00E014
:406A00004001C0B2014B1870704700BF0EE400E04FF48042014B1A60704700BF00E100E04FF48042014B1A60704700BF80E100E008B5FFF7F5FF0448FFF7DCFF0720FFF722
:406A4000DFFFFFF7E5FF08BDED690000024A137843F080031370704776650040014B1880704700BF146A0040014B1880704700BF746A0040014B1880704700BF546A004079
:406A8000014B1870704700BF2864004008B5104A137803F0C00343F00B0313702432137843F0010313700132137843F0010313704FF47A70FFF7D2FF4FF47A70FFF7D4FFA7
:406AC00040F2DE30FFF7D6FF1320FFF7D9FF08BD7665004008B5054B1B7823B9FFF7D6FF0122024B1A70FFF7B1FF08BD4390FF1F024A137843F08003137070477965004028
:406B0000014B1880704700BF106A0040014B1880704700BF706A0040014B1880704700BF506A0040014B1870704700BF2A64004008B5104A137803F0C00343F00B03137045
:406B40001F32137843F0010313700132137843F0010313704FF47A70FFF7D2FF4FF47A70FFF7D4FF40F2DE30FFF7D6FF1320FFF7D9FF08BD7965004008B5054B1B7823B9B2
:406B8000FFF7D6FF0122024B1A70FFF7B1FF08BD4490FF1F014B1870704700BF7B640040F0B583B016461F460B4C052525700023019300930A460146284600F097FB3A464A
:406BC0003146207800F06CFB0221207800F056FB207803B0F0BD00BF2B8BFF1FF0B583B016461F460B4C082525700023019300930A460146284600F079FB3A4631462078B4
:406C000000F04EFB0221207800F038FB207803B0F0BD00BF2C8BFF1FF0B583B016461F460B4C092525700023019300930A460146284600F05BFB3A463146207800F030FBBF
:406C40000221207800F01AFB207803B0F0BD00BF2D8BFF1F08B5F9F7F5FC08BD014B1B68D866704708ED00E04001C0B2014B1870704700BF0BE400E04FF40062014B1A6094
:406C8000704700BF00E100E04FF40062014B1A60704700BF80E100E008B5FFF7F5FF0448FFF7DCFF0420FFF7DFFFFFF7E5FF08BD556C000008B5F9F701FD08BD024B1B681F
:406CC000C3F88400704700BF08ED00E04001C0B2014B1870704700BF11E400E04FF40032014B1A60704700BF00E100E04FF40032014B1A60704700BF80E100E008B5FFF721
:406D0000F5FF0448FFF7DAFF0620FFF7DFFFFFF7E5FF08BDB56C0000014B1870704700BF7C64004008B50822054B1A600549032000F0FCFB0221032000F00CFC08BD00BF55
:406D400080E100E0216E000010B50824064B1C6000F0EAF9A0F5004000B2044B1B68044A1460184410BD00BF80E100E04890FF1F00E100E038B505460824054B1C604FF444
:406D8000004000F0CBF9034B1D60034B1C6038BD80E100E04890FF1F00E100E0024B187800F00F00704700BF6D64004040F00700014B1870704700BF8D64004008B50F205C
:406DC000FFF7F4FFFFF7EAFF00F0D2FC054A137843F01003137000F0CFFC0822024B1A6008BD00BF9D64004000E100E008B500F0EDF94FF4004000F091F90022064B1A60BB
:406E0000064B1B7823B9FFF78DFF0122034B1A70FFF7D4FF08BD00BF4890FF1F4590FF1F0D4B1B78DBB213F0010F06D00B490A6802F5FF427F320A6007E013F0020F04D096
:406E400006490A68A2F500420A6013F0040F02D00022024B1A6070476D6400404890FF1F10B5002404E02046FEF70CF80134E4B2012CF8D9FF22014B1A7010BD2E8BFF1FEF
:406E800010B50446FFF7ECFF2046FDF7EBFF014B1C7010BD2E8BFF1F014B188880B2704790400040034B1A7800F0F80010431870704700BF92400040024B187800F007003E
:406EC000704700BF9240004070B504460D46FFF7F3FF0646FFF7E0FFA04257D02C4B1B7803F01003DAB296B900B184B938B9294B1C80294A137803F0BF03137070BD264A89
:406F0000137843F040031370224B1C8070BD22B3002322490B7010260F310E7004310B700C390B7803F07F030B701B4B1B7813F0080F00D08CB91A4B18800721013B19704B
:406F4000164B1B7813F0010FFAD111490B7803F0EF030B700021114B19700D4B1B7813F0100F0DD00E4B1C800DB1032200E001220A4B1A70094B1B7813F0010FFAD170BD66
:406F8000044B1C8002490B7813430B7070BD00BFA2430040904000409240004001400040024000404FF00052014B1A60704700BF00E100E0014B188880B270470441004029
:406FC000034B1A7800F0F80010431870704700BF06410040024B187800F00700704700BF0641004070B504460D46FFF7F3FF0646FFF7E0FFA04257D02C4B1B7803F002034A
:40700000DAB296B900B184B938B9294B1C80294A137803F0BF03137070BD264A137843F040031370224B1C8070BD22B3002322490B70022613310E7004390B7008390B78B5
:4070400003F07F030B701B4B1B7813F0080F00D08CB91A4B18800721013B1970164B1B7813F0010FFAD111490B7803F0FD030B700021114B19700D4B1B7813F0020F0DD00F
:407080000E4B1C800DB1032200E001220A4B1A70094B1B7813F0010FFAD170BD044B1C8002490B7813430B7070BD00BFA1430040044100400641004001400040024000407B
:4070C000034B1A7800F0F80010431870704700BF024100400222014B1A60704700E100E0034B1A7800F0F80010431870704700BF9A400040024A137843F080031370704798
:407100007E640040014B1870704700BF8C640040014B1878704700BF6C640040014B1880704700BF1C680040024B1B78024B188880B270470E6400409C680040014B18889B
:4071400080B270479C680040014B1880704700BF5C680040014B1880704700BF7C68004008B501E0FFF7EAFFFFF7D2FF10F0400FF8D108BD08B5134B1A7802F0F8021A70C2
:407180001A7802F0FC021A70FFF7EAFF4FF40040FFF7DAFF4FF40040FFF7C0FF0020FFF7B1FFFFF7B5FF4FF40040FFF7D3FF00F0DFFA054A137843F01003137000F0DCFA6D
:4071C00008BD00BF7E6400409C64004008B5054B1B7823B9FFF7CEFF0122024B1A70FFF789FF08BD4C90FF1F0B4A7F2313708021517007E0DA0002F1804202F5F042013B7C
:40720000DBB21370002BF5D1DB0003F1804303F5F04300221A707047308BFF1F172815D831B103010A495A5C42F020025A5405E0030107495A5C02F0DF025A540001044A78
