:400000000080002011000000694C0000694C000008B5044B1A6803F53F5302331A6004F02BFE00BFFA46004010B5054C237833B9044B13B10448AFF300800123237010BDE0
:40004000088CFF1F000000002C8D0000084B10B51BB108490848AFF300800848036803B910BD074B002BFBD0BDE81040184700BF000000000C8CFF1F2C8D0000C880FF1FFA
:400080000000000005289DBF024B33F8100000B200207047F890FF1F2DE9FF41294B05461B780F46002B4AD14FF458724A43264EB418B25C824242D00228A4F81832A4F853
:4000C0001A32A4F81C32A4F85832A4F85A32A4F85C32A4F81031A4F81231A4F81431C4F82031C4F80832DFF86C8005D1084600F081F9C4F8280206E0042813D1084600F047
:4001000079F9C4F868020246C31700210120CDE90201CDE900011946104601F0F5F80B4B186001E0062801D0002300E0012388F800304FF458735F43054BF5551D7004B0B0
:40014000BDE8F081D68EFF1F2092FF1FACFDFF1FE091FF1FA08CFF1F2F4B002118460A46425401F55871B1F5D86F1A815A819A81DA811A825A825A619A61C3F8F820C3F844
:400180000021C3F80421A3F81822A3F81A22A3F81C22A3F81E22A3F82022A3F82222C3F82422C3F82822C3F83C22C3F84422C3F84822A3F85822A3F85A22A3F85C22A3F8DD
:4001C0005E22A3F86022A3F86222C3F86422C3F86C22C3F86822C3F84823C3F85023C3F85423A3F81021A3F81221A3F81421A3F81621A3F81821A3F81A21C3F81C21C3F855
:400200002021C3F80022C3F80822C3F80C2203F55873A5D1704700BF2092FF1F2DE9F0412E4C4FF4587303FB02472D4ED7F83C52C7F82412C7F82802B1607060401AD7F87D
:400240004412C7F8405200EB010E451B06214D43D7F8481203FB024305EB41052149C7F844E28E45C4BF0131C7F84412ED101E49C7F83C02C7F848524FF45878D3F84472EA
:4002800008FB02488F42BCBF01F1FF31C3F84412D8F844320A2793FBF7F7B8F81842B8F81AE2B8F81C32F0600EFB07F760435D43642497FBF4F790FBF4F095FBF4F3F061F5
:4002C0003844C418204611463762736200F0C2F93461D8F83C02BDE8F08100BF2092FF1FE091FF1F7F969800816967FFF0B5214C4FF4587303FB0245D5F80862411A1E4F98
:400300000E4403FB0243BE42C8BF1C4EC5F80012C5F80862D3F80862194D85B0AE42BCBF05F1FF35C3F808524FF4587303FB0244B4F81031594309120191D4F80832B4F88D
:4003400012114B435B1302930E49019D029BD1F8B8112B44252505FB01330A2190FBF1F0184403900398114600F074F9D4F8000205B0F0BD2092FF1FFF2C3101002D310127
:4003800001D3CEFEE8FDFF1F0C4A4FF4587303FB0020D0F86412D0F86832B0F858225B1A02FB03F1D0F86C32B0F85A225B4253439B1103EB6123C0F8203170472092FF1F85
:4003C00007490B785B0303F4C0428B7D1B0303F4805313438A8AC2F30B0213434B837047E091FF1F024B00229A829A75704700BFE091FF1F0B4B30B51A680B490B4D5A608B
:400400004FF4587303FB00504A6A8B6A1468C0F864421B68C0F86C321368C0F82432106830BD00BFE098FF1FD04400202092FF1F014B01221A707047248CFF1F10B5054C29
:4004400030226069044902F008F923790133DBB2237110BD1C3900206DFCFF1F08B504F055FE024B01221A7008BD00BF2D8CFF1FF7B500268DF8076005F0D2FA2A4C8DF894
:4004800007002378294D7BB9267805F0DBFAF6B225F816002378264A0133DBB22370254B1B889BB213803CE0277805F0CBFAFFB225F817002378204CDBB235F813001F4BC3
:4004C000C0F30D0018801E4B012221461A6001F027FDD4F8C0011B4B1B4C596B40F3CF0000F0BAFC237813B101F0DEFA26706378132B05D9104801F031FD134B00225A70E6
:4005000044F61F626378013363706388934208D843F2B062934201D901F09EFB63880133638003B0F0BD00BF3A8FFF1FD68FFF1F4A640040388FFF1FE8FDFF1FD48FFF1F1C
:40054000D08FFF1FD0440020248CFF1F43F6FF7001F0F2BB074B01221A70074B1A78FF2A06D01A780549D2B28B5C01335BB28B54704700BF398CFF1FF480FF1F2F8CFF1FA5
:40058000024A13780133DBB213707047F48FFF1F80B502F0A3FC01F025FD00F025F902F025FC03F01FFE03F031FE0F4D0F4C104E2B78012B14D100272F7023780D4ADBB28E
:4005C000337052F823309847FF23337023780133DBB2092B237088BF277001F0F5F8E7E701F01CF9E4E700BF398CFF1F3A8CFF1FF480FF1FCC80FF1F40F2E631054A00205F
:40060000138801339BB28B428ABF108013800120704700BF288CFF1F054A0020538801339BB2622B8ABF508053800120704700BF288CFF1F08B500F081FD044A044BD2F8BD
:40064000FC21A3F87800DA6708BD00BF2092FF1FB04F002013B50023044602A800F8013D00F0F0F89DF8073073B14CF25033A342A8BF23460A4A9342B8BF134640F24122B5
:40068000534393FBF0F000E01846064B1B78002B18BF0020044B00B2586302B010BD00BFB03CFFFFC38EFF1FD044002070B54FF4804341F6FF720121022005F015FD064601
:4006C00005F04EFF04462B4D00230246022105F061FF291D46F6480289B2204605F06CFF2146304605F010FF0121304605F0B8FE4FF4804341F6FF720121022005F010FD2E
:40070000064605F02DFF044600230246022105F041FFA91D46F6502289B2204605F04CFF2146304605F0F0FE0121304605F098FE4FF4804341F6FF720121022005F00CFD17
:40074000064605F00DFF044600230246022105F021FFA9B246F65002204605F02DFF2146304605F0D1FE3046BDE87040012105F077BE00BF3C8CFF1F08B501F07FF905F057
:400780002DFA4FF4FA7005F037FA05F055FC4FF4FA7005F05FFC05F08DFC4FF4FA7005F097FC0B4B4FF4FA729A80DA801A805A80FFF77CFF05F0EEFC012005F08FFC01204A
:4007C00005F08EFF01F05EF8BDE8084000F0E4B93C8CFF1F10B5034CA080E1802280638010BD00BF3C8CFF1F08B5052005F078FF01F092FAFFF7C0FFFFF7AEFC01F09EFC99
:4008000000F02CFC62B601F09BFC04F07DFE0223084AFE21402000F065FE00F0D5FC064801F0C7FA054B01221A700548BDE8084001F0BFBAAC8FFF1FF8000020448CFF1F87
:40084000E8FDFF1F194B10B51C88194B1A88A242184A01D8146007E0596801310A29596004DD116801391160002159601C8049F288041168A1F58443683B9BB2A34201D883
:40088000012300E00023B1F57A5F0370DCBF4FF47A5313604FF6FE731168994203DD4FF6FF71044B1960108810BD00BFB04F0020488CFF1FF880FF1F002303700B70704707
:4008C000054B1B78022B054B04BF01221A7208B100221A72187A7047D58EFF1F488CFF1F19491A4ACB6893420A4602D80133CB6027E00B6918B9012B05D9013B02E0BC2B51
:4009000001D80B331361107D0F4B012809D002D302280ED015E01A697D2A14D901221A7570471A69182A0CD802221A75084A9A6107E09A6912B1013A9A6100E01A750120D5
:400940007047002070477047488CFF1FBF270900F0490200114A002330B51370104B184603F1FA0433F8021F33F8025C491B4139822902D90123137001E09C42F2D1038898
:40098000C32B08DC064BB3F8FA30A3F57C533C3B9BB2C32B01D90123137030BD648CFF1F10DAFF1F0000000038B514461D460AA3D3E9002307F066FC22462B4607F08CFDBA
:4009C00006F04AF80022064B07F05CFC05F0F4FF07F008FF38BD00BFA7E8482EFF211940000090400000000038B514461D460AA3D3E9002307F046FC22462B4607F06CFD6D
:400A000005F092FF0022064B07F03CFC05F0D4FF07F0E8FE38BD00BFA7E8482EFF21194000009040F7B500230093594B0C461A880621B2FBF1F3574E01FB132332889BB257
:400A40008242374612DDB6F8FA5002F58042521B7D33009293FBF1F201FB1233009E00F58040401B06FB0301019148E07588A84206DAAD1A00950099801A01FB030020E072
:400A8000B6F8FA50A8420DDB02F58042521B7D33009293FBF1F201FB1231009E401B06FB01000EE0B6F8F860B0420CDB7C3393FBF1F2AD1B01FB12310095009D801B05FB98
:400AC000010001901BE0822290FBF2F2BE4637F81250A84201DA561E57E0561C3EF81610884252DA1344491B0622009193FBF2F102FB1132009E401B06FB02030193009B3A
:400B00000620584307F058FB06460F46019D284607F052FB32463B46FFF746FF20800098019B03EB400007F047FB32463B46FFF73BFF60800098019B03EB800007F03CFB71
:400B400032463B46FFF730FFA080019807F034FB32463B46FFF748FFE0800098019B03EB400007F029FB32463B46FFF73DFF20810098019B03EB800007F01EFB32463B46EE
:400B8000FFF732FF608103B0F0BD32469FE700BFFC80FF1F10DAFF1F70B52D4C0021204600F0A9FEB4F8FC202A4B2B4C1A80FFF7D1FE2A4E032528462949FFF733FF681C73
:400BC0002849FFF72FFFB4F90E20B4F9021045F3CC031144022291FBF2F1B4F9060026F81310B4F912100835014491FBF2F11E4820F81310B4F90400B4F91010014491FB33
:400C0000F2F11A4820F81310B4F90800B4F91410014491FBF2F1164820F81310B4F90C00B4F91810014491FBF2F1124820F81310B4F90A00B4F91610014491FBF2F20E49F4
:400C400021F8132044F203039D42B4D170BD00BF10DAFF1FFC80FF1F648CFF1F08A9FF1F668CFF1F728CFF1F0CC9FF1F0899FF1F14EBFF1F14DBFF1F08B9FF1FF8B5704CCD
:400C80006F4AE3690133B3F5A27FC3BF0023E361236AE361C4BF01332362236A832B7BDC01215162062193FBF1F201FB1233052B2CD8DFE803F0030910161D244FF4ED73F8
:400CC000A36240F2012311E04FF4ED73A362E36240F2012319E040F201234FF4ED72A36212E040F20123A3624FF4ED73E3620CE040F20123A362E3624FF4ED7305E040F2F4
:400D000001224FF4ED73A362E2622363208D0023228EA18DFFF75EFDE069494DA22840F38D80484BB0F5A27FD3F8C83003F500426B6B1344AA6B6B6302F10101A9637DD181
:400D4000286A7E2290FBF2F502FB1505022291FBF2F2134493FBF1F23B4B1340002BBEBF03F1FF336FEA83436FEA9343374AB8BF013322F81530364A9BB25168994207DD97
:400D80000621536090FBF1F301FB13009560108000236363A363F8BD536A012B4ED140F2DE322B4D114610460023FFF713FDAF68DFF8A0E03A46DFF894C00026D11B7D2A48
:400DC0000B46244806DC3CF8123001262EF811300132F3E706B1AA60AA68DFF870E0561A76000027521A7D2B02EB030109DC06EB4301714431F8FC1C012720F81310013390
:400E0000F1E707B1A9602B880126A0F8FC30A0F8FE60FFF79FFD00210E4800F03BFDFFF7BBFE3046FFF74CFD43F6FF7200236A604FF0FF322362E361AA606362F8BD00BFDD
:400E4000648CFF1FE8FDFF1FFF3F00800CD9FF1FFC80FF1F10DAFF1F2DE9F341494B044693F83C200D466AB1474C00F500721440002CBFBF04F1FF346FEA44546FEA54546F
:400E8000013424B2586ADFF8FC80002876D1FFF717FD3E4E3E493F4F28B93F4B1B7813B998F8003023B14FF4FA7333600B602CE03A4AD8F8403032F91400394A4FF4806E29
:400EC00032F914205A4305FB002292FBFEF202F5FA723260334A32F91400334A32F914205A4305FB002292FBFEF2304802F5FA7230F914000A6043432D4A32F9142005FBB0
:400F0000023393FBFEF303F5FA7332683B60B2F5757F1E4B02DB40F2D33202E0142A01DC15221A600A681A4BB2F5757F02DB40F2D33202E0142A01DC15221A603A68154B67
:400F4000B2F5757F02DB40F2D33202E0142A01DC15221A6000233A8809883088FFF73AFC002302A800F8013DFFF76CFC684340F2412590FBF5F00F4BC3F8800002B0BDE8BA
:400F8000F08100BF648CFF1FFF07008008C9FF1F0CDAFF1F10DBFF1FC38EFF1F08A9FF1F14EBFF1F0CC9FF1F14DBFF1F08B9FF1F0899FF1FB04F002037B5174D174C002383
:400FC0001422D5F81C1104F144008DF8073001F033FF022104F1440001F056FF2B7803B108230DF10700C4F81C31FFF72BFC0C4B1522D3F8B811D4F818314B4340F62C2112
:4010000093FBF1F1D4F81C3153434B4393FBF0F0206403B030BD00BF2092FF1F648CFF1FE8FDFF1F10B5044604F09AFD012005F06DFB2046074B04F1300250F8041B9042A1
:4010400043F8041BF9D1BDE81040034B0121187805F006BA0BFCFF1F6CFCFF1F38B5012005F0C6F80121042004F098F904F03EFD04F04EFD04F066FD012141F6FF734FF498
:401080008042084603F08CFE1F4C204D207005F067FA062302463021287005F07BFA1C4A46F2434192B2287805F086FA2978207805F02AFA0121207805F0D2F903F08EFE5B
:4010C00001214FF4804341F6FF72084603F09CFE104C114D207005F043FA3523FE223021287005F057FA0D4946F2464289B2287805F062FA2978207805F006FA20780121F8
:40110000BDE8384005F0ACB9AAFBFF1F6BFCFF1F6DFCFF1F6CFCFF1FCDFCFF1F0BFCFF1FC37833B9034A01239376034B1B78DBB2D37670471C3900203A8CFF1F014B188883
:40114000704700BF8C8DFF1F09498A88CB8808899BB292B21A4480B28318488980B21844044BC0F38F005883034B1880704700BF9CFDFF1FD0FCFF1F8C8DFF1F38B54FF48F
:40118000804241F6FF730121022003F0D5FD054605F0E6F90446062302460C2105F0FAF9084A44F6106192B2204605F005FA2146284605F0A9F92846BDE83840012105F023
:4011C0004FB900BF9CFDFF1F08B503F087FF05F09FF8FFF7D3FF03F0CDFD044B7D221A7032225A700022DA825A8308BDD0FCFF1F2DE9F84FDDE90CAB42F21079824273EBD1
:401200000104DDF82880334CB9BF4FF0FF364FF0FF3701260027121A63EB0103C4E90401A8FB09010B9DC4E90067C4E902ABC4E9062309FB051152465B46C4F820806562BF
:4012400007F018FB0A220023C4E90A0107F012FB064694E809000F46A0FB090109FB0311454308FB0155A0FB0801324629443B46C4E90C6707F0FEFA82468B460020054678
:4012800002460346014680468146C4E90EAB20646064B04271EB070E0CDA18EB0A0849EB0B0912EB080243EB0903013041F100010125EEE70DB1C4E91023D4E91001064A19
:4012C000002307F0D7FAC4E9100100200021BDE8F88F00BFA08DFF1F8096980030B50D4604460849C1E91C23121A63EB050392185B41C1E91823DDE90323C1E91A45C1E918
:40130000162330BDA08DFF1F2DE9F04FDFF888818BB00024DDE916AB0025BAF10B0FC8E91245DDE91467C8F85040C8F878407BF10004CDE90801CDE90423444613DA022E73
:4013400077F100044FF0010404DAC8E92023C8F8784005E0CDE90067FFF7C0FFC8F850403046394694E0002E77F1000302DA764267EB4707DDE90423CDE902ABDDE9080117
:4013800000960197FFF734FFD4E90689B8F1000F79F100033D4603DAD8F1000869EB4909D4E91023002A73F10001CDE9068902DA524263EB4303901843EB0301804579EBC3
:4013C000010125DA0AFB09F3AAFB080108FB0B33194406F029FF05F087FB07F0ABFADDE904230090019106460D46DDE90801CDE902ABFFF7FDFEA269002AB8BF5242104607
:40140000D117226CCDE90601002AB8BF5242D31742F2107EDDE9060192185B41801A61EB03010B460246A0FB0E01C4E932230EFB031132462B4607F01DFA4FF47A73A0FB77
:40144000038903FB019942F2107200234046494607F010FA002871F100030F4F02DBC7E9340103E000220023C7E93423D4E90C67D4E9340180197941C4E92E0180197941D9
:4014800000220023C4E92C67C4E93001C4E922230BB0BDE8F08F00BFA08DFF1F0A494FF47A700B8801339BB2B3FBF0F200FB12339BB2B3F5F97F0B8088BFC31A4B804B88D0
:4014C0005B080B71704700BF808EFF1F044BC0F1FA001B798342D4BF00200120704700BF808EFF1F182B10B50AD8064CA3600123207023736170632362602361002010BD8F
:40150000012010BD888EFF1F014B01221A757047888EFF1F70B5344C344AE38A0133E382138813B1013B138070BD237B002B59D0226922B9237D012B04BF2275236126698B
:40154000294D012E10D10023EB8204F00DFA04F031FA04F019FA29460223324611F8010B04F02EF9022311E0022E17D104F0E6F9860713D501060BD404F0F6F92946012326
:401580002A7A11F8180B04F079F903232B6170BD00232B612B8E01332B8670BD2369124D032B16D104F0CAF9C20712D503060AD4002305F11801A268934207D2585C6A68DE
:4015C000D0540133F7E72B8E01332B860023236170BDE28A044B092A04D900221A611A8E01321A8670BD00BF888EFF1F0881FF1F38B5094CFFF71EF800F0BCFD2378074DB3
:4016000023B100232B70237000F0C4FD2B780BB10123237038BD00BFBC8EFF1FF48FFF1F08B50F4BD3F8FC0100F08AF9FEF7F4FFA0B100F0A1F90B4B0B49C0B21870B1F89F
:401640009C200A4B02F0FC021B78104300F0FB0003F0010340EA8300A1F89C0008BD00BF2092FF1FD58EFF1FB04F0020648CFF1F08B500F045FC03F041FDBDE80840FFF7BB
:4016800063BD000038B5FFF709FF0C4C0C20FFF71DFF03F0D7FB6388084DB3F57A7F98BF013305F1040105F1050098BF6380FFF703F9A3790BB10023AB7138BDBC8EFF1FC2
:4016C0000020FEF797BE000010B5114B1A78F2B9104C2378022B06D1D4F82412D4F82802FEF79CFD04E0042B02D11046FEF74CFE217811B90846FEF7ADFF074BDB7933B14A
:40170000002121700846BDE81040FEF7A3BF10BDD68EFF1F2092FF1FBC8EFF1F30B5124BC1B01B78F3B1114C114DA3682A8801339A42A36016DC4FF480720021684607F074
:40174000E4FA0C4B0C491B8868468DF800300B4B1A680C2353430A4AD3589847A3682A889B1AA36041B030BD3490FF1FBC8EFF1FB48AFF1F3690FF1FB68AFF1FB08AFF1F4B
:40178000F809002008B53221034801F07DFBBDE80840FFF711BC00BF4893FF1F10B5084C2378DB0706D5FFF769FA064B1B681BB9237001E002F03AFDBDE81040FEF71CBF08
:4017C000D68EFF1F888CFF1F10B5114C02F0A0FBA01D00F05FFC00F09DFCA079FFF780F80C4BE0711A780C4B52B919780339012906D8D3F8FC11D3F82001FEF777FD02E0EE
:401800000022C3F80822BDE81040FFF783BE00BFBC8EFF1FD68EFF1F2092FF1F034B187B80F00100187303F01FBE00BFBC8EFF1F0022134610B54FF0FF31845C64B29C42A5
:40184000C4BF51B2835C01320A2AF6D14A1C1DBF03F00F0343EA011080B2002010BD000008B5FFF751FE0548FFF7E2FF044A92F89C3043EA0020A2F89C0008BD2F8CFF1F46
:40188000B04F002008B504F0DCF9BDE80840052004F03CBFF0B50C4685B0064610220021684607F032FA24B1012C22D13C25142701E02746132504F0DAF93C46AC4218D2AE
:4018C000E21B06EB0212002332F8130004A901EB430101334FEA102E082B01F810EC01F80F0CF1D1E1B26846013404F0C5F9A4B2E4E705B0F0BD2DE9F843804629B101293A
:401900001BD14FF4F079A02502E00D464FF098092C464C4511D26600B6B2304604F093F90746701C80B204F08EF9631B40EA0720013428F81300A4B2EBE7BDE8F883000086
:401940000A4910B50B680C24013393FBF4F204FB12330B604BB9064A1378072B03F1010111709CBF034A22F8130010BD0C81FF1FCC8EFF1FB0FDFF1F00221346184830F939
:40198000131001330029B8BF4942082B0A44F6D19212144BFF2A1448A8BFFF2230F812005A680021024444F60410824285BFA2F59242043A59605A605A6819706421514314
:4019C0000A48B1FBF0F11972094B9A4205D90138824294BF0120022070470020704700BFB0FDFF1FCC8EFF1F388D000020A61B007F1E1600014B187A704700BFCC8EFF1F27
:401A0000014B1878704700BFD68EFF1F012807D0C30704D402288CBF00200120704700207047000038B54FF4804241F6FF730121022004F09FFA0E4C0E4D207004F090FDBA
:401A4000062319460246287004F0A4FD0A4A45F6A23192B2287804F0AFFD2978207804F053FD20780121BDE8384004F0F9BC00BFE6FDFF1FC0FDFF1FC2FDFF1F08B504F05D
:401A800067FA04F00DFA04F0D5F904F0C3FC012004F026FEFFF7C6FF04F08AFABDE80840012004F01DBE00006149624BB1F90020B1F90200B1F904102DE9F04F1A805880BA
:401AC00099805D4B5D4C1E685D689F685C4BD4F8B0B11B78002BD4F8BC31D4F8B0A1D4F8BC81D4F8B091D4F8BCE16FF03B0404FB0BF44FF47A7B94FBFBF414BF4FF4805CFF
:401B00004FF0000C63441C444E4B04F580442340002BBEBF03F1FF336FEA83436FEA9343494CB8BF0133DB1034F913406FF063039AFBF3FAE044D044424B08F5804808EA10
:401B40000303002BBEBF03F1FF336FEA83436FEA9343DFF8FC80B8BF0133DB1038F913806FF06D0303FB09F94FF47A7399FBF3F9E644CE44334B0EF5804E0EEA0303002B63
:401B8000BEBF03F1FF336FEA83436FEA9343DFF8C4E0B8BF0133DB103EF913E0264B4FF0000CC3F80CC0C3F810C004F5F07CBCF5707F06D9C01B800290FBF4F40120DC601A
:401BC000186108F5F070B0F5707F09D9891B890291FBF8F8D9684144D9601969013119610EF5F071B1F5707F09D9521B920292FBFEF2DD682A44DA601A6901321A611969C8
:401C00000D4C002908DDE0686FF01702504390FBF1F0C117C4E90601BDE8F04F0B4899693222C0F81C1100F5947001F005B900BFC2FDFF1FD4FDFF1FD88EFF1FE8FDFF1FC6
:401C4000A08CFF1FFF3F008008A9FF1F2092FF1F0CC9FF1F0899FF1F124B70B5124C596AB4F904001A6A0844B4F90060D96AB4F90240551C9A6A0C440221164495FBF1F2F3
:401C80005862DC6210441444324494FBF5F490FBF5F092FBF5F21D629E629C6018605A6070BD00BFD88EFF1FD4FDFF1F2DE9F0410021804601F0DBF80746084E1C240025A8
:401CC0002146404601F0D3F856F8043FC01B073C03FB0055F4D16800BDE8F0816C8AFF1F2DE9F0410021804601F0C1F8002407462546084EC4F10401404601F0B8F856F8A9
:401D000024300134C01B042C03FB0055F2D12846BDE8F081848AFF1F08B503F0D9FE054B4FF4404208201A8003F074FEBDE8084003F06ABF388FFF1F10B5044640F4804095
:401D400006F0E8FD10B144F4404003E0C4F30E0444F48040044B00241880044B9C7003F065FE204610BD00BFE8000020388FFF1FD0B5A0F1080100F1500400260027E1E955
:401D80000267A1424FF000024FF00003F7D1C0E91623C0E91823C0E91A23C0E91C2300238367C367C0F88030C0F88430C0F88830D0BD38B50446002501F02AF804F1D800B4
:401DC00001F026F804F5E870C4F8B051C4F8B451C4F8B851C4F8BC51C4F8C051C4F8C451C4F8C851FFF7C4FF04F51870FFF7C0FF42F21073C4F8F052C4F8FC32C4F8F45274
:401E0000C4F8F85238BD0000F8B53A4C0D46D4E91623134318BF0123D1F8BC2118BF84F86030354B821A9A42D1F8C83104DA94F860205AB1013307E041F288318A4205DDED
:401E400094F8602012B1013BC5F8C831D5F8C82100270A23C5F8BC01236700EB82309E463E463A463B46C117A766E76605F5087CBEF1000F09D07CE902679219CCE90267AF
:401E80007B410EF1FF3E0126F2E70EB1C4E91A2305F5E873C3E90001D4E91A2380185941C4E91A01154A0A23013B72E90267C2E90267F9D123670B22002306F0DBFCD4E9BD
:401EC0000A23821A61EB0303002AC4E9020173F10004C5F8D80202DA033243F10003920842EA8372C5F8E022A5F8EC02A5F8EE22F8BD00BF388FFF1F78ECFFFF908FFF1FFC
:401F0000054B064993F8740093F8753003F03F0303EB8010FFF778BF388FFF1FF8000020D1F8B021422353434FF47A7293FBF2F3C1F8BC011844084B00F580400340002B77
:401F4000BFBF03F1FF336FEA83436FEA93430133C1F8C031704700BFFF3F00802DE9F8430446D0F8BC51DFF878E01C4ADEE92001EF17281A67EB01014FF0FF33904271EB35
:401F800003032E46D4F8C83101DA013308E041F288384FF00009804579EB010202DA013BC4F8C831D4F8C811022205EB81312046CEE9206700F040FF2046FFF791FE4FF44B
:401FC0007A7390FBF3F0D4F8C830C4F8B001C4F8B431C4F8B801BDE8F88300BF78ECFFFF388FFF1F30B51D4C87B0A4F59C7303931B4B1C4D02931C4B002201931B4B0494D7
:402000000093114628461A4B00F023FA04F59C63049304F56A730393164B05F168000293154B00220193154B02210093144B00F010FA04F51C630493124B04F6880402937B
:40204000114B03940193114B002200930421104B05F1D00000F0FDF907B030BDB41F0020A81000201C390020103300201E3B0020DC170020AC1C0020C43600208C2F0020EC
:40208000E0140020441A00202E3600206C3400201010002070B51A4D06466B7903F0FF045BB100236B71174800F084FA831E5C425C41154B187804F0E9F995F86D305BB1A8
:4020C0000F4B002283F86D20104800F073FA022814BF2046601CC4B295F8D5305BB1084B002283F8D5200A4800F064FA022814BF2046601CC4B20CB10123337070BD00BF6A
:402100001C3900207C1E0020AAFBFF1F5C2300203C28002010B5074CA37E012B08D1064890F83E1100F23F10FEF77CFF0023A37610BD00BF1C3900207C1E002004F042B891
:4021400038B5002421460A4AA1540134072C084D4FF00003F8D1EB712B726B7203F02EF82A462146BDE838400A2003F035B800BFF803002010B5054C19232372044BB3F82E
:402180009C30E371FFF736FC607210BDF8030020B04F002013B50E4C0E4B627802A91A70032221F8022DA27820465A7000F029F8094B00225A809A80DA80BDF80620188075
:4021C000A15C013292B2A25C19729A8102B010BDF8030020F28FFF1FB04F00207047137803700B7883704B78C3707047138810B5040ACC54138819444870138802331380F6
:4022000010BD10B50B88C45C18444278023302EB04200B8080B210BD138810B5040ECC541388040C0B445C701388040A0B449C7013881944C87013880433138010BD30B5D0
:402240000C880319055DDA78587802EB056202EB0042987804340C8002EB002030BD0000F8B50C4607461646AA213022204606F04CFD00223D46104602234FF0E90CE91B17
:402280008E4209D802332F2B28D930220021204606F03BFD0020F8BD2F2BF3D815F8011B01F1130E5FFA8EFEBEF1010F01D9E9290FD104F803C015F8011C04EB030E013313
:4022C000E1549EF800E0013072440A4402F0FF0202E00A44E154D2B20133D0E70E4D8319A979E8700131D8B22F2B6E70A870A97106D930220021204606F007FD002009E0E5
:40230000ED212A716070217003301C44EE23A270E370C0B26871F8BDF88FFF1F2DE9F74F06460F46924600F0B8FA8146A0F1040B4FF0FF34A3454EDD621C92B2ED2130463C
:4023400000F0D8F9431C044645D08345F2DB1FFA80F808F1010189B2304600F0BAF9E31C034499450546E5DD9BB219463046009300F0AFF9EE28009BDCD1013B9BB208F10B
:4023800002011A4689B23046019300F0DCF9019B00901946304600F09CF9009A8242C9D12B1D39462C449BB242463046013500F0FDF90434791C00232F440022B9420BD039
:4023C00011F8010FE92800D11AB10AF803000133F3E70122F2E70024A0B203B0BDE8F08F037830B58B7043780BB9012300E002230B710369CA1D03F1300453F8045BA34232
:4024000042F8045BF9D1C3689D3103F1300253F8040B934241F8040BF9D130BD10B54478C16202630378C1F83401C2F8340134B90120087107208B70C870022105E0022080
:40244000087107208B70C870012111719070D37010BD2DE9F8430446A360089B0025962709A890E84103E3602170627029463A46A57025716571206106F047FC3A46294686
:40248000E06806F042FC304600F0D6F86661257665764A4641462046BDE8F843FFF7BEBF70B5144606460D461A460021204606F02CFC2670657070BD027843789A4205D2BC
:4024C000C07800F0010080F00100704706D9C37813F0010F14BF0320022070470320704770B5054600790E46A8B101382871EA6829696869FFF712FF60B10146686900F078
:4025000082F9044631462846FFF76AFFE0B2B0FA80F04009C0B270BD70B544780CB9002070BD01F005FD844201D1012070BD01F0FBFC8442F9D001F007FD844236D001F009
:40254000F7FC844234D30025002001F011FDEEB2864209D23146002001F0FCFC844205F10105F1D1022070BD0025012001F000FDEEB2864209D23146012001F0EBFC844214
:4025800005F10105F1D1032070BD0025022001F0EFFCEEB28642C2D23146022001F0DAFC844205F10105F1D1042070BD062070BD072070BDF7B5837800F19D0790F8A0604E
:4025C0000546002438468DF805408DF80430FFF7A3FF012815D10723EB703846FFF76CFF022821D8124A73081370507003EB4303104A034452F82330384601A99847022088
:4026000013E0022801D1EC700EE0032801D1012302E0042802D10523EB7005E0841F012C94BF0020012000E0204603B0F0BD00BF0890FF1FF80900204FF0FF33C0F8C43139
:402640000023C0F8C831C0F8CC31421E00F2C11002F8013F8242FBD17047B2F5E17FF8B504460F46164632D8D0F8C851AB18B3F5E17F284408DDC5F5E175ADB22A4606F0A2
:4026800039FB2046721B791906F034FBD4F8C4314FF4E171002BBCBF0023C4F8C431D4F8C831F21892FBF1F301FB1323D4F8CC21C4F8C83116448E42D9BF0020C4F8CC61C1
:4026C000C4F8CC11C4F8C431C8BF0220F8BD0120F8BDD0F8CC319942BFBFD0F8C4314FF4E172C91891FBF2F3BABF02FB1311405C0020704770B5D0F8CC51AA421EDAD0F8D6
:40270000C44113190444B3F5E17F08DAA65C8E4217D00132954203F10103F4D12A464FF4E17693FBF6F406FB14339B1A1844AA4204DA835C8B4204D00132F8E74FF0FF3011
:4027400070BD104670BDD0F8CC3130B599422BDA934229DB531A002B26DDD0F8C43119441A444418002391420BDB4FF4E17592FBF5F405FB142291FBF5F405FB14110144D7
:4027800008E0B1F5E17FF0DA14F8015B01312B44DBB2E8E70C1AA24204DD11F8014B2344DBB2F7E7184630BD002030BDF8B50E461F46054628B321B3D0F8CC11D3188B42D5
:4027C0001FDCD0F8C4314FF4E1741A4492FBF4F104FB1124A1B2CB19B3F5E17F01440ADDC4F5E174A4B22246304606F083FA3A1B2946301901E03A46304606F07BFA0020F6
:40280000F8BD0120F8BDB1F5E17FF8B5044606D8D0F8CC71B942D4BF0027012700E00227D4F8C421B1F5E17F28BF4FF4E171002A0D4630DB5318B3F5E17F04EB02000ADD41
:40284000C2F5E17296B23246002106F05EFAAA1B0021204601E00A46002106F056FAD4F8CC315B1B002BC4F8CC3109DC4FF0FF33C4F8C4310023C4F8C831C4F8CC310AE096
:40288000D4F8C4110D444FF4E17195FBF1F301FB1355C4F8C4513846F8BDD0F8CC0170477047000013B5012302A921F8023D0478FFF7C5FC024B043443F8240002B010BD2D
:4028C0004440002037B50D4604460A46014601A8FFF785FC6B78054A8DF8053001A9044B201DFFF7DFFF03B030BD00BFD04C00201C90FF1F73B5002302AC24F8023D2146DE
:402900000646FFF79CFC094D214628603046FFF796FC214668603046FFF791FC2146A8603046FFF78CFCE86002B070BD4440002037B50D4604460A46014601A8FFF74FFC1A
:402940006B78054A8DF8053001A9044B201DFFF7D1FF03B030BD00BFD04C00201C90FF1F0D4B0E4AC3F808210D4AC3F810210D4AC3F814210C4AC3F81C210C4AC3F8182154
:402980000B4B0C4AC3F814210B4AC3F81C210B4AC3F81821704700BFF8090020892A0000A1280000492B000031290000C528000004040020292B0000F5280000A5280000B1
:4029C000F7B50446002502AE1F46162326F8025D0B7002231370014632462846FFF706FC324621462846FFF701FC324621462846FFF7FCFB324621462846FFF7F7FB324682
:402A000021462846FFF7F2FB324621462846FFF7EDFBFEF793FB32462146FFF7E7FB2846FDF730FB3246214680B2FFF7DFFB0120FDF728FB3246214680B2FFF7D7FB104B9F
:402A400032465B6A21461868FFF7E6FB0D4B32462146D3F81C01FFF7DFFBBDF80620531C9BB2A554D11CE554931C9BB289B2E5546554111D89B2053265543A8003B0F0BD1A
:402A8000D04400202092FF1F2DE9F043804689460D4F0E4E0E4D0F4C85B03B46324629462046FFF78DFF01203B88029098F80000327800902978CDF80490204600F084FA33
:402AC00005B0BDE8F08300BF1C90FF1F1E90FF1F1F90FF1FD04C0020F7B5064602AC1F46002324F8023D17230B700E4D02231370014622462868FFF78FFB224631466868FC
:402B0000FFF78AFB22463146A868FFF785FB22463146E868FFF780FBBDF806303B8003B0F0BD00BF4440002007B51046002200920349044AFFF7D0FF03B05DF804FB00BFC1
:402B40001F90FF1F1E90FF1FF0B50D46044687B00A46014605A8FFF742FB0D4F6B780D4E8DF8153032463B4605A9201DFFF7DCFF094A0A4901203B881278097802902078F4
:402B800001950090304600F01FFA07B0F0BD00BF1C90FF1FD04C00201E90FF1F1F90FF1F704700000279084BDA7142791A7282795A72C2799A72027ADA72427A1A73827A7C
:402BC0005A73C27A9A737047F43B0020F0B50B4B3D251D700A4B02220A4C0B4F1A7085B0002601233B80267002960191017820460091294600F0E8F905B0F0BD1F90FF1F43
:402C00001E90FF1FD04C00201C90FF1F70470000084B094AC3F8DC22084AC3F8E022084AC3F8E422074AC3F82423074AC3F82C23704700BFF8090020CD2B00000D2C000014
:402C4000A12B0000852C0000A52B000010B543240C70022111700A4AD1790170117A4170517A8170917AC170D17A0171117B4171517B8171927BC27108221A8010BD00BF2F
:402C8000F43B00202DE9F043804689460D4F0E4E0E4D0F4C85B03B46324629462046FFF7D5FF01203B88029098F80000327800902978CDF80490204600F086F905B0BDE843
:402CC000F08300BF1C90FF1F1E90FF1F1F90FF1FD04C00207047000030B50A4B29241C70094B0222094D1A7000232B8085B0012502950191017806480091214600F064F983
:402D000005B030BD1F90FF1F1E90FF1F1C90FF1FD04C002007B5042302A921F8023DFFF78EFA03B05DF804FB70477047094B0A4AC3F8EC21094AC3F8F021094AC3F8F421C7
:402D4000084AC3F80422084AC3F80822074AC3F80C227047F8090020D92C00002B2D0000292D0000992D0000152D0000D52C000037B51D4602AC002324F8023D2B230B70D7
:402D800002231370014622460698FFF745FABDF806302B8003B030BD2DE9F043804689460E4F0F4E0F4D104C85B00023009332463B4629462046FFF7DBFF01203B88029064
:402DC00098F80000327800902978CDF80490204600F0FAF805B0BDE8F08300BF1C90FF1F1E90FF1F1F90FF1FD04C0020054A064B536204339362054B00221A615A619A6178
:402E0000DA617047D04400209CFFFF1F444000200023194640F823100133322B4FF00002F8D10449C0F8CC200B60C0F8C820C0F8D02070470C90FF1FD0F8CC3030B5013395
:402E4000322593FBF5F405FB14339A1A2A44C0F8C81040F82310C0F8CC3092FBF5F305FB132250F82230C91AC0F8D01030BDD0F8CC303222591A323191FBF2F302FB131140
:402E800050F82100704700000023F0B51E461C460F4A3227536013725D1C8B42EDB20DDAD0F8CC40E31A323393FBF7F407FB143350F8233001241E442B46EDE70CB113720D
:402EC0005660536893FBF1F1C0F8D410F0BD00BF0C90FF1F00221A807047704770B540F2F456144D1449154C154A0023581959511A514160816018190C33B34242608260D2
:402F0000F4D1FFF785FE00F05BF900F00DFB00F0CBFD00F0B9FEFFF723FD00F0D3FEFFF705FF00F06DFC00F019FDBDE8704001F029B900BFF8090020DB2E0000040400204F
:402F4000D52E00002DE9F0419046079E0D461C46074600F0EDFF042332469DF81810FFF79FFA01239845B37002D19D401D4303E0B8F1020F0DD16D00202C28BF2024F570CB
:402F800022463946301D05F0B5FE201D80B2BDE8F0814FF48060FFF721F90020BDE8F08130B58DB09DF8405003AC01940095FFF7C9FF1399C2B22046FFF752F9129B3022A3
:402FC0001A800DB030BD00002DE9F0470D46914686B006AC4FF0000E24F802ED0F9FDFF8648002949DF8384001970094CDF80C809DF84060FFF7D4FF3F784FF41C747C4306
:40300000DFF844A004F59C7454444146BDF81620E01D05F06FFE4FF41C7303FB07A76900B9F1010F08BF41F00101C9B287F83D11204616B900F065FF01E000F063FF06B00E
:40304000BDE8F087A04C00207C1E0020704700210079FDF721B800007FB50B4A50250B4C0B4B1570022222701B780A4C0A4E237001233380029301910178204600912946B9
:40308000FFF7A2FF04B070BD1F90FF1F1E90FF1F2092FF1FD04C00201C90FF1F37B5054602AC042324F8023D2146FFF7C8F821462846FFF7C4F8044B1A78032A08BFC3F88E
:4030C000200103B030BD00BF2092FF1F37B5054602AC042324F8023D2146FFF7B0F821462846FFF7ACF803B030BD07B5042302A921F8023DFFF7A3F803B05DF804FB000087
:40310000F7B50546042302AC24F8023D2146FFF796F821462846FFF792F821462846FFF78EF8214606462846FFF789F8214607462846FFF784F8094B1A78C3F83062022A4C
:40314000C3F83472C3F8380202D1C3F8286203E0042A08BFC3F8686203B0F0BD2092FF1F37B5054602AC042324F8023D2146FFF766F821462846FFF762F821462846FFF742
:403180005EF821462846FFF75AF821462846FFF756F803B030BD000007B5042302A921F8023DFFF74CF8054B1B78012B02D10021FDF750FA03B05DF804FB00BF2092FF1FEC
:4031C000124B134AC3F8C023124AC3F8C423124AC3F8C823114AC3F8FC23114AC3F80024104AC3F80424104AC3F814240F4AC3F818240F4AC3F81C240E4AC3F808240E4A43
:40320000C3F80C240D4AC3F810247047F8090020593000004F3000004D3000000D33000099310000EB300000B93300000131000061310000813200009D300000CD300000AE
:40324000F7B5064602AC1F46002324F8023D56230B700A4D0223137001462246D5F81C01FEF7DAFF22463146D5F82001FEF7D4FFBDF806303B8003B0F0BD00BF2092FF1F41
:403280002DE9F043804689460F4B104F104E114D114CD3F8583185B0009332463B4629462046FFF7CDFF01203B88029098F80000327800902978CDF804902046FFF784FE9A
:4032C00005B0BDE8F08300BFD04400201C90FF1F1E90FF1F1F90FF1FD04C002037B51D4602AC002324F8023D55230B7002231370054B01462246D86BFEF78EFFBDF80630AA
:403300002B8003B030BD00BFD04400202DE9F043804689460E4B0F4F0F4E104D104CDB6B85B0009332463B4629462046FFF7D6FF01203B88029098F800003278009029781C
:40334000CDF804902046FFF73FFE05B0BDE8F083D04400201C90FF1F1E90FF1F1F90FF1FD04C002073B5054602AC1E46002324F8023D57230B7002231370014622460698CE
:40338000FEF74AFF224629460798FEF745FF224629460898FEF740FF224629460998FEF73BFF224629460A98FEF736FFBDF80630338002B070BD00002DE9F04380468946D0
:4033C000154B87B0D3F83822144F0492D3F83422134E0392D3F83022124D0292D3F82C22114C0192D3F824323246009329463B462046FFF7B7FF01203B88029098F80000B4
:40340000327800902978CDF804902046FFF7DCFD07B0BDE8F08300BF2092FF1F1C90FF1F1E90FF1F1F90FF1FD04C0020F7B5042302AC24F8023D21460546FEF7E2FE21465C
:4034400007462846FEF7DDFE214606462846FEF7D8FE064B0022A3F81071A3F81261A3F81401C3F8082203B0F0BD00BF2092FF1FF7B5042302AC24F8023D21460546FEF731
:40348000C0FE214607462846FEF7BBFE214606462846FEF7B6FE064B0022A3F81872A3F81A62A3F81C02C3F8442203B0F0BD00BF2092FF1FF7B5042302AC24F8023D2146F9
:4034C0000546FEF79EFE214607462846FEF799FE214606462846FEF794FE064B0022A3F85872A3F85A62A3F85C02C3F8502303B0F0BD00BF2092FF1F37B5054602AC042349
:4035000024F8023D2146FEF77CFE21462846FEF778FE21462846FEF774FE03B030BDFFF7EBBFFFF7E9BF00000E4B0F4AC3F8D8230E4AC3F8DC230E4AC3F8E0230D4AC3F85E
:40354000E4230D4AC3F8E8230C4AC3F8EC230C4AC3F8F0230B4AC3F8F4230B4AC3F8F823704700BFF8090020D13500002D340000233500007D360000713400001F3500008F
:4035800029370000B5340000F934000073B5054602AC1E46002324F8023D52230B700223137001462246BDF81800FEF71FFE22462946BDF81C00FEF719FE22462946BDF82C
:4035C0002000FEF713FEBDF80630338002B070BD2DE9F04380468946124B85B0B3F91421114F0292B3F91221104E0192104D114CB3F910313246009329463B462046FFF715
:40360000C5FF01203B88029098F80000327800902978CDF804902046FFF7D6FC05B0BDE8F08300BF2092FF1F1C90FF1F1E90FF1F1F90FF1FD04C002073B5054602AC1E46DE
:40364000002324F8023D53230B700223137001462246BDF81800FEF7C9FD22462946BDF81C00FEF7C3FD22462946BDF82000FEF7BDFDBDF80630338002B070BD2DE9F0437E
:4036800080468946124B85B0B3F91C22114F0292B3F91A22104E0192104D114CB3F918323246009329463B462046FFF7C5FF01203B88029098F80000327800902978CDF8BB
:4036C00004902046FFF780FC05B0BDE8F08300BF2092FF1F1C90FF1F1E90FF1F1F90FF1FD04C002073B5054602AC1E46002324F8023D54230B700223137001462246BDF862
:403700001800FEF773FD22462946BDF81C00FEF76DFD22462946BDF82000FEF767FDBDF80630338002B070BD2DE9F04380468946124B85B0B3F95C22114F0292B3F95A22CD
:40374000104E0192104D114CB3F958323246009329463B462046FFF7C5FF01203B88029098F80000327800902978CDF804902046FFF72AFC05B0BDE8F08300BF2092FF1F35
:403780001C90FF1F1E90FF1F1F90FF1FD04C0020034B82781A705A6801325A60704700BF2090FF1F034B41789A7A1972521A5A72704700BF2090FF1F13B504460A460146DA
:4037C00001A8FEF70CFD044BA2791A705A6801325A6002B010BD00BF2090FF1F13B504460A46014601A8FEF7FAFC044B61799A7A1972521A5A7202B010BD00BF2090FF1F2A
:40380000074B084A9A61084ADA61084A1A62084B084A9A61084ADA61084A1A62704700BFF8090020F9380000B9370000DD37000004040020AD38000091370000A537000016
:4038400070B502240C701D4614709DF810309DF818209DF81C6003704270F3B1104A46B11478104984702246033005F043FA033413E09DF814400A26202C28BF2024847079
:403880000948147001780334013191FBF6F306FB1311D36801700133D3602C8070BD00BF2090FF1FF44C0020AC8AFF1FF0B51C46154682780E4B302A87B0067828BF30228D
:4038C0004778C11C0B481A7005F014FA002301222380039201930297009623460DF117020DF116012846FFF7ABFF07B0F0BD00BF2090FF1FF44C0020F0B504460E4687B09D
:403900000D4F0E4D0A46014605A8FEF768FC3B462A4605A9201DFFF7C9FF094A094901203B881278097802902078019600902846FFF74AFB07B0F0BD1C90FF1FD04C0020A1
:403940001E90FF1F1F90FF1F704707B50A46014601A8FEF744FC03B05DF804FB0A4B0B4AC3F844240A4AC3F848240A4AC3F84C24094B0A4AC3F84424094AC3F84824094A60
:40398000C3F84C24704700BFF8090020093A0000653A00004B39000004040020E1390000613A000049390000F8B505460778FEF727F8094C064668B93846FEF727F848B1A8
:4039C0002078064B3843012220701A7031462878FCF762FB2078F8BDD68EFF1FD78EFF1F38B515461C46FFF7DFFF054B5B221A70044B02221A7028700123238038BD00BF88
:403A00001F90FF1F1E90FF1FF0B50D46044687B00A46014605A8FEF7E2FB0D4F6B780D4E8DF8153032463B4605A9201DFFF7D8FF094A0A4901203B8812780978029020788A
:403A4000019500903046FFF7BFFA07B0F0BD00BF1C90FF1FD04C00201E90FF1F1F90FF1FFFF7A2BF37B50D4604460A46014601A8FEF7B5FB6B78201D8DF80530FFF794FF11
:403A800003B030BD7047000013B5052302A921F8023D0479FEF7D3FB024B03EB8403D86202B010BDE091FF1F054B064AC3F83824054AC3F83C24054AC3F84024704700BF6D
:403AC000F80900206D3B0000893A0000853A0000F7B505461F465A23224E0B709DF82000022302AC1370012324F8023D287006EB800022462946C06AFEF78EFB22462946CE
:403B00007068FEF789FB22462946B068FEF784FB22462946F068FEF77FFB22462946308AFEF764FBFCF75EFCFCF74AFC22462946708BFEF75BFB0C4B2246B3F81C012946B5
:403B4000FEF754FB22462946F069FEF765FB22462946306AFEF760FBBDF806303B8003B0F0BD00BFE091FF1F2092FF1F2DE9F043804689460E4F0F4E0F4D104C85B00023EF
:403B8000009332463B4629462046FFF7A1FF01203B88029098F80000327800902978CDF804902046FFF710FA05B0BDE8F08300BF1C90FF1F1E90FF1F1F90FF1FD04C002043
:403BC00073B5037884788DF80730214BB4B19DF807201A78002A38D11E4A9DF807604578C478166095808D7800795D8009789171194A1480508001221A7026E01978154AE8
:403C0000154821B19DF807501668AE420CD04FF0FF31116043F2390107249180002159809471018041800FE09DF80750FF2DEED04FF0FF35156043F23905958007255C8016
:403C40009571048044800139197002B070BD00BF3490FF1FB08AFF1F044F0020704737B50D4604460A46014601A8FEF7B8FA6B7801A98DF8053000231A46201DFFF7A0FF25
:403C800003B030BD70470000074B084AC3F85024074AC3F85424074AC3F85824064A074BC3F85424704700BFF8090020853C00005F3C00005D3C0000C13B00000404002049
:403CC00070470000054B064AC3F85C24054AC3F86024054AC3F8642400F012B904040020AD3D0000D53D0000C13C00002DE9F341012305460E46ADF8063002706AB302239A
:403D0000ADF8063000F012F9BDF806406870631CADF8063000F008F9BDF8063002AF5A1C27F8022DDFF8788003222855EA54002458F824003A4629460134FEF76DFA032C39
:403D4000F6D1BDF80640631CADF8063000F0F0F8BDF80630285533801CE0104FDFF844E0DFF844C001303B681B889A4210DA94000023DEF80010895C8B4206DADCF80010B3
:403D80000959C95CC1540133F3E708440132EAE7401B308002B0BDE8F08100BFC88AFF1F084F0020C08AFF1FC48AFF1F30B415460278AA2A0CBF0122002204D104480024DA
:403DC000046044608460284630BC1946FFF78EBF084F00202DE9F347804614461D4602AF012390F80090DFF8B0A027F8023D0026F3B24B4502D3284A002111E0032E07D063
:403E000039464046FEF71BFA4AF826000136EFE7224B214E1B684FF0010E1879034606E0032BF5D0581C42F82310C3B2F8E75F2B0DD85F0903F01F020EFA02F156F82720EE
:403E4000013322EA010246F82720DBB2EFE7144B114E196800224FF0010CD3B283420FD251F8227057B95F0903F01F030CFA03FE56F8273023EA0E0346F827300132ECE772
:403E8000054800F00FF8012229462046FFF72EFF02B0BDE8F08700BF084F0020CC8AFF1FB88AFF1F114B2DE9F04193E8300000231A46DFF840E0DFF840C0DFF8408001276D
:403EC000066807FA02F1314209D054F822104EF82310A95C58F821100CF8031001330132052AEDD1024A1380BDE8F081B88AFF1F3C90FF1F5C4F0020144F0020388F0000D8
:403F000070477047C3780BB9FDF70AB97047000010B5034C03492046FEF7E2FA607110BD1C3900207C1E00200120704702207047014B1878704700BF088BFF1F014B1870BA
:403F4000704700BF088BFF1F014B5878704700BF088BFF1F08B9044B02E0012802D1034B585C704700207047704F0020704F00200020704710B51C467E230B7002211170DD
:403F800000F8011B034A1B2100F078F90130208010BD00BF5090FF1F2DE9FF41044688461B220E49043000F091F9A0B90C4F0D4E0D4D3B46324629460C48FFF7DBFF0120E2
:403FC0003B8802902078327800902978CDF804800648FEF7F9FF04B0BDE8F0815090FF1F1C90FF1F1E90FF1F1F90FF1FD04C00202DE9F04F7E240C70022111700022164679
:404000001446DFF86CC0DFF86C800270164D655D072D06D8154F57F82550012DB8BF012500E001251CF80470AFB18E46B71A05EB020A07EB080B07EB0209B9F13B0F0ADC59
:404040001BF8029001320131924589B200F80E9001D08E46EFE701341B2C2E44D6D142701980BDE8F08F00BF818F0000388F00005090FF1F704F0020F8B59DF818500446A8
:404080001A2D1F461CD87E230B7002231370012303700C4B0C4E5B5D4570837056F8250004F03BFE0022E07080B2111D824289B205DA56F825309B5C01326354F5E739808B
:4040C000F8BD00BF818F00000C8BFF1F2DE9F041027986B0012A044688461F4D1F4E204F25D14379FF2B0CD17E232B70022333701C4B1A701B225A703C229A7003233B8006
:404100001BE01A2B19D8012B059203D1059A02EB420203E0022B02D1059A5200059200930E4A0F4B0C490F48FFF7A6FF05E03B46324629460B48FFF75BFF01203B8802908A
:404140002078327800902978CDF804800548FEF73BFF06B0BDE8F0811F90FF1F1E90FF1F1C90FF1FD04C0020034B044AC3F8E825034AC3F8EC257047F8090020CD4000003A
:40418000993F00000D4B0E4A0E49C3F8AC250E4AC3F8B4250D4AC2F8AC150D49C2F8B4150C4AC3F8A0250C4AC3F8A8250B4AC3F894250B4AC3F89C25FFF7D6BFF809002003
:4041C00071450000C1440000D543000004040020FD43000081460000D5460000A947000085480000064B074AC3F884200432C3F88820054AC3F88C200232C3F8902070473F
:40420000B04F00209CFFFF1FE403002008B52820FFF794FE044B002119700846FCF71AFABDE8084000F0D0B92092FF1F70B50F4D0F4CD5F8843021681B680E4E591A0E4BFD
:4042400061609B6A30461B680A22A360FEF7F4FD3046FDF72BFD40F6312390FBF3F0E060C5F89800BDE8704000F0AFB9B04F00206C90FF1F10600020D0440020F0B51AB32F
:40428000002507462C4611F0070318BF012303EBD10301703E1AB34213DDEE1DAE420CDB8E4208DA640012F806E0E4B2BEF1000F18BF44F00104013EF0E707F8014F0835B6
:4042C000E8E7013398B2F0BD1046F0BDF0B50678964220D10024274616F0070318BF012303EBD605A54214DD3A46013410F801EF4FEAC40CD31B6245DBB208DAB24206DA0A
:404300004EFA03F303F001038B540132F2E70837E8E70020F0BD4FF0FF30F0BDF7B505461F4679230B70022302AC1370012324F8023D9DF82030254E0370D6F8843022466A
:4043400001461868FDF768FFD6F88830224629461868FDF761FFD6F88C30224629461888FDF744FFD6F89030224618882946FDF73DFF22462946F06FFDF74EFF224629462F
:40438000D6F89800FDF748FFD6F8800022462946C0F3CF00FDF72AFF0D4B2246D3F820012946C0F3CF00FDF721FF22462946B6F87800FDF71BFF22462946B6F89C00FDF7C7
:4043C00015FFBDF806303B8003B0F0BDB04F00202092FF1F07B50A46014601A8FDF7FFFE044B01221A70044B002283F8302403B05DF804FB7C90FF1FB04F0020034B0122CA
:404400001A70034B002283F8302470477C90FF1FB04F00202DE9F0479DF830800C4641461E461746BDF92050BDF92490BDF928A0FBF732FE4FF4587000FB08F01F4B1918BE
:40444000185C03280CD1012FC1F8204134D10023A1F81061A1F81251C1F80832BDE8F087012805D141462046BDE8F047FCF7F2B802280ED1012FC1F828421DD10023A1F8CE
:404480001862A1F81A52A1F81C92C1F84432BDE8F087042810D1012FC1F868420CD10023A1F85862A1F85A52A1F81091A1F812A1C1F80832C1F85033BDE8F0872092FF1F12
:4044C0002DE9F04F8DB00CAE9946022326F8023D054631469046047890F801A0FDF7AFFEBDF82E3031465A1CEB5C83462846ADF82E200793FDF785FE314609902846FDF73D
:4045000080FE314607462846FDF77BFE314608902846FDF776FEBDF82E10632C01F10106ADF82E6013D8012C089A099B11D8695C00B212B23FB20391029001920494009770
:404540001BB2079A59465046FFF764FF01E0643CE4B200944B46044A04494046FFF7DEFE0DB0BDE8F08F00BF1E90FF1F1F90FF1FF0B50D46044687B00A46014605A8FDF726
:404580002EFE0D4F6B780D4E8DF8153032463B4605A9201DFFF794FF094A0A4901203B881278097802902078019500903046FEF70BFD07B0F0BD00BF1C90FF1FD04C00207D
:4045C0001E90FF1F1F90FF1F70477047F7B505461F4678230B70022302AC1370012324F8023D9DF82030254E0370D6F88430224601461868FDF710FED6F888302246294692
:404600001868FDF709FED6F88C30224629461888FDF7ECFDD6F89030224618882946FDF7E5FD22462946F06FFDF7F6FD22462946D6F89800FDF7F0FDD6F8800022462946E6
:40464000C0F3CF00FDF7D2FDD6F8C00122462946C0F3CF00FDF7CAFD22462946B6F87800FDF7C4FD22462946B6F89C00FDF7BEFDBDF806303B8003B0F0BD00BFB04F0020EC
:404680002DE9F043054689460379DFF844800D4F0D4E0E4C85B000933A46434631462046FFF794FF01203A7802902878B8F8003000903178CDF804902046FEF785FC05B030
:4046C000BDE8F0831E90FF1F1F90FF1FD04C00201C90FF1F034B01221A70034B002283F8302470478090FF1FB04F0020F7B506461F4677230B70022302AD1370012325F8BB
:40470000023D9DF82000274B4FF4667404FB00343070D4F884302A4631461868FDF77CFDD4F888302A4631461868FDF775FDD4F88C302A4631461888FDF758FDD4F890309A
:404740002A4618883146FDF751FD2A463146E06FFDF762FD2A463146D4F89800FDF75CFDD4F880002A463146C0F3CF00FDF73EFDD4F8C0012A463146C0F3CF00FDF736FD4E
:404780002A463146B4F87800FDF730FD2A463146B4F89C00FDF72AFDBDF806303B8003B0F0BD00BF405800202DE9F04305460F4687B006AC062324F8023D21460679FDF7D6
:4047C0003EFDBDF81630214601332846ADF81630FDF717FD21462846FDF713FD21462846FDF70FFD21462846FDF70BFDBDF81630214601332846ADF81630FDF720FDBDF853
:404800001630214601332846ADF81630FDF7F9FC21462846FDF7F5FC21462846FDF7F1FC21462846FDF7EDFC632EBDF8163088BF643EDFF84890DFF848800E4C88BFF6B227
:404840000133ADF8163042464B46214600960A48FFF74CFF0120217802902878B9F80030009098F8002001970348FEF7ADFB07B0BDE8F0831F90FF1FD04C00201C90FF1F41
:404880001E90FF1F034B01221A70034B002283F8C8277047AC90FF1F40580020012809D8054B03EB8002526B1844117890F83C300B431370704700BF4490000001280AD808
:4048C000054B03EB8002526B184490F83C10137823EA010313707047449000002DE9F04172B6B44E0024062707FB04630021B3F84220D3F83E00013404F007FA0C2CAD4DA3
:40490000F2D100240A2606FB0452134653F8860FB2F88E205968013404F0ECF90A2CF2D1A548A64D002450F8041F04F1105303F1580221F0FF065933C9B20B4452005B0082
:404940000232934206D012F8027C12F801EC07F806E0F5E7A8420C44E5D1994B0A274FF0010E1F7083F884E2964B00251D60964B964C1A68964B974E1A60974B1A68974B07
:404980001A60974B1A68974B1A60974B1A68974B1A60974A9D601D619D61137843F002031370137C43F0020313742378A2F5863243F040032370413A137843F0100313704D
:4049C0008C4B03CBC2F8400DC2F8441D93E8070003C63280884A894B1068A83E186012791A71874A874B03CB1060516003CB42F8E00C42F8DC1C93E8070003C63280824AE0
:404A00000C3303CB5160814910600A780C2042F008020A707E4A612111704F21A2F5F06211807C4918220A70A1F802E00A71C88003200A7248811F2008735020CD81087452
:404A4000042048820A75CF820A76734A93E80300724B82E8030006221A7045F20E5223F8EE2C052203F8F02C13F8F02CF03B43F2C8261D462B781B0606D54FF4F07001F0CC
:404A800043FF013EF6D1FEE7654B4FF4A5621A8001224FF040231A7042F25122614FA3F82022192600253B784FF4F07003F0010343EA450501F028FF013E05F0030578D0EE
:404AC000032DF0D1584A4FF480731380574B52211970574B57491B78A1F29B61DBB281F89B3607231370482000230B70887013705371514B04225148022119709A72037801
:404B00004F4F43F07F03037010F8013CDFF8548143F0030300F8013C237800F5A65043F080032370474B0C301B783D78DBB298F80060EDB203F0070ED34080F800E0F6B234
:404B4000437045F003033B7046F0030388F800303D4B0A20197044F20F015A7419863B4940230B708B700B728B7281F80F21384A10211170012182F86B10364920220A70BC
:404B80004B71354B1A7040F20122A3F81720802283F82D2001F0BAFD304B88F8006044223D702F4D1A7094E80F0007C52B80BDE8F081FEE744900000FCFFFF47AC0000487C
:404BC0008358004000760040F4150048A043004050760040C0510040F815004808760040FC15004810760040001600481876004003500140AC150048C0150048CB510040A5
:404C0000F2510040C8150048325100402243004000480040824000400041004000430040224200402542004004400040004200400F010049A146004001400040A24300405F
:404C4000F8460040CF0100490C51004001590040985A0040235B00402B5B004076580040B0430040F946004008B504F017F803680C2B00D1FEE7FEE780B51148114B0025E4
:404C8000C0B1A3F1100192C922460439161BB74204D051F8046F42F8046BF7E7114653F8046C8C1AA64202D041F8045BF9E701381033E5E703F0F8FFFBF76AFCFEE700BF85
:404CC00001000000B0930000124A134B10B51A60124A134C1368134843F4007313600023032B98BF54F823204FEA830188BF0E4A0133302B4250F3D10C4B1A780C4B1A7087
:404D00000C4B084A1A60FFF7E9FDBDE8104001F091BB00BF0004FA050CED00E014ED00E0000000000080FF1F694C0000BC760040C080FF1F08ED00E073B515461E460B4C90
:404D40000A230022019200920A4601461846237001F0E6FB32462946207801F0BDFB0221207801F0A7FB207802B070BD788BFF1FFBF774BB074A1023136002F68832126813
:404D800005491165054AE0211170A2F541721360704700BF80E100E0714D000004E400E073B515461E460B4C01230022019200920A4601461846237001F0B2FB32462946AE
:404DC000207801F089FB0221207801F073FB207802B070BD798BFF1FFBF730BB074A4023136002F68832126805499165054AE0211170A2F206321360704700BF80E100E0B8
:404E0000D94D000006E400E0F7B516461F460C4C02250023019300930A462B4601462846257001F07DFB3A463146207801F054FB2946207801F03EFB207803B0F0BD00BF21
:404E40007A8BFF1F044A8000137800F0040003F0FB03034313707047C05100402DE9F843374B34221A7004229A7000240622DA701C713F225C7106331A70012550229C7065
:404E8000DC701C719D7383F87E2A0A2283F87F2A2C2283F8802A442283F8814A83F8842A482283F8852A4FF00208122283F8865A83F8888A83F8892A282283F88A2AEB22A1
:404EC00083F88B2A01F028FD81461E4F1E4E3B78522243F003033B703378032043F0030333701A4B1A7001F011FC3B78484603F0FC033B70337803F0FC03337001F010FD0E
:404F0000134B58221A7005225C7020469A7183F807801C725C7201F07FF943F233320D4B294613201A6001F083F929464F2001F0F7F9BDE8F84308491D2001F0EFBB00BFE2
:404F4000004E0040F8460040F94600409258004094580040E86000201D51000070B5244D244E00240123102033702C7001F0C6F9102001F045FA07211D2001F0DDFB1E4B14
:404F800004221A701D4A5C701C72137843F0180313701B4B0A221C7083F8F54283F8F642133B1A705B225C70DC701A725E225A725C731422A3F67F231A700F232B7148F686
:404FC000F0536B80337815F823200E4B1A70337805EB830333F8022C0B4B1A803378AC71012B03D1BDE87040FFF738BF70BD00BFDA90FF1F7B8BFF1F96580040075B0040C9
:40500000935800400E4E00400C4E004070B501F083FC294B294D1B78294B2A4C1A78064642F001021A701A78032042F010021A701A7C42F001021A741A7C42F010021A7432
:405040002B78214A43F002032B70237843F002032370137843F00303137001F057FB2B781A4A03F0FD032B702378304603F0FD032370137843F006031370154B7A221A7063
:40508000144A137843F002031370137C43F002031374537843F010035370537C43F0100353740D4A4FF000531360A2F5C0721360BDE8704001F034BC7B8BFF1FF8460040DE
:4050C000AA430040F9460040915800407758004082580040A143004080E200E010B5064CE3792BB9237A0BB9FFF738FF0123E371BDE81040FFF78ABFDA90FF1F024A13785C
:4051000043F0010313707047004E0040024A137803F0FE0313707047004E004070470000124B412210B51A70C12203F80E2C332203F80C2C00240C225A719C710C4B4FF4B3
:4051400000421A6007210F2001F0F6FA09490F2001F0E4FA084B1C70084B1C70084B1C70084B1C70084B1C8010BD00BFD649004080E100E021520000FA600020F4600020F3
:40518000FC600020FB600020F860002008B501F0C3FB084A137843F004031370137C43F00403137401F0BCFB034B4FF400421A6008BD00BFA543004000E100E010B5054CB2
:4051C00023781BB9FFF7ACFF01232370BDE81040FFF7DCBFE390FF1F0A4B10B54FF400441C602AB1084B1A60084B1880084B1980084A00231370084A1370084B4FF4004290
:405200001A6010BD80E100E0F0600020F6600020F8600020FC600020FB60002000E100E070B4534B1978C9B201F0080000F0FF0258B3504D50492A78504C12F0010F17D0A0
:405240004F48504E02783668D2B2B25CD2B22A7014221A7002784C48D2B2027002780132D2B202700A7842F011020A70082229E010221A700A7842F012020A7001224349A9
:4052800022700A7842F0100249E0C8075CD53B4C2078C0B2042817D0082829D001284DD134493B4809780088C9B23A4D80B28142297048D210221A702A7831490A703249D9
:4052C0000A70042222703FE02F4933480C78008880B2844237D2274A2E481278294C027010221A700A7824680078D2B2A05413E011F0020F1F4818D12349254A0C781288FD
:4053000092B294420DD21F4C0A782468D2B2A25CD2B2027004221A700A780132D2B20A7012E0FF22027004220DE0FF21017012481A70017801F0EF010170C3E710492270B3
:405340000A7011490A701A701B789B060CD50A4A137803F0EF031370084B00221A700B4A137803F0EF03137070BCFBF709B900BFD7490040D8490040F4600020FA60002064
:40538000FC600020F0600020FB600020D6490040F6600020E490FF1FF8600020F0B52C4D2C4E2F78348807F00707A4B2A0424DD0294B1A78D2B26FB934B158B92B7843F0D4
:4053C00040032B703080F0BD30802B7803F0BF032B70F0BD02F0200202F0FF060AB31F4F1F4A00254FF0200E157087F800E03D7117F8085C05F07F0507F8085C144D2D780A
:405400002D0700D568B9174D2C8007241470147814F00104FBD11A7802F0DF021A70104A14701B780C4A9C060BD50E4B0029188014BF03220122013B1A701A78D207FCD4B4
:40544000F0BD044B1880137833431370F0BD00BF9640004094400040A2430040104000400140004002400040044A4001137800F0200003F0DF03034313707047F0510040C6
:40548000144B10B5012200241C701A7401F044FA114A137843F01003137001F041FA0F4B0F221A7008221A740D4B04221A600521022001F041F90B49022001F02FF90A4B41
:4054C00010221A70094B1C70094B1C70094B1C7010BD00BF7B6500409B6500402565004080E100E02D550000FD600020026100200461002000610020024A137843F00203C2
:40550000137070477B65004010B5064C23781BB9FFF7B6FF01232370FFF7EEFF024B04221A6010BDE590FF1F00E100E030B59649964B1B780A78DBB212F0400F0A4600F060
:405540001C81D80740F1058109784539052900F20081DFE811F006006E00FE00FE000600C10003F0DF0103F00A03082B35D113788548452B25D1864B1B789BB1854B864C3D
:405580001B681B78DBB22370844B06241C70FF2403F8674C002403F8274C814B01241C70462318E07F4B1B7803F0020303F0FF048BB37D4C237843F00A0323706023037039
:4055C00025E0764B02241C70FF2403F8674C002403F8274C4A230370BAE00A2B40F0B880714B187840F0A00018706E48007800F0020000F0FF0470B110781C7810F0080FAE
:4056000014BF09200A202043187060231370674B042018609CE06648037843F0200303705E4B52201870FF2003F8670C03F8274C8EE003F0020101F0FF0400292DD15848DA
:405640005349057809788D4214D2524D01782D68C9B2695C504DC9B22970504906250D70FF2501F8675C01F8274C01780131C9B201706EE04B49097801F0020101F0FF04CE
:4056800021B14948017841F00A014CE04848017841F020010170522052E042490878424900F0020000F0FF0520B1087840F09A00087039E03E4C207840F02000207037488D
:4056C00052240470FF2400F8674C00F8275C087840F0900008703CE0364C374825682E4C01782478C9B2E4B26C5401780131C9B20170324900780978884209D22749022073
:405700000870FF2001F8670C002001F8270C20E02449097801F0020101F0FF0451B12248017841F009010170602111701F49042008600EE01E48017841F0200101701220FB
:4057400016490870FF2001F8670C01F8274C00E00B46990616D51378134913F0080F087814BF0123022303430B7011490B7803F0DF030B701023137030BD0B78DB065CBFF3
:4057800010230B7030BD00BFFD6000206B6500400361002008610020046500407B65004000610020016100200261002080E100E08B6500400C610020046100201061002092
:4057C00070B5A9B1214C2578102D05D1204D2D78ED060FD5012070BD2578602D08D11D4D04262E601C4E357805F0F705357001E0022070BD45252570184D00242C70184D4B
:4058000040002A70174AC0B21160174A124913700A7813F0010302F0FD020A70134A1449107002F17702134805D032231370FF230B70047004E082241470FF220A7003703C
:405840000D4B04221A60002070BD00BFFD6000206B65004080E200E0026100200061002003610020086100200161002004650040146500405465004000E100E070B5A9B127
:40588000224C2578102D05D1214D2D78ED060FD5012070BD2578602D08D11E4D04262E601D4E357805F0F705357001E0022070BD49252570194D00242C70194D40002A7025
:4058C000184A40F001001160174A134913700A78C0B202F0FE020A70144A13F001031070134902F17702134805D032231370FF230B70047004E082241470FF220A70037022
:405900000D4B04221A60002070BD00BFFD6000206B65004080E200E00261002004610020106100200C6100200161002004650040146500405465004000E100E0064A042359
:405940001360064A1078064AC0B212785206054A48BF18431360704780E100E002610020FD60002000E100E0044A04231360044A002110781170034A1360704780E100E043
:405980000261002000E100E0064B04221A60064B0021197005490B7803F0FE030B70044B1A60704780E100E0046100200261002000E100E0064B04221A60064B0021197001
:4059C00005490B7803F0FD030B70044B1A60704780E100E0006100200261002000E100E008B500F099FF0A4A137843F02003137012F8033C43F0100302F8033C92F8FD3066
:405A000043F0100382F8FD30BDE8084000F088BF9B640040014B1870704700BF88640040014B1878704700BF68640040034A13785B07FCD5024B1880704700BF68640040D0
:405A40004A640040014B188880B270475A64004008B50F4A0F4913789B0601D50B88FAE700F05AFF0C4B1A7842F001021A701A7802F0FE021A705A7842F001025A705A78DF
:405A800002F0FE025A70BDE8084000F049BF00BF686500405A6400409A64004008B5084B1F221A70FFF7D4FF064B08221B78064B1B78064B1A70002283F8002108BD00BF8A
:405AC0008B64004068640040686500408864004010B5054C23781BB9FFF7E0FF01232370BDE81040FFF77CBFE690FF1F074B72221A70202203F8092C062203F8652C472268
:405B000003F8552C022203F80A2C70478C64004008B500F001FF0A4A137843F02003137012F8093C43F0100302F8093C12F80A3C43F0100302F80A3CBDE8084000F0F0BE13
:405B40009C64004008B505490B781BB9FFF7CEFF01230B70BDE80840FFF7DABFE790FF1F08B500F0D9FE064B1A7842F001021A701A7802F0FE021A70BDE8084000F0D0BE71
:405B8000966400400F4A137803F0C00343F00B031370D37F43F00103D37792F8203043F0010382F820304FF47A73A2F89333A2F8F33340F2DE32044B1A801322A3F2223305
:405BC0001A7070477564004048680040024A137843F08003137070477564004008B505490B781BB9FFF7CEFF01230B70BDE80840FFF7ECBFE990FF1F014B1880704700BF38
:405C000048680040FAF734BC074A4FF40063136002F6883212680549D166054A60211170A2F20B321360704780E100E0055C00000BE400E008B500F0CDFCBDE8084000F068
:405C400013BDFFF7F7BF38B5044600F065FE054600F032FD04F1804303F500431C7800F037FDE4B2284600F05BFE204638BD08B500F0B0FCC0B208BD38B50D46044600F057
:405C800065FD2B0632D400F0EFFD002830D110222146402000F08AFD072808D1164A1378154C13F0020FFAD02378980702D44FF0FF3418E023789B08F9D1104A294653788E
:405CC0004020127800F096FD0728F0D122780A4B9107FBD51A789207E9D51B789B0814BF4FF0FF34002400F0DFFD02E0012400E00424204638BD00BF224700401E6100202B
:405D000038B500F009FE204A04461378022543F002031370137C0A2043F00203137412F8093C43F0400302F8093CD37943F04003D37102F5AB52137843F003031370134B43
:405D400004221A7013F8012C42F0400203F8012C13F8012C02F0FC0203F8012C0E2203F8062CA3F597530A4A183B1D70137843F00803137000F0CAFC064B20461D60BDE861
:405D8000384000F0CDBD00BFAB4300400E5900402F5B004080E200E0082804D00A280CBF8423C42300E0442308380E4AC0B20428137098BF0C4B4FF0000298BF33F9101030
:405DC0000A4B88BF11461A8042F210734B4341F2883103F6C41393FBF1F305490B60054B1A8070470A5900402E9100001C610020146100201861002008B5102000F010FB34
:405E00000721012000F098FC0749012000F086FC064A0C20137843F006031370FFF7BCFF034B00221A8008BD515E0000095900401A61002010B5054C23781BB9FFF7DCFF2A
:405E400001232370BDE81040FFF75ABFEA90FF1F70470000084A137843F060031370A2F5A652133A137843F002031370137C43F002031374704700BF77580040054B00F0ED
:405E800003001A7802F0FC021A701A7810431870704700BF5A5800400320FFF7EFBF000008B5054B1A781AB901221A70FFF7F4FFBDE80840FFF7CEBFEB90FF1F044A13784D
:405EC00043F008031370137C43F0080313747047A8430040054B00F002001A7802F0FD021A701A7810431870704700BF2C580040064B074A1B78C3F3810303F19243063344
:405F000093F83831DBB21370704700BF2C5800400B460040054B00F00C001A7802F0F3021A701A7810431870FFF7E2BF2C58004008B5064B0021197008465970FFF7EAFFCD
:405F4000BDE808400846FFF7C5BF00BF2C58004010B5064C23781BB9FFF7EAFF01232370FFF7ACFF024B1C221A7010BDEC90FF1F835B004073B515461E460B4C002301939D
:405F800000930A4601461846237000F0C9FA32462946207800F0A0FA0221207800F08AFA207802B070BD00BF7C8BFF1FFAF740BA074A4FF48063136002F688321268054931
:405FC0009166054AE0211170A2F20A321360704780E100E0AD5F00000AE400E0104A137803F0C00343F00B03137092F8223143F0010382F8223192F8233143F0010382F8F5
:4060000023314FF47A73A2F89A35A2F8FA3540F2DE32044B1A801322A3F225531A70704776640040506A0040024A137843F08003137070477664004008B505490B781BB9A5
:40604000FFF7CCFF01230B70BDE80840FFF7ECBFED90FF1F014B1880704700BF506A00400E4A137803F0C00343F00B031370D37E43F00103D376137F43F0010313774FF47F
:406080007A73A2F89333A2F8F33340F2DE32044B1A801322A3F226331A7070477D64004050680040024A137843F08003137070477D64004008B505490B781BB9FFF7D0FF1C
:4060C00001230B70BDE80840FFF7ECBFEE90FF1F014B1880704700BF50680040014B1870704700BF74640040F7B516461F460B4C00230425019300930A4601462846257052
:4061000000F00EFA3A463146207800F0E5F90221207800F0CFF9207803B0F0BD7D8BFF1FF7B516461F460B4C00230525019300930A4601462846257000F0F2F93A463146D5
:40614000207800F0C9F90221207800F0B3F9207803B0F0BD7E8BFF1FF7B516461F460B4C00230625019300930A4601462846257000F0D6F93A463146207800F0ADF9022185
:40618000207800F097F9207803B0F0BD7F8BFF1FFAF7DCB9074A4FF48073136002F68832126805491166054A80211170A2F542721360704780E100E09161000008E400E051
:4061C000FAF7C8B9074A4FF48053136002F68832126805491167054AC0211170A2F543721360704780E100E0C16100000CE400E0014B1870704700BF7A64004008B50020C2
:40620000FEF75CFB0120FEF759FB024BFF221A7008BD00BF808BFF1F10B50446FFF7EEFF2046FEF73BFB014B1C7010BD808BFF1FF0B52C4D2C4E2F78348807F00707A4B25C
:40624000A0424DD0294B1A78D2B26FB934B158B92B7843F040032B703080F0BD30802B7803F0BF032B70F0BD02F0100202F0FF060AB31F4F1F4A00254FF0100E157087F801
:4062800000E03D7117F8085C05F07F0507F8085C144D2D782D0700D568B9174D2C8007241470147814F00104FBD11A7802F0EF021A70104A14701B780C4ADC060BD50E4BD0
:4062C0000029188014BF03220122013B1A701A78D207FCD4F0BD044B1880137833431370F0BD00BF9240004090400040A2430040104000400140004002400040034A00F026
:40630000F800137803431370704700BF92400040024B4FF000521A60704700BF00E100E02DE9F041304C314E94F800C035880CF0070CADB2A842A646374653D02C4B1A78C2
:40634000D2B2BCF1000F0FD13DB168B9237843F0400323703080BDE8F0813080237803F0BF032370BDE8F08102F0020202F0FF061AB3DFF888C01F4A00244FF002081470A8
:406380008CF800800CF8044C1CF80C4C04F07F040CF80C4C9EF80040240700D568B9164C258007241470147814F00104FBD11A7802F0FD021A700F4A14701B780C4A9C07C2
:4063C0000CD50D4B0029188014BF03220122013B1A701A78D207FCD4BDE8F0813880137833431370BDE8F0810641004004410040A143004001400040024000401440004058
:40640000034A00F0F800137803431370704700BF06410040014B02221A60704700E100E0034A00F0F800137803431370704700BF9A400040074A7F23802113705170064A33
:40644000013BDBB202F80839002BF9D1034A1370704700BF848BFF1FF87B00400078004017280FD8084B0001C25C11B142F0200201E002F0DF02C254C25C42F00102C25464
:4064800000207047012070471070004017280DD8074900010B4603441A7942F004021A71435C43F00103435400207047012070471070004017280BD8064A0001835C490093
:4064C00003F0F10301F00E011943815400207047012070471070004041F6FF73994208BF4FF400519A4208BF4FF4005217289FBFC00000F1804000F5EC4081809ABFC28033
:40650000002001207047000017289FBF034B00011954002088BF0120704700BF19700040172810B51AD8C00001F07F0100F1804441EAC21204F5EC44D2B222709DF808206C
:4065400003F00F0343EA0213DBB263709DF80C30002003F00F03A370E07010BD012010BD10B500F0D9F90A4A5378182B0AD91478013B5370E30003F1804303F5F0431B78B1
:40658000137000E0FF2400F0CBF9204610BD00BF848BFF1F30B504060CD411F4704509D1C40004F1804404F5F0442180A270E370284630BD012030BD03065FBFC00000F12E
:4065C000804000F5F04081805ABFC280002001207047000070B500F0B9F800F045F908B104243AE000F07AF90728044610D11C4D2A781B4B900703D4012000F087F8F7E769
:406600001A78910704D51B789B0814BF0724002400F04AF90CBB00F099F800F025F90028DED1012000F006F907280AD10C4D02210C4800F09DF80228094E05D02B789B0795
:40664000F5D54FF0FF3406E033789A0703D4012000F05CF8F8E700F027F9204670BD00BF224700401E61002008B500F055F90F4A137843F008031370137C43F008031374F3
:406680000B4BC8221A700B4A137843F010031370137C43F01003137402F5557213789B06FCD5BDE8084000F03BB900BFA043004001470040AC430040044B1A7842F00102D0
:4066C0001A701A789207FCD5704700BF02470040024A137803F0FE03137070470247004038B50446084DB4F5004F05D9286800F00BF9A4F50044F6E7034B58686043BDE891
:40670000384000F001B900BF8C8BFF1F024B1B7A584300F0F9B800BF8C8BFF1F054A00F01F00126800F1100352F8230042F82310704700BF08ED00E000F01F0000F1604090
:40674000490100F56440C9B20170704708B500F0E3F8064A137843F008031370137C43F008031374BDE8084000F0DAB8A04300402DE9F0410E464B1E0A4FDFF82C80451E46
:40678000C418A5420BD03B78DB0703D40120FFF7BDFFF8E798F8003005F8013FF1E73046BDE8F081224700402047004030B50F4C23789D0715D50E4BB6251D70D5251D70BB
:4067C00002251D702478A4070DD40C461870601A80B2824203D914F8010B1870F7E7072030BD042030BD092030BD00BF224700402047004070B50D4D2C78A60712D50C4CC0
:40680000B6262670D8262670052626702D78AD070AD42070080AC9B22070217022702370072070BD042070BD092070BD22470040204700400A4A137899070CD5094BB62121
:406840001970E12119700E2119701278920704D4187007207047042070470920704700BF224700402047004038B500F055F80C4A147874B901250B4915700B682B400AD031
:406880000B6823F001030B6000BF00BF00BF556002E0042400E01C4600F042F8204638BDF090FF1F0400084010B500F035F8094B00215A681970012A08D1074C226842F081
:4068C0000102226000BF00BF00BF5960BDE8104000F026B8F090FF1F04000840074B1B789B0708D5064BB6221A70E0221A700D221A70072070470420704700BF22470040F3
:4069000020470040000000000230800803D000BF01380046FCD17047EFF3108072B6704780F31088704700BF30B5214A21F00043934287B01BDD1F4A934205DD02460B462E
:4069400001F0ECFA07B030BD02AA00F029F900F0030001281AD002280FD008B3DDE9020101230093DDE9042301F012F9EAE70022002300F0F1FB07B030BDDDE90423DDE962
:40698000020100F0E9FB01F10041DBE70090DDE90423DDE9020101F0FBF801F10041D1E7DDE90423DDE9020100F0D6FBCAE700BFFB21E93FFFFFEF7FF8B5C1F30A56A6F206
:4069C000FF35132D0A460B460446864611DC002D2EDB0F461F4929410A4225D04FF400232B413B4423EA01030026194634462046F8BD332D05DDB5F5806F1FD011462046DE
:406A0000F8BDA6F213464FF0FF3121FA06F63042F4D00122C5F1330502FA05F52D1828BF9B1825EA0606E0E70028D7D11146E6E7013501F0004307D00026D6E702460B467B
:406A400001F06EFA0446D2E743F07F5343F440130026CAE7FFFF0F0030B5214A21F00043934287B01BDD1F4A934205DD02460B4601F054FA07B030BD02AA00F091F800F0EE
:406A8000030001281ED0022811D0DDE9042300B3DDE9020100F060FB01F10041EAE7002300930022002301F073F807B030BD01230093DDE90201DDE9042301F069F801F14D
:406AC0000041D7E7DDE90423DDE9020100F044FBD0E70124DDE90201009401F059F8C9E7FB21E93FFFFFEF7F2DE9F04F8BB004460D4600F06BFA284B064693F900A00F4615
:406B0000BAF1FF3F12D022462B462046294601F053FE834650B94FF000084FF000092046294642464B4601F01FFE20B9304639460BB0BDE8F08F194A0123CDF820B0CDE9BE
:406B40000445CDE9024501920093BAF1000F15D042464B464046494601F0BEFCBAF1020FCDE906010CD102F099F821230360089B63B9DDE906010BB0BDE8F08FCDE9068901
:406B8000684601F049F90028F1D1ECE702F086F8089B0360EDE700BF9C8BFF1F389100002DE9F04F944C21F00047A7428FB040F381801446914A0E46974226DC84A3D3E9F0
:406BC0000023002940F3A08101F0A8F98C4B80469F42894600F083807FA3D3E9002301F09DF902460B464046C4E90023494601F095F979A3D3E9002301F090F90125C4E956
:406C0000020128460FB0BDE8F08F7E4A974240F383807D4A974258DC3D15A5F21645A7EB05518B46824601F0DDFD01F0C5FA8046894642464B4650465946CDE9088901F0FA
:406C40006DF90022714B01F01DFB8B46824601F0C9FD01F0B1FA8046894642464B4650465946CDE90A8901F059F90022674B01F009FB00220023CDE90C0101F06BFD00281A
:406C800000F06A81002340464946002201F062FD002814BF012302235D480221019000912A46214608A800F07BFB002EC0F24A81054606E0C2E9000100250024C2E9024571
:406CC000002528460FB0BDE8F08F02460B4601F025F90025C4E90201C4E90001F1E740A3D3E9002301F01AF93FA3D3E9002306460F4601F013F902460B463046C4E9002317
:406D0000394601F00BF938A3D3E9002301F006F90125C4E90201D4E700F0F0FF34A3D3E900238046894601F0ADFA0022394B01F0F7F801F057FD054601F03EFA24A3D3E920
:406D40000023CDE9040101F09DFA02460B464046494601F0E3F820A3D3E9002382468B46DDE9040101F08EFA1F2DCDE9020155DC294B6A1E53F822309F424FD002460B464C
:406D80005046594601F0CAF802460B4681468846C4E900234A4643465046594601F0BEF8DDE9022301F0BAF802460B46002EC4E9022386DA4A4608F1004301F1004184E806
:406DC0000C00E160A0606D427BE700BFAFF3008000004054FB21F93F3163621A61B4D03D0000601A61B4D03D7370032E8A19A33B83C8C96D305FE43FFB21E93F7BD90240FC
:406E0000FB21F93FFB213941FFFFEF7F00007041C09100000000E03F40910000DDE902235046594601F07AF83F15C1F30A53FB1A102B81468846C4E90001ABDD58A3D3E950
:406E40000023DDE9040101F01DFA8046894602460B465046594601F061F8CDE9060102460B465046594601F059F842464B4601F055F84DA3D3E9002380468946DDE904011C
:406E800001F000FA42464B4601F048F802460B46CDE90201DDE9060101F040F80B4602468846C1F30A517F1A312F8146C4E9002372DD3FA3D3E90023DDE9040101F0E2F9A8
:406EC0008046894602460B46DDE9060101F026F802460B4682468B46DDE9060101F01EF842464B4601F01AF833A3D3E9002380468946DDE9040101F0C5F942464B4601F098
:406F00000DF8CDE9020139E701F00AF82E4B80469F42894622D02AA3D3E9002301F000F802460B464046C4E90023494600F0F6FF23A3D3E9002300F0F3FF4FF0FF35C4E900
:406F40000201BEE66268E36802F1004203F1004345426260E360B4E603239DE610A3D3E9002300F0DDFF10A3D3E9002306460F4600F0D6FF02460B463046C4E90023394666
:406F800000F0CCFF08A3D3E9002300F0C9FF4FF0FF35C4E9020194E6DDE906ABFAE600BF0000601A61B4D03D7370032E8A19A33B0000002E8A19A33BC14920259A837B3921
:406FC0003163621A61B4D03DFB21F93F2DE9F0415F4E0C46B6460E407645054600F0988000290B46024674DD5FEA215E7FD0AEF2FF3EC3F313031EF0010F43F4801363D17E
:4070000000273E4603EBD2710B444FEA6E0E520016204FF4001174189C424FEAD2754FEA420202DC1B1B66180F44013805EB43034FEA5101EFD1844620244FF0004109E017
:4070400020D003EBD275013C4FEA51012B444FEA420220D09E4201EB0C05F1DA002D05EB010C09DBB0469542A3EB060300D9013B4646521B0844E4E7BCF1000FF2DB06F188
:407080000108F0E7954217D8002D05EB010C49DB98460023ECE7134310D140087B1003F17F5303F50013FA0703EB0E57394648BF40F00040BDE8F0813346C2E7411C35D049
:4070C00000F001031844E8E75B0003EBD273520096E721F000460643ECD079BB8E46D30AAEF1150E5205002BF9D0DD0221D4002100E001465B00DC0201F10100F9D5C0F1FF
:40710000200422FA04F42343C1EB0E0E82406EE702460B4601F0B6F82A46234600F000FFBDE8F081BCF1000FA9DAB1E701372046B4E720244FF0FF310020E2E702460B4677
:4071400000F0ECFE02460B4601F0C6F9B2E700BF0000F07F000000002DE9F04F21F00046B6F1795F85B00C4692469B4605466BDA01F038FB002800F0E7802A462346284640
:40718000214601F07FF874A3D3E900238046894601F078F872A3D3E9002300F0C1FE42464B4601F06FF870A3D3E9002300F0B6FE42464B4601F066F86DA3D3E9002300F023
:4071C000AFFE42464B4601F05DF86BA3D3E9002300F0A4FE42464B4601F054F868A3D3E9002300F09DFE42464B4601F04BF8CDE900010022644B4046494601F043F8DDE95D
:40720000002306460F464046494601F03BF85246804689465B462846214601F033F802460B464046494600F079FE02460B463046394600F073FE02460B460020534900F049
