:400000000040002011000000650E0000650E000008B5044B1A6803F53F5302331A6000F029FF00BFFA46004010B5054C237833B9044B13B10448AFF300800123237010BDA9
:40004000A8C1FF1F000000003C270000084B10B51BB108490848AFF300800848036803B910BD074B002BFBD0BDE81040184700BF00000000ACC1FF1F3C270000C8C0FF1FBC
:400080000000000008B500F055FD62B60E4D0F4C0F4E2B78012B14D100232B70237856F82330984723780133DBB2237022780A23B2FBF3F101FB1323DBB2237000F037FDCC
:4000C000E7E700F036FDE4E7CCC1FF1FCDC1FF1FCCC0FF1F030A0B701070704740F2E631054A0020138801339BB28B428ABF108013800120704700BFC4C1FF1F054A0020CE
:40010000538801339BB2622B8ABF508053800120704700BFC4C1FF1F38B50020002401F03FF9054D002001F02FF92046AC8000F007FFAC7138BD00BFC4C1FF1F40F6C312C4
:4001400010B50E4CA388934209D8012001F028F9012001F019F9A3880133A38010BD40F6C412934209D1012000F0EAFE00F082FCA3880133A3800123A37110BDC4C1FF1F8D
:4001800008B50D4BB3F9040002F00AFA01F0E8FD07A3D3E9002301F037FE02F0F7F802F079FA064B80B2588008BD00BFAFF300809A9999999999054070C2FF1F94C2FF1F18
:4001C000054BB3F90A004FF4800393FBF0F0034B80B29880704700BF70C2FF1F94C2FF1F144B70B51A681F2A11DC2AB103EB4201013288801A601AE0114616460D4C251DAE
:4002000025F8116001312029F8D16164EEE7191D03F14205002231F8024FA94221F8024C2244F8D1A3F842001044C0F34F10024BD88070BDD0C1FF1F94C2FF1F000000008C
:400240000F4B10B5B3F9000002F0AAF901F088FD09A3D3E9002301F0D7FD02F097F802F019FA084C80B22080FFF7BAFFE080208810BD00BFAFF30080CFF753E3A59B2D409E
:4002800070C2FF1F94C2FF1F08B5114BB3F90200104BB3F90030C01A01F050FD0AA3D3E9002301F0B1FD02F049F846F2A813984205DC094B9842B8BF184600B200E0184665
:4002C000064B988108BD00BFEC51B81E856B284070C2FF1FF4C0FF1F589EFFFF94C2FF1F0D4B10B5B3F908000C4CA0F5CD7001F025FD07A3D3E9002301F086FD02F046F8E0
:4003000002F0A2F9A07300F08DF994F90E0010BD08AC1C5A643BBF3F70C2FF1F94C2FF1FF7B52A4D002702AE294C06F8017D32460DF106012888277067708DF80670FFF73D
:40034000C9FE9DF806303246A3709DF807300DF106016888E370FFF7BDFE9DF80630324623719DF807300DF10601A8886371FFF7B1FE9DF806303246A3719DF807300DF129
:400380000601A889E371FFF7A5FE9DF80630324623729DF807300DF106016372AB7B2888A3722B7CE3720B4C27706770A770FFF791FE9DF80630E3709DF807302371AB7BAE
:4003C00063712B7CA37103B0F0BD00BF94C2FF1F7CC2FF1F8CC2FF1F08B5164B1B783BB341F2873214490B88934202D801330B8008BD8B780A200133DBB2B3FBF0F200FBEC
:400400001233DBB28B701BB90C220C49222005E0052B0DD10A4900230722332000F05EFF022805D100F0EAFDBDE8084000F0D2BD08BD00BFCAC1FF1F2AC2FF1F7CC2FF1F4E
:400440008CC2FF1F08B501F0FBF801F0DFF8024B01221A7008BD00BFCCC1FF1FF8B5094C00232646084F23702578052D08D8284601F086F8337827F8150001333370F3E7E7
:40048000F8BD00BF2DC2FF1F70C2FF1F014B01221A7070476EC2FF1F30B4104B104C00EB40001A181B5C206851789278451C5B42494252427C2DDBB2C9B2D2B2256006D9ED
:4004C0007C387C284FF0000002D9206000E0FF200240014030BC184000F07ABAF6C0FF1F30C2FF1F38B50024054D02232246214620462C602B716C7100F06AFAEC8038BDC5
:4005000030C2FF1F0A4B0B4AB3F90630B3F5FA7F094BD5BF0120002010721072D5BF1A7C1A7C62F07F0202F07F021A74704700BF70C2FF1F30C2FF1F94C2FF1F0346104852
:4005400070B5104A9C00051932F813606D8AAE42054698BF08782C449CBF0130087032F81350A48A94BF00200120A54228BF0878134422BF013008700220587470BD00BFD0
:40058000F6C0FF1F94C2FF1F73B5002002AD05F8010D2946FFF7D2FF204C0128237C294614BF43F0020323F0020301202374FFF7C5FF294606460220FFF7C0FF0128237C29
:4005C00001D1012E02D043F0040301E023F004032374134B1A78237C012A03D143F0080323740EE003F0F703022A237409D19DF8072043F0100301328DF80720074A1374C8
:4006000003E0237C23F0100323749DF80730002B0CBF0120022002B070BD00BF94C2FF1F28C2FF1F0D4B0E4893F90E1090F91F208A421A4605DD90F91E00884207DB0020BB
:4006400000E00220137C43F00103137470471A7C012022F001021A74704700BF94C2FF1FF6C0FF1F304B10B5597A304A012913D002D302291DD052E0002159819981D17C41
:4006800001294CD1517C012911D041F26F71D088884244D8022143E0517C002939D141F288305989013189B28142598137D8012136E0D07C58B999895881013189B2B1F5FB
:4006C0007A7F998194BF02210021597229E0517C012903D100205881988121E081B941F27070D48884420BD941F288345889013080B2A04201D85881CCE7598199810FE0EE
:400700000021598199890029C4D0074801398181C0E759890029CAD001395981C7E700215972587A507510BD30C2FF1F94C2FF1FC306054B58BF00F001005B7D48BF012051
:40074000002B08BF0120704794C2FF1FF8B56E4C2379042B00F2D080DFE803F003264E99BE00FFF7CFFE0246D8B12368664A0133B3F57A7F23BF002313600123136028BFA5
:400780001371624B5B7D022B0BBF22682168C2F38702002207BF11460020C1F387011046ADE020600146AAE0FFF7ACFED8B1574B5A7D1D46012A08D1FFF7E6FE01280646C1
:4007C00003D1FFF769FEA673F8BD6B7D022B04D10320FFF761FE012303E00020FFF75CFE0023A373F8BDA37B1BB1BDE8F840FFF779BE04232371F8BD012000F0D1FEFFF7F9
:400800009DFC434B414E1D782DB100F02DF90022014610461BE0737D022B08D100F024F9074600F021F93946024628460FE0012B05D100F019F929460246284607E000F041
:4008400013F9074600F010F92A460146384600F0BFF8FFF757FEE38810B10133E38003E013B1294A013BD380E288274B4A2A08D9002203211971104611461A60DA8000F021
:40088000A7F8307CFFF754FF0028B2D1F8BDFFF739FEE38810B10133E38003E013B11A4A013BD3802368E288A3EBD3039A4201D2FFF718FE2368144A0133B3F57A7F25BF04
:4008C0000023136013600423206828BF137100221146C0F3870012E000221046114600F077F8002000F05CFEFFF716FCFFF70AFE0028FBD12071F8BD00210846FF22BDE823
:40090000F84000F065B800BF30C2FF1F94C2FF1FCBC1FF1F0A4910B50B680C24013393FBF4F204FB12330B604BB9064A1378072B03F1010111709CBF034A22F8130010BD49
:4009400018C1FF1F40C2FF1FAAC2FF1F0000000000231A4610B51A4830F9121001320029B8BF4942082A0B44F6D19B12154AFF2B1548A8BFFF2330F81300536800210344C1
:4009800043F22020834283BFA3F54853203B5360516054681170204601F0C0F906A3D3E9002301F0A3FC28B90848844294BF0120022010BD002010BD34333333B39E0641B8
:4009C000AAC2FF1F40C2FF1F40270000CB880300024B187059709A70704700BF48C2FF1F38B5204CE078A8B923781BB100F014FE0123237163782BB1002000F0E9FD194B06
:400A000001225A71A3782BB1002000F0D5FD154B01229A712379134D43B1EA782B789A4204D3012000F0F8FD00232B7163790D4D43B1EA786B789A4204D3012000F0C8FDFC
:400A400000236B71A379074D43B1EA78AB789A4204D3012000F0B0FD0023AB71E3780233E37038BD48C2FF1F014BD879704700BF48C2FF1F044B0022DA701A715A719A7187
:400A80001A815A81DA71704748C2FF1F0A494FF47A704B8901339BB2B3FBF0F200FB12339BB2B3F5F97F4B8188BFC31A0B810B895B08CB71704700BF48C2FF1F08B5FFF784
:400AC000BFFBFFF75DFBBDE80840FFF7DDBB08B5FFF776FBBDE80840FFF702BC08B5FFF71FFCBDE80840FFF777BC000008B5064BB3F90C00FFF70EFFFFF700FB18B1FFF751
:400B000027FF024B187008BD94C2FF1F28C2FF1F08B5FFF7A7FDBDE80840FFF735BDFFF715BEFFF7B3BF70477047FFF7D7BAFFF757BF704708B5FFF7EFFA00F0AFFD1248D2
:400B400000F052FD00F006FD104800F083FE00F015FD00F06BFC00F03DFA962000F0EAF90B4800F029FC012000F056FD012000F02FFD012000F020FDBDE8084000221146D4
:400B80001046FFF725BF00BF450400005D0400008D0400002DE9F04172B68D4D0024062606FB045300219A881868013401F0BEFD072CF5D18748884D002450F8041F04F155
:400BC000105303F14C0221F0FF064D33C9B20B4452005B0002329A4206D012F8027C12F801EC07F806E0F5E7A8420C44E5D17B4A0023136013619360794B7A4C1A687A4B9A
:400C00007A4D1A607A4B43F2C8261A68794B1A60794A137843F002031370137C43F0020313742378A2F5863243F040032370413A137843F010031370704B03CBC2F8400D22
:400C4000C2F8441D93E8070003C56D4B2A806D4A07CA03C31A806C4A6C4B03CB1060516003CB1061516103CB5162694910620A78422042F008020A70664A612111703D2128
:400C8000A2F5F0621180644918220A7048804FF4A7700A71C8800A721A68604B1A60062283F8002245F20E52A3F81221052283F8102193F8102103F588731D462B781B067E
:400CC00006D54FF4F07000F0D7FE013EF6D1FEE740F64332524B534F1A8001224FF040231A7041F251221926A3F8202200253B784FF4F07003F0010343EA450500F0BCFE9E
:400D0000013E05F0030561D0032DF0D1464A4FF480731380454B52211970454B45491B78A1F29B61DBB281F89B3607231370482000230B708870137053713F4B02221A702F
:400D400091F89C333D4F43F0070381F89C33314B012119703A4BDFF808811B783D78394998F80060DBB2EDB203F007001B090870F6B24B7045F003033B7046F0030388F87D
:400D80000030314BE921197040F2091183F830202E4A4023137093702D4BF0221A702D4A202313700A20A2F81D1082F8353000F041FE294B88F8006044223D70274D1A70C7
:400DC00094E80F0007C52B80BDE8F081FEE700BF40290000FCFFFF479400004800760040BC070048A043004018760040C0510040C007004820760040035001408007004866
:400E0000F05100409407004812510040A007004822430040004800408240004000410040224200402542004004400040004200400F010049A146004001400040F84600403C
:400E4000CF0100496E5800400D51004001590040205B0040235B004076580040B0430040F946004008B501F035FC03680C2B00D1FEE7FEE780B51148114B0025C0B1A3F1B2
:400E8000100192C922460439161BB74204D051F8046F42F8046BF7E7114653F8046C8C1AA64202D041F8045BF9E701381033E5E701F016FCFFF7E6F8FEE700BF0100000032
:400EC000AC290000124A134B10B51A60124A134C1368134843F4007313600023032B98BF54F823204FEA830188BF0E4A0133302B4250F3D10C4B1A780C4B1A700C4B084A8B
:400F00001A60FFF747FEBDE8104000F0C3BC00BF0004FA050CED00E014ED00E00000000000C0FF1F650E0000BC760040C0C0FF1F08ED00E0014B1870704700BF7064004088
:400F4000014B1870704700BF72640040114B022210B51A70812203F80E2C082203F80C2C00240B225A719C710B4B4FF400421A6007210F2000F074FD08490F2000F062FD08
:400F8000074B10221A70074B1C70074B1C70074B1C7010BDD649004080E100E0B1100000BAC2FF1FBEC2FF1FC0C2FF1FBCC2FF1F08B500F069FD064A137843F0040313703C
:400FC000137C43F004031374BDE8084000F060BDA543004010B5074C23781BB9FFF7B6FF01232370FFF7E4FF034B4FF400421A6010BD00BF54C2FF1F00E100E02DE9F8439E
:40100000224BDFF8A8804FF40049C3F8009098F800301F4C1F4FE3703B781F4E237133781E4D637130783B782A7843EA002002F0FE0201302A7080B200F01EFD00F024FD8E
:40104000174A137803F0FB031370137C03F0FB03137400F01DFD2B78102243F002032B70E37888F80030E37888F8003023793B70637933702B7803F0EF032B70094BC3F849
:401080000090094B1A70BDE8F88300BF80E100E01CC1FF1FDB490040DC490040D6490040A543004080E200E0BAC2FF1FCA49004070B57C487C4A13780178DBB211F0400F98
:4010C000014600F0E880D80740F1D18008784538052800F2CC80DFE810F006005800CA00CA0006009A0003F0DF0003F00A03082B24D10C786B4B452C1BD16C4C247864B135
:401100006B4C6C4D24682478E4B22C7004241470694A0124147046220EE0684C2478A60728D5674C227842F00A02227060221A701BE0002414704A221A7097E00A2B40F0EF
:4011400095805F4B1C7844F0A0041C705B4C2478A5070FD50A781C7812F0080F14BF09220A2222431A7060230B70564B4FF400421A607BE0544C237843F010032370534BF2
:4011800010241C700423137070E09C0726D44A48464C05782478A5420DD2454D04782D68E4B22C5D434DE4B22C700424147002780132D2B229E041480078800704D5404882
:4011C000027842F00A0242E03F4C207840F0100020703E481024047004202BE03748007810F0020F364803D0027842F09A022EE0354D2C7844F010042C70344C10252570C2
:4012000004241470027842F0900202702FE0304D304C2E68274D20782D78C0B2EDB2355420780130C0B220702B4824780078844202D2102010701AE02048007800F0020001
:4012400000F0FF0558B11E48027842F00902027060220A701B4A4FF40040106007E01A4C207840F010002070157000E003469A0616D50B78124A13F0080F107814BF012328
:40128000022303431370104A137803F0EF03137010230B7070BD0378DB065CBF1023037070BD00BFBAC2FF1FD7490040BFC2FF1FC4C2FF1FD8490040BCC2FF1FBDC2FF1F38
:4012C000BEC2FF1F80E100E0D6490040D9490040C8C2FF1FC0C2FF1FCCC2FF1F70B5B1B11E4C2578102D05D11D4D2D782D0710D5012070BD2578602D09D11A4D4FF400464F
:401300002E60194E357805F0F705357001E0022070BD45252570154C00252570144C40002270144AC0B21160134A0F4913700A7813F0010F02F0FD020A70104A084B107053
:4013400004D012221A7004220D4B00E001221A700C4B4FF400421A60002070BDBAC2FF1FD949004080E200E0BEC2FF1FBCC2FF1FBFC2FF1FC4C2FF1FBDC2FF1FD849004074
:40138000D749004000E100E0044A0001137800F0100003F0EF0303431370704720510040044A8000137800F0040003F0FB03034313707047F0510040074A2023136002F6DE
:4013C00088321268E0215065044A11706FF441710A441360704700BF80E100E005E400E0084A137843F060031370A2F5A652133A137843F001031370137C43F0010313747A
:40140000704700BF77580040054B00F003001A7802F0FC021A701A7810431870704700BF585800400120FFF7EFBF000008B5054B1A781AB901221A70FFF7F4FFBDE808404B
:40144000FFF7CEBF55C2FF1F10B541F6FF734FF480420121022000F0C5F941F6FF73084C1A46207001210C2000F0D8F96070054800F002FABDE81040002000F003BA00BFC9
:4014800058C2FF1F9D15000070B52B4D2B4C287800F02CFA687800F029FA23782E46FF2B02D100F08DFA20702278254D06230C211046ADB200F09EFA2A4645F6A0312078BF
:4014C00000F0AAFA2178307800F04EFA6378FF2B03D100F075FA194B5870627807230C21104600F087FA174A294692B2607800F093FA6178707800F037FA0121307800F07E
:40150000DFF90121707800F0DBF900F0BDFA0E4A137843F02003137000F0BAFA0B4B1A7842F001021A701A7842F002021A70084B01221A6070BD00BF58C2FF1F22C1FF1FF0
:401540005AC2FF1FCEC2FF1F976400407664004080E200E010B5074C23691BB9FFF774FF01232361FFF790FF00F026F9024B1B7810BD00BF58C2FF1F6F64004000F02AB945
:40158000044A054BC0F105001B8832F81000C01A00B27047CEC2FF1FE4C2FF1F70470000044A00F00100137803F0FE0318431070704700BF30510040044A137803F07F0370
:4015C00043EAC010C0B21070704700BF10510040044A0001137800F0100003F0EF0303431370704710510040064A1023136002F688321268E0211065034A1170A2F5417255
:401600001360704780E100E004E400E0014B10221A60704780E200E0044A8001137800F0400003F0BF0303431370704710510040024A137843F08003137070477464004047
:40164000014B1878704700BF66650040034A044913781B0701D50B78FAE7704766650040456400400A4A08B56323137002F8203C00F00AFA074A137843F01003137000F0E8
:4016800007FAFFF7E3FF044B01221A7008BD00BF25640040966500408665004010B5054C23781BB9FFF7DEFF01232370BDE81040FFF7BEBF6CC2FF1F10B500F0E5F91A4AE8
:4016C000044613780A2043F001031370137C43F00103137402F5AA521832137843F003031370124B04221A7013F8012C42F0400203F8012C13F8012C02F0FC0203F8012C2F
:40170000C82203F8062CA3F597530222123B1A70074A137843F00803137000F08BF92046BDE8104000F0B4B9AB43004006590040275B0040082804D00A280CBF8423C4232E
:4017400000E0442308380E4AC0B20428137098BF0C4B4FF0000298BF33F910100A4B88BF11461A8042F210734B4341F2883103F6C41393FBF1F305490B60054B1A8070477D
:40178000025900406A290000DCC2FF1FE0C2FF1FE4C2FF1F08B5064A0C20137843F006031370FFF7C7FF034B00221A8008BD00BF01590040DEC2FF1F10B5054C23781BB911
:4017C000FFF7E8FF01232370BDE81040FFF774BF6DC2FF1F024A137843F00103137070470059004073B515461E460B4C04230022019200920A4601461846237000F0C0F82D
:4018000032462946207800F097F80221207800F081F8207802B070BD24C1FF1F73B515461E460B4C03230022019200920A4601461846237000F0A4F832462946207800F0DE
:401840007BF80221207800F065F8207802B070BD25C1FF1F064A0123136002F688321268E0211064034A1170A2F540721360704780E100E000E400E0014B1B6818647047A2
:4018800008ED00E04001024BC0B21870704700BF00E400E0074A7F23802113705170064A013BDBB202F80839002BF9D1034A1370704700BF28C1FF1FF87B004000780040B8
:4018C00017280FD8084B0001C25C11B142F0200201E002F0DF02C254C25C42F00102C25400207047012070471070004017280DD8074900010B4603441A7942F004021A7135
:40190000435C43F00103435400207047012070471070004017280BD8064A0001835C490003F0F10301F00E011943815400207047012070471070004041F6FF73994208BF5E
:401940004FF400519A4208BF4FF4005217289FBFC00000F1804000F5EC4081809ABFC280002001207047000017289FBF034B00011954002088BF0120704700BF19700040B8
:40198000172810B51AD8C00001F07F0100F1804441EAC21204F5EC44D2B222709DF8082003F00F0343EA0213DBB263709DF80C30002003F00F03A370E07010BD012010BD95
:4019C00010B500F061F80A4A5378182B0AD91478013B5370E30003F1804303F5F0431B78137000E0FF2400F053F8204610BD00BF28C1FF1F30B504060CD411F4704509D194
:401A0000C40004F1804404F5F0442180A270E370284630BD012030BD03065FBFC00000F1804000F5F04081805ABFC2800020012070470000024B1B7A584300F01DB800BF7B
:401A400030C1FF1F054A00F01F00126800F1100352F8230042F82310704700BF08ED00E000F01F0000F16040490100F56440C9B201707047000000000230800803D000BFE4
:401A800001380046FCD17047EFF3108072B6704780F31088704700BF81F0004102E000BF83F0004330B54FEA41044FEA430594EA050F08BF90EA020F1FBF54EA000C55EA19
:401AC000020C7FEA645C7FEA655C00F0E2804FEA5454D4EB5555B8BF6D420CDD2C4480EA020281EA030382EA000083EA010180EA020281EA0303362D88BF30BD11F0004FEA
:401B00004FEA01314FF4801C4CEA113102D0404261EB410113F0004F4FEA03334CEA133302D0524263EB430394EA050F00F0A780A4F10104D5F1200E0DDB02FA0EFC22FA89
:401B400005F2801841F1000103FA0EF2801843FA05F359410EE0A5F120050EF1200E012A03FA0EFC28BF4CF0020C43FA05F3C01851EBE37101F0004507D54FF0000EDCF13D
:401B8000000C7EEB00006EEB0101B1F5801F1BD3B1F5001F0CD349085FEA30004FEA3C0C04F101044FEA445212F5800F80F09A80BCF1004F08BF5FEA500C50F1000041EB75
:401BC000045141EA050130BD5FEA4C0C404141EB010111F4801FA4F10104E9D191F0000F04BF01460020B1FA81F308BF2033A3F10B03B3F120020CDA0C3208DD02F1140CB3
:401C0000C2F10C0201FA0CF021FA02F10CE002F11402D8BFC2F1200C01FA02F120FA0CFCDCBF41EA0C019040E41AA2BF01EB0451294330BD6FEA04041F3C1CDA0C340EDCEB
:401C400004F11404C4F1200220FA04F001FA02F340EA030021FA04F345EA030130BDC4F10C04C4F1200220FA02F001FA04F340EA0300294630BD21FA04F0294630BD94F011
:401C8000000F83F4801306BF81F480110134013D4EE77FEA645C18BF7FEA655C29D094EA050F08BF90EA020F05D054EA000C04BF1946104630BD91EA030F1EBF0021002062
:401CC00030BD5FEA545C05D14000494128BF41F0004130BD14F580043CBF01F5801130BD01F0004545F0FE4141F470014FF0000030BD7FEA645C1ABF194610467FEA655CBF
:401D00001CBF0B46024650EA013406BF52EA033591EA030F41F4002130BD00BF90F0000F04BF0021704730B54FF4806404F132044FF000054FF0000150E700BF90F0000F8E
:401D400004BF0021704730B54FF4806404F1320410F0004548BF40424FF000013EE700BF42004FEAE2014FEA31014FEA02701FBF12F07F4393F07F4F81F06051704792F0DD
:401D8000000F14BF93F07F4F704730B54FF4607401F0004521F0004120E700BF50EA010208BF704730B54FF000050AE050EA010208BF704730B511F0004502D5404261EB96
:401DC00041014FF4806404F132045FEA915C3FF4DCAE4FF003025FEADC0C18BF03325FEADC0C18BF033202EBDC02C2F1200300FA03FC20FA02F001FA03FE40EA0E0021FAA9
:401E000002F11444C1E600BF70B54FF0FF0C4CF4E06C1CEA11541DBF1CEA135594EA0C0F95EA0C0F00F0DEF82C4481EA030621EA4C5123EA4C5350EA013518BF52EA033555
:401E400041F4801143F4801338D0A0FB02CE4FF00005E1FB02E506F00042E0FB03E54FF00006E1FB03569CF0000F18BF4EF0010EA4F1FF04B6F5007F64F5407404D25FEA36
:401E80004E0E6D4146EB060642EAC62141EA55514FEAC52040EA5E504FEACE2EB4F1FD0C88BFBCF5E06F1ED8BEF1004F08BF5FEA500E50F1000041EB045170BD06F000464A
:401EC00046EA010140EA020081EA0301B4EB5C04C2BFD4EB0C0541EA045170BD41F480114FF0000E013C00F3AB8014F1360FDEBF002001F0004170BDC4F10004203C35DA20
:401F00000C341BDC04F11404C4F1200500FA05F320FA04F001FA05F240EA020001F0004221F0004110EBD37021FA04F642EB06015EEA430E08BF20EAD37070BDC4F10C04BA
:401F4000C4F1200500FA04F320FA05F001FA04F240EA020001F0004110EBD37041F100015EEA430E08BF20EAD37070BDC4F1200500FA05F24EEA020E20FA04F301FA05F2D7
:401F800043EA020321FA04F001F0004121FA04F220EA020000EBD3705EEA430E08BF20EAD37070BD94F0000F0FD101F00046400041EB010111F4801F08BF013CF7D041EAD7
:401FC000060195F0000F18BF704703F00046520043EB030313F4801F08BF013DF7D043EA0603704794EA0C0F0CEA135518BF95EA0C0F0CD050EA410618BF52EA4306D1D1D7
:4020000081EA030101F000414FF0000070BD50EA410606BF1046194652EA430619D094EA0C0F02D150EA013613D195EA0C0F05D152EA03361CBF104619460AD181EA0301AA
:4020400001F0004141F0FE4141F470014FF0000070BD41F0FE4141F4780170BD70B54FF0FF0C4CF4E06C1CEA11541DBF1CEA135594EA0C0F95EA0C0F00F0A7F8A4EB050457
:4020800081EA030E52EA03354FEA013100F088804FEA03334FF0805545EA131343EA12634FEA022245EA111545EA10654FEA00260EF000419D4208BF964244F1FD0404F5B2
:4020C000407402D25B084FEA3202B61A65EB03055B084FEA32024FF480104FF4002CB6EB020E75EB030E22BFB61A754640EA0C005B084FEA3202B6EB020E75EB030E22BFB7
:40210000B61A754640EA5C005B084FEA3202B6EB020E75EB030E22BFB61A754640EA9C005B084FEA3202B6EB020E75EB030E22BFB61A754640EADC0055EA060E18D04FEA92
:40214000051545EA16754FEA06164FEAC30343EA52734FEAC2025FEA1C1CC0D111F4801F0BD141EA00014FF000004FF0004CB6E711F4801F04BF01430020B4F1FD0C88BF63
:40218000BCF5E06F3FF6AFAEB5EB030C04BFB6EB020C5FEA500C50F1000041EB045170BD0EF0004E4EEA113114EB5C04C2BFD4EB0C0541EA045170BD41F480114FF0000EA2
:4021C000013C90E645EA060E8DE60CEA135594EA0C0F08BF95EA0C0F3FF43BAF94EA0C0F0AD150EA01347FF434AF95EA0C0F7FF425AF104619462CE795EA0C0F06D152EA72
:4022000003353FF4FDAE1046194622E750EA410618BF52EA43067FF4C5AE50EA41047FF40DAF52EA43057FF4EBAE12E74FF0FF3C06E000BF4FF0010C02E000BF4FF0010C78
:402240004DF804CD4FEA410C7FEA6C5C4FEA430C18BF7FEA6C5C1BD001B050EA410C0CBF52EA430C91EA030F02BF90EA020F0020704710F1000F91EA030F58BF994208BF82
:4022800090422CBFD8176FEAE37040F0010070474FEA410C7FEA6C5C02D150EA013C07D14FEA430C7FEA6C5CD6D152EA033CD3D05DF8040B704700BF8446104662468C4613
:4022C0001946634600E000BF01B5FFF7B7FF002848BF10F1000F01BD4DF808EDFFF7F4FF0CBF012000205DF808FB00BF4DF808EDFFF7EAFF34BF012000205DF808FB00BF2E
:402300004DF808EDFFF7E0FF94BF012000205DF808FB00BF4DF808EDFFF7CEFF94BF012000205DF808FB00BF4DF808EDFFF7C4FF34BF012000205DF808FB00BF4FEA410281
:4023400012F5001215D211D56FF47873B3EB625212D94FEAC12343F0004343EA505311F0004F23FA02F018BF404270474FF00000704750EA013005D111F0004008BF6FF07C
:40238000004070474FF00000704700BF4FEA4102B2F1E04324BFB3F5001CDCF1FE5C0DD901F0004C4FEAC0024CEA5070B2F1004F40EB830008BF20F00100704711F0804F4E
:4023C00021D113F13872BCBF01F00040704741F480114FEA5252C2F11802C2F1200C10FA0CF320FA02F018BF40F001004FEAC1234FEAD32303FA0CFC40EA0C0023FA02F3D5
:402400004FEA4303CCE77FEA625307D150EA01331EBF4FF0FE4040F44000704701F0004040F0FE4040F40000704700BF80F0004002E000BF81F0004142001FBF5FEA410388
:4024400092EA030F7FEA226C7FEA236C6AD04FEA1262D2EB1363C1BFD218414048404140B8BF5B42192B88BF704710F0004F40F4000020F07F4018BF404211F0004F41F44B
:40248000000121F07F4118BF494292EA030F3FD0A2F1010241FA03FC10EB0C00C3F1200301FA03F100F0004302D5494260EB4000B0F5000F13D3B0F1807F06D340084FEAFA
:4024C000310102F10102FE2A51D2B1F1004F40EBC25008BF20F0010040EA03007047490040EB000010F4000FA2F10102EDD1B0FA80FCACF1080CB2EB0C0200FA0CF0AABFC3
:4025000000EBC25052421843BCBFD0401843704792F0000F81F4000106BF80F400000132013BB5E74FEA41037FEA226C18BF7FEA236C21D092EA030F04D092F0000F08BFD9
:402540000846704790EA010F1CBF0020704712F07F4F04D1400028BF40F00040704712F100723CBF00F50000704700F0004343F0FE4040F4000070477FEA226216BF08466C
:402580007FEA23630146420206BF5FEA412390EA010F40F4800070474FF0000304E000BF10F0004348BF40425FEA000C08BF704743F0964301464FF000001CE050EA0102EB
:4025C00008BF70474FF000030AE000BF50EA010208BF704711F0004302D5404261EB41015FEA010C02BF84460146002043F0B64308BFA3F18053A3F50003BCFA8CF2083AD9
:40260000A3EBC25310DB01FA02FC634400FA02FCC2F12002BCF1004F20FA02F243EB020008BF20F00100704702F1200201FA02FCC2F1200250EA4C0021FA02F243EB02002E
:4026400008BF20EADC7070474FEA4002B2F1FE4F0FD34FF09E03B3EB12620DD94FEA002343F0004310F0004F23FA02F018BF404270474FF00000704712F1610F01D14202A2
:4026800005D110F0004008BF6FF0004070474FF00000704742000ED2B2F1FE4F0BD34FF09E03B3EB126209D44FEA002343F0004323FA02F070474FF00000704712F1610F31
:4026C00001D1420202D14FF0FF3070474FF00000704700BF014B1868704700BFA0C1FF1F0E4B70B51E460E4C0025E41AA410A54204D056F8253098470135F8E700F03CF9CC
:40270000084B094C1E46E41AA4100025A54204D056F8253098470135F8E770BD8429000084290000842900008C29000003460244934202D003F8011BFAE770470000000096
:402740000000010004000900100019002400310040005100640079009000A900C400E10000012101440169019001B901E401110240027102A402D902100349038403C1038C
:40278000000441048404C90410055905A405F10540069106E40639079007E9074408A10800096109C409290A900AF90A640BD10B400CB10C240D990D100E890E040F810F53
:4027C0000010811004118911101299122413B1134014D1146415F91590162917C41761180019A119441AE91A901B391CE41C911D401EF11EA41F59201021C9218422412317
:402800000024C124842549261027D927A4287129402A112BE42BB92C902D692E442F21300031E131C432A933903479356436513740383139243A193B103C093D043E013FD7
:402840000040014104420943104419452446314740485149644A794B904CA94DC44EE14F00512152445369549055B956E4571159405A715BA45CD95D105F49608461C1629B
:40288000006441658466C9671069596AA46BF16C406E916FE47039729073E9744476A1770079617AC47B297D907EF97F6481D1824084B18524879988108A898B048D818E62
:4028C0000090819104938994109699972499B19A409CD19D649FF9A090A229A4C4A561A700A9A1AA44ACE9AD90AF39B1E4B291B440B6F1B7A4B959BB10BDC9BE84C041C226
:4029000000C4C1C584C749C910CBD9CCA4CE71D040D211D4E4D5B9D790D969DB44DD21DF00E1E1E2C4E4A9E690E879EA64EC51EE40F031F224F419F610F809FA04FC01FEE6
:40294000C8490040190040510040300000000140001000140140000800400140000A004C014000020050014020000001000000040000001043000000F8B500BFF8BC08BC37
:402980009E4670474D000000C50E0000F8B500BFF8BC08BC9E46704729000000B0290000C8C0FF1FE0000000400100000000000000000000BD0A0000CF0A0000DD0A00008D
:4029C000ED0A0000110B00001F0B0000230B0000270B0000290B00002B0B00000008010000000100000001000101010100010001444820CB3421EC2C9A107C15004600005A
:402A000001000000008102080B00FFFFFFFF00007F8000001F0000000000DC82B805010043000000C056FE030000000000000000000000000000000000000000000000006F
:402A400000000000000000007429000000000000000000000000000000000000000000000000000000000000000000000000000000000000000000000000000000000000B9
:402A8000000000000000000040C1FF1F00000000000000000000000000000000000000000000000000000000000000000000000000000000000000000000000000000000F7
:402AC00000000000000000000000000000000000000000000000000000000000000000000000000000000000000000000000000000000000000000000000000000000000D6
:402B00000000000000000000000000000000000000000000000000000000000000000000000000000000000000000000000000000000000000000000000000000000000095
:402B40000000000000000000000000000000000000000000000000000000000000000000000000000000000000000000000000000000000000000000000000000000000055
:402B80000000000000000000000000000000000000000000000000000000000000000000000000000000000000000000000000000000000000000000000000000000000015
:020000040001F9
:0200000480007A
:400000000145004008520040015B00400164004001650040250001403501014040020140530301403104014041050140130601403A07014007090140080B0140110D0140E5
:40004000260E0140370F01402014014033150140221601403817014007190140041B014012400140184101400842014005430140034401400B450140094601400A47014040
:4000800008480140064901400B4C0140084D014009500140055101407E0200610128140318021CC0602061307C4027848705860D01660609070F0A040B330C590E260F8012
:4000C00010401219135516091A0A1B801D551E19217822092E2930403180320C3403357F36303AA83F105608580A59045B045C125D905F01D804D904DF010048030805244E
:40010000060209080A860B010E430F201140130214081A841B4A23482B402D202F4031203240330136A039143A803B013E423F204D404F80584069146B4170207140722094
:400140007380790881048260838089208A028B08C0E7C2BFC449CAA1CC3DCEBFD608DE02E045E609010203010403090C0A030B100D180E040F041001111C12021403151CA2
:400180001B1C1C031D1C211C2204280329012B022E0330043103330434023510360137083E013F01580459045B045F018055857886788F809033955596559B0F9E809F55E0
:4001C000A166A266A40FAF33B180B280B37FB67FBB02BE40BF04D608D80AD904DB04DC12DD90DF010008034005240701080209880C400E400F2010201302140915021A10D9
:400200001B801C801F6021012204244025402718280229412C402E1230203108334034013524368138043B403E403F22588059015B02618063026F01790880808308874089
:4002400089409340944095089642980899449B409D209E829F02A020A281A352A404A528AA20AB10AE05AF40B040B408B680B708C0ECC2BDC4DCCAA9CCFECEBAD608D80860
:40028000DE02E623E806EA09EE0507200D5D0FA21104135917521F9023512D082F55310C3303353037C03BA852805804590A5B045C205D105F019601AE01B001BE01C01602
:4002C000C5ECC620C80BC9FFCAFFCBFFCF01D018D804D904DA04DD01DF01E040E240E440E540E680E880EA80EC80EE80016002110320050406010BC00E020F6010051280F7
:4003000014081502161017801E80200C2108224123022B422C402F603108324134043524368138443D403E4047804F25552057107280738079089040940495089642980984
:4003400099049C409D209E809F02A281A342A404A528AB30AE04B040B380C0A7C2B8C4FBCAC9CCFBCE1AD010D220DE02EC0852035302580459045B045F01810185019E010A
:40038000B001B501B920BF10D602D736D804D904DB0CDF0100400120032004800504080109800F221004128114081502160118C0200429202A012F203005328033203404D3
:4003C0003521368038883B423F425B046004680269056A206C046D406F0670107180794085218B029305950A9740980D9D209E01A2C0A720C0A7C2A9C4DBCA45CCFFCE9B33
:40040000D602D804DE08EE048B40962097809D44A710E480EE04962097809D44A710AE10B040E880EC20962097809C409D44A610A710A840A904AA08AC80AF04B080B50120
:40044000B610E603E810EAC15608580459045B045D905F0180048106850586018A288B038C07904093189406970599109A809E40A202A428A818AE30B110B207B308B438F7
:40048000B6C0B707BE14BF40D401D804D90FDB0FDC09DF01011004040648070108180A200D020E220F081084110412011440160617041C041E021F04244025022721281823
:4004C0002B10308431443609372439143A013D223E0A3F04588059105C4063087F40811082058310870489148A408D10C0F2C2F6C4FFCA06CCEACEE7D61CD804DE80E0E0F7
:40050000E4800202030407080B010D0215011B101F022108260129042A043004311F3201340239023F01580459045F018001840188018C019601A201AE01B001D804D90425
:40054000DF010044010104C005150A9A0F2010401214144216801781180419151A901F02210122012380280229112B102C4031A433013515378038A039053A143C403F2059
:400580008F0290A09105920895029A809D15A1A0A310B301B510C0FDC22FC49ECA8FCCFFCE3FE640E810EA0154015604580459045B045D105F018104850889018F0291805E
:4005C0009340970199209B109D02A308A510A602A720AB04AD40AE01AF80B001B402B5FFBB0CBF10D804D904DC20DF01004004C0051408480A880F221016124014801502AB
:4006000016411A881B312124284829112A812B112F203016318432103480351538A039053C403F025E805F056740810487408F1090A0910592209305950A9D059E01A002DC
:40064000A180A240A731AB01C0E1C2AFC49FCA4FCCFFCE9FD6D0D880E401EE0683108D0496209D44A710E010EE06B140B610E8D0EA0114081A2032803308364037043B2057
:40068000411069206A2085408C08C480C610CCF0CE10D010E61031403C4057805B1866806710831087188A8097209940A640A708AA80AB04CC10CE20D4C0D6C0D880E230C7
:4006C000E640EA80EE203E1094409720A640AB88CE20EA20EE2096109720A640A840EE2010101460C40C0F2050088310864097019830AB01B050C204D404EA051B042440CB
:4007000097019830A640B008C608C801EC040B410E804402904097019830A640AB04C20ED0042408871096109720AE40C820E640EE4056208E20AA10B404D440EA801040FD
:400740001320148078107C2098309C02A840AF40C40EDE0378407C8098C0AB20B402DC01DE04E80800070101080709010A070E010F0110071A0700AB010F03C010801102B7
:400780000000000000E9FB003000000030003000000000004000003034000000C000000000D7D700000000002308180008000000C001010000020200060014010003000084
:4007C00000040000000000000000000000000000000000000000000000000000000000000000000000000000000000000000000000000000000000000000000000000000F5
:4008000000000000000000000000000000000000000000000000000000000000000000000000000000000000000000000000000000000000000000000000000000000000B8
:400840000000000000000000000000000000000000000000000000000000000000000000000000000000000000000000000000000000000000000000000000000000000078
:400880000000000000000000000000000000000000000000000000000000000000000000000000000000000000000000000000000000000000000000000000000000000038
:4008C00000000000000000000000000000000000000000000000000000000000000000000000000000000000000000000000000000000000000000000000000000000000F8
:0200000490006A
:0400000000004005B7
:0200000490105A
:04000000BC90ACAF55
:0200000490303A
:02000000CAFE36
:0200000490402A
:4000000000000000000000000000000000000000000000000000000000000000000000000000000000000000000000000000000000000000000000000000000000000000C0
:400040000000000000000000000000000000000000000000000000000000000000000000000000000000000000000000000000000000000000000000000000000000000080
:0200000490501A
:0C00000000012E10306900012E22FB6769
:00000001FF