:400000000040002011000000451100004511000008B5044B1A6803F53F5302331A6001F099F800BFFA46004010B5054C237833B9044B13B10448AFF300800123237010BD79
:40004000B8C1FF1F00000000482D0000084B10B51BB108490848AFF300800848036803B910BD074B002BFBD0BDE81040184700BF00000000BCC1FF1F482D0000C8C0FF1F78
:400080000000000008B500F0BBFE62B60E4D0F4C0F4E2B78012B14D100232B70237856F82330984723780133DBB2237022780A23B2FBF3F101FB1323DBB2237000F066FE35
:4000C000E7E700F065FEE4E7DCC1FF1FDDC1FF1FCCC0FF1F030A0B701070704740F2E631054A0020138801339BB28B428ABF108013800120704700BFD4C1FF1F054A00206E
:40010000538801339BB2622B8ABF508053800120704700BFD4C1FF1F38B50020002401F0EDF8054D002001F0F5F82046AC8001F049FEAC7138BD00BFD4C1FF1F40F6C312F0
:4001400010B50E4CA388934209D8012001F0D6F8012001F0DFF8A3880133A38010BD40F6C412934209D1012001F02CFE00F0B0FDA3880133A3800123A37110BDD4C1FF1F99
:4001800010B50B88C45C18444278023302EB04200B8080B210BD30B50C880319055DDA78587802EB056202EB0042987804340C8002EB002030BD000008B50D4BB3F90400B2
:4001C00002F0F4FC02F05AF907A3D3E9002302F0A9F902F0E1FB02F063FD064B80B2588008BD00BFAFF300809A9999999999054096C2FF1F10C3FF1F054BB3F90A004FF40E
:40020000800393FBF0F0034B80B29880704700BF96C2FF1F10C3FF1F144B70B51A681F2A11DC2AB103EB4201013288801A601AE0114616460D4C251D25F81160013120290A
:40024000F8D16164EEE7191D03F14205002231F8024FA94221F8024C2244F8D1A3F842001044C0F34F10024BD88070BDE0C1FF1F10C3FF1F000000000F4B10B5B3F90000FD
:4002800002F094FC02F0FAF809A3D3E9002302F049F902F081FB02F003FD084C80B22080FFF7BAFFE080208810BD00BFAFF30080CFF753E3A59B2D4096C2FF1F10C3FF1F1E
:4002C00008B5114BB3F90200104BB3F90030C01A02F0C2F80AA3D3E9002302F023F902F033FB46F2A813984205DC094B9842B8BF184600B200E01846064B988108BD00BF31
:40030000EC51B81E856B284096C2FF1FF4C0FF1F589EFFFF10C3FF1F38B51D4B1D4CB3F90800A0F5CD7002F097F817A3D3E9002302F0F8F802F030FB02F08CFC94F848304A
:4003400045B23BB910222946134802F0F5FC012384F8483094F849300F49013303F00F0384F84930CD5400231A46C8560133102B0244FAD192FBF3F3084CA37300F01EFAE9
:4003800094F90E0038BD00BF08AC1C5A643BBF3F96C2FF1FE0C1FF1FA2C2FF1F10C3FF1F37B5314C314A00238DF806308DF807302370137823B1012363700223137000E090
:4003C00063702B4D0DF107020DF106012888FFF781FE9DF806300DF10702A3709DF807300DF106016888E370FFF774FE9DF806300DF1070223719DF807300DF10601A888B9
:400400006371FFF767FE9DF806300DF10702A3719DF807300DF10601A889E371FFF75AFE9DF806300DF1070223729DF807300DF106016372AB7B2888A3722B7CE3720D4CB6
:400440000123237000236370A370FFF743FE9DF80630E3709DF807302371AB7B63712B7CA37103B030BD00BFDFC2FF1F5AC2FF1F10C3FF1FD5C2FF1F10B52A4B1B78002B5C
:400480004FD040F6B731284A138810468B4202D80133138010BD93780A210133DBB2B3FBF1F201FB1233DBB2837053BB1F4A117855290CD111681E4C13602160516853607A
:4004C0006160916893601B4B0122A1601A70C378012B09D8144A0133D370144900230C22222001F059F914E000230C221249222001F0FCF8114B1A78022A0AD100221A7083
:4005000007E0052B0DD1002307220D49332001F0EDF8022805D100F079FFBDE8104000F061BF10BDDAC1FF1F3EC2FF1FB2C2FF1FF7C2FF1FD4C2FF1FDFC2FF1F5AC2FF1FD4
:40054000D5C2FF1FF0B5224D87B02B78002B3DD0002213461F48115C01320B440B2ADBB21C4EF8D1F27A9A422ED1012306AC24F8123D21463046FFF703FE074600F0CAFA7D
:40058000154B1B88BB4202D0384600F021FC21461048FFF7F5FD2146ADF80A000D48FFF7FAFDBDF806300390F25C8DF814209A1C01339BB2F35CADF806208DF8163006AB8D
:4005C00013E90F0000F016FB00232B7007B0F0BDD4C2FF1FF7C2FF1F70C2FF1F08B500F021FE00F0B5FE024B01221A7008BD00BFDCC1FF1FF8B5094C00232646084F2370CF
:400600002578052D08D8284601F0AAFA337827F8150001333370F3E7F8BD00BF42C2FF1F96C2FF1F014B01221A70704794C2FF1F30B4104B104C00EB40001A181B5C206851
:4006400051789278451C5B42494252427C2DDBB2C9B2D2B2256006D97C387C284FF0000002D9206000E0FF200240014030BC184000F0DCBAF6C0FF1F44C2FF1F38B50024AA
:40068000054D02232246214620462C602B716C7100F0CCFAEC8038BD44C2FF1F0A4B0B4AB3F90630B3F5FA7F094BD5BF0120002010721072D5BF1A7C1A7C62F07F0202F0EF
:4006C0007F021A74704700BF96C2FF1F44C2FF1F10C3FF1F0346104870B5104A9C00051932F813606D8AAE42054698BF08782C449CBF0130087032F81350A48A94BF0020C8
:400700000120A54228BF0878134422BF013008700220587470BD00BFF6C0FF1F10C3FF1F73B5002002AD05F8010D2946FFF7D2FF204C0128237C294614BF43F0020323F0D1
:40074000020301202374FFF7C5FF294606460220FFF7C0FF0128237C01D1012E02D043F0040301E023F004032374134B1A78237C012A03D143F0080323740EE003F0F703CB
:40078000022A237409D19DF8072043F0100301328DF80720074A137403E0237C23F0100323749DF80730002B0CBF0120022002B070BD00BF10C3FF1F3CC2FF1F0D4B0E4846
:4007C00093F90E1090F91F208A421A4605DD90F91E00884207DB002000E00220137C43F00103137470471A7C012022F001021A74704700BF10C3FF1FF6C0FF1F304B10B52B
:40080000597A304A012913D002D302291DD052E0002159819981D17C01294CD1517C012911D041F26F71D088884244D8022143E0517C002939D141F288305989013189B2ED
:400840008142598137D8012136E0D07C58B999895881013189B2B1F57A7F998194BF02210021597229E0517C012903D100205881988121E081B941F27070D48884420BD97A
:4008800041F288345889013080B2A04201D85881CCE7598199810FE00021598199890029C4D0074801398181C0E759890029CAD001395981C7E700215972587A507510BD18
:4008C00044C2FF1F10C3FF1FC306054B58BF00F001005B7D48BF0120002B08BF0120704710C3FF1FF8B5884C2379042B00F2F080DFE813F0050028005000B900DE00FFF785
:40090000CDFE0246D8B123687F4A0133B3F57A7F23BF002313600123136028BF13717B4B5B7D022B0BBF22682168C2F38702002207BF11460020C1F387011046CBE0206076
:400940000146C8E0FFF7AAFED8B1704B5A7D1D46012A08D1FFF7E4FE0128064603D1FFF767FEA673F8BD6B7D022B04D10320FFF75FFE012303E00020FFF75AFE0023A37310
:40098000F8BDA37B1BB1BDE8F840FFF777BE04232371F8BD012000F08DFCFFF7CFFBE37B13B1594B96221A82258A584E2DB1564B013D1D82FF22002106E0554B1F782FB1BC
:4009C00000F080F92A46014610460BE0737D022B40F0858000F076F9054600F073F929460246384600F022F9FFF758FEE38810B10133E38003E013B1434A013BD380A27C0E
:400A0000414B3AB950B1DA7C002A79D10121D9749A8275E010B1DB7C002B71D1E37C3A4A0BB9002309E00028FBD1938AD0744C3B9BB2C62BF5D801239375E373E388324905
:400A4000B3F5AF7FA07408D3002203230A60CA800B711046114600F0E9F8307CFFF734FF002894D1F8BDFFF719FEE38810B10133E38003E013B1244A013BD3802368E2883B
:400A8000A3EBD3039A4201D2FFF7F8FD23681E4A0133B3F57A7F25BF0023136013600423206828BF137100221146C0F3870012E000221046114600F0B9F8002000F0FAFB4F
:400AC000FFF72AFBFFF7EAFD0028FBD12071F8BD00210846FF22BDE8F84000F0A7B8012B05D100F0EFF83946024638467AE700F0E9F8054600F0E6F83A460146284671E712
:400B0000A38A0133A38289E744C2FF1F10C3FF1FDBC1FF1F44F26723984205D94AF6C873984228BF184601E044F26820014B5882704700BFF6C0FF1F0A4910B50B680C2414
:400B4000013393FBF4F204FB12330B604BB9064A1378072B03F1010111709CBF034A22F8130010BD18C1FF1F5CC2FF1F26C3FF1F00231A4610B51B4830F912100132002968
:400B8000B8BF4942082A0B44F6D1174800220270164ADB1011790B41517C802906D1117C8B4206DD591A0A2404FB0133FF2BA8BFFF230F4931F8134043680B492344D48830
:400BC000D268A3428CBF1B1B00234B6043689A4206D8064A9068834234BF0120022010BD002010BD26C3FF1F5CC2FF1F18C1FF1F4C2D000030B585B08DE80F008B00052123
:400C0000B3FBF1F39DF80E20074D02F00F0122F07F028DF8001002938DF80D209DE80F0085E80F0005B030BD1CC1FF1F024B187059709A70704700BF64C2FF1F38B5204C32
:400C4000E078A8B923781BB100F040FB0123237163782BB1002000F021FB194B01225A71A3782BB1002000F03DFB154B01229A712379134D43B1EA782B789A4204D30120A6
:400C800000F024FB00232B7163790D4D43B1EA786B789A4204D3012000F000FB00236B71A379074D43B1EA78AB789A4204D3012000F018FB0023AB71E3780233E37038BD62
:400CC00064C2FF1F014BD879704700BF64C2FF1F044B0022DA701A715A719A711A815A81DA71704764C2FF1F0A494FF47A704B8901339BB2B3FBF0F200FB12339BB2B3F5E7
:400D0000F97F4B8188BFC31A0B810B895B08CB71704700BF64C2FF1F08B5FFF7ADFAFFF74BFABDE80840FFF7CBBA08B5FFF764FABDE80840FFF7F0BA08B5FFF731FBBDE8B3
:400D40000840FFF799BB000008B5064BB3F90C00FFF7F2FEFFF7D2F918B1FFF709FF024B187008BD10C3FF1F3CC2FF1F08B5FFF745FDBDE80840FFF7D3BCFFF7B3BDFFF743
:400D8000B3BFFFF7DFBB7047FFF7A8B9FFF756BF704701F03EB8000038B5002001F03BF80546012001F037F80446022001F033F8CC2818BF44F25062044B03BF44EA05241A
:400DC00001201C801A8018BF002038BD70C2FF1F1FB5044610220021684601F0ADFF230A8DF80030CC238DF802308DF8014001F026F80021684601F027F8002004B010BDC7
:400E000008B5FFF789F900F03BFA164800F08EFA00F090FE144800F081FF00F09FFE00F0C3FF00F0DFFAFFF7B4FFFFF7B5FF0F4B1888FFF76FFE962000F0DEFF0C4800F0B9
:400E4000C7FF012000F042FA012000F027FA012000F048FABDE80840002211461046FFF7E5BE00BFDD050000F505000070C2FF1F250600002DE9F04172B68D4D00240626D6
:400E800006FB045300219A881868013401F054FF072CF5D18748884D002450F8041F04F1105303F14C0221F0FF064D33C9B20B4452005B0002329A4206D012F8027C12F853
:400EC00001EC07F806E0F5E7A8420C44E5D17B4A0023136013619360794B7A4C1A687A4B7A4D1A607A4B43F2C8261A68794B1A60794A137843F002031370137C43F0020308
:400F000013742378A2F5863243F040032370413A137843F010031370704B03CBC2F8400DC2F8441D93E8070003C56D4B2A806D4A07CA03C31A806C4A6C4B03CB10605160CD
:400F400003CB1061516103CB5162694910620A78422042F008020A70664A612111703D21A2F5F0621180644918220A7048804FF4A7700A71C8800A721A68604B1A60062225
:400F800083F8002245F20E52A3F81221052283F8102193F8102103F588731D462B781B0606D54FF4F07000F093FF013EF6D1FEE740F64332524B534F1A8001224FF0402352
:400FC0001A7041F251221926A3F8202200253B784FF4F07003F0010343EA450500F078FF013E05F0030561D0032DF0D1464A4FF480731380454B52211970454B45491B7861
:40100000A1F29B61DBB281F89B3607231370482000230B708870137053713F4B02221A7091F89C333D4F43F0070381F89C33314B012119703A4BDFF808811B783D783949E1
:4010400098F80060DBB2EDB203F007001B090870F6B24B7045F003033B7046F0030388F80030314BE921197040F2091183F830202E4A4023137093702D4BF0221A702D4A77
:40108000202313700A20A2F81D1082F8353000F0ABFC294B88F8006044223D70274D1A7094E80F0007C52B80BDE8F081FEE700BF4C2F0000FCFFFF47940000480076004094
:4010C000F8070048A043004018760040C0510040FC0700482076004003500140BC070048F0510040D007004812510040DC0700482243004000480040824000400041004089
:40110000224200402542004004400040004200400F010049A146004001400040F8460040CF0100496E5800400D51004001590040205B0040235B004076580040B0430040CE
:40114000F946004008B501F0CBFD03680C2B00D1FEE7FEE780B51148114B0025C0B1A3F1100192C922460439161BB74204D051F8046F42F8046BF7E7114653F8046C8C1A1F
:40118000A64202D041F8045BF9E701381033E5E701F0ACFDFEF776FFFEE700BF01000000B82F0000124A134B10B51A60124A134C1368134843F4007313600023032B98BFD6
:4011C00054F823204FEA830188BF0E4A0133302B4250F3D10C4B1A780C4B1A700C4B084A1A60FFF747FEBDE8104000F02DBB00BF0004FA050CED00E014ED00E000000000AE
:4012000000C0FF1F45110000BC760040C0C0FF1F08ED00E0024A137843F08003137070477F640040014B1878704700BF66650040034A044913781B0701D50B78FAE7704716
:4012400066650040466500400A4A08B56323137002F8203C00F044FE074A137843F01003137000F041FEFFF7E3FF044B01221A7008BD00BF26650040966500408665004079
:4012800010B5054C23781BB9FFF7DEFF01232370BDE81040FFF7BEBF72C2FF1F044A0001137800F0100003F0EF0303431370704710510040044A00F00100137803F0FE03C7
:4012C00018431070704700BF30510040044A8001137800F0400003F0BF0303431370704710510040044A137803F07F0343EAC010C0B21070704700BF10510040044A80005A
:40130000137800F0040003F0FB03034313707047F0510040044A0001137800F0100003F0EF0303431370704720510040064A1023136002F688321268E0211065034A1170E6
:40134000A2F541721360704780E100E004E400E0014B10221A60704780E200E0114B022210B51A70812203F80E2C082203F80C2C00240B225A719C710B4B4FF400421A607D
:4013800007210F2000F046FB08490F2000F034FB074B10221A70074B1C70074B1C70074B1C7010BDD649004080E100E0C114000036C3FF1F3AC3FF1F3CC3FF1F38C3FF1FB4
:4013C00008B500F08DFD064A137843F004031370137C43F004031374BDE8084000F084BDA543004010B5074C23781BB9FFF7B6FF01232370FFF7E4FF034B4FF400421A6079
:4014000010BD00BF73C2FF1F00E100E02DE9F843224BDFF8A8804FF40049C3F8009098F800301F4C1F4FE3703B781F4E237133781E4D637130783B782A7843EA002002F0B2
:40144000FE0201302A7080B200F042FD00F048FD174A137803F0FB031370137C03F0FB03137400F041FD2B78102243F002032B70E37888F80030E37888F8003023793B7071
:40148000637933702B7803F0EF032B70094BC3F80090094B1A70BDE8F88300BF80E100E02CC1FF1FDB490040DC490040D6490040A543004080E200E036C3FF1FCA490040E6
:4014C00070B57C487C4A13780178DBB211F0400F014600F0E880D80740F1D18008784538052800F2CC80DFE810F006005800CA00CA0006009A0003F0DF0003F00A03082B96
:4015000024D10C786B4B452C1BD16C4C247864B16B4C6C4D24682478E4B22C7004241470694A0124147046220EE0684C2478A60728D5674C227842F00A02227060221A706B
:401540001BE0002414704A221A7097E00A2B40F095805F4B1C7844F0A0041C705B4C2478A5070FD50A781C7812F0080F14BF09220A2222431A7060230B70564B4FF4004200
:401580001A607BE0544C237843F010032370534B10241C700423137070E09C0726D44A48464C05782478A5420DD2454D04782D68E4B22C5D434DE4B22C70042414700278A0
:4015C0000132D2B229E041480078800704D54048027842F00A0242E03F4C207840F0100020703E481024047004202BE03748007810F0020F364803D0027842F09A022EE069
:40160000354D2C7844F010042C70344C1025257004241470027842F0900202702FE0304D304C2E68274D20782D78C0B2EDB2355420780130C0B220702B48247800788442F9
:4016400002D2102010701AE02048007800F0020000F0FF0558B11E48027842F00902027060220A701B4A4FF40040106007E01A4C207840F010002070157000E003469A0637
:4016800016D50B78124A13F0080F107814BF0123022303431370104A137803F0EF03137010230B7070BD0378DB065CBF1023037070BD00BF36C3FF1FD74900403BC3FF1F15
:4016C00040C3FF1FD849004038C3FF1F39C3FF1F3AC3FF1F80E100E0D6490040D949004044C3FF1F3CC3FF1F48C3FF1F70B5B1B11E4C2578102D05D11D4D2D782D0710D5E4
:40170000012070BD2578602D09D11A4D4FF400462E60194E357805F0F705357001E0022070BD45252570154C00252570144C40002270144AC0B21160134A0F4913700A78B8
:4017400013F0010F02F0FD020A70104A084B107004D012221A7004220D4B00E001221A700C4B4FF400421A60002070BD36C3FF1FD949004080E200E03AC3FF1F38C3FF1F8F
:401780003BC3FF1F40C3FF1F39C3FF1FD8490040D749004000E100E070B5B1B11F4C2578102D05D11E4D2D782D0710D5012070BD2578602D09D11B4D4FF400462E601A4E4C
:4017C000357805F0F705357001E0022070BD49252570164C00252570154C40002270154A40F001001160144A0F4913700A78C0B202F0FE020A70114A13F0010F1070084B49
:4018000004D012221A7004220D4B00E001221A700C4B4FF400421A60002070BD36C3FF1FD949004080E200E03AC3FF1F3CC3FF1F48C3FF1F44C3FF1F39C3FF1FD8490040AC
:40184000D749004000E100E0074A7F23802113705170064A013BDBB202F80839002BF9D1034A1370704700BF34C1FF1FF87B00400078004017280FD8084B0001C25C11B108
:4018800042F0200201E002F0DF02C254C25C42F00102C25400207047012070471070004017280DD8074900010B4603441A7942F004021A71435C43F001034354002070478B
:4018C000012070471070004017280BD8064A0001835C490003F0F10301F00E011943815400207047012070471070004041F6FF73994208BF4FF400519A4208BF4FF4005217
:4019000017289FBFC00000F1804000F5EC4081809ABFC280002001207047000017289FBF034B00011954002088BF0120704700BF19700040172810B51AD8C00001F07F019D
:4019400000F1804441EAC21204F5EC44D2B222709DF8082003F00F0343EA0213DBB263709DF80C30002003F00F03A370E07010BD012010BD10B500F0B3FA0A4A5378182B38
:401980000AD91478013B5370E30003F1804303F5F0431B78137000E0FF2400F0A5FA204610BD00BF34C1FF1F30B504060CD411F4704509D1C40004F1804404F5F044218099
:4019C000A270E370284630BD012030BD03065FBFC00000F1804000F5F04081805ABFC2800020012070470000024B1B7A584300F06FBA00BF3CC1FF1F054A00F01F001268C0
:401A000000F1100352F8230042F82310704700BF08ED00E000F01F0000F16040490100F56440C9B20170704710B541F6FF734FF480420121022000F039F941F6FF73084C81
:401A40001A46207001210C2000F04CF96070054800F076F9BDE81040002000F077B900BF74C2FF1F7D1B000070B52B4D2B4C2878FFF716FF6878FFF713FF23782E46FF2BB7
:401A800002D1FFF777FF20702278254D06230C211046ADB2FFF788FF2A4645F6A0312078FFF794FF21783078FFF738FF6378FF2B03D1FFF75FFF194B5870627807230C212E
:401AC0001046FFF771FF174A294692B26078FFF77DFF61787078FFF721FF01213078FFF7C9FE01217078FFF7C5FE00F0F9F90E4A137843F02003137000F0F6F90B4B1A7846
:401B000042F001021A701A7842F002021A70084B01221A6070BD00BF74C2FF1F4CC1FF1F76C2FF1F4AC3FF1F976400407664004080E200E010B5074C23691BB9FFF774FF40
:401B400001232361FFF790FF00F09AF8024B1B7810BD00BF74C2FF1F6464004000F09EB8044A054BC0F105001B8832F81000C01A00B270474AC3FF1F60C3FF1F7047000011
:401B800010B500F0ADF91A4A044613780A2043F001031370137C43F00103137402F5AA521832137843F003031370124B04221A7013F8012C42F0400203F8012C13F8012CC3
:401BC00002F0FC0203F8012CC82203F8062CA3F597530222123B1A70074A137843F008031370FFF701FF2046BDE8104000F07CB9AB43004006590040275B0040082804D093
:401C00000A280CBF8423C42300E0442308380E4AC0B20428137098BF0C4B4FF0000298BF33F910100A4B88BF11461A8042F210734B4341F2883103F6C41393FBF1F3054939
:401C40000B60054B1A80704702590040762F000058C3FF1F5CC3FF1F60C3FF1F08B5064A0C20137843F006031370FFF7C7FF034B00221A8008BD00BF015900405AC3FF1FBF
:401C800010B5054C23781BB9FFF7E8FF01232370BDE81040FFF774BF88C2FF1F024A137843F00103137070470059004073B515461E460B4C04230022019200920A46014661
:401CC00018462370FFF736FE324629462078FFF70DFE02212078FFF7F7FD207802B070BD4EC1FF1F73B515461E460B4C03230022019200920A46014618462370FFF71AFEBF
:401D0000324629462078FFF7F1FD02212078FFF7DBFD207802B070BD4FC1FF1F064A0123136002F688321268E0211064034A1170A2F540721360704780E100E000E400E044
:401D4000014B1B681864704708ED00E04001024BC0B21870704700BF00E400E0084A137843F060031370A2F5A652133A137843F001031370137C43F001031374704700BFF0
:401D800077580040054B00F003001A7802F0FC021A701A7810431870704700BF585800400120FFF7EFBF000008B5054B1A781AB901221A70FFF7F4FFBDE80840FFF7CEBFB5
:401DC00089C2FF1F014B1870704700BF70640040074A2023136002F688321268E0215065044A11706FF441710A441360704700BF80E100E005E400E0014B1870704700BFC4
:401E00007464004008B500F073F8BDE8084000F0B9B8FFF7F7BF38B5044600F061F8054600F0D8F804F1804303F500431C7800F0DDF8E4B2284600F057F8204638BD08B546
:401E400000F056F8C0B208BD38B50D46044600F0D5F82B0632D400F05FF9002830D110222146402000F0FAF8072808D1164A1378154C13F0020FFAD02378980702D44FF0A2
:401E8000FF3418E023789B08F9D1104A294653784020127800F006F90728F0D122780A4B9107FBD51A789207E9D51B789B0814BF4FF0FF34002400F04FF902E0012400E094
:401EC0000424204638BD00BF2247004062C3FF1F0230800803D000BF01380046FCD17047EFF3108072B6704780F31088704700BF70B500F083F800F00FF908B104243AE010
:401F000000F044F90728044610D11C4D2A781B4B900703D40120FFF767FDF7E71A78910704D51B789B0814BF0724002400F014F90CBB00F063F800F0EFF80028DED10120A9
:401F400000F0D0F807280AD10C4D02210C4800F067F80228094E05D02B789B07F5D54FF0FF3406E033789A0703D40120FFF73CFDF8E700F0F1F8204670BD00BF224700409D
:401F800062C3FF1F08B5FFF7ABFF0F4A137843F008031370137C43F0080313740B4BC8221A700B4A137843F010031370137C43F01003137402F5557213789B06FCD5BDE859
:401FC0000840FFF791BF00BFA043004001470040AC430040044B1A7842F001021A701A789207FCD5704700BF02470040024A137803F0FE03137070470247004008B5FFF7DE
:402000006FFF064A137843F008031370137C43F008031374BDE80840FFF766BFA04300402DE9F0410E464B1E0A4FDFF82C80451EC418A5420BD03B78DB0703D40120FFF7B3
:40204000D3FCF8E798F8003005F8013FF1E73046BDE8F081224700402047004030B50F4C23789D0715D50E4BB6251D70D5251D7002251D702478A4070DD40C461870601A20
:4020800080B2824203D914F8010B1870F7E7072030BD042030BD092030BD00BF224700402047004070B50D4D2C78A60712D50C4CB6262670D8262670052626702D78AD0757
:4020C0000AD42070080AC9B22070217022702370072070BD042070BD092070BD22470040204700400A4A137899070CD5094BB6211970E12119700E2119701278920704D402
:40210000187007207047042070470920704700BF224700402047004038B5FFF7E1FE0C4A147874B901250B4915700B682B400AD00B6823F001030B6000BF00BF00BF556000
:4021400002E0042400E01C46FFF7CEFE204638BD8CC2FF1F0400084010B5FFF7C1FE094B00215A681970012A08D1074C226842F00102226000BF00BF00BF5960BDE8104081
:40218000FFF7B2BE8CC2FF1F04000840074B1B789B0708D5064BB6221A70E0221A700D221A70072070470420704700BF224700402047004081F0004102E000BF83F00043D4
:4021C00030B54FEA41044FEA430594EA050F08BF90EA020F1FBF54EA000C55EA020C7FEA645C7FEA655C00F0E2804FEA5454D4EB5555B8BF6D420CDD2C4480EA020281EA5B
:40220000030382EA000083EA010180EA020281EA0303362D88BF30BD11F0004F4FEA01314FF4801C4CEA113102D0404261EB410113F0004F4FEA03334CEA133302D05242B0
:4022400063EB430394EA050F00F0A780A4F10104D5F1200E0DDB02FA0EFC22FA05F2801841F1000103FA0EF2801843FA05F359410EE0A5F120050EF1200E012A03FA0EFC5B
:4022800028BF4CF0020C43FA05F3C01851EBE37101F0004507D54FF0000EDCF1000C7EEB00006EEB0101B1F5801F1BD3B1F5001F0CD349085FEA30004FEA3C0C04F1010438
:4022C0004FEA445212F5800F80F09A80BCF1004F08BF5FEA500C50F1000041EB045141EA050130BD5FEA4C0C404141EB010111F4801FA4F10104E9D191F0000F04BF0146C5
:402300000020B1FA81F308BF2033A3F10B03B3F120020CDA0C3208DD02F1140CC2F10C0201FA0CF021FA02F10CE002F11402D8BFC2F1200C01FA02F120FA0CFCDCBF41EAB9
:402340000C019040E41AA2BF01EB0451294330BD6FEA04041F3C1CDA0C340EDC04F11404C4F1200220FA04F001FA02F340EA030021FA04F345EA030130BDC4F10C04C4F1F0
:40238000200220FA02F001FA04F340EA0300294630BD21FA04F0294630BD94F0000F83F4801306BF81F480110134013D4EE77FEA645C18BF7FEA655C29D094EA050F08BF7D
:4023C00090EA020F05D054EA000C04BF1946104630BD91EA030F1EBF0021002030BD5FEA545C05D14000494128BF41F0004130BD14F580043CBF01F5801130BD01F0004525
:4024000045F0FE4141F470014FF0000030BD7FEA645C1ABF194610467FEA655C1CBF0B46024650EA013406BF52EA033591EA030F41F4002130BD00BF90F0000F04BF002157
:40244000704730B54FF4806404F132044FF000054FF0000150E700BF90F0000F04BF0021704730B54FF4806404F1320410F0004548BF40424FF000013EE700BF42004FEA26
:40248000E2014FEA31014FEA02701FBF12F07F4393F07F4F81F06051704792F0000F14BF93F07F4F704730B54FF4607401F0004521F0004120E700BF50EA010208BF7047E6
:4024C00030B54FF000050AE050EA010208BF704730B511F0004502D5404261EB41014FF4806404F132045FEA915C3FF4DCAE4FF003025FEADC0C18BF03325FEADC0C18BF2E
:40250000033202EBDC02C2F1200300FA03FC20FA02F001FA03FE40EA0E0021FA02F11444C1E600BF70B54FF0FF0C4CF4E06C1CEA11541DBF1CEA135594EA0C0F95EA0C0FDD
:4025400000F0DEF82C4481EA030621EA4C5123EA4C5350EA013518BF52EA033541F4801143F4801338D0A0FB02CE4FF00005E1FB02E506F00042E0FB03E54FF00006E1FB7C
:4025800003569CF0000F18BF4EF0010EA4F1FF04B6F5007F64F5407404D25FEA4E0E6D4146EB060642EAC62141EA55514FEAC52040EA5E504FEACE2EB4F1FD0C88BFBCF519
:4025C000E06F1ED8BEF1004F08BF5FEA500E50F1000041EB045170BD06F0004646EA010140EA020081EA0301B4EB5C04C2BFD4EB0C0541EA045170BD41F480114FF0000E22
:40260000013C00F3AB8014F1360FDEBF002001F0004170BDC4F10004203C35DA0C341BDC04F11404C4F1200500FA05F320FA04F001FA05F240EA020001F0004221F00041F4
:4026400010EBD37021FA04F642EB06015EEA430E08BF20EAD37070BDC4F10C04C4F1200500FA04F320FA05F001FA04F240EA020001F0004110EBD37041F100015EEA430E01
:4026800008BF20EAD37070BDC4F1200500FA05F24EEA020E20FA04F301FA05F243EA020321FA04F001F0004121FA04F220EA020000EBD3705EEA430E08BF20EAD37070BD2B
:4026C00094F0000F0FD101F00046400041EB010111F4801F08BF013CF7D041EA060195F0000F18BF704703F00046520043EB030313F4801F08BF013DF7D043EA06037047E1
:4027000094EA0C0F0CEA135518BF95EA0C0F0CD050EA410618BF52EA4306D1D181EA030101F000414FF0000070BD50EA410606BF1046194652EA430619D094EA0C0F02D1F4
:4027400050EA013613D195EA0C0F05D152EA03361CBF104619460AD181EA030101F0004141F0FE4141F470014FF0000070BD41F0FE4141F4780170BD70B54FF0FF0C4CF497
:40278000E06C1CEA11541DBF1CEA135594EA0C0F95EA0C0F00F0A7F8A4EB050481EA030E52EA03354FEA013100F088804FEA03334FF0805545EA131343EA12634FEA022294
:4027C00045EA111545EA10654FEA00260EF000419D4208BF964244F1FD0404F5407402D25B084FEA3202B61A65EB03055B084FEA32024FF480104FF4002CB6EB020E75EBF2
:40280000030E22BFB61A754640EA0C005B084FEA3202B6EB020E75EB030E22BFB61A754640EA5C005B084FEA3202B6EB020E75EB030E22BFB61A754640EA9C005B084FEA41
:402840003202B6EB020E75EB030E22BFB61A754640EADC0055EA060E18D04FEA051545EA16754FEA06164FEAC30343EA52734FEAC2025FEA1C1CC0D111F4801F0BD141EA48
:4028800000014FF000004FF0004CB6E711F4801F04BF01430020B4F1FD0C88BFBCF5E06F3FF6AFAEB5EB030C04BFB6EB020C5FEA500C50F1000041EB045170BD0EF0004E5D
:4028C0004EEA113114EB5C04C2BFD4EB0C0541EA045170BD41F480114FF0000E013C90E645EA060E8DE60CEA135594EA0C0F08BF95EA0C0F3FF43BAF94EA0C0F0AD150EA62
:4029000001347FF434AF95EA0C0F7FF425AF104619462CE795EA0C0F06D152EA03353FF4FDAE1046194622E750EA410618BF52EA43067FF4C5AE50EA41047FF40DAF52EA35
:4029400043057FF4EBAE12E74FEA410212F5001215D211D56FF47873B3EB625212D94FEAC12343F0004343EA505311F0004F23FA02F018BF404270474FF00000704750EA1B
:40298000013005D111F0004008BF6FF0004070474FF00000704700BF4FEA4102B2F1E04324BFB3F5001CDCF1FE5C0DD901F0004C4FEAC0024CEA5070B2F1004F40EB830039
:4029C00008BF20F00100704711F0804F21D113F13872BCBF01F00040704741F480114FEA5252C2F11802C2F1200C10FA0CF320FA02F018BF40F001004FEAC1234FEAD323BD
:402A000003FA0CFC40EA0C0023FA02F34FEA4303CCE77FEA625307D150EA01331EBF4FF0FE4040F44000704701F0004040F0FE4040F40000704700BF80F0004002E000BF94
:402A400081F0004142001FBF5FEA410392EA030F7FEA226C7FEA236C6AD04FEA1262D2EB1363C1BFD218414048404140B8BF5B42192B88BF704710F0004F40F4000020F083
:402A80007F4018BF404211F0004F41F4000121F07F4118BF494292EA030F3FD0A2F1010241FA03FC10EB0C00C3F1200301FA03F100F0004302D5494260EB4000B0F5000F37
:402AC00013D3B0F1807F06D340084FEA310102F10102FE2A51D2B1F1004F40EBC25008BF20F0010040EA03007047490040EB000010F4000FA2F10102EDD1B0FA80FCACF1FB
:402B0000080CB2EB0C0200FA0CF0AABF00EBC25052421843BCBFD0401843704792F0000F81F4000106BF80F400000132013BB5E74FEA41037FEA226C18BF7FEA236C21D06F
:402B400092EA030F04D092F0000F08BF0846704790EA010F1CBF0020704712F07F4F04D1400028BF40F00040704712F100723CBF00F50000704700F0004343F0FE4040F473
:402B8000000070477FEA226216BF08467FEA23630146420206BF5FEA412390EA010F40F4800070474FF0000304E000BF10F0004348BF40425FEA000C08BF704743F09643DD
:402BC00001464FF000001CE050EA010208BF70474FF000030AE000BF50EA010208BF704711F0004302D5404261EB41015FEA010C02BF84460146002043F0B64308BFA3F1F8
:402C00008053A3F50003BCFA8CF2083AA3EBC25310DB01FA02FC634400FA02FCC2F12002BCF1004F20FA02F243EB020008BF20F00100704702F1200201FA02FCC2F1200209
:402C400050EA4C0021FA02F243EB020008BF20EADC7070474FEA4002B2F1FE4F0FD34FF09E03B3EB12620DD94FEA002343F0004310F0004F23FA02F018BF404270474FF017
:402C80000000704712F1610F01D1420205D110F0004008BF6FF0004070474FF00000704742000ED2B2F1FE4F0BD34FF09E03B3EB126209D44FEA002343F0004323FA02F00B
:402CC00070474FF00000704712F1610F01D1420202D14FF0FF3070474FF00000704700BF014B1868704700BFB0C1FF1F0E4B70B51E460E4C0025E41AA410A54204D056F804
:402D0000253098470135F8E700F03CF9084B094C1E46E41AA4100025A54204D056F8253098470135F8E770BD902F0000902F0000902F0000982F000003460244934202D089
:402D400003F8011BFAE77047000000000000010004000900100019002400310040005100640079009000A900C400E10000012101440169019001B901E40111024002710202
:402D8000A402D902100349038403C103000441048404C90410055905A405F10540069106E40639079007E9074408A10800096109C409290A900AF90A640BD10B400CB10C51
:402DC000240D990D100E890E040F810F0010811004118911101299122413B1134014D1146415F91590162917C41761180019A119441AE91A901B391CE41C911D401EF11E43
:402E0000A41F59201021C921842241230024C124842549261027D927A4287129402A112BE42BB92C902D692E442F21300031E131C432A93390347935643651374038313936
:402E4000243A193B103C093D043E013F0040014104420943104419452446314740485149644A794B904CA94DC44EE14F00512152445369549055B956E4571159405A715B25
:402E8000A45CD95D105F49608461C162006441658466C9671069596AA46BF16C406E916FE47039729073E9744476A1770079617AC47B297D907EF97F6481D1824084B18520
:402EC00024879988108A898B048D818E0090819104938994109699972499B19A409CD19D649FF9A090A229A4C4A561A700A9A1AA44ACE9AD90AF39B1E4B291B440B6F1B712
:402F0000A4B959BB10BDC9BE84C041C200C4C1C584C749C910CBD9CCA4CE71D040D211D4E4D5B9D790D969DB44DD21DF00E1E1E2C4E4A9E690E879EA64EC51EE40F031F205
:402F400024F419F610F809FA04FC01FEC8490040190040510040300000000140001000140140000800400140000A004C014000020050014020000001000000040000001027
:402F800043000000F8B500BFF8BC08BC9E4670474D000000A5110000F8B500BFF8BC08BC9E46704729000000B82F0000C8C0FF1FF0000000B001000000000000190D000050
:402FC0002B0D0000390D0000490D00006D0D00007B0D00007F0D0000830D0000870D0000890D00000008010000000100000001000101010100010001504620CB3421EC2CB6
:403000009A107C1500460000010000000700D817062A01006BEE00007D000000008102080B0000007F8000001F0000000000DC82B805010043000000C056FE03FFFFFFFFEB
:403040000000000000000000000000000000000000000000000000000000000000000000802F000000000000000000000000000000000000000000000000000000000000A1
:40308000000000000000000000000000000000000000000000000000000000000000000050C1FF1F00000000000000000000000000000000000000000000000000000000E1
:4030C00000000000000000000000000000000000000000000000000000000000000000000000000000000000000000000000000000000000000000000000000000000000D0
:40310000000000000000000000000000000000000000000000000000000000000000000000000000000000000000000000000000000000000000000000000000000000008F
:40314000000000000000000000000000000000000000000000000000000000000000000000000000000000000000000000000000000000000000000000000000000000004F
:40318000000000000000000000000000000000000000000000000000000000000000000000000000000000000000000000000000000000000000000000000000000000000F
:020000040001F9
:0200000480007A
:40000000014500400A520040015B0040016400400165004043000140340101403902014048030140280401404A05014013060140430701400C0901400A0B01400C0D0140CD
:400040000E0E01402A0F01402E14014039150140231601404517014008190140051B01400D400140194101400B4201400B4301400344014009450140094601400B4701403D
:4000800008480140074901400C4C0140084D014009500140055101407E020061014010081108140318021902602061307C4027848705860D0308070108020A040E010F023D
:4000C000130417011B041C041E02230127012A012B012D012F02310333083401360637043B023E403F4056085804590A5B045C215D905F018205830A8606872688108A0561
:400100008E088F029204970199809B569C159E0A9F02A140A396A604AA04AB16ADD6AF29B10CB203B303B410B530B60CB7C0BA88BB2AD80AD90ADC22DF01002002010402DB
:40014000055F060209800E010F40120416081704180819801A011D541F1420222340240625012606271429912A082D822F043002310432103550360438043B413C043D029C
:400180003F4058806180630168027B207F208E01C0F3C291C462CABFCC77CEDBD608D808DE42050709070A100D050E100F021107160518061E0821072203250327042B0731
:4001C0002C053010310432083501360737023E41580C59045F01800781668630870F880689558E28920193559428973398049E409F80A040A578A680A980AA02AC18B038B9
:40020000B37FB407B6C0B780BE11BF04D804D90CDC09DF01001201400310060509080A890D080E091001110812881540168219401A811B101C021E801F08228424842702A1
:40024000280129082A802B082C402D202E043008314033013502380239043B203C083E403F107B027F028040831085208C04900A9360962099089A039B149C809E04A1044C
:40028000A206A680A720A905AA08AC01B280C0CFC2EFC49FCAE6CC8BCE77DE18E642E801EA84EC08078008550C660F7810781755190F1A0F1D551E55213322332E802F661F
:4002C0003080327F337F35803B203E043F045401580459045B0C5C105F0185038B038D018F029103A103A503AB03B301B702D804D904DF01018002020304060809200A017E
:400300000B400E460F10100213011440151018101A402218272229802A022C402D302E04312033443502360138083B403C083E483F10594061406280680869046A016B4171
:400340007128728273017B02844090089340941095049664971099229A019B049C409E849F01A2C2A40CA508A608A722A902B080B702C043C2FBC459CAE9CC8ECE7AD60883
:40038000DE08E608EA14EE0452035302580459045B045F0187018C019801B201B501B808BE04D602D739D804D904DB0CDF0100080120030105200680084009100A400B10B8
:4003C0000C410D210F10100112C01640181020082120284029202C412E0431203280368039023A883B103C083E403F105A1060186110684269146D206E106F0271907208C6
:400400007B02898092409604971098409A019E04A240A406A722AB20AF02B310B640C057C2FFC419CAD5CC1CCE7FD604D802DE08E202EE048A0894029E089F40A620A70869
:40044000B220B504E020E202ECC0EE04878094029E289F40A380A504A620A708A801EA24870894029E289F40A380A504A620A708AA08AB04B0A0EC085608580459045B040F
:400480005D905F018A01B601D280D804D904DB04DD10DF0102200348040206580A010E210F08101011181250162017401E011F8028102B8C2F88322033403630374038025C
:4004C00039103A203B013D083E203F0158A05B04620875018D01C07EC2E1C4AECAA7CC3CCEE5D60ED802E6400102020406010708081009010A200C04104012801401150883
:400500001A081B011C021D04220223022408271028202A102C802E402F04311F32FF39023A303E043F01580459045C025F018501890191019B019F01A101AF01B301D804E4
:40054000D904DF01008801A20290056006100780088809800A680B400E400F1010421115144019081B20210323802720288029A82C402E40314232943522378039053A1064
:400580003B403C083F10832085019114924893109502984899209D809E10A046A180A280A720B680C0FFC23FC41FCA9FCCBFCE6FE402E810EA01401245EC4702481349FFB5
:4005C0004AFF4BFF4F01501854015604580459045A045B045D115F016040624064406540668068806A806C806E808701AA01AF02B301B401B702D804D904DF0100080120D8
:400600000680074208400A400B100D010E040F101001111012C01440161019301A0422842312284029802C412E043001311032043340368039043A503C083EC03F1046051B
:400640004D014F0456045D015E805F04674087408D209114924095029604971098499A019D209E84A046A180A240A680A720B004B301C096C27DC43BCAD9CC1FCE7ED0306F
:40068000D6D0D880EE028F4094029F40A708B220E010E820EE228708A708B401E850EA0117801B0130013140364037083B204320C480C610CCF0CE10D01032203C405020CF
:4006C00057085B045E026601802082208E0197209C019F08A640AB80AF21B140CC10CE20D460D6C0D880E280E680E8803E10944097209C019F04A640A708AB08B601CE20B5
:40070000EA208401961097209C01A640A840AB04AF08E240EA80EE6010101460C40C0D01560298309A02AE02B050C204D604EA051B0425029830A520A920B101C608C801D0
:40074000EA0409200B400C08440284089830A102A520AB04C20ED0042408871096109720AE40C820E640EE405F808380AA10B404D620E280EA8010401320148078107C2013
:4007800098309C02AF40B102C40EDE03EE0478407C8098C0AB20B402DC01DE04E80800070101080709010A030E030F0110071A0700AB010F03C010801102000000000000A7
:4007C00000E9FB003000000030003000000000004000003034000000C000000000D7D70000000000230818000800000000C1C1000002020006001401000300000004000080
:4008000000000000000000000000000000000000000000000000000000000000000000000000000000000000000000000000000000000000000000000000000000000000B8
:400840000000000000000000000000000000000000000000000000000000000000000000000000000000000000000000000000000000000000000000000000000000000078
:400880000000000000000000000000000000000000000000000000000000000000000000000000000000000000000000000000000000000000000000000000000000000038
:4008C00000000000000000000000000000000000000000000000000000000000000000000000000000000000000000000000000000000000000000000000000000000000F8
:0200000490006A
:0400000000004005B7
:0200000490105A
:04000000BC90ACAF55
:0200000490303A
:0200000010D11D
:0200000490402A
:4000000000000000000000000000000000000000000000000000000000000000000000000000000000000000000000000000000000000000000000000000000000000000C0
:400040000000000000000000000000000000000000000000000000000000000000000000000000000000000000000000000000000000000000000000000000000000000080
:0200000490501A
:0C00000000012E10306900012E25413A4D
:00000001FF