:400000000010002011000000190b0000190b000080b500af00f08afd80b500af194b194a12688021c9020a431a60302001f00efd154b164a1a60164b20221a60154b10224f
:400040001a60154b30221a60144b11221a60144b822212061a600b4b8022d2021a60114b114a1a60114b104a1a60114b114a1a60114b124a1a60124b00221a60c046bd462d
:4000800080bdc04600010b4004010b4006000080080202401c020240340202403c02024008010b4000000240050000804000024080000240ef00008004000240df010080c3
:4000c0000c020b4080b582b000af72b6524b01221a70fb1d00221a7022e0fb1d1a7813005b009b185b004d4a9b183b603b681a78597809020a43997809040a43db781b0611
:40010000134318003b681a795b791b0213439bb2190000f09dfcfb1d1a78fb1d01321a70fb1d1b78012bd8d93d4a3e4b1100180000f09efc3c4ba02212011a803b4b01227c
:400140001a703b4b07221a603a4bc022d2021a60394b3a4a1a603a4bee221a60394b3a4a1a603a4b3a4a1a603a4b992212041a60394ba822d2031a60384b992212041a6046
:40018000374bc02292041a60364b992212041a60354b364a1a60364b05221a60354b06221a60354a344b1b78dbb23c218b43dbb214210b43dbb21370304a304b1b78dbb2c3
:4001c00016210b43dbb213702d4b2e4a1a602e4b01221a602d4b2e4a1a602e4b01221a602d4bff221a602d4bff221a602c4bf3221a602c4b2c4a1a602c4b03221a602c4b4a
:40020000d22252001a60fff707ff00f073fcc046bd4602b080bdc0461c700f4078200000ac2000008420000000600f4002600f4004000140080001400c00014033ee333300
:400240001000014000500f400400990004500f400000aa2a10500f4018500f4020500f4028500f4030500f4038500f400000a4b42000004000800f4001700f4000700f40e2
:40028000080004404992040000010440080104400060c0001801044000020440180204400003044008030440b66ddb00000404400804044010b5064c2378002b07d1054b2f
:4002c000002b02d0044800e000bf0123237010bd480100200000000074200000084b10b5002b03d00749084800e000bf07480368002b00d110bd064b002bfbd09847f9e7b7
:40030000000000004c01002074200000c80000200000000080b584b000af0d23fb1800221a700a23fb1800221a800823fb1800221a80bb1d00221a800e23fb1800221a8043
:40034000002001f03bfafa2001f028fd00f0f8f862b6012001f032fa002001f0bbf9012001f0e0f9052001f03ffd002001f0daf9674b1b78002b00d185e0654b00221a70e9
:4003800000f024f903001a00624b9a7200f036f903001a005f4bda725e4b00221a7300f049f903001a005b4b5a7300f0f7f803001a00584b9a73574b9b7b180000f082f927
:4003c00003001a00544b1a70524b5b7b9bb2e822c821180000f0acf903001a004f4b1a704c4bdb7a9bb2ad227021180000f0a0f903001a004a4b1a70464b9b7a9bb2e322a8
:400400001c21180000f094f903001a00454b1a70404b9b7a9bb2180000f0aef903001a00414b1a70414b1b78db015ab23e4b1b789b015bb240210b405bb213435ab2364b7c
:400440001b781b015bb230210b405bb213435ab2344b1b789b005bb20c210b405bb213435ab22f4b1b785bb203210b405bb213435bb2dab2274b1a72284b1b780322134013
:40048000dab2244b5a722a4b1b78002b2fd0284b00221a70274b1b78012b0ed10e23fb18fa2292001a80244bc8221a80214b02221a701e4b01221a7002e01f4b1f4a1a8016
:4004c0000e23fb181b88002b07d00e23fb181a880e23fb18013a1a8009e00e23fb1800221a80144b00221a70104b00221a7000f013fd02000823134000d130e70d23fb186e
:4005000001221a700d23fb1800221a7027e7c0466a010020940100206801002064010020650100206601002069010020670100206b0100206c010020cc000020dc050000b8
:4005400080b500af00f052ff104b180001f01cfa01f080f800f09efb0d4b180001f03ef90c4b1a000821182000f0f2fc00f07af800f010fc962001f0f7f9074b180001f052
:4005800095f900f097f8c046bd4680bde109000061090000940100203d0a000080b582b000af00237b60084b04229b5e293bdb001521180001f03efc03007b607b68dbb20c
:4005c0001800bd4602b080bd8401002080b582b000af00237b60084b02229b5e2f3bff3b1a0013005b009b181b117b607b68dbb21800bd4602b080bd8401002080b582b05c
:4006000000af00237b600a4b00229b5eb93bff3b1a0013005b009b181a21180001f00afc03007b607b68dbb21800bd4602b080bd8401002080b582b000af00237b60084b86
:400640000e229b5edb003221180001f0f3fb03007b607b68dbb21800bd4602b080bdc0468401002080b582b000af00237b6000237b6007e00e4a7b68d31800221a707b687b
:4006800001337b607b68072bf4dd08237b6007e0074a7b68d31800221a707b6801337b607b68172bf4ddc046bd4602b080bdc0469401002080b500af00f090f8c046bd468d
:4006c00080bdc04690b585b000af0200fb1d1a700e23fb1800221a700f23fb1800221a700e23fc18fb1d1b78180000f095f8030023700e23fb181b78ba2b0ed80e23fb1808
:400700001b78b22b04d80f23fb1800221a7008e00f23fb1801221a7003e00f23fb1802221a700f23fb181b781800bd4605b090bd90b583b000af040008001100bb1d221c7d
:400740001a803b1d021c1a80bb1c0a1c1a80ba1d3b1d12881b889a4201d2012308e0ba1dbb1c12881b889a4201d9022300e000231800bd4603b090bd90b585b000af020002
:40078000bb1d1a800e23fb1800221a800c23fb1800221a800e23fc18bb1d1b88180000f089f8030023800e23fb181a8813005b009b189b009b181a110c23fb181a80ba1da7
:4007c0000c23fb1812881b889a4201d2012300e000231800bd4605b090bdc04680b582b000afbb1d00221a80bb1d00221a8009e0bb1d1b88074a0021d154bb1d1a88bb1df6
:4008000001321a80bb1d1b883f2bf1d9c046bd4602b080bdac09002080b586b000af0200fb1d1a701623fb1800221a8000233b610f23fb1800221a701c4b1b8819001c4b6f
:40084000fa1d12785a541623fb1800221a800fe01623fb181b88164ad35c1a003b699b183b611623fb181a881623fb1801321a801623fb181b883f2bead93b699a090f230b
:40088000fb181a70094b1b8801339ab2074b1a80064b1b88402b02d9044b00221a800f23fb181b781800bd4606b080bd6e010020ac09002080b586b000af0200bb1d1a801b
:4008c0001623fb1800221a8000233b610e23fb1800221a801f4b1b881a001f4b5200b91d0988d1521623fb1800221a8010e01623fb181a88184b5200d35a1a003b699b188b
:400900003b611623fb181a881623fb1801321a801623fb181b88114a9342e8d93b699a0a0e23fb181a800b4b1b8801339ab2094b1a80084b1a888023db009a4202d9054b2d
:4009400000221a800e23fb181b881800bd4606b080bdc04670010020ac010020ff03000080b500af00f0b8f900f096ff174b1b884f2b03d8012000f0f9fe02e0002000f002
:40098000f5fe124b1b8801339ab2104b1a800f4b1a880f4b1b889a4202d30c4b00221a800c4b01221a700c4b1b8801339ab20a4b1a80094b1b88092b05d9074b00221a808e
:4009c000064b01221a70c046bd4680bd72010020cc0000206b010020740100206a01002090b583b000af124b1b687b60114b00221a7012e00f4b1b781c000e4b1b7818009f
:400a000000f036fe030019000b4b6200d152094b1b780133dab2074b1a70064b1b78072be8d9034b7a681a60c046bd4603b090bd10021a40760100208401002080b500af02
:400a4000024b01221a70c046bd4680bd6c01002080b582b000af786039603a687b680021180001f0fffac046bd4602b080bdc04680b586b000af7860396000233b6100230f
:400a80007b612fe07b699b007a68d3181b68bb600f23fb18ba681a70bb68ff229343bb6018e03b695b003a68d3181b781a00bb68d31819003b695b003a68d3185b780b7009
:400ac0003b6901333b610f23fb181a780f23fb18013a1a700f23fb181b78002be1d17b6901337b617b69092bccd9c046bd4606b080bdc04680b500af044b054a1a60054bed
:400b0000034a1a60c046bd4680bdc04600031a40ef00080040031a4080b500af01f076fa03001b680c2b00d1fee7fee780b586b000af224b7b61224b3b61204b7b6135e04c
:400b40003b691b68fb603b695b68bb603b699b683b6000237b600ce0fb681a68bb681a60bb680433bb60fb680433fb607b6804337b607a683b689a42eed13b69db683b60c2
:400b800000237b6008e0bb6800221a60bb680433bb607b6804337b607a683b689a42f2d13b6910333b617b69013b7b617b69002bc6d101f031fafff7adfbfee7010000003d
:400bc000c423000080b582b000af00237b600fe07b68032b04d8104b7a689200d35800e00e4b0f4a796889008b507b6801337b607b682f2becd9fff765fa0a4b00221a6013
:400c00008023db058022d205126801210a431a60c046bd4602b080bd00000000190b000000000020c000002090b583b000af632000f05cf8632000f073f8fc1d01f0f2f879
:400c4000030023700a4a0a4b1b78dbb210210b43dbb21370fb1d1b78180001f0e7f800f06ff8012000f028f8c046bd4603b090bd92000f4080b500af0549054b1b78dbb2df
:400c8000802252421343dbb20b70c046bd4680bd72000f4080b500af064b1b78002b04d1fff7c2ff034b01221a70fff7e3ffc046bd4680bd7701002080b582b000af020051
:400cc000fb1d1a70034afb1d1b781370c046bd4602b080bd82000f4080b500af024b1b78dbb21800bd4680bd62000f4080b582b000af0200fb1d1a70034afb1d1b7813707f
:400d0000c046bd4602b080bd22000f4080b500af024b1b78dbb21800bd4680bd42000f4080b582b000af0200fb1d1a70034afb1d1b781370c046bd4602b080bd02000f4092
:400d400080b500af01e0fff7e1fffff7c5ff03001a0008231340f6d1c046bd4680bdc04680b500af00f060f8c046bd4680bdc04680b500af064b064a1268802109060a43fc
:400d80001a6000f019f800f01ff8c046bd4680bd0000064080b500af064b1b78002b04d1fff7deff034b01221a70fff7e1ffc046bd4680bd7801002080b500af0a2000f0dc
:400dc000b5ffc046bd4680bd80b500afc046bd4680bdc04680b500af0f4b1a6880235b00134012d00d4b1a688023db0113400cd1094b094a12680a490a401a60064b064a74
:400e00001268802149000a431a60064b02221a60c046bd4680bdc0460000064060000640fffeffff6c00064080b500af244b00221a60244b244a1a60244b244a12680c21e9
:400e40000a431a60224b234a1a60234b00221a60224b234a1a60234b1e4a1a60224b00221a600a2000f078ff03210a2000f00aff1e4b19000a2000f0dffe1d4b00221a604b
:400e80001c4b00221a601c4b5222ff321a601b4b00221a601a4b00221a601a4b00221a60194b00221a70194b00221a70184b00221a80184b00221a70c046bd4680bdc0460b
:400ec00000000640600006400008004070000640000306400701008004030640100306402200fe000002064004020640990f0000c80e0640880e0640480f0640080f064043
:400f0000c80f0640880f0640f5090020f4090020ee090020ec09002080b582b000af0a2000f01aff094b1b78dbb27b60074b1b78dbb21f229343dab2044b1a700a2000f0b0
:400f4000f5fe7b681800bd4602b080bdf409002080b584b000aff860b9607a607b68002b10d00a2000f0f8fe084b7a681a60fb689ab2074b1a80bb689ab2064b1a800a2045
:400f800000f0d4fec046bd4604b080bdf8090020f2090020f009002080b588b000afcd4b1b68002b02d0cb4b1b689847ca4b1b88fb61ca4b1b68fb60c94b1b68bb60fa68d9
:400fc0000223ff33134057d0c64bc64a1268520052081a60c44b1b78dbb220221340dbb2002b2cd0c04b1b78dbb220229343dab2bd4b1a70bc4b1b78dbb210221343dab24b
:40100000b94b1a70b94b1b68102213400fd1b84b1b789ab2b04b1b889a4210d0b24b1b78dbb208221343dab2af4b1a7007e0ae4b1b78dbb202221343dab2ab4b1a70ad4bcf
:40104000ac4a1268ac490a401a60ac4b00221a60a64b00221a60aa4baa4a1a609f4baa4a1a60aa4b00221a709e4b9e4a1268802109060a431a6099e1bb681022134002d015
:40108000a34b00221a60bb680a22134000d1c3e0a04b1b680422134000d16fe09e4b1b687b609a4b1b78002b1cd0012b5ed19b4b1b88002b13d09a4b01221a60994b1a68d9
:4010c000fb69d3187a68d2b21a70fb690133fb61924b1b88013b9ab2904b1a804ae0fff779fe47e0904b1b881a007b689a423ad98b4b01221a607b68fb618c4b1b881a00d2
:401100007b689a4206d9894b1a887b689bb2d31a9ab200e00022814b1a80804b1b88072b03d87a4b01221a7018e07c4b1b88082b0ad1704b6f4a1268a02109020a431a60ec
:401140006e4b00221a6009e06a4b6a4a1268802189010a431a60694b08221a60fb69dab2634b1a7006e0fff735fe03e0002000f009fec046624b04221a604de05d4b1a6829
:4011800080239b01134047d0bb68022213400dd0674b1b680f2213403b61564b554a126855490a401a6001237b6122e05b4b1b88083b9ab2594b1a80584b1b88082b05d830
:4011c000564b1b883b6100237b6112e008233b6101237b610de0534b1a68fb69d2184e4b1b68dbb21370fb690133fb613b69013b3b613b69002beed17b69002b09d13d4b61
:401200003c4a1268802109020a431a603b4b00221a603b4b0c221a60bb680222134000d19de0fb681022134027d0344b00221a602e4b00221a600223bb612d4b1b781a008e
:40124000fb699a4203d0bb6908221343bb61bb69fa681340bb61244b1b78dbb21a00bb691343bb61bb6920229343bb61bb69dab21d4b1a70254b00221a70fb684022134039
:401280006ad0194b1b78dbb220221343dab2164b1a70174b1b78fb61264b1b68102213404ed0214b1a88fb699bb2d31a9ab21b4b1a80214b204a1268802149020a431a607e
:4012c0001d4b1d4a12681d490a401a60074b10221a6038e07c010020ee090020400f0640000e064000000640f4090020880f0640ec09002060000640ff5fffffc80f064054
:40130000c00f0640ed0f0000ff0f0000f5090020880e0640cc0f064040030640800100206c000640f8090020f2090020f0090020080306406400064004020640fffffeff00
:401340001e4b04221a601e4b01221a601d4b1e4a1a601e4b01221a601a4bfa681a601c4b1b680422134021d01a4b1b88002b11d0194a1a4b1968fb69cb181b78dbb2136042
:40138000fb690133fb61134b1b88013b9ab2114b1a8002e0104bff221a60114b1b680f221340082be0d10f4b10221a60fb699ab20d4b1a80c046bd4608b080bdc80f0640d8
:4013c000800e0640400f0640ff0f00006c000640000e06408001002040020640f809002008020640800f0640ee09002080b500af064b1b78002b04d100f00af8034b0122bf
:401400001a7000f011f9c046bd4680bd8201002080b584b000af03210e2000f033fc654b19000e2000f008fc634bff221a60634b1b68002b01da624900e06249624b624abc
:4014400012680a431a60614b614a1a60614b624a1a60624b00221a60614b624a1a60624b604a1a60614b614a1268802149020a431a605f4b5e4a1268802149020a431a6099
:401480005c4b00221a605c4b00221a605b4b01221a605b4b02221a605a4b1b687b607b68594a13407b607b68012213437b60554b7a681a600023fb6075e0544bfa689200cf
:4014c000d258dc239b0113407b60514afb68d3181b781a007b6813437b60fb689b004d4a944663447a681a60484bfa689200d358012213400ad03f4b3e4a11680120fa68cd
:40150000904002001204120c0a431a603f4bfa689200d358022213400ad0374b364a11680120fa68904002001204120c0a431a60364bfa689200d25880239b00134003d016
:4015400080235b00bb6002e080235b01bb602f4bfa689200d25880235b00134005d12e4bfa6852000021d15209e0bb68002b00da01335b1019b2284bfa685200d152bb683e
:40158000264a5343264a944663442449180000f051fc03001bb21900224bfa689200d150fb680133fb60fb68072b86d9c046bd4604b080bdb516000020001a4080031a4005
:4015c000702010107020001000001a4004001a409400008018001a400000ff071c001a4010001a400400040014001a4000031a4040031a4028021a4038021a4018021a407b
:40160000000f1a4030001a40ffffffdf482300006823000080001a40fc09002010270000881300000c0a002080b500af084b1b68002b09db064b064a1268802109060a43fd
:401640001a600a2000f0d0fbc046bd4680bdc04600001a4080b500af044b044a1268802149020a431a60c046bd4680bd04001a4080b584b000af78607b68072b02d9002013
:4016800000f080fb7b68072b09d87b689b00084a944663441b681b041b0cfb6001e00023fb60fb681bb21800bd4604b080bdc04680011a4080b582b000af054b1b687b6014
:4016c000034b7a681a60c046bd4602b080bdc04610021a4080b584b000af0200fb1d1a700f4b1b68dab20f23fb1810218a431a70fb1d1b781b01dbb210221340d9b20f234e
:40170000fb180f22ba1812780a431a70044b0f22ba1812781a60c046bd4604b080bdc0460001044080b584b000af0200fb1d1a700d4b1b68dab20f23fb187f210a401a70bb
:40174000fb1d1b78db01d9b20f23fb180f22ba1812780a431a70044b0f22ba1812781a60c046bd4604b080bd0001044080b584b000af0200fb1d1a700f4b1b68dab20f23c2
:40178000fb1804218a431a70fb1d1b789b00dbb204221340d9b20f23fb180f22ba1812780a431a70044b0f22ba1812781a60c046bd4604b080bdc0460004044080b582b015
:4017c00000af0200fb1d1a70034afb1d1b781370c046bd4602b080bd70000f4080b582b000af786000f04ef87b68180000f00af8032000f015f800f03bf8c046bd4602b055
:4018000080bdc04680b582b000af7860034b7a681a64c046bd4602b080bdc0460000002090b585b000af0200fb1d1a700623fb600b23fc1800f0f6fa030023700b4b0b4af7
:401840001268c0218a431100fa1d1078fa68904002000a431a600b23fb181b78180000f0e5fac046bd4605b090bdc04600e400e080b500af024b01221a60c046bd4680bdf1
:4018800000e100e080b500af024b01221a60c046bd4680bd80e100e080b500af024b01221a60c046bd4680bd80e200e080b582b000af786000f04ef87b68180000f00af8ab
:4018c000032000f015f800f03bf8c046bd4602b080bdc04680b582b000af7860034b7a689a64c046bd4602b080bdc0460000002090b585b000af0200fb1d1a701623fb600c
:401900000b23fc1800f08efa030023700a4b0a4a12680a491140fa1d1078fa68904002000a431a600b23fb181b78180000f07efac046bd4605b090bd00e400e0ffff3fff97
:4019400080b500af024b04221a60c046bd4680bd00e100e080b500af024b04221a60c046bd4680bd80e100e080b582b000af0200fb1d1a70034afb1d1b781370c046bd46f9
:4019800002b080bd73000f4080b582b000af786000f050f87b68180000f00af8032000f015f800f03bf8c046bd4602b080bdc04680b582b000af7860034b7a689a67c046fd
:4019c000bd4602b080bdc0460000002090b585b000af0200fb1d1a701623fb600b23fc1800f020fa030023700a4b0a4a12680a491140fa1d1078fa68904002000a431a602b
:401a00000b23fb181b78180000f010fac046bd4605b090bd0ce400e0ffff3fff80b500af034b8022d2011a60c046bd4680bdc04600e100e080b500af034b8022d2011a605a
:401a4000c046bd4680bdc04680e100e090b585b000af78600c23fc1800f0e4f9030023707b68022b00d8b3e07b68302b00d9afe05e4b1b78dbb21a007b689a420ad35c4aec
:401a80000f23fb1812781a705a4a0e23fb1812781a703fe0584b1b78dbb21a007b689a420ad3564a0f23fb1812781a70544a0e23fb1812781a702de0524b1b78dbb21a0066
:401ac0007b689a420ad3504a0f23fb1812781a704e4a0e23fb1812781a701be04c4b1b78dbb21a007b689a420ad34a4a0f23fb1812781a70484a0e23fb1812781a7009e03f
:401b0000464a0f23fb1812781a70454a0e23fb1812781a707b68da1e0b23fb1841498a5c1a700b23fb181b782f2b0dd97b682a2b0ad93d4b19221a60052000f069f90d23ac
:401b4000fb1819221a7007e0374b1b68dab20d23fb183f210a401a700b23fa180d23fb1812781b789a4208d22f4b7a68033a2d498a5c1a60052000f04bf97b68284a9a1879
:401b80000a23fb1812781a70284b0a22ba1812781a60274b0f22ba1812781a60254b0e22ba1812781a60052000f01ef90b23fa180d23fb1812781b789a420cd91a4b7a6899
:401bc000033a18498a5c1a60052000f021f902e0002000f0d7f80c23fb181b78180000f025f9c046bd4605b090bdc046c0f1ff0fc1f1ff0fc2f1ff0fc3f1ff0fc4f1ff0f26
:401c0000c5f1ff0fc6f1ff0fc7f1ff0fc8f1ff0fc9f1ff0fcaf1ff0fcbf1ff0fccf1ff0fcdf1ff0f702300002cff0b4028ff0b401cff0b4020ff0b4080b584b000af020037
:401c40003960fb1d1a7080239b05fb60fb1d1b781f2b02d9002000f095f8fb1d1b7810339b00fa68d3181b68bb60fb1d1b7810339b00fa68d3183a681a60bb681800bd467a
:401c800004b080bd90b587b000af0200fb1d1a70bb1d0a1c1a70bb1d1b78032b02d9002000f070f8fb1d1b781f2b02d9002000f069f8fb1d1b7803221340db0006337b619c
:401cc0001323fc1800f0aef803002370fb1d1b789b08dbb29b00144a944663441b68fb6003227b699a401300da43fb681340fb60bb1d1a787b699a401300fa681343fb60c9
:401d0000fb1d1b789b08dbb29b00074a94466344fa681a601323fb181b78180000f086f8c046bd4607b090bd00e400e080b582b000af0200fb1d1a70064bfa1d12781f2160
:401d40000a40012191400a001a60c046bd4602b080bdc04600e100e080b582b000af0200fb1d1a70064bfa1d12781f210a40012191400a001a60c046bd4602b080bdc04638
:401d800080e100e080b582b000af0200fb1d1a7001bec046bd4602b080bdc04680b582b000af786009e00d4b1b68180000f030f87b680b4a944663447b607a6880231b0253
:401dc0009a42f0d8074b1b687a685343180000f01ff8c046bd4602b080bdc046dc0000200080ffffd400002080b582b000af0200bb1d1a80bb1d1b88044a127853431800dc
:401e000000f006f8c046bd4602b080bdd80000200230800804d0c0460138fdd1c046c046c0467047eff3108072b6704780f310887047c04603460b437fd4002243088b4223
:401e400074d303098b425fd3030a8b4244d3030b8b4228d3030c8b420dd3ff22090212ba030c8b4202d31212090265d0030b8b4219d300e0090ac30b8b4201d3cb03c01aaf
:401e80005241830b8b4201d38b03c01a5241430b8b4201d34b03c01a5241030b8b4201d30b03c01a5241c30a8b4201d3cb02c01a5241830a8b4201d38b02c01a5241430a74
:401ec0008b4201d34b02c01a5241030a8b4201d30b02c01a5241cdd2c3098b4201d3cb01c01a524183098b4201d38b01c01a524143098b4201d34b01c01a524103098b4275
:401f000001d30b01c01a5241c3088b4201d3cb00c01a524183088b4201d38b00c01a524143088b4201d34b00c01a5241411a00d201465241104670475de0ca0f00d0494263
:401f4000031000d34042534000229c4603098b422dd3030a8b4212d3fc22890112ba030a8b420cd3890192118b4208d3890192118b4204d389013ad0921100e08909c30982
:401f80008b4201d3cb01c01a524183098b4201d38b01c01a524143098b4201d34b01c01a524103098b4201d30b01c01a5241c3088b4201d3cb00c01a524183088b4201d385
:401fc0008b00c01a5241d9d243088b4201d34b00c01a5241411a00d20146634652415b10104601d34042002b00d54942704763465b1000d3404201b5002000f005f802bda6
:402000000029f8d016e770477047c046014b18687047c046440100200e4b70b500251e000d4ce41aa410a54204d0ab00f35898470135f8e700f0b4f9084b00251e00084c58
:40204000e41aa410a54204d0ab00f35898470135f8e770bdac230000ac230000ac230000b423000003008218934202d019700133fae770470000000000300f40000400403c
:402080000f40000401000f4043300f4033310f404c320f4050330f400f400f400d410f4008420f4015430f4002600f40820d02550320066609070cd50d04103317081a78d2
:4020c0001b021c801f38200f231025062b01307f311033203507368037083e013f55580959045b045c015f0181408216839586268a168c808e40904092809325960197098e
:402100009a0a9b029c169e29a1d5a216a32aa616aa16ad80af55b030b1c0b203b303b40cb50cb6c0b730ba2abba8be40d809d909dc11df01000a0180040606080702098198
:402140000a080d880e040f8012801715188219801d8d1e041f80211022012311251526802715288029182d802f8032503308371538903a023d026ac07a087e08814086010c
:4021800089148d018e088f01c0fdc2fbc478ca97cceece8dde24e482e62000600206040306300b020f0112881450160518051a501e081f01268030083101328034703607e9
:4021c00037023e553f01401545ec4602480749ff4aff4bff4f015018528054015604580459095a045b045c105d335f016040624064406540668068806a806c806e80840f1b
:40220000870f89788a8091559280943397339d669e55a266a678a855ab55b27fb480b57fb802bb0cbe15bf10d804d904db04dc10df01000401200505090c0a410c080d404b
:402240000e4410a411201508180819081b021c901d101e022218244027022804308031083201374038243e203f8047404f8557405c405f05678068056a0b70b871017740a8
:402280007e088004844087408b028c10900491889244962899249a209d189f02a114a405a609a880aa20ab40ad20ae02b318b414b501b601c036c2fdc42eca04cc1bce368b
:4022c000d010d210d6d0d880de20e002e401e680e8200111074209200b400c086f027304800889018b04c0f0c270da80dc20e080534087028b40a702a920ab40ad10af40f7
:40230000b302d420e210e820ecd065106780751087108c01d801dc02e408521057085f08600163206720830886108b408f109001932097809b08b308d406d603d803e00849
:40234000e401ec01100a110100040000000400000004000000000000000000000000000000000000000400000001027305060703030405060708090a0b0c0e0f1011121316
:402380001415161718191b1c1d1e1f2021222325262728292a2b2e2f3031323334354300f8b5c046f8bc08bc9e467047dd020000c50b0000f8b5c046f8bc08bc9e4670475d
:4023c000b5020000d8230000c800002080000000e80800000000000000000000dc050000006cdc0280bb0000300000000000c05d010000000000000000000000000000001f
:4024000000000000000000000000000000000000000000009e23000000000000000000000000000000000000000000000000000000000000000000000000000000000000db
:402440000000000000000000000000000000000000000000e40000200000000000000000000000000000000000000000000000000000000000000000000000000000000058
:40248000000000000000000000000000000000000000000000000000000000000000000000000000000000000000000000000000000000000000000000000000000000001c
:4024c00000000000000000000000000000000000000000000000000000000000000000000000000000000000000000000000000000000000000000000000000000000000dc
:40250000000000000000000000000000000000000000000000000000000000000000000000000000000000000000000000000000000000000000000000000000000000009b
:40254000000000000000000000000000000000000000000000000000000000000000000000000000000000000000000000000000000000000000000000000000000000005b
:0200000490303a
:02000000dbd350
:0200000490402a
:200000000000000000000000000000000000000000000000000000000000000000000000e0
:0200000490501a
:0c000000000204b62193210104c1fd663a
:0200000490600a
:0100000001fe
:00000001ff
