:400000000080002011000000A94F0000A94F000008B5044B1A6803F53F5302331A6004F0CBFF00BFFA46004010B5054C237833B9044B13B10448AFF300800123237010BDB9
:40004000808CFF1F000000004C910000084B10B51BB108490848AFF300800848036803B910BD074B002BFBD0BDE81040184700BF00000000848CFF1F4C910000C880FF1FC2
:40008000000000002DE9FF41294B05461B780F46002B4AD14FF458724A43264EB418B25C824242D00228A4F81832A4F81A32A4F81C32A4F85832A4F85A32A4F85C32A4F849
:4000C0001031A4F81231A4F81431C4F82031C4F80832DFF86C8005D1084600F081F9C4F8280206E0042813D1084600F079F9C4F868020246C31700210120CDE90201CDE926
:4001000000011946104601F0D9F90B4B186001E0062801D0002300E0012388F800304FF458735F43054BF5551D7004B0BDE8F081A78EFF1F2091FF1FACFCFF1FE090FF1FAA
:40014000448DFF1F2F4B002118460A46425401F55871B1F5D86F1A815A819A81DA811A825A825A619A61C3F8F820C3F80021C3F80421A3F81822A3F81A22A3F81C22A3F83C
:400180001E22A3F82022A3F82222C3F82422C3F82822C3F83C22C3F84422C3F84822A3F85822A3F85A22A3F85C22A3F85E22A3F86022A3F86222C3F86422C3F86C22C3F8FD
:4001C0006822C3F84823C3F85023C3F85423A3F81021A3F81221A3F81421A3F81621A3F81821A3F81A21C3F81C21C3F82021C3F80022C3F80822C3F80C2203F55873A5D131
:40020000704700BF2091FF1F2DE9F0412E4C4FF4587303FB02472D4ED7F83C52C7F82412C7F82802B1607060401AD7F84412C7F8405200EB010E451B06214D43D7F84812C2
:4002400003FB024305EB41052149C7F844E28E45C4BF0131C7F84412ED101E49C7F83C02C7F848524FF45878D3F8447208FB02488F42BCBF01F1FF31C3F84412D8F84432B9
:400280000A2793FBF7F7B8F81842B8F81AE2B8F81C32F0600EFB07F760435D43642497FBF4F790FBF4F095FBF4F3F0613844C418204611463762736200F0E4F93461D8F852
:4002C0003C02BDE8F08100BF2091FF1FE090FF1F7F969800816967FFF0B5214C4FF4587303FB0245D5F80862411A1E4F0E4403FB0243BE42C8BF1C4EC5F80012C5F80862B1
:40030000D3F80862194D85B0AE42BCBF05F1FF35C3F808524FF4587303FB0244B4F81031594309120191D4F80832B4F812114B435B1302930E49019D029BD1F8B8112B44C2
:40034000252505FB01330A2190FBF1F0184403900398114600F096F9D4F8000205B0F0BD2091FF1FFF2C3101002D310101D3CEFED8FCFF1F0C4A4FF4587303FB0020D0F871
:400380006412D0F86832B0F858225B1A02FB03F1D0F86C32B0F85A225B4253439B1103EB6123C0F8203170472091FF1F07490B785B0303F4C0428B7D1B0303F48053134303
:4003C0008A8AC2F30B0213434B837047E090FF1F024B00229A829A75704700BFE090FF1F0B4B30B51A680B490B4D5A604FF4587303FB00504A6A8B6A1468C0F864421B689B
:40040000C0F86C321368C0F82432106830BD00BFE097FF1FC04D00202091FF1F014B01221A7070479C8CFF1F10B5054C30220549606902F0B6F923790133237110BD00BF22
:40044000842400206DFBFF1F08B505F039F8024B01221A7008BD00BFCD8CFF1FF7B500268DF8076005F0D4FC2A4C8DF807002378294D7BB9267805F0DDFCF6B225F8160045
:400480002378264A0133DBB22370254B1B889BB213803CE0277805F0CDFCFFB225F817002378204CDBB235F813001F4BC0F30D0018801E4B012221461A6001F01BFED4F8B3
:4004C000C0011B4B1B4C596B40F3CF0000F0A8FD237813B101F0D2FB26706378132B05D9104801F025FE134B00225A7044F61F626378013363706388934208D843F2B0622F
:40050000934201D901F092FC63880133638003B0F0BD00BF128FFF1FAE8FFF1F4A640040108FFF1FD8FCFF1FAC8FFF1FA88FFF1FC04D00209C8CFF1F08B543F6FF7001F03E
:40054000E5FC084914200B790133DBB2B3FBF0F200FB1233DBB20B711BB9BDE8084001F0ADB808BD9C8CFF1F0A4B01221A700A4B1A78FF2A0CD01A780849D2B28A5C52B296
:400580007D2A05DC1A78D2B28B5C01335BB28B54704700BFD98CFF1FF880FF1FCF8CFF1F024A13780133DBB213707047CC8FFF1F80B502F071FD01F0FFFD00F02DF902F0B9
:4005C000F3FC03F0A7FF03F0B9FF134E134D144C3378012B1DD12F78002387F0010733702F709FB92378DFF83C80DBB288F8003005EB83035B689847FF2388F8003023780F
:400600000133DBB2042B237088BF277001F0D2F9DEE701F0FFF9DBE7D98CFF1FCC80FF1FDA8CFF1FF880FF1F40F2E631054A0020138801339BB28B428ABF108013800120F8
:40064000704700BFA88CFF1F054A0020538801339BB2622B8ABF508053800120704700BFA88CFF1F08B500F043FE044A044BD2F8FC21A3F87800DA6708BD00BF2091FF1F6C
:400680000855002013B50023044602A800F8013D00F0FCF89DF8073073B14CF25033A342A8BF23460A4A9342B8BF134640F24122534393FBF0F000E01846064B1B78002B7F
:4006C00018BF0020044B00B2586302B010BD00BFB03CFFFFF38CFF1FC04D002070B54FF4804341F6FF720121022005F00DFF064606F046F904462B4D00230246022106F076
:4007000059F9291D46F6480289B2204606F064F92146304606F008F90121304606F0B0F84FF4804341F6FF720121022005F008FF064606F025F9044600230246022106F081
:4007400039F9A91D46F6502289B2204606F044F92146304606F0E8F80121304606F090F84FF4804341F6FF720121022005F004FF064606F005F9044600230246022106F03E
:4007800019F9A9B246F65002204606F025F92146304606F0C9F83046BDE87040012106F06FB800BFDC8CFF1F08B501F051FA05F025FC4FF4FA7005F02FFC05F04DFE4FF482
:4007C000FA7005F057FE05F085FE4FF4FA7005F08FFE0B4B4FF4FA729A80DA801A805A80FFF77CFF05F0E6FE012005F087FE012006F086F901F090F9BDE8084000F0B0BA75
:40080000DC8CFF1F10B5034CA080E1802280638010BD00BFDC8CFF1F08B5052006F070F9002005F0A7FB002005F0B0FB01F05EFBFFF7BAFFFFF786FC01F02EFD00F0E8FCED
:4008400062B601F02BFD05F039F802230A4AFE21402000F021FF00F091FD3221074800F04BF9074801F08FFB064B01221A700648BDE8084001F087BB848FFF1F0898FF1FA0
:40088000E8FFFF1FE48CFF1FD8FCFF1F194B10B51C88194B1A88A242184A01D8146007E0596801310A29596004DD116801391160002159601C8049F288041168A1F584436F
:4008C000683B9BB2A34201D8012300E00023B1F57A5F0370DCBF4FF47A5313604FF6FE731168994203DD4FF6FF71044B1960108810BD00BF08550020E88CFF1FFC80FF1FDF
:4009000037B52B4C002394F90420ADF806300132032A46D8DFE802F0020F1D3C40F6C411244A138901339BB28B4201D8138139E00023138135E01F4A138104F09DFB072897
:4009400030D194F9053013B1194A013B5371012327E0184A1389154601339BB2072B138120D90DF1060004F09BFB48B994F905200F4B4AB9BDF80620DA8002221A7111E056
:40098000102801D100230CE02B89B3F5FA6F06E0084A138901339BB21381B3F57A7FF1D800E02371B4F90600208103B030BD00BFFC80FF1FE88CFF1F014BB3F908007047FC
:4009C000FC80FF1F542804D84F2894BF0020012070470220704700000F4B10B50446187AFFF7F0FF012802D12070002311E002280A4A0BD1937A0133DBB2192B937209D997
:400A00000023237001230B70D37210BD0023937223700B7010BD00BFFC80FF1FE88CFF1F10B5044603F038FC044B022804BF01221A730CB100221A73187B10BDE88CFF1FE1
:400A4000012910B554D82B4CB4F89C3008284DD8DFE800F00508101A232C353E460049428BB243E023F0030301299BB23ED102F0030207E023F0040301299BB236D192008F
:400A800002F00402134331E023F0800301299BB22CD1D20002F00802F4E723F0100301299BB223D1120102F01002EBE723F0200301299BB21AD1520102F02002E2E723F0CF
:400AC000400301299BB211D1920102F04002D9E723F0800301299BB208D1D201D2B2D1E7DBB2012904BF43EA02239BB2A4F89C3010BD00BF0855002000230360416083604A
:400B000070470B68086083420ABF8B68002301338B6088684B689842B4BF002001207047114A002330B51370104B184603F1EE0433F8021F33F8025C491B4439882902D9B1
:400B40000123137001E09C42F2D10388CC2B08DC064BB3F8EE30A3F57C53333B9BB2CC2B01D90123137030BD088DFF1F1CD9FF1F38B514461D460AA3D3E9002307F092FDC3
:400B800022462B4607F0B8FE06F076F90022064B07F088FD06F020F908F034F838BD00BFA7E8482EFF211940000090400000000038B514461D460AA3D3E9002307F072FD8A
:400BC00022462B4607F098FE06F0BEF80022064B07F068FD06F000F908F014F838BD00BFA7E8482EFF21194000009040F7B500230093594B0C461A880621B2FBF1F3574EC8
:400C000001FB132332889BB28242374612DDB6F8EE5002F58042521B7733009293FBF1F201FB1233009E00F58040401B06FB0301019148E07588A84206DAAD1A0095009922
:400C4000801A01FB030020E0B6F8EE50A8420DDB02F58042521B7733009293FBF1F201FB1231009E401B06FB01000EE0B6F8EC60B0420CDB763393FBF1F2AD1B01FB12312E
:400C80000095009D801B05FB010001901BE0882290FBF2F2BE4637F81250A84201DA561E57E0561C3EF81610884252DA1344491B0622009193FBF2F102FB1132009E401BDA
:400CC00006FB02030193009B0620584307F084FC06460F46019D284607F07EFC32463B46FFF746FF20800098019B03EB400007F073FC32463B46FFF73BFF60800098019B90
:400D000003EB800007F068FC32463B46FFF730FFA080019807F060FC32463B46FFF748FFE0800098019B03EB400007F055FC32463B46FFF73DFF20810098019B03EB800012
:400D400007F04AFC32463B46FFF732FF608103B0F0BD32469FE700BF0881FF1F1CD9FF1F70B52D4C0021204600F00FFFB4F8F0202A4B2B4C1A80FFF7D3FE2A4E0325284624
:400D80002949FFF733FF681C2849FFF72FFFB4F90E20B4F9021045F3CC031144022291FBF2F1B4F9060026F81310B4F912100835014491FBF2F11E4820F81310B4F90400F1
:400DC000B4F91010014491FBF2F11A4820F81310B4F90800B4F91410014491FBF2F1164820F81310B4F90C00B4F91810014491FBF2F1124820F81310B4F90A00B4F91610A1
:400E0000014491FBF2F20E4921F8132044F203039D42B4D170BD00BF1CD9FF1F0881FF1F088DFF1F20A8FF1F0A8DFF1F168DFF1F24C8FF1F2098FF1F14EAFF1F14DAFF1FFD
:400E400020B8FF1FF8B5704C6F4AE3690133B3F5A27FC3BF0023E361236AE361C4BF01332362236A7D2B7BDC01215162062193FBF1F201FB1233052B2CD8DFE803F00309E7
:400E800010161D244FF4ED73A36240F2012311E04FF4ED73A362E36240F2012319E040F201234FF4ED72A36212E040F20123A3624FF4ED73E3620CE040F20123A362E362E2
:400EC0004FF4ED7305E040F201224FF4ED73A362E2622363208D0023228EA18DFFF792FCE069494DA22840F38D80484BB0F5A27FD3F8C83003F500426B6B1344AA6B6B6322
:400F000002F10101A9637DD1286A782290FBF2F502FB1505022291FBF2F2134493FBF1F23B4B1340002BBEBF03F1FF336FEA83436FEA9343374AB8BF013322F81530364A51
:400F40009BB25168994207DD0621536090FBF1F301FB13009560108000236363A363F8BD536A012B4ED140F2DE322B4D114610460023FFF747FCAF68DFF8A0E03A46DFF89B
:400F800094C00026D11B772A0B46244806DC3CF8123001262EF811300132F3E706B1AA60AA68DFF870E0561A76000027521A772B02EB030109DC06EB4301714431F8F01C70
:400FC000012720F813100133F1E707B1A9602B880126A0F8F030A0F8F260FFF7A1FD00210E4800F0A1FDFFF7BBFE3046FFF718FD43F6FF7200236A604FF0FF322362E361AC
:40100000AA606362F8BD00BF088DFF1FD8FCFF1FFF3F008024D8FF1F0881FF1F1CD9FF1F2DE9F041494D044695F83C300E466BB1474C00F500731C40002CBFBF04F1FF347D
:401040006FEA44546FEA5454013424B2686ADFF8FC80002878D1FFF7E3FC3E4F3E49DFF818E128B93D4B1B7813B998F8003023B14FF4FA733B600B602CE0394AD8F8403043
:4010800032F91400374A4FF4806C32F914205A4306FB002292FBFCF202F5FA723A60324A32F91400314A32F914205A4306FB002292FBFCF22E4802F5FA7230F914000A605A
:4010C00043432C4A32F9142006FB023393FBFCF303F5FA733A68CEF80030B2F5757F1D4B02DB40F2D33202E0142A01DC15221A600A68194BB2F5757F02DB40F2D33202E0B9
:40110000142A01DC15221A60DEF800201A4BB2F5757F02DB40F2D33202E0142A01DC15221A600023BEF8002009883888FFF76AFB1248FFF7ABFBA864704340F2412690FBAD
:40114000F6F00F4BC3F88000BDE8F081088DFF1FFF07008020C8FF1F18D9FF1FF38CFF1F20A8FF1F14EAFF1F24C8FF1F14DAFF1F20B8FF1F2098FF1F10DAFF1F4C8DFF1F10
:4011800008550020142110B50F4801F04EFF0F4A0F49D2F8F0311844022390FBF3F0137803B10823CB640B4BCC6CD3F8B8211423504340F62C2290FBF2F0634343438A6CF0
:4011C00093FBF2F30B6410BD4892FF1F2091FF1F088DFF1FD8FCFF1F10B5044604F0B8FE012005F0A3FC2046074B04F1300250F8041B904243F8041BF9D1BDE81040034BE7
:401200000121187805F03CBB0BFBFF1F6CFBFF1F38B5012005F0FCF90121042004F098FA04F05CFE04F06CFE04F084FE012141F6FF734FF48042084603F08CFF1F4C204D0D
:40124000207005F09DFB062302463021287005F0B1FB1C4A46F2434192B2287805F0BCFB2978207805F060FB0121207805F008FB03F08EFF01214FF4804341F6FF720846CB
:4012800003F09CFF104C114D207005F079FB3523FE223021287005F08DFB0D4946F2464289B2287805F098FB2978207805F03CFB20780121BDE8384005F0E2BAAAFAFF1F07
:4012C0006BFBFF1F6DFBFF1F6CFBFF1FCDFBFF1F0BFBFF1FC3782BB9034B01229A76034A1278DA76704700BF84240020DA8CFF1F014B1888704700BF608DFF1F09498A88FB
:40130000CB8808899BB292B21A4480B28318488980B21844044BC0F38F005883034B1880704700BF9CFCFF1FD0FBFF1F608DFF1F38B54FF4804241F6FF730121022003F06A
:40134000D5FE054605F01CFB0446062302460C2105F030FB084A44F6106192B2204605F03BFB2146284605F0DFFA2846BDE83840012105F085BA00BF9CFCFF1F08B504F0BF
:4013800087F805F0D5F9FFF7D3FF03F0CDFE044B7D221A7032225A700022DA825A8308BDD0FBFF1F2DE9F84FDDE90CAB42F21079824273EB0104DDF82880334CB9BF4FF055
:4013C000FF364FF0FF3701260027121A63EB0103C4E90401A8FB09010B9DC4E90067C4E902ABC4E9062309FB051152465B46C4F82080656207F04EFC0A220023C4E90A016E
:4014000007F048FC064694E809000F46A0FB090109FB0311454308FB0155A0FB0801324629443B46C4E90C6707F034FC82468B460020054602460346014680468146C4E946
:401440000EAB20646064B04271EB070E0CDA18EB0A0849EB0B0912EB080243EB0903013041F100010125EEE70DB1C4E91023D4E91001064A002307F00DFCC4E91001002068
:401480000021BDE8F88F00BF788DFF1F8096980030B50D4604460849C1E91C23121A63EB050392185B41C1E91823DDE90323C1E91A45C1E9162330BD788DFF1F2DE9F04FA9
:4014C000DFF888818BB00024DDE916AB0025BAF10B0FC8E91245DDE91467C8F85040C8F878407BF10004CDE90801CDE90423444613DA022E77F100044FF0010404DAC8E939
:401500002023C8F8784005E0CDE90067FFF7C0FFC8F850403046394694E0002E77F1000302DA764267EB4707DDE90423CDE902ABDDE9080100960197FFF734FFD4E90689F1
:40154000B8F1000F79F100033D4603DAD8F1000869EB4909D4E91023002A73F10001CDE9068902DA524263EB4303901843EB0301804579EB010125DA0AFB09F3AAFB0801F4
:4015800008FB0B33194407F05FF805F0BDFC07F0E1FBDDE904230090019106460D46DDE90801CDE902ABFFF7FDFEA269002AB8BF52421046D117226CCDE90601002AB8BF83
:4015C0005242D31742F2107EDDE9060192185B41801A61EB03010B460246A0FB0E01C4E932230EFB031132462B4607F053FB4FF47A73A0FB038903FB019942F21072002356
:401600004046494607F046FB002871F100030F4F02DBC7E9340103E000220023C7E93423D4E90C67D4E9340180197941C4E92E018019794100220023C4E92C67C4E930017A
:40164000C4E922230BB0BDE8F08F00BF788DFF1F0A494FF47A700B8801339BB2B3FBF0F200FB12339BB2B3F5F97F0B8088BFC31A4B804B885B080B71704700BF588EFF1F40
:40168000044BC0F1FA001B798342D4BF00200120704700BF588EFF1F182B10B50AD8064CA3600123207061700020237323756260206110BD012010BD608EFF1F014B0122FE
:4016C0005A757047608EFF1F5A4A70B5138813B1013B138070BD584C227B002A00F0A980E28A022A0AD9E382236104F035FB04F059FB04F041FB237E01332376227E4E4B09
:40170000032A04D904221A6100225A761A762169494B21B95A7D012A04BF59751A612669454D012E10D10023EB8204F015FB04F039FB04F021FB29460223324611F8010B58
:4017400004F036FA022316E0022E1DD1EB8A0133EB8204F0EBFA860716D501060DD404F0FBFA294601232A7A11F81A0B04F07EFA0023EB8203232B6170BD0023EB822B6178
:401780002B7E01332B7670BD23692B4D032B23D1EB8A0133EB8204F0C9FAC2071CD5030613D4002305F11A00A168234A8B4204D2195C6A68D1540133F6E7137E0BB1013B8F
:4017C0001376636B0133636302E02B7E01332B760023E382236170BD2269174B042A28D1012283F838205B7E072B22D8DFE803F0041313131313101604F0AEFA04F0D2FA51
:4018000004F0BAFA04F06CF8638F0133638701E004F054F8637E0133637670BD00250223064AFE214020E582FFF736FF256184F8385070BD1481FF1F608EFF1F848FFF1F0A
:40184000014B586B704700BF608EFF1F014B00221A757047608EFF1F014B187D704700BF608EFF1F2D4B10B5D3F8FC0102F0ACFCFEF7EAFE70B102F0C3FC02F00DFD012148
:4018800082B20846FFF7DCF8254B01211A780320FFF7D6F8234B01211A780520FFF7D0F8FFF7DAFF08B100F015FC1F4CB4F900300BB1013B2380B4F90030B3F5FA6F0AD197
:4018C000FFF7BEFFF92806D8FFF7C0FF17496FF0010000F083FBB4F90030F3B9FFF7BCFF70B1124B1249D3F8BC01FFF70AF9114B01211A781043C2B206201A70FFF7A0F8AA
:40190000B4F900304BB9FFF7A7FF30B9BDE8104006496FF0010000F061BB10BD2091FF1F088DFF1F988EFF1F1681FF1FE8FFFF1F0898FF1F9C8EFF1F10B50020FEF750FD17
:401940003221134801F07EFB124B1A78F2B9124C2378022B06D1D4F82412D4F82802FEF753FC04E0042B02D11046FEF703FD217811B90846FEF786FE084B1B7833B1002136
:4019800021700846BDE81040FEF77CBE10BD00BF4892FF1FA78EFF1F2091FF1FF38CFF1FFFF7F0BB08B503F083FDBDE80840FFF7A5BC000008B51448437883F001034370CE
:4019C00013B102F0CFFB04E0023000F037FC00F04FFC0E4B1A780E4B52B919780339012906D8D3F8FC11D3F82001FEF775FC02E00022C3F80822FFF72FFF18B1BDE80840E2
:401A0000FFF762BE08BD00BF9C8EFF1FA78EFF1F2091FF1F034BD87880F00100D87003F0FDBE00BF9C8EFF1F0022134630B54FF0FF34855C6DB29D42C4BF54B2835C01324A
:401A40000A2AF6D10F2B01D89BB205E0642B8CBF012300230B700F23621C1ABF43EA041398B2002030BD000038B5254CFEF7FAFD00F02EFC2379234D23B100232B702371D0
:401A800000F038FC2B780BB1012323711C4DFEF737FF691DA81DFEF79FFF627901210220FEF7CEFFA3780BB10023AB70FFF7D0FDA279637912B123B9642003E00BB1C8201F
:401AC00000E00C20FFF7DCFD03F096FB0E490F48FFF7AAFFE2790E4C01210420FEF7B0FF2378DB0706D5FFF7ADF90A4B1B681BB9237001E002F032FDBDE83840FEF794BD03
:401B00009C8EFF1FCC8FFF1FA38EFF1FCF8CFF1FA78EFF1F2C8DFF1F08B504F0A2FABDE80840052005F002B8F0B50C4685B0064610220021684607F0F8FA24B1012C22D18D
:401B40003C25142701E02746132504F0A0FA3C46AC4218D2E21B06EB0212002332F8130004A901EB430101334FEA102E082B01F810EC01F80F0CF1D1E1B26846013404F009
:401B80008BFAA4B2E4E705B0F0BD2DE9F843804629B101291BD14FF4F079A02502E00D464FF098092C464C4511D26600B6B2304604F059FA0746701C80B204F054FA631B54
:401BC00040EA0720013428F81300A4B2EBE7BDE8F8830000014B1878704700BFA78EFF1F012807D0C30704D402288CBF00200120704700207047000038B54FF4804241F630
:401C0000FF730121022004F0C5FB0E4C0E4D207004F0B6FE062319460246287004F0CAFE0A4A45F6A23192B2287804F0D5FE2978207804F079FE20780121BDE8384004F0AD
:401C40001FBE00BFD6FCFF1FB0FCFF1FB2FCFF1F08B504F08DFB04F033FB04F0FBFA04F0E9FD012004F04CFFFFF7C6FF04F0B0FBBDE80840012004F043BF00006149624B0F
:401C8000B1F90020B1F90200B1F904102DE9F04F1A80588099805D4B5D4C1E685D689F685C4BD4F8B0B11B78002BD4F8BC31D4F8B0A1D4F8BC81D4F8B091D4F8BCE16FF027
:401CC0003B0404FB0BF44FF47A7B94FBFBF414BF4FF4805C4FF0000C63441C444E4B04F580442340002BBEBF03F1FF336FEA83436FEA9343494CB8BF0133DB1034F913402D
:401D00006FF063039AFBF3FAE044D044424B08F5804808EA0303002BBEBF03F1FF336FEA83436FEA9343DFF8FC80B8BF0133DB1038F913806FF06D0303FB09F94FF47A7312
:401D400099FBF3F9E644CE44334B0EF5804E0EEA0303002BBEBF03F1FF336FEA83436FEA9343DFF8C4E0B8BF0133DB103EF913E0264B4FF0000CC3F80CC0C3F810C004F53C
:401D8000F07CBCF5707F06D9C01B800290FBF4F40120DC60186108F5F070B0F5707F09D9891B890291FBF8F8D9684144D9601969013119610EF5F071B1F5707F09D9521B9F
:401DC000920292FBFEF2DD682A44DA601A6901321A6119690D4C002908DDE0686FF01702504390FBF1F0C117C4E90601BDE8F04F0B4899693222C0F81C1100F5947001F024
:401E0000F9B800BFB2FCFF1FC4FCFF1FB08EFF1FD8FCFF1F448DFF1FFF3F008020A8FF1F2091FF1F24C8FF1F2098FF1F124B70B5124C596AB4F904001A6A0844B4F90060C7
:401E4000D96AB4F90240551C9A6A0C440221164495FBF1F25862DC6210441444324494FBF5F490FBF5F092FBF5F21D629E629C6018605A6070BD00BFB08EFF1FC4FCFF1F32
:401E80002DE9F0410021804601F0CFF80746084E1C2400252146404601F0C7F856F8043FC01B073C03FB0055F4D16800BDE8F081748AFF1F2DE9F0410021804601F0B5F86A
:401EC000002407462546084EC4F10401404601F0ACF856F824300134C01B042C03FB0055F2D12846BDE8F0818C8AFF1F08B503F0E7FF054B4FF4404208201A8003F082FF4A
:401F0000BDE8084004F090B8108FFF1F10B5044640F4804006F00EFF10B144F4404003E0C4F30E0444F48040044B00241880044B9C7003F073FF204610BD00BFD8FFFF1FE6
:401F4000108FFF1FD0B5A0F1080100F1500400260027E1E90267A1424FF000024FF00003F7D1C0E91623C0E91823C0E91A23C0E91C2300238367C367C0F88030C0F88430F3
:401F8000C0F88830D0BD38B50446002501F01EF804F1D80001F01AF804F5E870C4F8B051C4F8B451C4F8B851C4F8BC51C4F8C051C4F8C451C4F8C851FFF7C4FF04F51870E7
:401FC000FFF7C0FF42F21073C4F8F052C4F8FC32C4F8F452C4F8F85238BD0000F8B53A4C0D46D4E91623134318BF0123D1F8BC2118BF84F86030354B821A9A42D1F8C83180
:4020000004DA94F860205AB1013307E041F288318A4205DD94F8602012B1013BC5F8C831D5F8C82100270A23C5F8BC01236700EB82309E463E463A463B46C117A766E766EF
:4020400005F5087CBEF1000F09D07CE902679219CCE902677B410EF1FF3E0126F2E70EB1C4E91A2305F5E873C3E90001D4E91A2380185941C4E91A01154A0A23013B72E9FA
:402080000267C2E90267F9D123670B22002306F001FED4E90A23821A61EB0303002AC4E9020173F10004C5F8D80202DA033243F10003920842EA8372C5F8E022A5F8EC020C
:4020C000A5F8EE22F8BD00BF108FFF1F78ECFFFF688FFF1F054B064993F8740093F8753003F03F0303EB8010FFF778BF108FFF1FE8FFFF1FD1F8B021422353434FF47A7257
:4021000093FBF2F3C1F8BC011844084B00F580400340002BBFBF03F1FF336FEA83436FEA93430133C1F8C031704700BFFF3F00802DE9F8430446D0F8BC51DFF878E01C4ADB
:40214000DEE92001EF17281A67EB01014FF0FF33904271EB03032E46D4F8C83101DA013308E041F288384FF00009804579EB010202DA013BC4F8C831D4F8C811022205EB19
:4021800081312046CEE9206700F034FF2046FFF791FE4FF47A7390FBF3F0D4F8C830C4F8B001C4F8B431C4F8B801BDE8F88300BF78ECFFFF108FFF1F2DE9F043184D194FC2
:4021C000DFF87090DFF8708085B0002440F61450E6B23A5D314600FB049000F01DFCA5F59C711148E25D02914FF4647101FB04019623634301910D490D4819440091314624
:402200003426039506FB04004344013400F0D1F9032C05F51C75D9D105B0BDE8F08300BFE81A00202890FF1F000F0020C222002084240020202500200021002038B5094B67
:4022400004465A796AB100225A71074800F060FA064B0546187804F029FB022D04BF0123237038BD84240020B0190020AAFAFF1F10B5074CA37E012B08D1064890F83E11E8
:4022800000F23F10FEF7A8FF0023A37610BD00BF84240020B019002004F0A4B938B5002421460A4AA1540134072C084D4FF00003F8D1EB712B726B7203F05AF92A462146FB
:4022C000BDE838400A2003F061B900BFE802002010B5FEF771FB054B054CB3F89C302072E37101F0D3FF607210BD00BF08550020E802002013B50E4C0E4B627802A91A706B
:40230000032221F8022DA27820465A7000F029F8094B00225A809A80DA80BDF806201880A15C013292B2A25C19729A8102B010BDE8020020CA8FFF1F0855002070471378C7
:4023400003700B7883704B78C3707047138810B5040ACC5413881944487013880233138010BD10B50B88C45C18444278023302EB04200B8080B210BD138810B5040ECC5469
:402380001388040C0B445C701388040A0B449C7013881944C87013880433138010BD30B50C880319055DDA78587802EB056202EB0042987804340C8002EB002030BD000087
:4023C000F8B50C4607461646AA213022204606F0ACFE00223D46104602234FF0E90CE91B8E4209D802332F2B28D930220021204606F09BFE0020F8BD2F2BF3D815F8011BEE
:4024000001F1130E5FFA8EFEBEF1010F01D9E9290FD104F803C015F8011C04EB030E0133E1549EF800E0013072440A4402F0FF0202E00A44E154D2B20133D0E70E4D83195E
:40244000A979E8700131D8B22F2B6E70A870A97106D930220021204606F067FE002009E0ED212A716070217003301C44EE23A270E370C0B26871F8BDD08FFF1F2DE9F74FB4
:4024800006460F46924600F0ACFA8146A0F1040B4FF0FF34A3454EDD621C92B2ED21304600F0CCF9431C044645D08345F2DB1FFA80F808F1010189B2304600F0AEF9E31C00
:4024C000034499450546E5DD9BB219463046009300F0A3F9EE28009BDCD1013B9BB208F102011A4689B23046019300F0D0F9019B00901946304600F090F9009A8242C9D1B6
:402500002B1D39462C449BB242463046013500F0F1F90434791C00232F440022B9420BD011F8010FE92800D11AB10AF803000133F3E70122F2E70024A0B203B0BDE8F08F8C
:40254000037830B58B7043780BB9012300E002230B710369CA1D03F1300453F8045BA34242F8045BF9D1C3689D3103F1300253F8040B934241F8040BF9D130BD10B54478A1
:40258000C16202630378C1F83401C2F8340134B90120087103208B70C870022105E00220087103208B70C870012111719070D37010BD2DE9F84304460025962708A890E80C
:4025C0004103E3602170627029463A46A57025716571206106F0A9FD3A462946E06806F0A4FD304600F0CCF86661257665764A4641462046BDE8F843FFF7C0BF70B51446DE
:4026000006460D461A460021204606F08EFD2670657070BD027843789A4205D2C07800F0010080F00100704706D9C37813F0010F14BF0320022070470320704770B505467C
:4026400000790E46A8B101382871EA6829696869FFF714FF60B10146686900F078F9044631462846FFF76CFFE0B2B0FA80F04009C0B270BD70B544780CB9002070BD01F012
:4026800081FD844201D1012070BD01F077FD8442F9D001F083FD844236D001F073FD844234D30025002001F08DFDEEB2864209D23146002001F078FD844205F10105F1D1D3
:4026C000022070BD0025012001F07CFDEEB2864209D23146012001F067FD844205F10105F1D1032070BD0025022001F06BFDEEB28642C2D23146022001F056FD844205F1A2
:402700000105F1D1042070BD062070BD072070BDF7B5837800F19D0790F8A0500646002438468DF805408DF80430FFF7A3FF012815D10323F3703846FFF76CFF022818D88B
:402740000D4A6B081370507003EB43030B4A034452F82330384601A9984702200AE0022801D1F47005E00638012894BF0020012000E0204603B0F0BDE08FFF1FE808002049
:402780004FF0FF33C0F884330023C0F88833C0F88C33421E00F2833002F8013F8242FBD17047B2F5617FF8B504460F46164632D8D0F88853AB18B3F5617F284408DDC5F574
:4027C0006175ADB22A4606F0A5FC2046721B791906F0A0FCD4F884334FF46171002BBCBF0023C4F88433D4F88833F21892FBF1F301FB1323D4F88C23C4F8883316448E4262
:40280000D9BF0020C4F88C63C4F88C13C4F88433C8BF0220F8BD0120F8BDD0F88C339942BFBFD0F884334FF46172C91891FBF2F3BABF02FB1311405C0020704770B5D0F872
:402840008C53AA421EDAD0F8844313190444B3F5617F08DAA65C8E4217D00132954203F10103F4D12A464FF4617693FBF6F406FB14339B1A1844AA4204DA835C8B4204D003
:402880000132F8E74FF0FF3070BD104670BDD0F88C3330B599422BDA934229DB531A002B26DDD0F8843319441A444418002391420BDB4FF4617592FBF5F405FB142291FB65
:4028C000F5F405FB1411014408E0B1F5617FF0DA14F8015B01312B44DBB2E8E70C1AA24204DD11F8014B2344DBB2F7E7184630BD002030BDF8B50E461F46054628B321B31E
:40290000D0F88C13D3188B421FDCD0F884334FF461741A4492FBF4F104FB1124A1B2CB19B3F5617F01440ADDC4F56174A4B22246304606F0EFFB3A1B2946301901E03A46E7
:40294000304606F0E7FB0020F8BD0120F8BDB1F5617FF8B5044606D8D0F88C73B942D4BF0027012700E00227D4F88423B1F5617F28BF4FF46171002A0D4630DB5318B3F5C6
:40298000617F04EB02000ADDC2F5617296B23246002106F0CAFBAA1B0021204601E00A46002106F0C2FBD4F88C335B1B002BC4F88C3309DC4FF0FF33C4F884330023C4F899
:4029C0008833C4F88C330AE0D4F884130D444FF4617195FBF1F301FB1355C4F884533846F8BDD0F88C03704770B50446C51D00F25F26284696220021963506F096FBB542EA
:402A0000F7D14FF41672002104F2612006F08DFB0023A4F8BA3470BD10B504460023017042708370C3700371836000F56770FFF7DBFF04F65800FFF7D7FF04F10C00BDE8E1
:402A40001040FFF79DBE704713B5012302A921F8023D0478FFF7A3FC024B063443F8240002B010BD004D002037B50D4604460A46014601A8FFF763FC6B78054A8DF8053022
:402A800001A9044B201DFFF7DFFF03B030BD00BFD8510020F48FFF1F73B5002302AC24F8023D21460646FFF77AFC0E4D214628603046FFF774FC214668603046FFF76FFC24
:402AC0002146A8603046FFF76AFC2146E8603046FFF765FC214628613046FFF760FC686102B070BD004D002037B50D4604460A46014601A8FFF723FC6B78054A8DF8053082
:402B000001A9044B201DFFF7C7FF03B030BD00BFD8510020F48FFF1F0D4B0E4AC3F808210D4AC3F810210D4AC3F814210C4AC3F81C210C4AC3F818210B4B0C4AC3F8142108
:402B40000B4AC3F81C210B4AC3F81821704700BFE8080020312C0000472A0000052D0000E92A0000692A0000F4020020E52C0000992A0000492A00002DE9F341044600267C
:402B800002AD9846162325F8026D0B700223137001462A463046FFF7D9FB2A4621463046FFF7D4FB2A4621463046FFF7CFFB2A4621463046FFF7CAFB1C4F2A4621463046CA
:402BC000FFF7C4FB2A4621463046FFF7BFFB2A462146B889FFF7BAFB2A462146F889FFF7B5FB2A462146388AFFF7B0FB7B6A2A4618682146FFF7C0FB2A462146386AFFF7CC
:402C0000BBFBBDF80620531C9BB2A654E654931C9BB2E654111DD31C9BB289B20532E6546654A8F8002002B0BDE8F081C04D00202DE9F043804689460D4F0E4E0E4D0F4C0C
:402C400085B03B46324629462046FFF795FF01203B88029098F80000327800902978CDF80490204600F08EFA05B0BDE8F08300BFF48FFF1FF68FFF1FF78FFF1FD8510020F2
:402C8000F7B5064602AC1F46002324F8023D1723134D0B7002231370014622462868FFF76BFB224631466868FFF766FB22463146A868FFF761FB22463146E868FFF75CFB70
:402CC000224631462869FFF757FB224631466869FFF752FBBDF806303B8003B0F0BD00BF004D002007B51046002200920349044AFFF7C6FF03B05DF804FB00BFF78FFF1F72
:402D0000F68FFF1FF0B50D46044687B00A46014605A8FFF714FB0D4F6B780D4E8DF8153032463B4605A9201DFFF7DCFF094A0A4901203B8812780978029020780195009030
:402D4000304600F01FFA07B0F0BD00BFF48FFF1FD8510020F68FFF1FF78FFF1F704700000279084BDA7142791A7282795A72C2799A72027ADA72427A1A73827A5A73C27A45
:402D80009A7370479C4C0020F0B50B4B3D251D700A4B02220A4C0B4F1A7085B0002601233B80267002960191017820460091294600F0E8F905B0F0BDF78FFF1FF68FFF1F57
:402DC000D8510020F48FFF1F70470000084B094AC3F8DC22084AC3F8E022084AC3F8E422074AC3F82423074AC3F82C23704700BFE8080020892D0000C92D00005D2D000047
:402E0000412E0000612D000010B543240C70022111700A4AD1790170117A4170517A8170917AC170D17A0171117B4171517B8171927BC27108221A8010BD00BF9C4C0020B5
:402E40002DE9F043804689460D4F0E4E0E4D0F4C85B03B46324629462046FFF7D5FF01203B88029098F80000327800902978CDF80490204600F086F905B0BDE8F08300BF9E
:402E8000F48FFF1FF68FFF1FF78FFF1FD85100207047000030B50A4B29241C70094B0222094D1A7000232B8085B0012502950191017806480091214600F064F905B030BDBF
:402EC000F78FFF1FF68FFF1FF48FFF1FD851002007B5042302A921F8023DFFF760FA03B05DF804FB70477047094B0A4AC3F8EC21094AC3F8F021094AC3F8F421084AC3F837
:402F00000422084AC3F80822074AC3F80C227047E8080020952E0000E72E0000E52E0000552F0000D12E0000912E000037B51D4602AC002324F8023D2B230B70022313701A
:402F4000014622460698FFF717FABDF806302B8003B030BD2DE9F043804689460E4F0F4E0F4D104C85B00023009332463B4629462046FFF7DBFF01203B88029098F80000E8
:402F8000327800902978CDF80490204600F0FAF805B0BDE8F08300BFF48FFF1FF68FFF1FF78FFF1FD8510020054A064B536204339362054B00229A61DA611A625A627047C0
:402FC000C04D00208CFEFF1F004D00200023194640F823100133322B4FF00002F8D10449C0F8CC200B60C0F8C820C0F8D0207047E48FFF1FD0F8CC3030B50133322593FB59
:40300000F5F405FB14339A1A2A44C0F8C81040F82310C0F8CC3092FBF5F305FB132250F82230C91AC0F8D01030BDD0F8CC303222591A323191FBF2F302FB131150F82100FA
:40304000704700000023F0B51E461C460F4A3227536013725D1C8B42EDB20DDAD0F8CC40E31A323393FBF7F407FB143350F8233001241E442B46EDE70CB113725660536843
:4030800093FBF1F1C0F8D410F0BD00BFE48FFF1F00221A807047704770B540F2F456144D1449154C154A0023581959511A514160816018190C33B34242608260F4D1FFF7EF
:4030C00085FE00F05BF900F00DFB00F001FE00F00DFFFFF721FD00F025FFFFF705FF00F06DFC00F019FDBDE8704001F0E3B900BFE808002097300000F40200209130000056
:403100002DE9F0419046079E0D461C46074601F039F8042332469DF81810FFF76FFA01239845B37002D19D401D4303E0B8F1020F0DD16D00202C28BF2024F570224639460F
:40314000301D05F0E7FF201D80B2BDE8F0814FF48060FFF7F3F80020BDE8F08130B58DB09DF8405003AC01940095FFF7C9FF1399C2B22046FFF724F9129B30221A800DB09B
:4031800030BD00002DE9F0470D46914686B006AC4FF0000E24F802ED0F9FDFF8648002949DF8384001970094CDF80C809DF84060FFF7D4FF3F784FF41C747C43DFF844A0E0
:4031C00004F59C7454444146BDF81620E01D05F0A1FF4FF41C7303FB07A76900B9F1010F08BF41F00101C9B287F83D11204616B900F0B2FF01E000F0B0FF06B0BDE8F0871F
:40320000A8510020B0190020704700210079FCF739BF00007FB50B4A50250B4C0B4B1570022222701B780A4C0A4E237001233380029301910178204600912946FFF7A2FF22
:4032400004B070BDF78FFF1FF68FFF1F2091FF1FD8510020F48FFF1F37B5054602AC042324F8023D2146FFF79AF821462846FFF796F8044B1A78032A08BFC3F8200103B05A
:4032800030BD00BF2091FF1F37B5054602AC042324F8023D2146FFF782F821462846FFF77EF803B030BD07B5042302A921F8023DFFF775F803B05DF804FB0000F7B505462D
:4032C000042302AC24F8023D2146FFF768F821462846FFF764F821462846FFF760F8214606462846FFF75BF8214607462846FFF756F8094B1A78C3F83062022AC3F8347207
:40330000C3F8380202D1C3F8286203E0042A08BFC3F8686203B0F0BD2091FF1F37B5054602AC042324F8023D2146FFF738F821462846FFF734F821462846FFF730F82146AF
:403340002846FFF72CF821462846FFF728F803B030BD000007B5042302A921F8023DFFF71EF8054B1B78012B02D10021FDF78AF903B05DF804FB00BF2091FF1F124B134A7F
:40338000C3F8C023124AC3F8C423124AC3F8C823114AC3F8FC23114AC3F80024104AC3F80424104AC3F814240F4AC3F818240F4AC3F81C240E4AC3F808240E4AC3F80C2450
:4033C0000D4AC3F810247047E8080020153200000B32000009320000C934000055330000A732000075350000BD3200001D3300003D3400005932000089320000F7B506460B
:4034000002AC1F46002324F8023D56230B700A4D0223137001462246D5F81C01FEF7ACFF22463146D5F82001FEF7A6FFBDF806303B8003B0F0BD00BF2091FF1F2DE9F0438B
:40344000804689460F4B104F104E114D114CD3F8583185B0009332463B4629462046FFF7CDFF01203B88029098F80000327800902978CDF804902046FFF784FE05B0BDE8C7
:40348000F08300BFC04D0020F48FFF1FF68FFF1FF78FFF1FD851002037B51D4602AC002324F8023D55230B7002231370054B01462246D86BFEF760FFBDF806302B8003B087
:4034C00030BD00BFC04D00202DE9F043804689460E4B0F4F0F4E104D104CDB6B85B0009332463B4629462046FFF7D6FF01203B88029098F80000327800902978CDF8049067
:403500002046FFF73FFE05B0BDE8F083C04D0020F48FFF1FF68FFF1FF78FFF1FD851002073B5054602AC1E46002324F8023D57230B7002231370014622460698FEF71CFFCA
:40354000224629460798FEF717FF224629460898FEF712FF224629460998FEF70DFF224629460A98FEF708FFBDF80630338002B070BD00002DE9F04380468946154B87B06D
:40358000D3F83822144F0492D3F83422134E0392D3F83022124D0292D3F82C22114C0192D3F824323246009329463B462046FFF7B7FF01203B88029098F80000327800904F
:4035C0002978CDF804902046FFF7DCFD07B0BDE8F08300BF2091FF1FF48FFF1FF68FFF1FF78FFF1FD8510020F7B5042302AC24F8023D21460546FEF7B4FE214607462846B7
:40360000FEF7AFFE214606462846FEF7AAFE064B0022A3F81071A3F81261A3F81401C3F8082203B0F0BD00BF2091FF1FF7B5042302AC24F8023D21460546FEF792FE214690
:4036400007462846FEF78DFE214606462846FEF788FE064B0022A3F81872A3F81A62A3F81C02C3F8442203B0F0BD00BF2091FF1FF7B5042302AC24F8023D21460546FEF779
:4036800070FE214607462846FEF76BFE214606462846FEF766FE064B0022A3F85872A3F85A62A3F85C02C3F8502303B0F0BD00BF2091FF1F37B5054602AC042324F8023DF7
:4036C0002146FEF74EFE21462846FEF74AFE21462846FEF746FE03B030BDFFF7EBBFFFF7E9BF00000E4B0F4AC3F8D8230E4AC3F8DC230E4AC3F8E0230D4AC3F8E4230D4A24
:40370000C3F8E8230C4AC3F8EC230C4AC3F8F0230B4AC3F8F4230B4AC3F8F823704700BFE80800208D370000E9350000DF360000393800002D360000DB360000E5380000AE
:4037400071360000B536000073B5054602AC1E46002324F8023D52230B700223137001462246BDF81800FEF7F1FD22462946BDF81C00FEF7EBFD22462946BDF82000FEF797
:40378000E5FDBDF80630338002B070BD2DE9F04380468946124B85B0B3F91421114F0292B3F91221104E0192104D114CB3F910313246009329463B462046FFF7C5FF0120B2
:4037C0003B88029098F80000327800902978CDF804902046FFF7D6FC05B0BDE8F08300BF2091FF1FF48FFF1FF68FFF1FF78FFF1FD851002073B5054602AC1E46002324F832
:40380000023D53230B700223137001462246BDF81800FEF79BFD22462946BDF81C00FEF795FD22462946BDF82000FEF78FFDBDF80630338002B070BD2DE9F04380468946F0
:40384000124B85B0B3F91C22114F0292B3F91A22104E0192104D114CB3F918323246009329463B462046FFF7C5FF01203B88029098F80000327800902978CDF80490204694
:40388000FFF780FC05B0BDE8F08300BF2091FF1FF48FFF1FF68FFF1FF78FFF1FD851002073B5054602AC1E46002324F8023D54230B700223137001462246BDF81800FEF7FC
:4038C00045FD22462946BDF81C00FEF73FFD22462946BDF82000FEF739FDBDF80630338002B070BD2DE9F04380468946124B85B0B3F95C22114F0292B3F95A22104E0192B2
:40390000104D114CB3F958323246009329463B462046FFF7C5FF01203B88029098F80000327800902978CDF804902046FFF72AFC05B0BDE8F08300BF2091FF1FF48FFF1FC4
:40394000F68FFF1FF78FFF1FD8510020034B82781A705A6801325A60704700BFF88FFF1F034B41789A7A1972521A5A72704700BFF88FFF1F13B504460A46014601A8FEF7DB
:40398000DEFC044BA2791A705A6801325A6002B010BD00BFF88FFF1F13B504460A46014601A8FEF7CCFC044B61799A7A1972521A5A7202B010BD00BFF88FFF1F074B084A11
:4039C0009A61084ADA61084A1A62084B084A9A61084ADA61084A1A62704700BFE8080020B53A00007539000099390000F4020020693A00004D3900006139000070B502245D
:403A00000C701D4614709DF810309DF818209DF81C6003704270F3B1104A46B11478104984702246033005F075FB033413E09DF814400A26202C28BF2024847009481470FA
:403A400001780334013191FBF6F306FB1311D36801700133D3602C8070BD00BFF88FFF1FFC510020B48AFF1FF0B51C46154682780E4B302A87B0067828BF30224778C11C18
:403A80000B481A7005F046FB002301222380039201930297009623460DF117020DF116012846FFF7ABFF07B0F0BD00BFF88FFF1FFC510020F0B504460E4687B00D4F0E4DA9
:403AC0000A46014605A8FEF73AFC3B462A4605A9201DFFF7C9FF094A094901203B881278097802902078019600902846FFF74AFB07B0F0BDF48FFF1FD8510020F68FFF1F3E
:403B0000F78FFF1F704707B50A46014601A8FEF716FC03B05DF804FB0A4B0B4AC3F844240A4AC3F848240A4AC3F84C24094B0A4AC3F84424094AC3F84824094AC3F84C2496
:403B4000704700BFE8080020ED3B00008B3C0000073B0000F4020020CD3B0000853C0000053B0000F7B504461F469DF820005B230B700221117001230207ADF8063020702A
:403B80001CD4C3061AD5104D02AE2B7826F8021D6370324621466888FEF7D8FB324621466868FEF7E9FBBDF806202B7BA354931CADF806300132AB7B92B2A354BDF80630FD
:403BC0003B8003B0F0BD00BF0C54002013B514460278044900922046034AFFF7C3FF02B010BD00BFF78FFF1FF68FFF1FF0B50D46044687B00A46014605A8FEF7A0FB0D4F57
:403C00006B780D4E8DF8153032463B4605A9201DFFF7DCFF094A0A4901203B881278097802902078019500903046FFF7ABFA07B0F0BD00BFF48FFF1FD8510020F68FFF1F21
:403C4000F78FFF1FF8B50546A9B10778FDF7C2FF0A4C064668B93846FDF7C2FF48B12078074B3843012220701A7031462878FCF709FA2078F8BD0846F8BD00BFA78EFF1F1A
:403C8000A88EFF1F0121FFF7DDBF37B50D4604460A46014601A8FEF752FB6B780121201D8DF80530FFF7CEFF03B030BD7047000013B5052302A921F8023D0479FEF76FFB0C
:403CC000024B03EB8403D86202B010BDE090FF1F054B064AC3F83824054AC3F83C24054AC3F84024704700BFE8080020953D0000B13C0000AD3C0000F7B505461F465A2325
:403D0000224E0B709DF82000022302AC1370012324F8023D287006EB800022462946C06AFEF72AFB224629467068FEF725FB22462946B068FEF720FB22462946F068FEF703
:403D40001BFB22462946308AFEF700FBFCF740FBFCF72CFB22462946708BFEF7F7FA0C4B2246B3F81C012946FEF7F0FA22462946F069FEF701FB22462946306AFEF7FCFA5A
:403D8000BDF806303B8003B0F0BD00BFE090FF1F2091FF1F2DE9F043804689460E4F0F4E0F4D104C85B00023009332463B4629462046FFF7A1FF01203B88029098F800003C
:403DC000327800902978CDF804902046FFF7DAF905B0BDE8F08300BFF48FFF1FF68FFF1FF78FFF1FD85100207047704716280FD0A0F14303DBB21A2B04D8064A22FA03F331
:403E0000DB0705D464381A288CBF0020012070470120704701008004F7B50378857804468DF80730DDB19DF80700FFF7DFFF00283FD0214B1A78002A3BD16678E5781F4A12
:403E400020799DF80740968014608C785C80097891711B4A1580508001221A7029E0164A164B11781446164821B19DF807601F68B7420DD04FF0FF321A6043F239020321B5
:403E80009A8000226280997102804280227010E09DF80760FF2EEDD04FF0FF341C6043F2390401399C80032455809C7105804580117003B0F0BD00BF0C90FF1FB88AFF1F6B
:403EC0001C54002037B50D4604460A46014601A8FEF735FA6B7801A98DF8053000231A46201DFFF799FF03B030BD0000074B084AC3F85024074AC3F85424074AC3F8582431
:403F0000064A074BC3F85424704700BFE8080020EB3D0000C53E0000E93D0000193E0000F4020020034B044AC3F85C24034AC3F860247047F402002001400000294000008E
:403F40002DE9F341012305460E46ADF8063002706AB30223ADF8063000F012F9BDF806406870631CADF8063000F008F9BDF8063002AF5A1C27F8022DDFF8788003222855E0
:403F8000EA54002458F824003A4629460134FEF7F3F9032CF6D1BDF80640631CADF8063000F0F0F8BDF80630285533801CE0104FDFF844E0DFF844C001303B681B889A4264
:403FC00010DA94000023DEF80010895C8B4206DADCF800100959C95CC1540133F3E708440132EAE7401B308002B0BDE8F08100BFD08AFF1F20540020C88AFF1FCC8AFF1F48
:4040000030B415460278AA2A0CBF0122002204D104480024046044608460284630BC1946FFF78EBF205400202DE9F347804614461D4602AF012390F80090DFF8B0A027F81C
:40404000023D0026F3B24B4502D3284A002111E0032E07D039464046FEF7A1F94AF826000136EFE7224B214E1B684FF0010E1879034606E0032BF5D0581C42F82310C3B286
:40408000F8E75F2B0DD85F0903F01F020EFA02F156F82720013322EA010246F82720DBB2EFE7144B114E196800224FF0010CD3B283420FD251F8227057B95F0903F01F033B
:4040C0000CFA03FE56F8273023EA0E0346F827300132ECE7054800F00FF8012229462046FFF72EFF02B0BDE8F08700BF20540020C08AFF1FC48AFF1F124B2DE9F0411A68E1
:404100005D680023D4681A46DFF840E0DFF840C0DFF840800127066807FA02F1314209D055F822104EF82310A15C58F821100CF8031001330132102AEDD1034A1380BDE84F
:40414000F08100BFC08AFF1F1490FF1F7C5400202C540020589100007047C3780BB9FDF7B9B8704710B5034C03492046FEF766FA607110BD84240020B01900200120704758
:4041800002207047014B1878704700BF6C8BFF1F014B1870704700BF6C8BFF1F014B5878704700BF6C8BFF1F08B9044B02E0012802D1034B585C704700207047BC5400200B
:4041C000BC540020002070470A4910B50B680C24013393FBF4F204FB12330B604BB9064A1378072B03F1010111709CBF034A22F8130010BD708BFF1F2C90FF1FBC54002059
:4042000000231A4610B51D4830F9121001320029B8BF4942082A0B44F6D1194800220270184ADB1011790B41517C802906D1117C8B4208DD591A0A2404FB013340F28A218B
:404240008B42A8BF0B46104C0D4954F8234043682344D488D268A3428CBF1B1B00234B604168074B8A4201D9002005E0054A9268914234BF01200220187210BDBC540020FD
:404280002C90FF1F708BFF1FE4910000014B587A704700BF2C90FF1F014B187A704700BF2C90FF1F10B51C467E230B700221117000F8011B034A1B2100F078F90130208044
:4042C00010BD00BF3690FF1F2DE9FF41044688461B220E49043000F091F9A0B90C4F0D4E0D4D3B46324629460C48FFF7DBFF01203B8802902078327800902978CDF8048077
:404300000648FEF73FFF04B0BDE8F0813690FF1FF48FFF1FF68FFF1FF78FFF1FD85100202DE9F04F7E240C7002211170002216461446DFF86CC0DFF86C800270164D655DD1
:40434000072D06D8154F57F82550012DB8BF012500E001251CF80470AFB18E46B71A05EB020A07EB080B07EB0209B9F13B0F0ADC1BF8029001320131924589B200F80E901B
:4043800001D08E46EFE701341B2C2E44D6D142701980BDE8F08F00BF109C0000589100003690FF1FCC540020F8B59DF8185004461A2D1F461CD87E230B700223137001238A
:4043C00003700C4B0C4E5B5D4570837056F8250004F0B3FE0022E07080B2111D824289B205DA56F825309B5C01326354F5E73980F8BD00BF109C0000848BFF1F2DE9F041C4
:40440000027986B0012A044688461F4D1F4E204F25D14379FF2B0CD17E232B70022333701C4B1A701B225A703C229A7003233B801BE01A2B19D8012B059203D1059A02EBEE
:40444000420203E0022B02D1059A5200059200930E4A0F4B0C490F48FFF7A6FF05E03B46324629460B48FFF75BFF01203B8802902078327800902978CDF804800548FEF79D
:4044800081FE06B0BDE8F081F78FFF1FF68FFF1FF48FFF1FD8510020034B044AC3F8E825034AC3F8EC257047E8080020FD430000C94200000D4B0E4A0E49C3F8AC250E4A06
:4044C000C3F8B4250D4AC2F8AC150D49C2F8B4150C4AC3F8A0250C4AC3F8A8250B4AC3F894250B4AC3F89C25FFF7D6BFE8080020B14800000148000005470000F4020020F0
:404500002D470000C1490000154A0000E94A0000C54B0000064B074AC3F884200432C3F88820054AC3F88C200232C3F890207047085500208CFEFF1FD402002008B5282095
:40454000FFF726FE044B002119700846FCF79AF8BDE8084000F0D8B92091FF1F70B50F4D0F4CD5F8843021681B680E4E591A0E4B61609B6A30461B680A22A360FEF73AFD6D
:404580003046FDF77DFC40F6312390FBF3F0E060C5F89800BDE8704000F0B7B9085500205490FF1F68650020C04D0020F0B51AB3002507462C4611F0070318BF012303EBF3
:4045C000D10301703E1AB34213DDEE1DAE420CDB8E4208DA640012F806E0E4B2BEF1000F18BF44F00104013EF0E707F8014F0835E8E7013398B2F0BD1046F0BDF0B506782B
:40460000964220D10024274616F0070318BF012303EBD605A54214DD3A46013410F801EF4FEAC40CD31B6245DBB208DAB24206DA4EFA03F303F001038B540132F2E7083787
:40464000E8E70020F0BD4FF0FF30F0BDF7B505461F4679230B70022302AC1370012324F8023D9DF82030254E0370D6F88430224601461868FDF780FED6F8883022462946F0
:404680001868FDF779FED6F88C30224629461888FDF75CFED6F89030224618882946FDF755FE22462946F06FFDF766FE22462946D6F89800FDF760FED6F880002246294632
:4046C000C0F3CF00FDF742FE0D4B2246D3F820012946C0F3CF00FDF739FE22462946B6F87800FDF733FE22462946B6F89C00FDF72DFEBDF806303B8003B0F0BD0855002057
:404700002091FF1F07B50A46014601A8FDF717FE044B01221A70044B002283F8302403B05DF804FB6490FF1F08550020034B01221A70034B002283F8302470476490FF1FD0
:40474000085500202DE9F0479DF830400D4621461F469046BDF92060BDF92490BDF928A0FBF790FC4FF4587363432449C818CB5C032B0DD1B8F1010FC0F820513BD1002394
:40478000A0F81071A0F81261C0F80832BDE8F087012B05D121462846BDE8F047FBF772BF022B14D14FF4587303FB0414B8F1010F4FF00003C0F8285202BFA0F81872A0F813
:4047C0001A62A0F81C92C4F84432BDE8F087042B11D1B8F1010FC0F868520CD10023A0F85872A0F85A62A0F81091A0F812A1C0F80832C0F85033BDE8F08700BF2091FF1F5C
:404800002DE9F04F8DB00CAE9946022326F8023D054631469046047890F801A0FDF7BFFDBDF82E3031465A1CEB5C83462846ADF82E200793FDF795FD314609902846FDF7DB
:4048400090FD314607462846FDF78BFD314608902846FDF786FDBDF82E10632C01F10106ADF82E6013D8012C089A099B11D8695C00B212B23FB20391029001920494009700
:404880001BB2079A59465046FFF75CFF01E0643CE4B200944B46044A04494046FFF7D6FE0DB0BDE8F08F00BFF68FFF1FF78FFF1FF0B50D46044687B00A46014605A8FDF745
:4048C0003EFD0D4F6B780D4E8DF8153032463B4605A9201DFFF794FF094A0A4901203B881278097802902078019500903046FEF749FC07B0F0BD00BFF48FFF1FD85100200A
:40490000F68FFF1FF78FFF1F70477047F7B505461F4678230B70022302AC1370012324F8023D9DF82030254E0370D6F88430224601461868FDF720FDD6F888302246294691
:404940001868FDF719FDD6F88C30224629461888FDF7FCFCD6F89030224618882946FDF7F5FC22462946F06FFDF706FD22462946D6F89800FDF700FDD6F880002246294656
:40498000C0F3CF00FDF7E2FCD6F8C00122462946C0F3CF00FDF7DAFC22462946B6F87800FDF7D4FC22462946B6F89C00FDF7CEFCBDF806303B8003B0F0BD00BF085500200F
:4049C0002DE9F043054689460379DFF844800D4F0D4E0E4C85B000933A46434631462046FFF794FF01203A7802902878B8F8003000903178CDF804902046FEF7C3FB05B0B0
:404A0000BDE8F083F68FFF1FF78FFF1FD8510020F48FFF1F034B01221A70034B002283F8302470476890FF1F08550020F7B506461F4677230B70022302AD1370012325F89F
:404A4000023D9DF82000274B4FF4667404FB00343070D4F884302A4631461868FDF78CFCD4F888302A4631461868FDF785FCD4F88C302A4631461888FDF768FCD4F890302A
:404A80002A4618883146FDF761FC2A463146E06FFDF772FC2A463146D4F89800FDF76CFCD4F880002A463146C0F3CF00FDF74EFCD4F8C0012A463146C0F3CF00FDF746FCC0
:404AC0002A463146B4F87800FDF740FC2A463146B4F89C00FDF73AFCBDF806303B8003B0F0BD00BF985D00202DE9F04305460F4687B006AC062324F8023D21460679FDF718
:404B00004EFCBDF81630214601332846ADF81630FDF727FC21462846FDF723FC21462846FDF71FFC21462846FDF71BFCBDF81630214601332846ADF81630FDF730FCBDF8B5
:404B40001630214601332846ADF81630FDF709FC21462846FDF705FC21462846FDF701FC21462846FDF7FDFB632EBDF8163088BF643EDFF84890DFF848800E4C88BFF6B2A5
:404B80000133ADF8163042464B46214600960A48FFF74CFF0120217802902878B9F80030009098F8002001970348FEF7EBFA07B0BDE8F083F78FFF1FD8510020F48FFF1F06
:404BC000F68FFF1F034B01221A70034B002283F8C82770479490FF1F985D0020012809D8054B03EB8002526B1844117890F83C300B431370704700BFD09C000001280AD811
:404C0000054B03EB8002526B184490F83C10137823EA010313707047D09C00002DE9F04172B6B44E0024062707FB04630021B3F84220D3F83E00013404F077FA0C2CAD4D57
:404C4000F2D100240A2606FB0452134653F8860FB2F88E205968013404F05CFA0A2CF2D1A548A64D002450F8041F04F1105303F1580221F0FF065933C9B20B4452005B00CE
:404C80000232934206D012F8027C12F801EC07F806E0F5E7A8420C44E5D1994B0A274FF0010E1F7083F884E2964B00251D60964B964C1A68964B974E1A60974B1A68974BC4
:404CC0001A60974B1A68974B1A60974B1A68974B1A60974A9D601D619D61137843F002031370137C43F0020313742378A2F5863243F040032370413A137843F0100313700A
:404D00008C4B03CBC2F8400DC2F8441D93E8070003C63280884A894B1068A83E186012791A71874A874B03CB1060516003CB42F8E00C42F8DC1C93E8070003C63280824A9C
:404D40000C3303CB5160814910600A780C2042F008020A707E4A612111704F21A2F5F06211807C4918220A70A1F802E00A71C88003200A7248811F2008735020CD8108740F
:404D8000042048820A75CF820A76734A93E80300724B82E8030006221A7045F20E5223F8EE2C052203F8F02C13F8F02CF03B43F2C8261D462B781B0606D54FF4F07001F089
:404DC000B3FF013EF6D1FEE7654B4FF4A5621A8001224FF040231A7042F25122614FA3F82022192600253B784FF4F07003F0010343EA450501F098FF013E05F0030578D0CB
:404E0000032DF0D1584A4FF480731380574B52211970574B57491B78A1F29B61DBB281F89B3607231370482000230B70887013705371514B04225148022119709A720378BD
:404E40004F4F43F07F03037010F8013CDFF8548143F0030300F8013C237800F5A65043F080032370474B0C301B783D78DBB298F80060EDB203F0070ED34080F800E0F6B2F1
:404E8000437045F003033B7046F0030388F800303D4B0A20197044F20F015A7419863B4940230B708B700B728B7281F80F21384A10211170012182F86B10364920220A7079
:404EC0004B71354B1A7040F20122A3F81720802283F82D2001F02AFE304B88F8006044223D702F4D1A7094E80F0007C52B80BDE8F081FEE7D09C0000FCFFFF47AC00004830
:404F00008358004000760040F4150048A043004050760040C0510040F815004808760040FC15004810760040001600481876004003500140AC150048C0150048CB51004061
:404F4000F2510040C8150048325100402243004000480040824000400041004000430040224200402542004004400040004200400F010049A146004001400040A24300401C
:404F8000F8460040CF0100490C51004001590040985A0040235B00402B5B004076580040B0430040F946004008B504F087F803680C2B00D1FEE7FEE780B51148114B002531
:404FC000C0B1A3F1100192C922460439161BB74204D051F8046F42F8046BF7E7114653F8046C8C1AA64202D041F8045BF9E701381033E5E704F068F8FBF7DAFAFEE700BF6A
:405000000100000040A00000124A134B10B51A60124A134C1368134843F4007313600023032B98BF54F823204FEA830188BF0E4A0133302B4250F3D10C4B1A780C4B1A70A6
:405040000C4B084A1A60FFF7E9FDBDE8104001F001BC00BF0004FA050CED00E014ED00E0000000000080FF1FA94F0000BC760040C080FF1F08ED00E010B501F077FD01F0BC
:4050800003FE50B9012001F0E5FD072814BF4FF0FF34072401F018FE00E00424204610BD37B5114B05461A78920713D41C78A4080ED1022101A801F06BFD02280CD19DF88C
:4050C0000430012B9DF8053018BF5B422B8005E0072405E0102401E04FF0FF3401F0F4FD204603B030BD00BF2247004073B515461E460B4C0A230022019200920A46014652
:405100001846237001F01CFC32462946207801F0F3FB0221207801F0DDFB207802B070BDF08BFF1FFBF790B9074A1023136002F68832126805491165054AE0211170A2F5F9
:4051400041721360704700BF80E100E02551000004E400E073B515461E460B4C01230022019200920A4601461846237001F0E8FB32462946207801F0BFFB0221207801F039
:40518000A9FB207802B070BDF18BFF1FFBF74CB9074A4023136002F68832126805499165054AE0211170A2F206321360704700BF80E100E08D51000006E400E0F7B5164635
:4051C0001F460C4C02250023019300930A462B4601462846257001F0B3FB3A463146207801F08AFB2946207801F074FB207803B0F0BD00BFF28BFF1F044A8000137800F0D0
:40520000040003F0FB03034313707047C05100402DE9F843374B34221A7004229A7000240622DA701C713F225C7106331A70012550229C70DC701C719D7383F87E2A0A22D5
:4052400083F87F2A2C2283F8802A442283F8814A83F8842A482283F8852A4FF00208122283F8865A83F8888A83F8892A282283F88A2AEB2283F88B2A01F05EFD81461E4F65
:405280001E4E3B78522243F003033B703378032043F0030333701A4B1A7001F047FC3B78484603F0FC033B70337803F0FC03337001F046FD134B58221A7005225C7020469D
:4052C0009A7183F807801C725C7201F0B5F943F233320D4B294613201A6001F0B9F929464F2001F02DFABDE8F84308491D2001F025BC00BF004E0040F8460040F946004075
:40530000925800409458004040660020D154000070B5244D244E00240123102033702C7001F0FCF9102001F07BFA07211D2001F013FC1E4B04221A701D4A5C701C72137827
:4053400043F0180313701B4B0A221C7083F8F54283F8F642133B1A705B225C70DC701A725E225A725C731422A3F67F231A700F232B7148F6F0536B80337815F823200E4B3C
:405380001A70337805EB830333F8022C0B4B1A803378AC71012B03D1BDE87040FFF738BF70BD00BFC290FF1FF38BFF1F96580040075B0040935800400E4E00400C4E0040C6
:4053C00070B501F0B9FC294B294D1B78294B2A4C1A78064642F001021A701A78032042F010021A701A7C42F001021A741A7C42F010021A742B78214A43F002032B7023781E
:4054000043F002032370137843F00303137001F08DFB2B781A4A03F0FD032B702378304603F0FD032370137843F006031370154B7A221A70144A137843F002031370137CB2
:4054400043F002031374537843F010035370537C43F0100353740D4A4FF000531360A2F5C0721360BDE8704001F06ABCF38BFF1FF8460040AA430040F946004091580040CA
:405480007758004082580040A143004080E200E010B5064CE3792BB9237A0BB9FFF738FF0123E371BDE81040FFF78ABFC290FF1F024A137843F0010313707047004E004086
:4054C000024A137803F0FE0313707047004E004070470000124B412210B51A70C12203F80E2C332203F80C2C00240C225A719C710C4B4FF400421A6007210F2001F02CFBC4
:4055000009490F2001F01AFB084B1C70084B1C70084B1C70084B1C70084B1C8010BD00BFD649004080E100E0D5550000526600204C660020546600205366002050660020F0
:4055400008B501F0F9FB084A137843F004031370137C43F00403137401F0F2FB034B4FF400421A6008BD00BFA543004000E100E010B5054C23781BB9FFF7ACFF012323702A
:40558000BDE81040FFF7DCBFCB90FF1F0A4B10B54FF400441C602AB1084B1A60084B1880084B1980084A00231370084A1370084B4FF400421A6010BD80E100E04866002055
:4055C0004E66002050660020546600205366002000E100E070B4534B1978C9B201F0080000F0FF0258B3504D50492A78504C12F0010F17D04F48504E02783668D2B2B25C7E
:40560000D2B22A7014221A7002784C48D2B2027002780132D2B202700A7842F011020A70082229E010221A700A7842F012020A700122434922700A7842F0100249E0C80774
:405640005CD53B4C2078C0B2042817D0082829D001284DD134493B4809780088C9B23A4D80B28142297048D210221A702A7831490A7032490A70042222703FE02F49334821
:405680000C78008880B2844237D2274A2E481278294C027010221A700A7824680078D2B2A05413E011F0020F1F4818D12349254A0C78128892B294420DD21F4C0A7824680B
:4056C000D2B2A25CD2B2027004221A700A780132D2B20A7012E0FF22027004220DE0FF21017012481A70017801F0EF010170C3E7104922700A7011490A701A701B789B0656
:405700000CD50A4A137803F0EF031370084B00221A700B4A137803F0EF03137070BCFAF73FBF00BFD7490040D84900404C6600205266002054660020486600205366002034
:40574000D64900404E660020CC90FF1F50660020F0B52C4D2C4E2F78348807F00707A4B2A0424DD0294B1A78D2B26FB934B158B92B7843F040032B703080F0BD30802B7845
:4057800003F0BF032B70F0BD02F0200202F0FF060AB31F4F1F4A00254FF0200E157087F800E03D7117F8085C05F07F0507F8085C144D2D782D0700D568B9174D2C8007246F
:4057C0001470147814F00104FBD11A7802F0DF021A70104A14701B780C4A9C060BD50E4B0029188014BF03220122013B1A701A78D207FCD4F0BD044B18801378334313703E
:40580000F0BD00BF9640004094400040A2430040104000400140004002400040044A4001137800F0200003F0DF03034313707047F0510040144B10B5012200241C701A7495
:4058400001F07AFA114A137843F01003137001F077FA0F4B0F221A7008221A740D4B04221A600521022001F077F90B49022001F065F90A4B10221A70094B1C70094B1C70AE
:40588000094B1C7010BD00BF7B6500409B6500402565004080E100E01D590000556600205A6600205C66002058660020024A137843F00203137070477B65004010B5064CA0
:4058C00023781BB9FFF7B6FF01232370FFF7EEFF024B04221A6010BDCD90FF1F00E100E0094B0A4904221A600B7803F0FD030B70074B1B780B7C03F0DF030B74054B1A603C
:40590000054B10221A70704780E100E07B6500406B65004080E200E05566002030B59649964B1B780A78DBB212F0400F0A4600F01C81D80740F1058109784539052900F2EC
:405940000081DFE811F006006E00FE00FE000600C10003F0DF0103F00A03082B35D113788548452B25D1864B1B789BB1854B864C1B681B78DBB22370844B06241C70FF24AD
:4059800003F8674C002403F8274C814B01241C70462318E07F4B1B7803F0020303F0FF048BB37D4C237843F00A0323706023037025E0764B02241C70FF2403F8674C0024A6
:4059C00003F8274C4A230370BAE00A2B40F0B880714B187840F0A00018706E48007800F0020000F0FF0470B110781C7810F0080F14BF09200A202043187060231370674B4E
:405A0000042018609CE06648037843F0200303705E4B52201870FF2003F8670C03F8274C8EE003F0020101F0FF0400292DD158485349057809788D4214D2524D01782D68A3
:405A4000C9B2695C504DC9B22970504906250D70FF2501F8675C01F8274C01780131C9B201706EE04B49097801F0020101F0FF0421B14948017841F00A014CE04848017879
:405A800041F020010170522052E042490878424900F0020000F0FF0520B1087840F09A00087039E03E4C207840F020002070374852240470FF2400F8674C00F8275C087823
:405AC00040F0900008703CE0364C374825682E4C01782478C9B2E4B26C5401780131C9B20170324900780978884209D2274902200870FF2001F8670C002001F8270C20E0D3
:405B00002449097801F0020101F0FF0451B12248017841F009010170602111701F49042008600EE01E48017841F020010170122016490870FF2001F8670C01F8274C00E098
:405B40000B46990616D51378134913F0080F087814BF0123022303430B7011490B7803F0DF030B701023137030BD0B78DB065CBF10230B7030BD00BF556600206B65004058
:405B80005B66002060660020046500407B65004058660020596600205A66002080E100E08B650040646600205C6600206866002070B5A9B1214C2578102D05D1204D2D78DF
:405BC000ED060FD5012070BD2578602D08D11D4D04262E601C4E357805F0F705357001E0022070BD45252570184D00242C70184D40002A70174AC0B21160174A1249137098
:405C00000A7813F0010302F0FD020A70134A1449107002F17702134805D032231370FF230B70047004E082241470FF220A7003700D4B04221A60002070BD00BF55660020B6
:405C40006B65004080E200E05A660020586600205B660020606600205966002004650040146500405465004000E100E070B5A9B1224C2578102D05D1214D2D78ED060FD5CB
:405C8000012070BD2578602D08D11E4D04262E601D4E357805F0F705357001E0022070BD49252570194D00242C70194D40002A70184A40F001001160174A134913700A7863
:405CC000C0B202F0FE020A70144A13F001031070134902F17702134805D032231370FF230B70047004E082241470FF220A7003700D4B04221A60002070BD00BF5566002005
:405D00006B65004080E200E05A6600205C66002068660020646600205966002004650040146500405465004000E100E0064A04231360064A1078064AC0B212785206054AC7
:405D400048BF18431360704780E100E05A6600205566002000E100E0044A04231360044A002110781170034A1360704780E100E05A66002000E100E0064B04221A60064BDF
:405D80000021197005490B7803F0FE030B70044B1A60704780E100E05C6600205A66002000E100E0064B04221A60064B0021197005490B7803F0FD030B70044B1A6070470A
:405DC00080E100E0586600205A66002000E100E008B500F0B1FF0A4A137843F02003137012F8033C43F0100302F8033C92F8FD3043F0100382F8FD30BDE8084000F0A0BF26
:405E00009B640040014B1870704700BF88640040014B1878704700BF68640040034A13785B07FCD5024B1880704700BF686400404A640040014B188880B270475A6400401C
:405E400008B50F4A0F4913789B0601D50B88FAE700F072FF0C4B1A7842F001021A701A7802F0FE021A705A7842F001025A705A7802F0FE025A70BDE8084000F061BF00BF0C
:405E8000686500405A6400409A64004008B5084B1F221A70FFF7D4FF064B08221B78064B1B78064B1A70002283F8002108BD00BF8B64004068640040686500408864004072
:405EC00010B5054C23781BB9FFF7E0FF01232370BDE81040FFF77CBFCE90FF1F074B72221A70202203F8092C062203F8652C472203F8552C022203F80A2C70478C64004038
:405F000008B500F019FF0A4A137843F02003137012F8093C43F0100302F8093C12F80A3C43F0100302F80A3CBDE8084000F008BF9C64004008B505490B781BB9FFF7CEFF31
:405F400001230B70BDE80840FFF7DABFCF90FF1F08B500F0F1FE064B1A7842F001021A701A7802F0FE021A70BDE8084000F0E8BE96640040044AC000137800F0080003F0FC
:405F8000F703034313707047C0510040044A00F00100137803F0FE0318431070704700BF005100400F4A137803F0C00343F00B031370D37F43F00103D37792F8203043F038
:405FC000010382F820304FF47A73A2F89333A2F8F33340F2DE32044B1A801322A3F222331A7070477564004048680040024A137843F08003137070477564004008B5054904
:406000000B781BB9FFF7CEFF01230B70BDE80840FFF7ECBFD190FF1F014B1880704700BF48680040FAF71ABA074A4FF40063136002F6883212680549D166054A602111701F
:40604000A2F20B321360704780E100E0256000000BE400E008B500F0CDFCBDE8084000F013BDFFF7F7BF38B5044600F065FE054600F032FD04F1804303F500431C7800F056
:4060800037FDE4B2284600F05BFE204638BD08B500F0B0FCC0B208BD38B50D46044600F065FD2B0632D400F0EFFD002830D110222146402000F08AFD072808D1164A1378F9
:4060C000154C13F0020FFAD02378980702D44FF0FF3418E023789B08F9D1104A294653784020127800F096FD0728F0D122780A4B9107FBD51A789207E9D51B789B0814BFA5
:406100004FF0FF34002400F0DFFD02E0012400E00424204638BD00BF224700407666002038B500F009FE204A04461378022543F002031370137C0A2043F00203137412F8A8
:40614000093C43F0400302F8093CD37943F04003D37102F5AB52137843F003031370134B04221A7013F8012C42F0400203F8012C13F8012C02F0FC0203F8012C0E2203F887
:40618000062CA3F597530A4A183B1D70137843F00803137000F0CAFC064B20461D60BDE8384000F0CDBD00BFAB4300400E5900402F5B004080E200E0082804D00A280CBF89
:4061C0008423C42300E0442308380E4AC0B20428137098BF0C4B4FF0000298BF33F910100A4B88BF11461A8042F210734B4341F2883103F6C41393FBF1F305490B60054B76
:406200001A8070470A590040BA9D0000746600206C6600207066002008B5102000F010FB0721012000F098FC0749012000F086FC064A0C20137843F006031370FFF7BCFF22
:40624000034B00221A8008BD71620000095900407266002010B5054C23781BB9FFF7DCFF01232370BDE81040FFF75ABFD290FF1F70470000084A137843F060031370A2F50D
:40628000A652133A137843F002031370137C43F002031374704700BF77580040054B00F003001A7802F0FC021A701A7810431870704700BF5A5800400320FFF7EFBF000095
:4062C00008B5054B1A781AB901221A70FFF7F4FFBDE80840FFF7CEBFD390FF1F044A137843F008031370137C43F0080313747047A8430040054B00F002001A7802F0FD0210
:406300001A701A7810431870704700BF2C580040064B074A1B78C3F3810303F19243063393F83831DBB21370704700BF2C5800400B460040054B00F00C001A7802F0F30227
:406340001A701A7810431870FFF7E2BF2C58004008B5064B0021197008465970FFF7EAFFBDE808400846FFF7C5BF00BF2C58004010B5064C23781BB9FFF7EAFF01232370C9
:40638000FFF7ACFF024B1C221A7010BDD490FF1F835B004073B515461E460B4C0023019300930A4601461846237000F0C9FA32462946207800F0A0FA0221207800F08AFABF
:4063C000207802B070BD00BFF48BFF1FFAF726B8074A4FF48063136002F68832126805499166054AE0211170A2F20A321360704780E100E0CD6300000AE400E0104A1378B1
:4064000003F0C00343F00B03137092F8223143F0010382F8223192F8233143F0010382F823314FF47A73A2F89A35A2F8FA3540F2DE32044B1A801322A3F225531A7070470E
:4064400076640040506A0040024A137843F08003137070477664004008B505490B781BB9FFF7CCFF01230B70BDE80840FFF7ECBFD590FF1F014B1880704700BF506A004000
:406480000E4A137803F0C00343F00B031370D37E43F00103D376137F43F0010313774FF47A73A2F89333A2F8F33340F2DE32044B1A801322A3F226331A7070477D6400405B
:4064C00050680040024A137843F08003137070477D64004008B505490B781BB9FFF7D0FF01230B70BDE80840FFF7ECBFD690FF1F014B1880704700BF50680040014B1870BE
:40650000704700BF74640040F7B516461F460B4C00230425019300930A4601462846257000F00EFA3A463146207800F0E5F90221207800F0CFF9207803B0F0BDF58BFF1F9E
:40654000F7B516461F460B4C00230525019300930A4601462846257000F0F2F93A463146207800F0C9F90221207800F0B3F9207803B0F0BDF68BFF1FF7B516461F460B4C7B
:4065800000230625019300930A4601462846257000F0D6F93A463146207800F0ADF90221207800F097F9207803B0F0BDF78BFF1FF9F7C2BF074A4FF48073136002F68832F8
:4065C000126805491166054A80211170A2F542721360704780E100E0B165000008E400E0F9F7C2BF074A4FF48053136002F68832126805491167054AC0211170A2F5437219
:406600001360704780E100E0E16500000CE400E0014B1870704700BF7A64004008B50020FEF7ECFA0120FEF7E9FA024BFF221A7008BD00BFF88BFF1F10B50446FFF7EEFFB1
:406640002046FEF7CBFA014B1C7010BDF88BFF1FF0B52C4D2C4E2F78348807F00707A4B2A0424DD0294B1A78D2B26FB934B158B92B7843F040032B703080F0BD30802B7853
:4066800003F0BF032B70F0BD02F0100202F0FF060AB31F4F1F4A00254FF0100E157087F800E03D7117F8085C05F07F0507F8085C144D2D782D0700D568B9174D2C80072480
:4066C0001470147814F00104FBD11A7802F0EF021A70104A14701B780C4ADC060BD50E4B0029188014BF03220122013B1A701A78D207FCD4F0BD044B1880137833431370DF
:40670000F0BD00BF9240004090400040A2430040104000400140004002400040034A00F0F800137803431370704700BF92400040024B4FF000521A60704700BF00E100E073
:406740002DE9F041304C314E94F800C035880CF0070CADB2A842A646374653D02C4B1A78D2B2BCF1000F0FD13DB168B9237843F0400323703080BDE8F0813080237803F00A
:40678000BF032370BDE8F08102F0020202F0FF061AB3DFF888C01F4A00244FF0020814708CF800800CF8044C1CF80C4C04F07F040CF80C4C9EF80040240700D568B9164C4B
:4067C000258007241470147814F00104FBD11A7802F0FD021A700F4A14701B780C4A9C070CD50D4B0029188014BF03220122013B1A701A78D207FCD4BDE8F08138801378FF
:4068000033431370BDE8F0810641004004410040A1430040014000400240004014400040034A00F0F800137803431370704700BF06410040014B02221A60704700E100E09A
:40684000034A00F0F800137803431370704700BF9A400040074A7F23802113705170064A013BDBB202F80839002BF9D1034A1370704700BFFC8BFF1FF87B00400078004088
:4068800017280FD8084B0001C25C11B142F0200201E002F0DF02C254C25C42F00102C25400207047012070471070004017280DD8074900010B4603441A7942F004021A7125
:4068C000435C43F00103435400207047012070471070004017280BD8064A0001835C490003F0F10301F00E011943815400207047012070471070004041F6FF73994208BF4F
:406900004FF400519A4208BF4FF4005217289FBFC00000F1804000F5EC4081809ABFC280002001207047000017289FBF034B00011954002088BF0120704700BF19700040A8
:40694000172810B51AD8C00001F07F0100F1804441EAC21204F5EC44D2B222709DF8082003F00F0343EA0213DBB263709DF80C30002003F00F03A370E07010BD012010BD85
:4069800010B500F0D9F90A4A5378182B0AD91478013B5370E30003F1804303F5F0431B78137000E0FF2400F0CBF9204610BD00BFFC8BFF1F30B504060CD411F4704509D1F4
:4069C000C40004F1804404F5F0442180A270E370284630BD012030BD03065FBFC00000F1804000F5F04081805ABFC280002001207047000070B500F0B9F800F045F908B1C0
:406A000004243AE000F07AF90728044610D11C4D2A781B4B900703D4012000F087F8F7E71A78910704D51B789B0814BF0724002400F04AF90CBB00F099F800F025F90028FE
:406A4000DED1012000F006F907280AD10C4D02210C4800F09DF80228094E05D02B789B07F5D54FF0FF3406E033789A0703D4012000F05CF8F8E700F027F9204670BD00BF72
:406A8000224700407666002008B500F055F90F4A137843F008031370137C43F0080313740B4BC8221A700B4A137843F010031370137C43F01003137402F5557213789B0684
:406AC000FCD5BDE8084000F03BB900BFA043004001470040AC430040044B1A7842F001021A701A789207FCD5704700BF02470040024A137803F0FE03137070470247004032
:406B000038B50446084DB4F5004F05D9286800F00BF9A4F50044F6E7034B58686043BDE8384000F001B900BF048CFF1F024B1B7A584300F0F9B800BF048CFF1F054A00F006
:406B40001F00126800F1100352F8230042F82310704700BF08ED00E000F01F0000F16040490100F56440C9B20170704708B500F0E3F8064A137843F008031370137C43F047
:406B800008031374BDE8084000F0DAB8A04300402DE9F0410E464B1E0A4FDFF82C80451EC418A5420BD03B78DB0703D40120FFF7BDFFF8E798F8003005F8013FF1E7304667
:406BC000BDE8F081224700402047004030B50F4C23789D0715D50E4BB6251D70D5251D7002251D702478A4070DD40C461870601A80B2824203D914F8010B1870F7E70720D7
:406C000030BD042030BD092030BD00BF224700402047004070B50D4D2C78A60712D50C4CB6262670D8262670052626702D78AD070AD42070080AC9B22070217022702370C1
:406C4000072070BD042070BD092070BD22470040204700400A4A137899070CD5094BB6211970E12119700E2119701278920704D4187007207047042070470920704700BF97
:406C8000224700402047004038B500F055F80C4A147874B901250B4915700B682B400AD00B6823F001030B6000BF00BF00BF556002E0042400E01C4600F042F8204638BDDC
:406CC000D890FF1F0400084010B500F035F8094B00215A681970012A08D1074C226842F00102226000BF00BF00BF5960BDE8104000F026B8D890FF1F04000840074B1B7818
:406D00009B0708D5064BB6221A70E0221A700D221A70072070470420704700BF2247004020470040000000000230800803D000BF01380046FCD17047EFF3108072B6704774
:406D400080F31088704700BF30B5214A21F00043934287B01BDD1F4A934205DD02460B4601F0ECFA07B030BD02AA00F029F900F0030001281AD002280FD008B3DDE9020165
:406D800001230093DDE9042301F012F9EAE70022002300F0F1FB07B030BDDDE90423DDE9020100F0E9FB01F10041DBE70090DDE90423DDE9020101F0FBF801F10041D1E709
:406DC000DDE90423DDE9020100F0D6FBCAE700BFFB21E93FFFFFEF7FF8B5C1F30A56A6F2FF35132D0A460B460446864611DC002D2EDB0F461F4929410A4225D04FF4002387
:406E00002B413B4423EA01030026194634462046F8BD332D05DDB5F5806F1FD011462046F8BDA6F213464FF0FF3121FA06F63042F4D00122C5F1330502FA05F52D1828BF20
:406E40009B1825EA0606E0E70028D7D11146E6E7013501F0004307D00026D6E702460B4601F06EFA0446D2E743F07F5343F440130026CAE7FFFF0F0030B5214A21F0004359
:406E8000934287B01BDD1F4A934205DD02460B4601F054FA07B030BD02AA00F091F800F0030001281ED0022811D0DDE9042300B3DDE9020100F060FB01F10041EAE700231D
:406EC00000930022002301F073F807B030BD01230093DDE90201DDE9042301F069F801F10041D7E7DDE90423DDE9020100F044FBD0E70124DDE90201009401F059F8C9E7FA
:406F0000FB21E93FFFFFEF7F2DE9F04F8BB004460D4600F06BFA284B064693F900A00F46BAF1FF3F12D022462B462046294601F053FE834650B94FF000084FF0000920465D
:406F4000294642464B4601F01FFE20B9304639460BB0BDE8F08F194A0123CDF820B0CDE90445CDE9024501920093BAF1000F15D042464B464046494601F0BEFCBAF1020F5C
:406F8000CDE906010CD102F099F821230360089B63B9DDE906010BB0BDE8F08FCDE90689684601F049F90028F1D1ECE702F086F8089B0360EDE700BF148CFF1FC49D000097
:406FC0002DE9F04F944C21F00047A7428FB040F381801446914A0E46974226DC84A3D3E90023002940F3A08101F0A8F98C4B80469F42894600F083807FA3D3E9002301F0FD
:407000009DF902460B464046C4E90023494601F095F979A3D3E9002301F090F90125C4E9020128460FB0BDE8F08F7E4A974240F383807D4A974258DC3D15A5F21645A7EBA0
:4070400005518B46824601F0DDFD01F0C5FA8046894642464B4650465946CDE9088901F06DF90022714B01F01DFB8B46824601F0C9FD01F0B1FA8046894642464B4650460E
:407080005946CDE90A8901F059F90022674B01F009FB00220023CDE90C0101F06BFD002800F06A81002340464946002201F062FD002814BF012302235D48022101900091A0
:4070C0002A46214608A800F07BFB002EC0F24A81054606E0C2E9000100250024C2E90245002528460FB0BDE8F08F02460B4601F025F90025C4E90201C4E90001F1E740A384
:40710000D3E9002301F01AF93FA3D3E9002306460F4601F013F902460B463046C4E90023394601F00BF938A3D3E9002301F006F90125C4E90201D4E700F0F0FF34A3D3E90D
:4071400000238046894601F0ADFA0022394B01F0F7F801F057FD054601F03EFA24A3D3E90023CDE9040101F09DFA02460B464046494601F0E3F820A3D3E9002382468B46E2
:40718000DDE9040101F08EFA1F2DCDE9020155DC294B6A1E53F822309F424FD002460B465046594601F0CAF802460B4681468846C4E900234A4643465046594601F0BEF848
:4071C000DDE9022301F0BAF802460B46002EC4E9022386DA4A4608F1004301F1004184E80C00E160A0606D427BE700BFAFF3008000004054FB21F93F3163621A61B4D03D44
:407200000000601A61B4D03D7370032E8A19A33B83C8C96D305FE43FFB21E93F7BD90240FB21F93FFB213941FFFFEF7F000070414C9E00000000E03FCC9D0000DDE90223AC
